S00B000061726D2E73726563D9
S21440000058350020012A4000FD294000FD294000C7
S214400010FD294000FD294000FD2940000000000069
S214400020000000000000000000000000FD29400025
S214400030FD29400000000000FD294000FD29400049
S214400040FD294000FD294000FD294000FD294000D3
S214400050FD294000FD294000FD294000FD294000C3
S214400060FD2940009D2D4000B12D4000C52D40008B
S214400070D92D4000ED2D4000FD294000FD294000CF
S214400080FD294000FD294000FD294000FD29400093
S214400090FD294000FD294000FD294000FD29400083
S2144000A0FD294000FD294000FD294000FD29400073
S2144000B0FD294000FD294000FD294000FD29400063
S2144000C0FD294000FD294000FD294000FD29400053
S2144000D0FD294000FD294000FD294000FD29400043
S2144000E0FD294000FD294000FD294000FD29400033
S2144000F0FD294000FD29400010B5054C237833B952
S214400100044B13B10448AFF300800123237010BDA5
S2144001103C04002000000000F44040000C4B43B17B
S2144001200C480D4910B5AFF300800C48036823B95E
S21440013010BD0A48036833B97047094B002BF7D007
S214400140BDE810401847064B002BF5D0184700BFB7
S21440015000000000F440400040040020F44040000E
S2144001600000000080B483B000AF78607B68072B47
S21440017025D801A252F823F0990140009F01400083
S214400180A5014000AB014000AF014000B301400074
S214400190B7014000BB0140004FF4FA4310E04FF473
S2144001A000430DE04FF400430AE0084B08E0084BDC
S2144001B006E0084B04E0074B02E0064B00E0002355
S2144001C018460C37BD465DF8047B704700093D0075
S2144001D000127A00001BB70080B500AF0620034B24
S2144001E0984703461B01184680BD00BF6501400086
S2144001F080B500AF024B984703465B08184680BD63
S214400200D901400080B500AF024B984703465B08D3
S214400210184680BDD901400080B582B000AF7860F6
S2144002207868034B984700BF0837BD4680BD00BF7F
S2144002301532400080B582B000AF78603960104B10
S214400240984702463B681A603B6800225A727B68B1
S2144002500C4A934203D111200B4B984706E07B682B
S2144002600A4A934202D11220074B98473968786869
S214400270074B9847034618460837BD4680BD00BF23
S2144002800502400000800A401902400000C00A40B3
S2144002902133400080B500AF034B9847034B984747
S2144002A0034B984700BF80BDB1034000690640003D
S2144002B0E503400080B58AB000AFBA607B60034675
S2144002C0FB730B46BB73FB7B87F82430BB7B3B75CD
S2144002D00123BB61BB68FB617B683B6207F114038B
S2144002E019460448044B9847034618462837BD46E7
S2144002F080BD00BF00800A408533400000000000FB
S214400300F0B583B000AF78607B68002B26D07B6862
S2144003101D464FF00006224B984703464FF0000418
S21440032003FB06F105FB04F20A44A5FB0334224412
S214400330144643F2AF614FF000025D1844EB0206EC
S21440034028463146174C43F2B0624FF00003A047B0
S21440035003460C461846144B984716E0104B9847F1
S21440036003464FF000040CA2D2E900125D1844EB9D
S2144003700206284631460B4C0C4A4FF00003A04775
S21440038003460C461846084B984700BF0C37BD46F8
S214400390F0BD00BFAFF300807F9FD5000000000097
S2144003A0F10140000D34400001000020809FD50040
S2144003B080B584B000AF3B1D00221A605A609A6038
S2144003C0054BBB603B1D19460448054B984700BF8C
S2144003D01037BD4680BD00BFA086010000800A40A1
S2144003E03502400080B582B000AF0920104B9847D8
S2144003F04FF07C424FF0C0510E480F4B98470F4B82
S214400400984700200E4B98470346FB71FB79012B1B
S21440041006D100BF00200B4B98470346022BF9D16C
S214400420FB79002BEDD100BF0837BD4680BD00BF2D
S21440043019024000000E0E4019304000691C400072
S2144004404D1D4000AD1C400080B483B000AF7860C6
S2144004507B68072B25D801A252F823F07D04400084
S21440046083044000890440008F0440009304400009
S214400470970440009B0440009F0440004FF4FA431A
S21440048010E04FF400430DE04FF400430AE0084B01
S21440049008E0084B06E0084B04E0074B02E0064B3A
S2144004A000E0002318460C37BD465DF8047B7047D5
S2144004B000093D0000127A00001BB70080B500AF6F
S2144004C00620034B984703461B01184680BD00BFD5
S2144004D04904400080B500AF024B984703465B088E
S2144004E0184680BDBD04400080B582B000AF1B4BAF
S2144004F09847786026201A4B9847FA227968194818
S214400500194B98471748194B9847194B00221A60C1
S214400510174B03221A71164B0F22DA71144B002226
S2144005205A71134B0022DA6011490E48114B984716
S2144005300F4B4FF4E0121A610D4B0F4A9A610C4B69
S2144005400E4ADA610A4B08229A71094905480C4B53
S214400550984700BF0837BD4680BD00BFD504400061
S21440056015324000004001401D2F4000F92E40004B
S214400570040500200D2E400078563412214365872E
S2144005808F2E400080B500AF01210248024B9847AD
S21440059000BF80BD00400140012E400080B483B0C3
S2144005A000AF0346FB7197F90730002B0BDB094978
S2144005B097F907305B09FA7902F01F02012000FA2A
S2144005C002F241F8232000BF0C37BD465DF8047B9D
S2144005D0704700BF00E100E080B483B000AF034640
S2144005E0FB7197F90730002B0CDB094997F9073068
S2144005F05B09FA7902F01F02012000FA02F260332A
S21440060041F8232000BF0C37BD465DF8047B704799
S21440061000E100E080B483B000AF03463960FB7170
S21440062097F90730002B0ADB0D4997F907303A68EF
S214400630D2B21201D2B20B4483F800230AE0094931
S214400640FB7903F00F03043B3A68D2B21201D2B2F0
S2144006500B441A7600BF0C37BD465DF8047B7047E6
S21440066000E100E000ED00E0B0B584B002AF012349
S214400670FB7142E0FB791B013C4A134418463C4B55
S21440068098470446FB791B01384A13441846394BB1
S21440069098470346384A19462046384B9847FB79D0
S2144006A01B01324A13441846314B98470446FB799F
S2144006B01B012E4A13441846314B98470546FB7992
S2144006C01B012A4A134418462A4B984703461A46A3
S2144006D02C4B00935023294620462B4CA047FB79B1
S2144006E01B01224A13441846284B9847034618468F
S2144006F0274B9847FB790133FB71FB79632BB9D9BC
S2144007000920244B984700210920234B984709206D
S214400710224B98470A201F4B984700210A201E4B21
S21440072098470A201D4B98470B201A4B98470021A4
S2144007300B20194B98470B20184B98470C20154B0D
S214400740984700210C20144B98470C20134B984791
S2144007500D20104B984700210D200F4B98470D2039
S2144007600E4B984700BF0837BD46B0BD28394000FD
S214400770B7074000E707400009000028AB304000BC
S214400780CF074000A10740002D2D40000108400043
S21440079013314000D9054000150640009D05400035
S2144007A080B483B000AF7860396000BF0C37BD4678
S2144007B05DF8047B704780B483B000AF78607B6898
S2144007C01B6818460C37BD465DF8047B704780B4FE
S2144007D083B000AF78607B685B6818460C37BD46D0
S2144007E05DF8047B704780B483B000AF78607B6868
S2144007F09B689BB218460C37BD465DF8047B704735
S21440080080B483B000AF78607B68DB689BB21846E4
S2144008100C37BD465DF8047B7047000098B500AFC6
S214400820094B3C221A70084B084A5A60064B084A45
S2144008309A600548074B984700230022064902481D
S214400840064CA04700BF98BD24050020B5024000D6
S2144008500103400061084000683F40003D094000F9
S21440086080B582B000AF78607B68002B03D07B6891
S2144008705B68002B01D1012303E07868034B98475F
S214400880002318460837BD4680BD00BF9909400082
S21440089090B583B000AF78600B46FB707B685C68B1
S2144008A07B681878FA1C01238021A0470346002B5A
S2144008B001D0022300E0002318460C37BD4690BD09
S2144008C090B583B000AF78600B46FB707B685C6881
S2144008D07B681878FA1C01234021A0470346002B6A
S2144008E001D0022300E0002318460C37BD4690BDD9
S2144008F080B584B000AF78600B46FB701346BB7083
S2144009000023BB604023FB60BB789B0007F11002CE
S214400910134453F8083CDAB2FB781344DBB25BB2BC
S21440092063F07F035BB2DBB219467868024B9847A8
S21440093000BF1037BD4680BD9108400080B586B0E8
S21440094000AFF860B96011461A460B46FB71134675
S214400950BB710023FB75BA79FB791946F8680C4BD6
S21440096098470AE0FB7DBA6813441B781946F86836
S214400970084B9847FB7D0133FB75FB7DBA681344F3
S2144009801B78002BEED100BF1837BD4680BD00BF98
S214400990F1084000C108400080B584B000AF7860E0
S2144009A00023FB600023BB60204AFB6812F813302C
S2144009B0042B2ED801A252F823F000BF130A4000A1
S2144009C00D0A4000D1094000E5094000F909400001
S2144009D0164AFB685B0013445B7819467868144BEC
S2144009E0984717E0114AFB685B0013445B7819464A
S2144009F07868104B98470DE07B689A680B49FB680F
S214400A005B000B445B781846904703E00123BB60CD
S214400A1000E000BFFB680133FB60BB68002BC3D01F
S214400A20002318461037BD4680BD00BF703F4000CB
S214400A3091084000C108400080B500AF054B98477C
S214400A40054B9847054B9847054B9847054B9847A5
S214400A5000BF80BD5D2C4000112140009502400043
S214400A60E90440001D08400080B500AF034B98479E
S214400A704FF47A70024B984700BF80BD8505400012
S214400A800103400080B487B000AFF86008461146C6
S214400A901A4603467B810B463B811346FB717A8997
S214400AA03B89D31A0733002B00DA0733DB10013BB0
S214400AB0FA6813441B781A463B8903F0070342FA48
S214400AC003F37B613B8903F00702FB791344082B51
S214400AD016DD7A893B89D31A0733002B00DA0733B1
S214400AE0DB10023BFA6813441B781A463B8903F036
S214400AF00703C3F1080302FA03F37A6913437B61E1
S214400B003B8903F00702FB791344102B16DD7A89E4
S214400B103B89D31A0733002B00DA0733DB10033B3D
S214400B20FA6813441B781A463B8903F00703C3F15F
S214400B30100302FA03F37A6913437B613B8903F09F
S214400B400702FB791344102B16DD7A893B89D31AAA
S214400B500733002B00DA0733DB10033BFA681344F5
S214400B601B781A463B8903F00703C3F1100302FAC9
S214400B7003F37A6913437B61FB79012202FA03F39C
S214400B80013B7A6913407B617B6918461C37BD463A
S214400B905DF8047B7047000080B582B000AF41F23C
S214400BA068037B60174944F20150174B9847034649
S214400BB083F00103DBB2002B01D000231EE0134B71
S214400BC0984738603B68002B0FDA3B6803F0C04319
S214400BD0B3F1804F10D10E4B1B680D4A1268D27A83
S214400BE042F00802D2B2DA7206E07B685A1E7A6099
S214400BF0002BD7D1002301E000BF01231846083759
S214400C00BD4680BD00801F403D26400081264000F6
S214400C107C04002080B586B000AF0346FB7140F6EA
S214400C2034033B61002141F23710214B984703467D
S214400C3083F00103DBB2002B01D0002334E04FF4F5
S214400C40FC137B61FB79002B03D07B6943F0804328
S214400C507B61796944F22950154B9847034683F0E7
S214400C600103DBB2002B01D000231DE0114B984757
S214400C70F860FB68002B0EDAFB6803F08043002B1D
S214400C8010D00D4B1B680C4A1268D27A42F008020C
S214400C90D2B2DA7206E03B695A1E3A61002BC1D1E5
S214400CA0002301E000BF012318461837BD4680BD2B
S214400CB03D264000812640007C04002080B582B05E
S214400CC000AF002144F20550234B9847034683F07B
S214400CD00103DBB2002B01D0012339E01F4B9847BC
S214400CE078607B6803F0E043002B01D101232FE0BE
S214400CF041F288333B607B6803F4FC13194644F2A8
S214400D000550154B9847034683F00103DBB2002B92
S214400D1001D000231CE0114B984778607B68002B7D
S214400D2006DB3B685A1E3A60002BE4D100230FE0F6
S214400D3000BF7B6803F00063002B04D0084B1B68A1
S214400D400522DA7203E0064B1B680422DA7201239E
S214400D5018460837BD4680BD3D26400081264000E7
S214400D607C04002090B58BB002AF0923BB61002302
S214400D70BB750FE0BB7D3A46134400930023BA6927
S214400D8000210020464CA047BB690133BB61BB7DB8
S214400D900133BB75BB7D032BECD93B781A467B7879
S214400DA01B021A44BB781B041A44FB781B061344E8
S214400DB0BB61BB69FB610023BB750FE0BB7D3A1D81
S214400DC0134400930023FA6900210020344CA047C6
S214400DD0FB690133FB61BB7D0133BB75BB7D022BD9
S214400DE0ECD93B79FF2B01D1002355E03B79222BF0
S214400DF002D1BB79002B12D07B79002B01D1002386
S214400E004AE07B791A46FB691344013BFB61BB69A8
S214400E1003F58072FB699A42CDD200233CE000BFC6
S214400E20FB69033BFB610023BB750FE0BB7D3A1DAE
S214400E30134400930023FA6900210020184CA04771
S214400E40FB690133FB61BB7D0133BB75BB7D052B65
S214400E50ECD97B7AFB75FB7D322B01D93223FB75AF
S214400E60FB7D03F007030F4A52F823303B61FB7DBE
S214400E70DB08DBB203F00F030B4A52F82330FB606B
S214400E800A4B1B683A69F96801FB02F24FF47A7123
S214400E9001FB02F21A60012318462437BD4690BD76
S214400EA035154000BC3F4000D83F40007C04002041
S214400EB090B585B002AFFB1D0093002308220021A9
S214400EC00020154CA047034683F00103DBB2002BFD
S214400ED001D000231CE0FB795BB2002B01DB012331
S214400EE016E00223FB71FB1D00930123072200211D
S214400EF00120094CA047034683F00103DBB2002BD8
S214400F0001D0002304E0054B1B6804225A730123DA
S214400F1018460C37BD4690BD351540007C04002071
S214400F2090B585B002AFFB1D00930023132200212D
S214400F300020194CA047034683F00103DBB2002B88
S214400F4001D0002324E0FB7903F00103002B01D1FC
S214400F5001231DE00223FB71FB1D00930123132296
S214400F60002101200C4CA047034683F00103DBB26E
S214400F70002B01D000230BE0084B1B6801229A7718
S214400F80064B1B68054A1268126852001A60012315
S214400F9018460C37BD4690BD351540007C040020F1
S214400FA090B593B002AF3B464022002118462F4BE7
S214400FB0984701230093012340222D492D482E4C6B
S214400FC0A047034683F00103DBB2002B01D0002389
S214400FD047E03B4601211846284B9847034683F096
S214400FE00103DBB2002B01D000233AE0244B9847A4
S214400FF0034683F00103DBB2002B01D0002330E030
S214401000204B9847034603F08003002B01D0002373
S21440101027E0384604234FF4BC724FF400711A4C54
S214401020A04703460F2B01D101231AE03846102370
S2144010304FF488724FF40071134CA0470346002BC0
S21440104001D000230DE0114B9847114B1B6801223D
S2144010509A770F4B1B680E4A1268126852001A6045
S214401060012318464437BD4690BD00BF6D3740004B
S21440107001FFFF800611080009274000CD284000E8
S2144010806D29400081264000850A40000126400028
S2144010907C04002080B584B000AF0346FB71FB792A
S2144010A0042B04D0082B05D1134BFB6005E0134BF3
S2144010B0FB6002E0124BFB6000BFF96843F206108B
S2144010C0104B9847034683F00103DBB2002B01D058
S2144010D000230DE00C4B9847034603F08003002B9B
S2144010E001D0002304E0094B1B68FA795A730123A8
S2144010F018461037BD4680BD0002B7010001B70153
S2144011000000B7013D264000812640007C040020B8
S21440111080B500AF104943F20610104B984703467F
S21440112083F00103DBB2002B01D0002311E00C4B0F
S2144011309847034603F08003002B01D0002308E0C5
S214401140084B1B6801229A77064B1B68064A1A60B2
S2144011500123184680BD00BF0001B9033D2640006C
S214401160812640007C0400200075190380B584B0B9
S21440117000AF78607B6800221A704FF4D57145F254
S2144011800850114B9847034683F00103DBB2002B0F
S21440119001D0012314E00D4B9847F860FB68B3F18B
S2144011A0FF3F01D101230BE0FB68C3F30B03B3F50C
S2144011B0D57F01D0002303E07B6801221A7001230B
S2144011C018461037BD4680BD3D264000812640006B
S2144011D090B589B002AF78600023009301234FF4A6
S2144011E0007200213348344CA047034683F0010385
S2144011F0DBB2002B01D0002358E00023FB820FE037
S21440120007F1100318462D4B9847034683F0010319
S214401210DBB2002B01D0002348E0FB8A0133FB827F
S214401220FB8A312BECD93B69DBB203F00203DAB21E
S2144012307B681A70224B1B6803F10E000C233E227B
S2144012408021204CA047024640F6FF739A4229D19F
S2144012500FE007F10C031846184B9847034683F0F7
S2144012600103DBB2002B01D000231FE0FB8A0133D1
S214401270FB82FB8A352BECD9114B1B68FA68520867
S2144012805A600FE007F10C0318460C4B984703468C
S21440129083F00103DBB2002B01D0002306E0FB8A7B
S2144012A00133FB82FB8A7F2BECD9012318461C377F
S2144012B0BD4690BD0811080009274000312840006F
S2144012C07C040020850A400080B500AF0C4B1B68AC
S2144012D01B891B04194641F609300A4B98470346BA
S2144012E083F00103DBB2002B01D0002306E0044B61
S2144012F01B680E331846044B98470123184680BD9A
S2144013007C0400203D26400099264000B0B584B0BD
S21440131000AF484B1B6803F10E0004237A2280215D
S214401320454CA0470346013B032B0BD801A252F87D
S21440133023F000BF4F134000591340006313400092
S2144013406D1340003B4B1B6812221A7313E0394B57
S2144013501B6814221A730EE0364B1B6822221A733F
S21440136009E0344B1B6830221A7304E0314B1B688B
S21440137040221A7300BF2F4B1B6803F10E00082350
S214401380602280212C4CA047F860FB6803F00703DE
S2144013902A4A52F82330BB60FB68DB0803F00F0391
S2144013A0274A52F823307B60224B1B68BA6879681C
S2144013B001FB02F24FF47A7101FB02F21A601D4BF8
S2144013C01B6803F10E000C233E2280211A4CA047D6
S2144013D0024640F6FF739A4228D0164B1B6803F12C
S2144013E00E000C233E228021134CA04703465C1C73
S2144013F0104B1B6803F10E0003232F2280210E4D55
S214401400A8470346023304FA03F33B60094B1C68C3
S214401410084B1B6803F10E00042350228021064D22
S214401420A84702463B6893409B0A636000BF10375C
S214401430BD46B0BD7C040020850A4000BC3F40004D
S21440144018404000B0B584B000AF364B1B6803F17F
S2144014500E00082360228021334CA047F860FB68CA
S21440146003F00703314A52F82330BB60FB68DB08C1
S21440147003F00F032E4A52F823307B60294B1B683B
S214401480BA68796801FB02F24FF47A7101FB02F206
S2144014901A60244B1B6803F10E0002237E22802133
S2144014A0214CA0470346002B0FD01E4B1C681D4BFB
S2144014B01B6803F10E001623302280211A4DA847E0
S2144014C0034601335B02636028E0164B1B6803F15A
S2144014D00E000C233E228021134CA04703465C1C82
S2144014E0104B1B6803F10E0003232F2280210E4D64
S2144014F0A8470346023304FA03F33B60094B1C68D3
S214401500084B1B6803F10E00042350228021064D31
S214401510A84702463B6893409B0A636000BF10376B
S214401520BD46B0BD7C040020850A4000BC3F40005C
S214401530D83F400080B582B000AF3A601A460346B6
S214401540FB710B46BB7113467B713B691B781A4691
S214401550FB79DB071A43BB791B071A437B79DB060B
S2144015601A433B685B021343194641F234300A4B38
S2144015709847034683F00103DBB2002B01D00023DB
S21440158006E0064B98470346DAB23B691A700123D9
S21440159018460837BD4680BD3D264000812640009F
S2144015A080B500AF124B1B681B891B04194641F2DD
S2144015B03710104B9847034683F00103DBB2002BED
S2144015C001D0002311E0022141F20610094B984752
S2144015D0034683F00103DBB2002B01D0002304E076
S2144015E0034B1B6804225A730123184680BD00BF74
S2144015F07C0400203D26400090B585B002AF364BB7
S2144016001B681B891B04194641F23710334B984719
S214401610034683F00103DBB2002B01D0002357E0E2
S214401620012300930123082200212D482D4CA0477A
S214401630034683F00103DBB2002B01D0002347E0D2
S2144016403B4601211846284B9847034683F0010342
S214401650DBB2002B01D000233AE0244B98470346E8
S21440166083F00103DBB2002B01D0002330E0384684
S2144016700423382240211E4CA0470346012B09D0A4
S214401680012B02D3022B0AD01CE0134B1B681022FE
S2144016901A731CE0104B1B681A221A7317E0384660
S2144016A001232F224021124CA0470346012B04D190
S2144016B0094B1B6830221A7309E0074B1B6820222F
S2144016C01A7304E0044B1B6810221A7300BF0123F0
S2144016D018460C37BD4690BD7C0400203D26400091
S2144016E03311080009274000CD2840006D294000EE
S2144016F0850A400080B582B000AF0346FB71FB7997
S214401700002B01D0042340E0FB79224A5B011344BE
S2144017100A331B78042B07D0FB791E4A5B0113441F
S2144017200A331B78032B1AD1FB791A4A5B01134400
S2144017300A3302221A70FB79164A5B011344164A92
S2144017401A60FB79134A5B0113440D3301221A7069
S214401750FB79104A5B0113441E3300221A700F4A6D
S214401760FB791370FB795B010A4A13440C4A1360F9
S2144017700C4B9847FB79074A5B0113440A331B78A6
S214401780022B0CBF01230023DBB218460837BD46A8
S21440179080BD00BF58040020801A06007804002050
S2144017A07C040020A917400098B500AF094B187874
S2144017B0094B1B681968084B1B685A7B064B1B680D
S2144017C09B7F002B14BF01230023DBB2034CA047B2
S2144017D000BF98BD780400207C04002051254000BE
S2144017E080B500AF054B1B78002B04D1034B1B780C
S2144017F01846034B984700BF80BD00BF78040020C2
S214401800E925400090B585B002AF0023FB71082360
S214401810BB719A4B1B680122DA72984B1B680022F8
S2144018201A73964B1B6800221A81954B9847BB1D2E
S21440183000930023062200210120924CA04700215D
S2144018404FF48040904B9847034683F00103DBB249
S214401850002B01D000230DE1FB1D18468B4B98470B
S214401860034683F00103DBB2002B01D0002301E1E5
S214401870874B9847034683F00103DBB2002B01D029
S2144018800023F7E07D4B1B68DB7A03F00103002B57
S21440189011D0FB7918467F4B9847034683F00103E7
S2144018A0DBB2002B07D0754B1B680222DA727A4BEC
S2144018B098470346DEE0714B1B68DB7A03F0010372
S2144018C0002B0CD0002145F602306F4B984703465C
S2144018D083F00103DBB2002B01D00023CAE00021D5
S2144018E045F20310684B9847034683F00103DBB28A
S2144018F0002B01D00023BDE0604B1C68674B984727
S21440190003461B0C9BB223815C4B1B68DB7A03F0BF
S2144019100103002B0BD0624B9847034683F001032C
S214401920DBB2002B01D00023A4E05E4B9847534B1C
S2144019301B681B891B04194643F20710524B9847F5
S214401940034683F00103DBB2002B01D0002391E075
S2144019504A4B1B68DB7A03F00103002B09D0524B3D
S2144019609847034683F00103DBB2002B01D00023E7
S21440197080E0424B1B68DB7A03F00403002B09D05F
S2144019804A4B9847034683F00103DBB2002B01D055
S21440199000236FE0464B1B781846464B9847034655
S2144019A0032B23D9354B1B68DB7A03F00403002B4B
S2144019B009D0414B9847034683F00103DBB2002B26
S2144019C001D0002356E02D4B1B68DB7A03F0010361
S2144019D0002B09D0394B9847034683F00103DBB20E
S2144019E0002B01D0002345E0354B9847354B9847B0
S2144019F00346002B28D0214B1B68DB7A03F00403F8
S214401A00002B09D0304B9847034683F00103DBB2E6
S214401A10002B01D000232DE0184B1B68DB7A03F027
S214401A200103002B0ED0154B1B681B7B102B09D9CE
S214401A30264B9847034683F00103DBB2002B01D0C8
S214401A40002317E01E4B98470C4B1B68DB7A03F0CD
S214401A500103002B0DD04FF4007141F210100A4BD9
S214401A609847034683F00103DBB2002B01D00023E6
S214401A7000E0012318460C37BD4690BD7C0400208C
S214401A8001264000351540003D2640006D114000BF
S214401A90BD0C4000150C4000D11A40008126400085
S214401AA0C912400045144000F9154000650D40003D
S214401AB0780400201D254000B10E4000A1154000CE
S214401AC0A91740003F254000210F4000A10F4000CD
S214401AD080B582B000AF00214FF48040564B984707
S214401AE0034683F00103DBB2002B01D000239FE0C6
S214401AF0524B9847034683F00103DBB2002B01D0DC
S214401B00002395E0002145F602304B4B98470346AC
S214401B1083F00103DBB2002B01D0002388E0484B62
S214401B201B6801221A81464B1B681B891B041946F9
S214401B3041F20310404B9847034683F00103DBB263
S214401B40002B01D0002373E03E4B9847034683F0BA
S214401B500103DBB2002B01D0002369E03A4B9847E3
S214401B60374B1B681B891B04194643F20710324B40
S214401B709847034683F00103DBB2002B01D00023D5
S214401B8056E02F4B1B681B7B3F2B3BD9BB1D184693
S214401B902E4B9847034683F00103DBB2002B01D05F
S214401BA0002345E02A4B1B7818462A4B98470346A5
S214401BB0032B12D9264B1B781846264B98470346CC
S214401BC01846254B9847034683F00103DBB2002BAB
S214401BD001D000232CE0214B9847214B98470346E1
S214401BE0002B11D0BB79002B0ED01E4B98470346D6
S214401BF083F00103DBB2002B01D0002318E0174B23
S214401C00984701E0154B98470A23FB710AE04FF4CA
S214401C10007141F21010084B98470346002B01D044
S214401C20012305E0FB795A1EFA71002BEFD1002301
S214401C3018460837BD4680BD3D264000990B4000FB
S214401C407C040020C91240000D134000D111400012
S214401C50780400201D25400095104000A91740003C
S214401C603F2540001111400080B582B000AF0023F0
S214401C70FB7109E0FB790A4A5B0113440A330422EC
S214401C801A70FB790133FB71FB79002BF2D0054BC0
S214401C90FF221A70044B984700BF0837BD4680BDE8
S214401CA05804002078040020E524400080B584B025
S214401CB000AF0346FB71FB791846114B9847034625
S214401CC0FB73FB7B012B03D00E4B9847FB7B13E04B
S214401CD00D4B98470346002B07D00C4B1B68002241
S214401CE09A72084B9847012306E0084B1B6803226C
S214401CF09A72044B9847032318461037BD4680BD5A
S214401D00F5164000E1174000051840007C0400200E
S214401D1080B582B000AF0346FB71FB791846084B8E
S214401D2098470346002B01D0002304E0054B984714
S214401D30054B1B68DB7A18460837BD4680BD00BF9A
S214401D40F5164000E11740007C04002010B504461C
S214401D500F4B9847012818D018B1022810D0012000
S214401D6010BD0C4B1B5D0BB1022010BD20460A4B2C
S214401D70984700F00300002814BF0020022010BD42
S214401D800022044B1A55022010BD032010BD00BF90
S214401D90AD1C400080040020111D400080B582B07C
S214401DA000AF78607868034B984700BF0837BD4659
S214401DB080BD00BF1532400080B500AF0920084BFB
S214401DC098470A20064B98470B20054B98470C200F
S214401DD0034B98470D20024B984700BF80BD00BF7D
S214401DE09D1D400080B489B000AF78607B68FB6181
S214401DF0FB69BB61BB695A09FB697B617B6903F080
S214401E001F03012101FA03F33A61FB603B69BB60A3
S214401E10BB6803F5001303F207735B021A46FB68C0
S214401E20536000BF2437BD465DF8047B704780B4DE
S214401E308DB000AF786039607B68FB623B68BB6200
S214401E40FB6A7B627B6A5A09FB6A3B623B6A03F029
S214401E501F03012101FA03F3FA61BB61BB6A7B6190
S214401E60FB693B613B6903F5001303F207735B02B2
S214401E70FB607B6903F00803002B03D0FB68BA695C
S214401E805A6602E0FB68BA691A667B6903F010037B
S214401E90002B04D0FB68BA69C3F8942003E0FB68C3
S214401EA0BA69C3F890207B6903F02003002B03D067
S214401EB0FB68BA691A6502E0FB68BA695A657B69CD
S214401EC003F0C003002B03D0FB68BA691A6202E035
S214401ED0FB68BA695A627B6903F08003002B04D022
S214401EE0FB68BA69C3F8842003E0FB68BA69C3F8A4
S214401EF080207B6903F00103002B06D0FB681A6F35
S214401F00BB691A43FB681A6706E0FB681A6FBB6931
S214401F10DB431A40FB681A677B6903F00203002B19
S214401F2006D0FB685A6FBB691A43FB685A6706E0DF
S214401F30FB685A6FBB69DB431A40FB685A6700BFB1
S214401F403437BD465DF8047B704780B48DB000AF33
S214401F5078600B46FB707B68FB62FB7887F82B301B
S214401F60FB6A7B627B6A3B623B6A5B09FB61FB699F
S214401F7003F5001303F207735B02BB6197F82B303F
S214401F80012B09D1FB6A7B617B6903F01F030122A9
S214401F909A40BB691A610CE097F82B30002B08D1A9
S214401FA0FB6A3B613B6903F01F0301229A40BB6911
S214401FB05A61FB6AFB60FB6803F01F0301229A40EC
S214401FC0BB69C3F8A02000BF3437BD465DF8047B2C
S214401FD0704780B48BB000AF78600B46FB707B6870
S214401FE07B62FB7887F823307B6AFB61FB69BB61C9
S214401FF0BB695B097B617B6903F5001303F20773DA
S2144020005B023B6197F82330002B09D07B6AFB606C
S214402010FB6803F01F0301229A403B691A6308E0FD
S2144020207B6ABB60BB6803F01F0301229A403B6992
S2144020305A6300BF2C37BD465DF8047B70470000EE
S21440204080B48DB000AF78600B46FB707B68FB6257
S214402050FB7887F82B30FB6A7B627B6A5A09FB6AFF
S2144020603B623B6A03F01F03012101FA03F3FA6166
S214402070BB6197F82B30FB75FB693B613B6903F509
S214402080001303F207735B02FB60FB7D013B032BEF
S2144020902ED801A252F823F0CD204000DF20400089
S2144020A0A9204000BB204000FB68BA69C3F8C420A2
S2144020B0FB68BA69C3F8D0201FE0FB68BA69C3F86A
S2144020C0C420FB68BA69C3F8D42016E0FB68BA6936
S2144020D0C3F8C020FB68BA69C3F8D0200DE0FB689F
S2144020E0BA69C3F8C020FB68BA69C3F8D42004E0D4
S2144020F0FB68BA69C3F8B42003E0FB68BA69C3F862
S214402100B02000BF3437BD465DF8047B704700BF43
S21440211080B500AF344B4FF400425A60334B98477B
S21440212001217620324B984701217620314B984743
S214402130002102202E4B9847882102202E4B98479C
S214402140022102202D4B984702214C202A4B9847CB
S2144021504C202B4B984702214F20274B98474F2027
S214402160274B984701218220214B98470121832005
S2144021701F4B984702211C201F4B98471C20204B82
S214402180984702211D201C4B98471D201C4B984702
S21440219002211E20184B98471E20194B98470221B3
S2144021A01F20154B98471F20154B984702211A2091
S2144021B0114B98471A20124B984702211B200E4B72
S2144021C098471B200E4B9847002103200A4B984700
S2144021D003200B4B984700210420074B98470420C8
S2144021E0074B984700BF80BD50180E40B91D4000B1
S2144021F04B1F4000D31F40002F1E40004120400090
S214402200E51D400080B483B000AF78607B68072B44
S21440221025D801A252F823F0392240003F22400040
S214402220452240004B2240004F22400053224000AF
S214402230572240005B2240004FF4FA4310E04FF430
S21440224000430DE04FF400430AE0084B08E0084B1B
S21440225006E0084B04E0074B02E0064B00E0002394
S21440226018460C37BD465DF8047B704700093D00B4
S21440227000127A00001BB70080B500AF0620034B63
S214402280984703461B01184680BD00BF0522400004
S21440229080B500AF024B984703465B08184680BDA2
S2144022A07922400080B487B000AF154B5B687B61F5
S2144022B0134B9B683B61124BDB68FB60104BDB6942
S2144022C0BB600F4B5B6D7B600D4B80221A600C4AE7
S2144022D07B6953600A4A3B699360094AFB68D3604E
S2144022E0074ABB68D361064A7B685365044B0522A0
S2144022F01A6000BF1C37BD465DF8047B704700BFC0
S2144023000000084080B487B000AF78603960002392
S2144023107B6100233B610023FB607B685A003B687F
S2144023209A421AD23A687B68B2FBF3F3023BFB60F0
S2144023303B687A68B3FBF2F2796801FB02F29B1ABB
S214402340002B02D0FB680133FB60FB685B087B61B7
S214402350FB6803F001033B6103E000237B6100233D
S2144023603B61114A104B5B6823F0FF0353600E49F4
S2144023700D4B5A687B69DBB213434B603B69002BBD
S21440238006D0094A084B5B6843F48033536005E047
S214402390054A054B5B6823F48033536000BF1C3707
S2144023A0BD465DF8047B70470000084080B582B0AB
S2144023B000AF4FF0FF337B600D4B1B6C3B607B6880
S2144023C05A1E7A60002B03D10A4B984700230AE036
S2144023D03B6803F02003002BEED03B6803F010036D
S2144023E0002BE9D1012318460837BD4680BD00BF03
S2144023F000000840A522400080B586B000AFF860D7
S214402400B9607A60BB6803F03F03FA681343FB6029
S214402410BB6803F48073002B1BD0FB6843F48053E7
S214402420FB60BB6803F40063002B04D0FB6843F0FA
S2144024308003FB600DE0BB6803F40053002B04D020
S214402440FB6843F0C003FB6003E0FB6843F04003D7
S214402450FB60BB6803F48043002B03D0FB6843F467
S2144024600063FB601C4A7B6813611B4AFB68536130
S214402470194B1B6C7B61BB6803F48053002B08D060
S2144024807B6903F41F03002B0CD0144B98470023A2
S2144024901DE07B6903F41B03002B03D00F4B9847CA
S2144024A0002314E07B6903F00103002BE0D0BB68F7
S2144024B003F40053002B09D0094B9847034683F09A
S2144024C00103DBB2002B01D0002300E001231846B5
S2144024D01837BD4680BD00BF00000840A52240001A
S2144024E0AD23400080B500AF10200A4B98470A4BFA
S2144024F072229A60084B7222DA61074B11225A65A3
S214402500054B4FF4E0625A60034B05221A6000BF49
S21440251080BD00BF153240000000084080B483B044
S21440252000AF0346FB71FB79002B01D1042300E08A
S214402530002318460C37BD465DF8047B704780B4D0
S21440254000AF01231846BD465DF8047B7047000087
S21440255080B584B000AF396011461A460346FB7119
S2144025600B46BB7113467B710023FB600023BB60A8
S2144025707B79002B06D0194A184B5B6D43F4807369
S214402580536505E0154A154B5B6D23F48073536520
S214402590134B9847034619463868124B9847FB79C1
S2144025A0002B02D10023FB6000BFBB79042B06D072
S2144025B0082B07D0012B08D10023BB6005E0802301
S2144025C0BB6002E0C023BB6000BF0449FA68BB683A
S2144025D01343CB6000BF1037BD4680BD00000840A7
S2144025E0912240000523400080B483B000AF0346EC
S2144025F0FB7100BF0C37BD465DF8047B704700009A
S21440260080B400AF0C4A0C4B5B6823F460535360B5
S214402610094B00221A61084B4FF410625A6100BF02
S214402620054B1B6C03F00103002BF9D000BFBD46E1
S2144026305DF8047B704700BF0000084080B582B05C
S21440264000AF786039600C4A0B4B5B6823F46053EC
S2144026505360094A084B5B6823F400435360064BBB
S21440266000229A613A6879680020044B98470346EE
S21440267018460837BD4680BD00000840F923400094
S21440268080B400AF034B1B6A1846BD465DF8047B1A
S214402690704700BF0000084080B485B000AF786047
S2144026A00023FB7324E0174B1B6ABB60BB681B0E02
S2144026B0DAB27B681A707B6801337B60BB681B0CA0
S2144026C0DAB27B681A707B6801337B60BB681B0A92
S2144026D0DAB27B681A707B6801337B60BB68DAB21B
S2144026E07B681A707B6801337B60FB7B0133FB732E
S2144026F0FB7B032BD7D900BF1437BD465DF8047B60
S214402700704700BF0000084080B586B000AFF86054
S214402710B96011461A460B46FB801346BB8097F8B5
S2144027202030002B06D03D4A3C4B5B6843F40043C8
S214402730536005E0394A394B5B6823F400435360E5
S214402740364A364B5B6843F4C0535360FB8803F00D
S2144027500303002B06D0314A304B5B6843F40053EA
S214402760536005E02D4A2D4B5B6823F400535360BD
S214402770FB6803F40043002B03D04FF480337B61A7
S21440278002E04FF4A0237B61FB6803F48033002B08
S21440279009D07B6943F400137B61204AFB88C3F36E
S2144027A00803936127E01D49FB881A04BB8813433E
S2144027B08B61FB6803F40033002B04D07B6943F441
S2144027C020137B6117E0FB6803F48023002B04D0C2
S2144027D07B6943F480137B610DE0FB6803F40023C0
S2144027E0002B08D1FB6803F48013002B03D07B69D1
S2144027F043F400237B610A4B00221A60094AFB8897
S2144028001380094ABB881380BA68F9687869074B11
S2144028109847034618461837BD4680BD0000084016
S21440282084040020880400208A040020F923400005
S21440283080B584B000AF78601E4B1B6CFB60FA68B6
S2144028401D4B1340002B03D01C4B984700232CE015
S214402850FB6803F00203002BEED0164B1A6B7B6826
S2144028601A60174B1B680433154A1360154B1B88B8
S2144028701A46154B1B8803FB02F2114B1B689A4203
S21440288001D9012311E00B4B1B6CFB60FA680A4B25
S2144028901340002B03D0094B9847002305E0FB6804
S2144028A003F00063002BEED0012318461037BD46D8
S2144028B080BD00BF00000840000060C0A522400068
S2144028C084040020880400208A04002080B485B058
S2144028D000AF78600B467B807B88214A128802FBDB
S2144028E003F3FB607B6803F00303002B05D11C4B0E
S2144028F01B8803F00303002B06D01A4A194B5B686B
S21440290043F40053536005E0164A164B5B6823F4C5
S21440291000535360134A7B68C2F80031114A114B8A
S2144029205B6803F40053002B02D1FB689B0800E071
S214402930FB68C2F804310B4B0022C3F81421094B44
S2144029400122C3F82021084B1A68FB681344064A44
S2144029501360012318461437BD465DF8047B704764
S21440296088040020000008408404002080B582B01F
S21440297000AF1C4B1B6C7B607A681B4B1340002BD4
S21440298008D0184B40F20222C3F82021174B984734
S214402990002323E07B6803F48043002BE9D0144BEC
S2144029A01B881A46134B1B8803FB02F2124B1B680C
S2144029B09A4201D9012311E00A4B1B6C7B607A686E
S2144029C0094B1340002B03D0084B9847002305E0E3
S2144029D07B6803F00063002BEED0012318460837CF
S2144029E0BD4680BD00000840000060C0A5224000F3
S2144029F0880400208A04002084040020FEE70000AB
S214402A0000B583B0254B264A9A4210D0254B234A20
S214402A109A420CD2013B9B1A23F00303043313441F
S214402A201F4951F8040B42F8040B9A42F9D11E4B49
S214402A301E4A9A420AD2013B9B1A23F003030433F0
S214402A401344002142F8041B9342FBD1184A194B09
S214402A5023F07F039360EFF31083B3FA83F35B09AD
S214402A60019372B6BFF35F8F0022134B1A70019921
S214402A70124A136843F470031360BFF34F8FBFF3DB
S214402A806F8F29B101220C4B1A70BFF35F8F62B66D
S214402A900B4B98470B4B9847FEE700BF00000020C3
S214402AA0F44040003C040020580500203C04002030
S214402AB000ED00E0000040000A00002088ED00E045
S214402AC01D374000492C40003B4B1B6B03F0030373
S214402AD0012B1DD083B1022B36D0374B1B6B03F036
S214402AE07003702B5FD0344B1A6B3449C2F302121A
S214402AF00B68D3400B607047314B5B6913F0800F17
S214402B0014BF4FF400424FF4FA422C4B1A60E4E7ED
S214402B10294B1B6A13F0807F03D02A4A274B1A6042
S214402B20DBE7294A254B1A60234B1B6A03F07003E8
S214402B30102B05D0202BD0D1224A204B1A60CCE750
S214402B40224A1E4B1A60C8E71B4B1B6A13F0807F55
S214402B5016D01C4A194B1A60174B1B6B03F0030325
S214402B60022BBAD1144A916A926A1448C1F30A41B8
S214402B70036801FB0333D2B2B3FBF2F30360ACE766
S214402B80114A0E4B1A600C4B1B6A03F07003102B55
S214402B9005D0202BE0D10B4A084B1A60DCE70B4AE5
S214402BA0064B1A60D8E7054A13680949A1FB031388
S214402BB05B081360704700BF00040E400C00002006
S214402BC010180E40001BB70000093D0000127A00A6
S214402BD0ABAAAAAA124B984211D9124B984213D9C3
S214402BE0114B984214D9114B984215D9104B984224
S214402BF094BF4FF004220F4A0F4B1A6070474FF0B5
S214402C0080620D4B1A6070470C4A0B4B1A60704737
S214402C100B4A094B1A6070470A4A074B1A607047BE
S214402C20FF2C3101FF596202FF869303FFB3C404B1
S214402C30FFE0F50500050004000A0E400001000410
S214402C40000200040003000408B5024B9847024CFB
S214402C50A047FDE7390A4000690A400010B50E4813
S214402C600E4B98473E2100200D4B98470D4CA047F1
S214402C700028FCD00C4B98470C4A0D4B9A620D4CE2
S214402C80A0470028FCD010200B4B98470B4B98478A
S214402C900B48024B984710BD000E2707D52B400027
S214402CA091314000E5314000F5314000013F0F20B2
S214402CB000040E40053240002D314000C92A400035
S214402CC000D8B8052DE9F84381460F46124B984781
S214402CD005464846114B9847054013D0104C04F122
S214402CE0600603E0B4420DD010345DB12068B842AF
S214402CF0F8D161682942F5D0E3689847636825EAC9
S214402D000305EFE7074B1B6823B1074B1B680BB166
S214402D1048469847BDE8F8830B3140000F314000E5
S214402D208C0400203005002000050020F8B5184C23
S214402D302668062E29D84FF0000C6446154F04E04E
S214402D400134E4B2A446A64209D3A64625017D59DD
S214402D508D42F5D107EB04156D689542F0D10D4DC7
S214402D604FEA0E1E05EB0E0445F80E106260A36097
S214402D700699E1600136664504BF05490E60114676
S214402D801A46054B98470020F8BD0120F8BD00BF05
S214402D90FC0400208C040020DD30400008B50921EA
S214402DA00148024B984708BD000E0E40C52C400017
S214402DB008B50A210148024B984708BD00100E404E
S214402DC0C52C400008B50B210148024B984708BD6A
S214402DD000120E40C52C400008B50C210148024B9D
S214402DE0984708BD00140E40C52C400008B50D217C
S214402DF00148024B984708BD00160E40C52C4000BF
S214402E00436A23F0FF031943416270470B680A790F
S214402E101AB330B4DBB200EB4312D2F80042CD799D
S214402E2024F4702444EA0544C2F800424C792CB39A
S214402E30CC6844F00054C2F804420C6944F0005494
S214402E40C2F80842D2F80032097923F0E06343EA38
S214402E500163C2F8003230BC7047DBB200EB43106F
S214402E600023C0F80032C0F80432C0F80832C0F878
S214402E701432C0F81832C0F81C327047CC68C2F81A
S214402E8004420C6900EB4313C3F80842DAE70B78B8
S214402E9000EB4312D2F810228A6012F4000F28D0BA
S214402EA010B44A79FAB10A6942F0005200EB431472
S214402EB0C4F808228C6900EB4312C2F814428A799F
S214402EC0042A04D9CC6900EB4312C2F818428A7926
S214402ED0120402F4702200EB4310C0F81C220020BB
S214402EE05DF8044B70470C6900EB4312C2F8084289
S214402EF0E0E701207047000070B588B00646002421
S214402F008DF80440044D009469463046A847013485
S214402F10082CF8D108B070BD0D2E4000F8B546F22A
S214402F20A81303FB02F40B19013BB3FBF4F3802B0D
S214402F3066D84FF4FA5404FB02F4B4EB510F61D850
S214402F404FF47A7303FB02F208274FF0FF363B46F6
S214402F5004E00133DBB214441A2B0CD0B1FBF4F579
S214402F60802DF6D804FB1515B542F2D215B12E4683
S214402F701F46EEE71F4602FB07F2B1FBF2F1CBB26B
S214402F80012B41D90446A7F10802036823F0010348
S214402F9003601E4D5600B71805EB4707BB78013B4C
S214402FA01B0103F0700378780138000200F4E060FB
S214402FB00343F878013800F0070003433A79013AB2
S214402FC0120302F440521343CAB2013A120402F406
S214402FD0FE021343636120460D4B9847236843F037
S214402FE00103236000230B492269013312F4001FBA
S214402FF001D18B42F8D10748181A18BF0120F8BDF6
S2144030000020F8BD0020F8BD0020F8BD5840400024
S214403010F92E4000A08601004264B1F1C05F3AD06C
S21440302013D8B1F1006F25D0B1F1805F0AD1036F9C
S21440303013430367436F416F0B4023EA0203436722
S214403040426070470029FBD17047B1F1205F21D024
S21440305009D8B1F1005FF3D1036F13430367436FA1
S21440306013434367ECE7B1F1405F13D0B1F1605FC3
S21440307010D0E5E710B4016F046FD34321401C46DF
S21440308019400167436F416F0B40234043674260DE
S2144030905DF8044B7047036F016F0B4023EA020351
S2144030A00367436F13434367CAE7416412F0010F57
S2144030B014BF4166016612F00A0F14BF01624162F6
S2144030C012F0020F07D112F0080F18BFC0F8841094
S2144030D0416101607047C0F88010F9E712F0100FA8
S2144030E010D0C0F8B01012F0200F14BFC0F8D410A3
S2144030F0C0F8D01012F0400F14BFC0F8C010C0F88F
S214403100C4107047C0F8B4107047C06C7047806CED
S2144031107047430903F5001303F207735B0200F0A0
S2144031201F00012202FA00F018647047174A136B1A
S21440313023F0700318431063936E13F0080F0AD100
S2144031404FF4006311498A6E12F0080F03D1013B19
S214403150F9D1012070470D4A136B23F0030343F067
S21440316002031363936E13F0080F0AD14FF4006303
S21440317006498A6E12F0080F05D1013BF9D10120AD
S2144031807047002070470020704700BF00040E4084
S214403190C8B9114A136A090289B223F45C1323F0B2
S2144031A0030343F45C1343F001030B431362936E33
S2144031B013F0010FFBD0084A136A43F09B7343F4A5
S2144031C080331362704704490B6A044A1A40044B22
S2144031D013430B62704700BF00040E40FCFFC8FE5E
S2144031E002003701024B986E00F48030704700BFF3
S2144031F000040E404FF00052014B9A62704700BFE9
S21440320000040E40024B986E00F00200704700BF6C
S21440321000040E402F281ED81F280CD8114B9A6940
S21440322001238340934318D0012303FA00F00D4B4B
S21440323018610020704720380A4BD3F80821012334
S214403240834093430BD0012303FA00F0054BC3F8A9
S2144032500001002070470120704700207047002082
S214403260704700BF00040E402A4B99424AD8A3F547
S2144032707A5399422CD910B4274CA4FB0234A40BA1
S214403280043C264B0B449B00B2FBF3F2043AFF2C63
S2144032903AD9002101316408FF2C0ED90729F9D10B
S2144032A013029BB2090401F4E0210B43E4B223432A
S2144032B0036100205DF8044B7047FF2AF0D90629C9
S2144032C0EED801315208FF2AEAD90629F9D9E7E7AC
S2144032D04900B2FBF1F2043AFF2A11D90023013328
S2144032E05208FF2A01D9072BF9D1110289B21B04D3
S2144032F003F4E0230B43D2B21A4302610020704726
S2144033000023F2E701207047FF2A88BF0021D8D863
S2144033100021C5E7801A0600F11976050012FD3F28
S21440332038B504460D464FF0FF338362036A802368
S2144033300360036B082303602023036004230360B9
S2144033400A684968054B9847012814BF00200120A9
S2144033506B7A012B04BF4023236038BD693240009E
S2144033600A4659B103780129C4BF417841EA03238C
S214403370022A04DD827842EA032300E0002318464E
S2144033807047000070B5CD68002D35D00B4604461A
S2144033908E68002060600A7C120402F4FE024968CF
S2144033A0090201F440710A436260E06059681846B9
S2144033B0154B9847E060236A13F4807F06D00525B6
S2144033C01BE05DB1236A13F4807F18D113F0040F1D
S2144033D0F7D033786363013D0136F2E7236A13F48E
S2144033E0807F0ED113F0040FF8D002232360236AA7
S2144033F013F0010FFBD000E00125284670BD0525DF
S214403400FBE70525F9E700BF6133400053B94AB9E9
S214403410002908BF00281CBF4FF0FF314FF0FF3097
S21440342000F07AB9ADF1080C6DE904CE00F006F86C
S214403430DDF804E0DDE9022304B070472DE9F047EB
S2144034408C460D460446089E002B51D18A421746AC
S2144034506DD9B2FA82FEBEF1000F0BD0CEF1200C31
S21440346001FA0EF520FA0CFC02FA0EF74CEA050CAF
S21440347000FA0EF44FEA174A250CBCFBFAF81FFA7E
S21440348087F90AFB18CC45EA0C4508FB09F3AB4222
S2144034900AD9ED1908F1FF3280F02381AB4240F2A1
S2144034A02081A8F102083D44ED1AA4B2B5FBFAF01B
S2144034B00AFB105544EA054400FB09F9A14509D921
S2144034C0E41900F1FF3380F00A81A14540F20781FC
S2144034D002383C44A4EB090440EA08400021002E90
S2144034E061D024FA0EF4002334607360BDE8F087A0
S2144034F08B4207D9002E54D0002186E8210008468A
S214403500BDE8F087B3FA83F1002940F08E80AB42E5
S21440351002D3824200F2FA80841A65EB030501204A
S214403520AC46002E3FD086E81010BDE8F08712B9B2
S2144035300127B7FBF2F7B7FA87FEBEF1000F34D18A
S214403540EB1B3A0C1FFA87FC0121B3FBF2F8250C63
S21440355002FB183345EA03450CFB08F3AB4207D998
S214403560ED1908F1FF3002D2AB4200F2D18080461E
S214403570ED1AA3B2B5FBF2F002FB105543EA054440
S2144035800CFB00FCA44507D9E41900F1FF3302D236
S214403590A44500F2B8801846A4EB0C0440EA084064
S2144035A09DE731463046BDE8F087CEF1200405FA67
S2144035B00EF307FA0EF720FA04F83A0C25FA04F44C
S2144035C048EA0308B4FBF2F14FEA184502FB1144FF
S2144035D01FFA87FC45EA044501FB0CF3AB4200FAB0
S2144035E00EF409D9ED1901F1FF3080F08A80AB4224
S2144035F040F2878002393D44EB1A1FFA88F5B3FB48
S214403600F2F002FB103345EA034500FB0CF3AB42F5
S21440361007D9ED1900F1FF386FD2AB426DD90238A9
S2144036203D44EB1A40EA01418FE7C1F1200722FAF8
S21440363007F88B4005FA01F448EA030320FA07FE30
S2144036404FEA134CFD404EEA040EB5FBFCF94FEA38
S2144036501E440CFB19551FFA83F844EA054509FB3E
S21440366008F4AC4202FA01F200FA01FA08D9ED1861
S21440367009F1FF3043D2AC4241D9A9F102091D44B9
S2144036802D1B1FFA8EFEB5FBFCF00CFB10554EEAC8
S214403690054400FB08F8A04507D9E41800F1FF35BB
S2144036A029D2A04527D902381C4440EA0940A4EB59
S2144036B00804A0FB02894C45C6464D4615D312D099
S2144036C056B1BAEB0E0364EB050404FA07F7CB4099
S2144036D01F43CC40376074600021BDE8F087184631
S2144036E0F8E69046E0E6C245EAD2B8EB020E69EB51
S2144036F003050138E4E72846D7E7404691E7814688
S214403700BEE7014678E702383C4445E7084608E706
S214403710A8F102083D442BE7704700BF70B50F4E36
S2144037200F4D761BB61018BF002405D0013455F84F
S214403730043B9847A642F9D10A4E0B4D761B00F043
S214403740C3FCB61018BF002406D0013455F8043B1D
S2144037509847A642F9D170BD70BD00BFD440400026
S214403760D4404000DC404000D440400070B486075F
S21440377046D0541E002A41D0CAB2034602E014F195
S214403780FF343BD303F8012B9D07F8D1032C2ED9E9
S214403790CDB245EA05250F2C45EA054519D903F172
S2144037A010022646103E0F2E42F8105C42F80C5C83
S2144037B042F8085C42F8045C02F11002F2D8A4F128
S2144037C0100222F00F0204F00F041032032C1344B0
S2144037D00DD91E462246043A032A46F8045BFAD818
S2144037E0221F22F003020432134404F003042CB1D7
S2144037F0C9B21C4403F8011B9C42FBD170BC704705
S21440380014460346C2E700BF024B13B1024800F01D
S21440381005B87047000000002938400000230146E4
S2144038201A46184600F01EB838B50A4C0A4D641BB6
S214403830A4100AD004F18043013B05EB8305013C0C
S21440384055F804399847002CF9D1BDE8384000F0C7
S21440385045BC00BFEC404000E8404000704700BF19
S214403860704700BF2DE9F8432C4D06462868984619
S2144038700F469146FFF7F2FF294B1C68D4F84831B3
S214403880002B3ED05A681F2A1CDC02F1010E76B18E
S21440389003EB82010124C1F88890D3F88801944054
S2144038A02043022EC3F88801C1F8088123D0023293
S2144038B0C3F804E0286843F82270FFF7D1FF0020E1
S2144038C0BDE8F883174B0BB34FF4C870AFF30080D6
S2144038D00346D8B1D4F848210260002141600A4628
S2144038E0C4F848014FF0010EC0F88811C0F88C119A
S2144038F0002EDCD0CCE7D3F88C110C43C3F88C41B7
S214403900D5E704F5A673C4F84831BBE72868FFF747
S214403910A7FF4FF0FF30BDE8F88300BF3804002013
S214403920C44040000000000000000000000000000E
S214403930000000000000000000100E400A000000DA
S214403940004000002E00000000100E400A0000005C
S214403950002000002D00000000140E400C00000067
S214403960010000006000000000140E400C00000043
S214403970000000807F00000000160E400D00000092
S214403980080000008300000000160E400D000000F6
S214403990010000008000000000160E400D000000F0
S2144039A0020000008100000000160E400D000000DE
S2144039B0040000008200000000120E400B000000D1
S2144039C0000000085B00000000120E400B000000E4
S2144039D0010000004000000000120E400B000000F6
S2144039E0000000045A00000000120E400B000000C9
S2144039F0000000805F00000000120E400B00000038
S214403A00000000405E00000000120E400B00000068
S214403A10000000205D00000000120E400B00000079
S214403A20002000004D00000000100E400A0000007C
S214403A30010000002000000000100E400A000000B8
S214403A400200000021000000000E0E4009000000A9
S214403A500000100014000000000E0E400900000098
S214403A60000002001100000000160E400D0000008D
S214403A701000000084000000000E0E400900000008
S214403A80000008001300000000160E400D00000065
S214403A90200000008500000000100E400A000000D4
S214403AA00400000022000000000E0E400900000046
S214403AB00000040012000000000E0E400900000046
S214403AC0000020001500000000100E400A00000014
S214403AD0080000002300000000140E400C00000008
S214403AE0000000047A00000000140E400C000000A5
S214403AF0000000407E000000000E0E40090000005E
S214403B000000800017000000000E0E400900000074
S214403B10004000000E00000000140E400C000000A4
S214403B20000020007500000000140E400C0000004D
S214403B300000000279000000000E0E400900000060
S214403B40000001001000000000140E400C000000B1
S214403B500000100074000000000E0E400900000037
S214403B60008000000F00000000120E400B00000016
S214403B70800000004700000000140E400C000000CB
S214403B80000000087B000000000E0E400900000008
S214403B90000040001600000000120E400B0000001F
S214403BA0020000004100000000120E400B00000022
S214403BB0040000004200000000120E400B0000000F
S214403BC0080000004300000000120E400B000000FA
S214403BD01000000044000000000E0E4009000000E7
S214403BE0002000000D00000000120E400B000000F8
S214403BF0200000004500000000120E400B000000B0
S214403C00400000004600000000140E400C0000007B
S214403C100000000178000000000E0E400900000081
S214403C20000000011800000000140E400C000000C8
S214403C300000800077000000000E0E4009000000E3
S214403C40000000021900000000140E400C000000A6
S214403C50000040007600000000140E400C000000FB
S214403C600000080073000000000E0E40090000002F
S214403C70001000000C00000000140E400C00000075
S214403C800000040072000000000E0E400900000014
S214403C90000800000B00000000140E400C0000005E
S214403CA0002000006D00000000120E400B000000D7
S214403CB0000200004900000000140E400C00000006
S214403CC0004000006E00000000140E400C00000093
S214403CD0000000107C00000000120E400B000000A8
S214403CE0000000105C00000000100E400A000000BB
S214403CF04000000026000000000E0E4009000000B4
S214403D00400000000600000000140E400C000000BA
S214403D10000002007100000000140E400C0000007D
S214403D20000001007000000000120E400B00000072
S214403D30000100004800000000140E400C00000087
S214403D40001000006C00000000120E400B00000047
S214403D50000800004B000000000E0E400900000066
S214403D60040000000200000000100E400A000000A0
S214403D70001000002C00000000120E400B00000057
S214403D80004000004E00000000140E400C000000F2
S214403D90800000006700000000100E400A0000008F
S214403DA0800000002700000000120E400B000000BC
S214403DB0000400004A00000000140E400C00000002
S214403DC0000800006B000000000E0E4009000000D6
S214403DD0020000000100000000120E400B00000030
S214403DE0000001005000000000140E400C000000CF
S214403DF0000400006A000000000E0E4009000000AB
S214403E00010000000000000000120E400B00000001
S214403E10000002005100000000120E400B0000009F
S214403E20000008005300000000100E400A0000008A
S214403E30100000002400000000140E400C0000009B
S214403E40008000006F00000000140E400C000000D0
S214403E50000000207D00000000100E400A00000018
S214403E60200000002500000000140E400C0000005A
S214403E70000200006900000000120E400B00000027
S214403E80000004005200000000140E400C00000029
S214403E900001000068000000000E0E40090000000F
S214403EA0400000000600000000120E400B0000001C
S214403EB0000010005400000000120E400B000000EE
S214403EC0000040005600000000140E400C000000A9
S214403ED0400000006600000000120E400B0000008C
S214403EE0000020005500000000120E400B000000AD
S214403EF0000000015800000000140E400C000000B6
S214403F00200000006500000000140E400C00000079
S214403F10100000006400000000140E400C0000007A
S214403F20080000006300000000120E400B00000076
S214403F30000080005700000000140E400C000000F7
S214403F40040000006200000000140E400C00000058
S214403F50020000006100000000120E400B0000004E
S214403F60000000025900000054656D70000000001B
S214403F7000000464022A0271025C02280208022A37
S214403F80027902D50270027802080206022A0279F5
S214403F900272020002DA0210028102FF02DB0230E5
S214403FA002DC020302780228022A020602080228DD
S214403FB0020102800464020C010100000A000000B5
S214403FC064000000E8030000102700000000000026
S214403FD00000000000000000000000000A00000092
S214403FE00C0000000D0000000F0000001400000050
S214403FF0190000001E0000002300000028000000FA
S2144040002D00000032000000370000003C00000099
S2144040104600000050000000000000000A000000BB
S2144040200C0000000D0000000F000000140000000F
S2144040301A0000001E0000002300000028000000B8
S2144040402D00000034000000370000003C00000057
S214404050460000005000000008030202034B09021D
S214404060030302430A03030303460B040303044803
S2144040700C03040404430D040404044D0E04040518
S21440408004400F04050504431005050504451106C4
S21440409005050447120506060443130606060444AF
S2144040A014070606044615080606044716070707BB
S2144040B00444170808070446180708080443190864
S2144040C00808044410000020F8B500BFF8BC08BC3F
S2144040D09E467047093840001D014000F8B500BFB5
S2104040E0F8BC08BC9E467047F900400043
S20C4040EC50F3FF7F01000000C5
S2144040F4BFF35F8F0138FBD17047010000093D00D4
S21440410400000000FC02002064030020CC030020D2
S2144041140000000000000000000000000000000056
S2144041240000000000000000000000000000000046
S2144041340000000000000000000000000000000036
S2144041440000000000000000000000000000000026
S2144041540000000000000000000000000000000016
S2144041640000000000000000000000000000000006
S21440417400000000000000000000000000000000F6
S21440418400000000000000000000000000000000E6
S21440419400000000000000000000000000000000D6
S2144041A400000000000000000100000000000000C5
S2144041B40E33CDAB34126DE6ECDE05000B0000008A
S2144041C400000000000000000000000000000000A6
S2144041D40000000000000000000000000000000096
S2144041E40000000000000000000000000000000086
S2144041F40000000000000000000000000000000076
S210404524000000000000000034050020ED
S804402A0190
