S00B000061726D2E73726563D9
S214400000F03A002055184000511840005118400062
S21440001051184000511840005118400000000000A0
S21440002000000000000000000000000051184000E2
S2144000305118400000000000511840005118400080
S21440004051184000511840005118400051184000C7
S21440005051184000511840005118400051184000B7
S21440006051184000CD354000E1354000F5354000A0
S214400070093640001D3640005118400051184000D7
S2144000805118400051184000511840005118400087
S2144000905118400051184000511840005118400077
S2144000A05118400051184000511840005118400067
S2144000B05118400051184000511840005118400057
S2144000C05118400051184000511840005118400047
S2144000D05118400051184000511840005118400037
S2144000E05118400051184000511840005118400027
S2144000F0511840005118400010B5054C237833B9CC
S214400100044B13B10448AFF300800123237010BDA5
S214400110B8090020000000007C8A40000C4B43B128
S2144001200C480D4910B5AFF300800C48036823B95E
S21440013010BD0A48036833B97047094B002BF7D007
S214400140BDE810401847064B002BF5D0184700BFB7
S214400150000000007C8A4000BC0900207C8A4000E9
S2144001600000000070B509200C4B98474FF07C42C9
S2144001704FF0C0510A480B4B98470B4B984700240A
S2144001800A4E0B4D03E02046A8470228FBD12046E6
S214400190B0470128F7D00028F9D170BDCD374000D0
S2144001A0000E0E403136400055034000BD0E400064
S2144001B07503400008B5034B9847034B9847034BDD
S2144001C0984708BDFD3440001D11400065014000C1
S2144001D030B5ADF28C4D01AC134D0FCD0FC42B682E
S2144001E0237096A90020114B984710B10DF28C4D04
S2144001F030BD0A2201A90DA80D4B984700B1FEE775
S2144002000C4B984702460C4906A80C4B98470DA93C
S21440021006A80B4B984710B176200A4B98470DA876
S214400220094B9847EBE700BF448140007D2F4000D4
S214400230A12F4000190C4000348140000D39400089
S21440024045344000CB3640000134400010B5064BE4
S21440025019688B7F003318BF01234A7B096803481F
S2144002600078034CA04710BDD4090020FC090020AC
S2144002705D13400008B10420704710B50E4B9B7AC2
S214400280033BDBB2012B0DD900220C4B1A700A4CF3
S2144002900B4B1C600B4B9847A07A022814BF0020DB
S2144002A0012010BD044B02229A72074A1A600122AE
S2144002B05A7300229A77E7E7D8090020FC09002005
S2144002C0D40900204D024000801A060038B5049C30
S2144002D0520242EAC36242EA017242EAC07221789E
S2144002E0114341F23430054B9847054608B9284635
S2144002F038BD034B98472070F9E700BF3D144000D7
S2144003006914400010B5094B1B681989090441F669
S2144003100930074B9847044608B9204610BD034BA2
S21440032018680E30034B9847F7E700BFD409002003
S2144003303D1440007514400008B5044B1B7803B1CB
S21440034008BD0020024B9847FAE700BFFC09002092
S2144003501514400008B50422034B9A72FF22034B43
S2144003601A70034B984708BDD8090020FC090020A6
S214400370251340002DE9F04395B0A74B9847044617
S214400380012805D0A54B9847204615B0BDE8F08318
S21440039014AE082306F8453DA14B1B680127DF72C3
S2144003A000251D731D819F4B984700962B460622BD
S2144003B0294638469C4EB04729464FF480409B4BD2
S2144003C0984730B9964B1B6803249C72934B9847CA
S2144003D0DAE74FF4D57145F20850944B9847002819
S2144003E040F093804FF00009002144F205508F4BB7
S2144003F09847002840F09780894B1B68DB7A13F0BB
S214400400010F40F0B580002145F20310874B984716
S2144004100028D7D0824D2E68854B9847000C3081F7
S2144004202B68DB7A13F0010F34D0824B98470028B4
S214400430C8D02B685A7CC2F3C30002F007027E493C
S21440044051F822104FF47A7202FB01F27B4951F8C0
S214400450201002FB01F21A609A7B920940F00B8250
S214400460997D587D1A7D920242EA800242EAA112A4
S214400470187ED97D490041EAE011C2F30B020132F1
S21440048001F0070102318A40D97C01F00F018A4011
S214400490920A5A60624B1B681989090443F2071096
S2144004A0624B984700288DD05D4B1B68DA7A12F075
S2144004B0010F40F0ED815A4B1B68DB7A13F0040FB6
S2144004C000F09C8209250027574EA5F1090303AA90
S2144004D0134400933B462A4639463846B0470135D2
S2144004E00D2DF2D19DF80D309DF80C9009EB0329A7
S2144004F09DF80E3009EB03499DF80F3009EB036970
S2144005004E464FF00008484F39E2494B9847B0F105
S214400510FF3F00F04783C0F30B00B0F5D57F7FF474
S21440052051AFB94660E7424B984710F0E04F3FF472
S21440053063AF41F2893544F205583C4E3C4F00F4D7
S214400540FC114046B04700283FF43CAFB84700286F
S21440055002DB013DF3D135E710F0006F04D1304B9C
S2144005601B680422DA724EE72D4B1B680522DA72AE
S214400570B9F1000F324F14BFB9464FF4FC1940F69C
S21440058035054FF00008294E294F414641F23710B5
S214400590B04748B1494644F22950B04720B1B84721
S2144005A0002820DB013DF0D11D4B1B680222DA7289
S2144005B000214FF480401D4B984700283FF402AF7F
S2144005C041F26905DFF87880184E194F414644F2EB
S2144005D00150B04700283FF4F5AEB847002831DB5D
S2144005E0013DF3D1EEE610F0804F05D00C4B1A6873
S2144005F0D37A43F00803D372094B1B68DB7A13F0B7
S214400600010F3FF400AF002145F60230074B9847F4
S21440061000287FF4F8AED5E6750240003903400066
S214400620D409002019144000CD0240003D1440007B
S214400630691440000503400098814000B4814000A2
S21440064000801F4000F0C040B0F1804F27D000210E
S21440065045F60230A74B984700283FF4B3AEA64B6A
S2144006601B6801221A814FF4803141F20310A14BDE
S214400670984700283FF4A6AEA04B984700283FF482
S214400680A1AE9D4B1A68937BC3F38303013B032BB8
S2144006900CD8DFE813F0CC00CF00D200D500964B44
S2144006A01A68D37A43F00803D372D0E71223137341
S2144006B0537CC3F3C30003F00703914951F823105A
S2144006C04FF47A7303FB01F38E4951F8201003FB75
S2144006D001F31360917D507D137D9B0243EA8003B6
S2144006E043EAA113C3F30B0340F6FF718B420FD0CE
S2144006F0107ED17D490041EAE011013301F0070147
S21440070002318B40D17C01F00F018B409B0A536035
S2144007101189090443F20710764B984700283FF4A6
S21440072051AE754B1B681B7B3F2B40F296800021D9
S214400730009101234FF400727348744DA847002877
S2144007403FF440AE0025724E03A8B04700283FF461
S21440075039AE0135ADB2322DF6D1039E06F0020613
S214400760654B1B689A7D597D1B7D9B0243EA81033E
S21440077043EAA213C3F30B0340F6FF7293420ED133
S214400780634F04A8B84700283FF41CAE0135ADB20D
S214400790352DF6D9584B1A68049B5B0853605C4F5E
S2144007A07F2D50D95B4B18785B4B984703281DD953
S2144007B0584B1878584B9847054604284BD0574B0B
S2144007C05749082818BF194643F20610494B984720
S2144007D000283FF4F7AD534B984710F0800F7FF456
S2144007E0F1AD454B1B685D734F4B98474F4B984751
S2144007F0B0B1AEB14E4943F206103E4B9847002882
S2144008003FF4E0AD474B984710F0800F7FF4DAADE9
S214400810394B1B6801229A77464A1A60424B9847E2
S2144008200A254FF4007841F21017324E1DE014238B
S21440083013733DE7222313733AE73023137337E7E6
S2144008404023137334E704A8B84700283FF4BAADF2
S2144008500135ADB2A4E73849B6E7334B9847DFE7F2
S214400860013D15F0FF053FF4ADAD41463846B04773
S2144008700028F5D00EE1D97D987D5A7D120442EAD3
S21440088000220A43C2F31502013252025A6001E6C0
S2144008901989090441F23710164B984700283FF44F
S2144008A091AD01230093082200212448174DA84704
S2144008B000283FF487AD012104A8214B9847002823
S2144008C03FF480AD1F4B984700283FF47BAD9DF822
S2144008D0103003F00F03012B36D033B1022B38D043
S2144008E0054B1B6810221A73E5E5034B1B68102264
S2144008F01A73E0E53D144000D4090020050340008B
S214400900988140005881400008110800A514400016
S21440091069154000FC0900204D1340000000B70157
S2144009200002B701691440004D02400057134000D2
S2144009300001B903007519030001B701331108001F
S214400940D91540003D164000984B1B681A221A7372
S214400950B1E59DF81230DB09944B1B6814BF30227A
S21440096020221A73A7E59DF81130002B3FF42AADDC
S21440097002331E4409F580739E423FF623AD0025A0
S21440098004AB2B4400934346721941464046B84751
S2144009900135032DF4D19DF81030FF2B3FF412ADF6
S2144009A0222BE0D19DF81230002BDCD104AD06F1AD
S2144009B006094FF000087E4F0095434632464146B2
S2144009C04046B847013601354E45F5D19DF81530BD
S2144009D0322B28BF3223754A1268C3F3C30003F094
S2144009E00703744951F823104FF47A7303FB01F35D
S2144009F0714951F8201003FB01F313606F4B1878D0
S214400A006F4B9847032822D9684B1B68DB7A13F054
S214400A10040F46D1654B1B68DA7A12F0010F14D0EA
S214400A201989090441F23710664B984700283FF46D
S214400A30C9AC022141F20610624B984700283FF4A9
S214400A40C1AC5A4B1B6804225A735F4B98475F4BA6
S214400A50984780B1554B1B68DB7A13F0040F41D1A1
S214400A60524B1B68DA7A12F0010F02D01B7B102B18
S214400A705DD8554B98474D4B1B68DB7A13F0010FFA
S214400A8008D04FF4007141F210104E4B98470028A2
S214400A903FF498AC454B1B6800229A724C4B9847E3
S214400AA072E404AB00930023082219461846404DD2
S214400AB0A84700283FF486AC9DF91030002BA9DAF1
S214400AC014AB022203F8402D009301230722002195
S214400AD01846A84700283FF475AC344B1B680422E0
S214400AE05A7397E704AB009300231322194618461F
S214400AF02F4DA84700283FF465AC9DF8103013F002
S214400B00010FADD014AB022203F8402D0093012311
S214400B10132200211846A84700283FF453AC234B25
S214400B201B6801229A771A6852001A6098E7402597
S214400B302A46002104A8274B9847012300932A46BB
S214400B4025492648264DA84700283FF43BAC0121BE
S214400B5004A8244B984700283FF434AC224B9847CF
S214400B6000283FF42FAC214B984710F0800F7FF4BD
S214400B7029AC9DF8203003F00F030F2B3FF479AFDC
S214400B809DF82D309DF82C2053EA02237FF41AACB2
S214400B90174B9847054B1B6801229A771A685200F4
S214400BA01A6066E74FF000091EE400BFD409002033
S214400BB0CD02400098814000B4814000FC090020EE
S214400BC04D1340003D1440004D0240005713400076
S214400BD0390340007138400001FFFF8006110800CD
S214400BE0A5144000D91540003D1640006914400049
S214400BF01914400008B5054B984708B1002008BDB9
S214400C00034B9847034B1B68D87A08BD75024000D3
S214400C1039034000D409002008B5054B984708B171
S214400C20002008BD034B9847034B1B68586808BD17
S214400C307502400039034000D40900200020704768
S214400C402DE9F04782B08A469146264B9847804623
S214400C5018B1404602B0BDE8F087234C234E244DE1
S214400C60244F33681989090441F20D10A84728B16A
S214400C70B84710F4807F17D1013CF2D11E4B9847FD
S214400C804FF00508E5E71B4B98471C4B034033B92C
S214400C901B4BA3F800901B4BA3F80090D9E7164BCC
S214400CA098474FF00508D4E7174B1848B9F1010F9D
S214400CB098BF18460D4B1B68DB7A13F0080F01D11E
S214400CC04FEA4A2A012300934B464FF4007251469E
S214400CD00F4CA0470028D6D1074B98474FF0050841
S214400CE0B7E700BF75024000410D0300D40900205D
S214400CF03D1440006914400039034000000058E4A9
S214400D00F8090020FA0900201111080012111000FD
S214400D10A514400010B50C46064B984720B9002253
S214400D20054B1A80052010BD034A13881C1B1480EF
S214400D30002010BDD9154000F809002010B5044623
S214400D40134B984708B9052010BD84B10022114BBB
S214400D501A80114B1B88012B0FD0002143F20C1038
S214400D600E4B984768B10E4B9847002010BD094B74
S214400D701B88002BEDD0002010BD094B9847002063
S214400D8010BD002143F20C10044B9847EBE700BF20
S214400D903D164000F8090020FA0900203D144000A6
S214400DA03903400070B582B00E461546164B98473C
S214400DB00446B8B9154B1648012D98BF1846154B32
S214400DC01B68DB7A13F0080F08BF760201230093F6
S214400DD02B464FF4007231460F4EB04728B90F4BA2
S214400DE098470524204602B070BD0D4B98470D4BE2
S214400DF0034023B90C4B1D800C4B1D80F2E7074B7C
S214400E0098470524EEE700BF750240001891080099
S214400E1019911000D4090020A51440003903400061
S214400E2069144000000058E4F8090020FA09002040
S214400E3010B50C46064B984720B90022054B1A8041
S214400E40052010BD034A13881C1B1480002010BDCB
S214400E50AD164000F809002010B50446124B9847DE
S214400E6008B9052010BD84B10022104B1A80104BE3
S214400E701B88012B0FD0002143F20C100D4B9847D6
S214400E8068B90D4B9847052010BD084B1B88002BB2
S214400E90EDD0002010BD084B9847002010BD064BF3
S214400EA09847002010BD00BF15174000F8090020E5
S214400EB0FA0900203D1440003903400010B50446AE
S214400EC00F4B9847012818D018B1022810D001209F
S214400ED010BD0C4B1B5D0BB1022010BD20460A4BCB
S214400EE0984700F00300002814BF0020022010BDE1
S214400EF00022044B1A55022010BD032010BD00BF2F
S214400F0075034000000A0020F50B400008B500209D
S214400F10014B984708BD00BFBD0E400008B50120F4
S214400F20014B984708BD00BFBD0E400038B504468B
S214400F300D46044B98474000013828602046024B37
S214400F40984738BD190C4000BD0E400008B5014614
S214400F500020014B984708BD2D0F400008B50146BC
S214400F600120014B984708BD2D0F4000014B1870DB
S214400F7001207047000A0020014B5870012070473E
S214400F80000A002008B50020014B984708BD00BF66
S214400F903D0C400008B50120014B984708BD00BFF6
S214400FA03D0C4000012070470120704710B51446A4
S214400FB001220A4B984720B102280CBF022001208C
S214400FC010BD01212046064B984708B1012010BDB0
S214400FD0044B9847003018BF012010BD410C40001C
S214400FE0150D40003D0D400008B50A46014600205C
S214400FF0014B984708BD00BFAD0F400008B50A46F4
S21440100001460120014B984708BD00BFAD0F400088
S21440101010B5144601220A4B984720B102280CBF4F
S2144010200220012010BD01212046064B984708B1FA
S214401030012010BD044B9847003018BF012010BD5A
S214401040A50D4000310E4000590E400008B50A4636
S21440105001460020014B984708BD00BF11104000D4
S21440106008B50A4601460120014B984708BD00BF17
S21440107011104000012801D90120704708B54001F1
S214401080014B1B58984708BDF4814000012801D900
S2144010900120704708B50346034800EB43104368F9
S2144010A00846984708BD00BFF481400001288CBF21
S2144010B00020012070470000012801D90120704718
S2144010C008B5034B03EB4010C368984708BD00BF04
S2144010D0F4814000012801D90120704710B50C4624
S2144010E00346044800EB43104369114620469847A0
S2144010F010BD00BFF4814000012801D9012070478F
S21440110010B50C460346044800EB4310836911466D
S2144011102046984710BD00BFF481400010B54FF4FC
S21440112000424B4B5A6009204A4CA0470A20A04731
S2144011300B20A0470C20A0470D20A047464B4FF45D
S21440114080021A61C3F8A0201A63A3F5C063042284
S2144011505A61C3F8A0205A66C3F890205A651A62AE
S214401160C3F88420196F21F004011967596F21F0E4
S21440117004015967C3F8C020C3F8D420C3F8B02090
S2144011804FF080521A66C3F890205A655A62C3F8E8
S2144011908020196F21F080511967596F11435967A4
S2144011A05A604FF000521A66C3F890205A655A6249
S2144011B0C3F88020196F21F000511967596F114309
S2144011C059675A604FF080421A66C3F890205A65B5
S2144011D05A62C3F88020196F21F080411967596F11
S2144011E0114359675A604FF000421A66C3F8902080
S2144011F05A655A62C3F88020196F21F0004119677A
S214401200596F114359675A604FF080621A66C3F8A7
S21440121090205A655A62C3F88020196F21F0806189
S2144012201967596F114359675A604FF000621A6642
S214401230C3F890205A655A62C3F88020196F21F08F
S21440124000611967596F114359675A6010BD00BF56
S21440125050180E40CD37400000140E4070B4084B76
S2144012605D689C68D868D9695A6D80261E605D6046
S2144012709C60D860D9615A6505221A6070BC704778
S2144012800000084008B501F03F03184311F4807F82
S21440129004D011F4006F0DD040F4845011F4804F08
S2144012A018BF40F400601D4B1A615861184601F49F
S2144012B080520DE011F4005F14BF40F4865040F4B5
S2144012C08250EBE713F41B0F0CD113F0010F0DD136
S2144012D0036C002AF6D013F41F0FF6D0104B984735
S2144012E0002008BD0E4B9847002008BD11F4005F53
S2144012F003D1012008BD012008BD084B1B6C4FF0F0
S214401300FF32064903F03003202BF4D00B6C013A31
S214401310F8D1034B9847002008BD00BF00000840A6
S2144013205D12400008B51020064B9847064B7222C7
S2144013309A60DA6111225A654FF4E0625A600522DB
S2144013401A6008BDCD3740000000084000280CBF9A
S21440135004200020704701207047000063B32A48ED
S214401360436D43F480734365284BB3EB410F33D34F
S21440137010B42748B0FBF1F301FB130111BB023B4D
S2144013802149486820F0FF0048604C68C3F3470096
S2144013902043486013F0010F16D04B6843F4803367
S2144013A04B60042A16D0082A0CBFC0220022164BD7
S2144013B0DA605DF8044B70471348436D23F480733E
S2144013C04365D1E7013BDBE70F494B6823F48033A5
S2144013D04B60E6E78022EAE70B4B596821F0FF01B5
S2144013E059605968596008494B6823F480334B600C
S2144013F0042A06D0082A0CBFC0220022024BDA601C
S21440140070478022FAE700BF00000840FFD7B805C3
S21440141000D8B80570470000074B5A6822F460525F
S2144014205A6000221A614FF410625A611A46136CD1
S21440143013F0010FFBD070470000084010B5084B72
S2144014405A6822F460525A605A6822F400425A603F
S21440145000249C610A4601462046024B984710BD30
S2144014600000084085124000014B186A704700BFD4
S2144014700000084010B4031D1430094C226A110EB7
S21440148003F8041C110C03F8031C110A03F8021C91
S21440149003F8012C04338342F0D15DF8044B7047C7
S2144014A00000084070B59DF8104074B3294D6C6834
S2144014B044F400446C60274D6C6844F4C0546C603F
S2144014C012F0030F27D06C6844F400546C6000F4AC
S2144014D00044002C14BF4FF480344FF4A02410F482
S2144014E0803F1ED143EA02451A4EB56110F4003FD4
S2144014F02AD110F4802F2AD110F4002F17D110F4DF
S214401500801F18BF44F4002411E0124D6C6824F488
S21440151000446C60CFE70F4D6C6824F400546C6058
S214401520D5E744F40014C2F308050A4EB561002618
S214401530094D2E60094D2A80094A13800A46014605
S2144015402046084B984770BD44F42014EFE744F417
S2144015508014ECE700000840080A0020020A002039
S214401560040A00208512400008B51549154A0B6C40
S21440157013421BD113F0020FF9D0114B1B6B0360C3
S214401580114A136804331360104A1188104A1288AF
S21440159002FB01F2934211D309490A4A0B6C1342EB
S2144015A008D113F0006FF9D0012008BD094B9847C9
S2144015B0002008BD074B9847002008BD012008BD05
S2144015C000000840000060C0080A0020020A002010
S2144015D0040A00205D124000154B1B8803FB01F1F6
S2144015E010F0030F02D113F0030F1BD0114A5368BB
S2144015F043F4005353600F4BC3F800015B6813F489
S214401600005F0CBF8B080B460A4AC2F80431002321
S214401610C2F814310120C2F82001074A13680B446F
S21440162013607047034A536823F400535360E2E75D
S214401630020A002000000840080A002008B51549A4
S214401640154A0B6C134216D113F4804FF9D0134B46
S2144016501A88134B1B8803FB02F3124A1268934204
S21440166016D80C490C4A0B6C13420DD113F0006F80
S214401670F9D0012008BD40F20222064BC3F82021D3
S214401680094B9847002008BD074B9847002008BDE7
S214401690012008BD00000840000060C0020A00208B
S2144016A0040A0020080A00205D124000164B1B88E2
S2144016B003FB01F110F0030F02D113F0030F1DD00E
S2144016C0124A536843F400535360104BC3F8080162
S2144016D05B6813F4005F0CBF8B080B460B4AC2F8DE
S2144016E00C310023C2F81C314FF48073C2F820310D
S2144016F0074A13680B44136001207047034A536837
S21440170023F400535360E0E7020A0020000008403C
S214401710080A002008B51549154A0B6C134216D125
S21440172013F4004FF9D0134B1A88134B1B8803FB56
S21440173002F3124A1268934216D80C490C4A0B6CB4
S21440174013420DD113F0200FF9D0012008BD0C4BE9
S214401750984740F20222054BC3F82021002008BDDE
S214401760074B9847002008BD012008BD00000840F0
S214401770000060C0020A0020040A0020080A002078
S2144017805D12400030B485688468A54203D0856801
S2144017908468AC42FBD161B1C4F3015000EB8005D4
S2144017A0C4F3034000EB450014F4800F18BF0C3020
S2144017B0086042B1C4F3023101EB8101C4F3032057
S2144017C000EB4101116043B1C4F3021202EB820206
S2144017D004F00F0404EB42041C6030BC7047F0B4C5
S2144017E0049EC568C468A54203D0C568C468AC42B8
S2144017F0FBD199B1C4F3033000EB8000C4F3032758
S21440180007EB4007C4F3021000EB800504F00F001E
S21440181000EB4500642505FB0070086042B1C4F348
S214401820005081000844C4F3034101EB40011160BD
S21440183043B1C4F3017202EB8202C4F3036101EBCD
S21440184042021A6016B1C4F342543460F0BC70478A
S214401850FEE7000000B583B0254B264A9A4210D0DA
S214401860254B234A9A420CD2013B9B1A23F0030392
S214401870043313441F4951F8040B42F8040B9A42B0
S214401880F9D11E4B1E4A9A420AD2013B9B1A23F0BC
S214401890030304331344002142F8041B9342FBD154
S2144018A0184A194B23F07F039360EFF31083B3FA83
S2144018B083F35B09019372B6BFF35F8F0022134B2D
S2144018C01A700199124A136843F470031360BFF309
S2144018D04F8FBFF36F8F29B101220C4B1A70BFF3A5
S2144018E05F8F62B60B4B98470B4B9847FEE700BF9F
S2144018F0000000207C8A4000B8090020EC0A002046
S214401900B809002000ED00E0000040000000002084
S21440191088ED00E021384000E93440003B4B1B6B2B
S21440192003F00303012B1DD083B1022B36D0374B77
S2144019301B6B03F07003702B5FD0344B1A6B34492B
S214401940C2F302120B68D3400B607047314B5B69A1
S21440195013F0800F14BF4FF400424FF4FA422C4B62
S2144019601A60E4E7294B1B6A13F0807F03D02A4AAB
S214401970274B1A60DBE7294A254B1A60234B1B6A24
S21440198003F07003102B05D0202BD0D1224A204BD9
S2144019901A60CCE7224A1E4B1A60C8E71B4B1B6AEC
S2144019A013F0807F16D01C4A194B1A60174B1B6BDE
S2144019B003F00303022BBAD1144A916A926A144880
S2144019C0C1F30A41036801FB0333D2B2B3FBF2F31F
S2144019D00360ACE7114A0E4B1A600C4B1B6A03F0CF
S2144019E07003102B05D0202BE0D10B4A084B1A6011
S2144019F0DCE70B4A064B1A60D8E7054A13680949E4
S214401A00A1FB03135B081360704700BF00040E4041
S214401A100400002010180E40001BB70000093D00CF
S214401A2000127A00ABAAAAAA124B984211D9124BBE
S214401A30984213D9114B984214D9114B984215D954
S214401A40104B984294BF4FF004220F4A0F4B1A6037
S214401A5070474FF080620D4B1A6070470C4A0B4B34
S214401A601A6070470B4A094B1A6070470A4A074B80
S214401A701A607047FF2C3101FF596202FF869303BC
S214401A80FFB3C404FFE0F50500050004000A0E405D
S214401A900001000400020004000300040A4B1B6817
S214401AA053B1094B1B681A180849914208DB104687
S214401AB0054A106018467047054A034B1A60F0E71F
S214401AC04FF0FF30704700BF0C0A0020FCFF01209B
S214401AD0F03A0020022815D810B504460B4B98471C
S214401AE0032806D12046094B9847032801D10120F8
S214401AF010BD48B92046064B9847002814BF04201E
S214401B00002010BD01207047012010BD7510400018
S214401B10B910400008B5054B984720B102280CBFC5
S214401B200320012008BD002008BD00BF75104000FE
S214401B302DE9F04F83B080460D4614461F46154BA0
S214401B40984718B9012003B0BDE8F08F064601A9B2
S214401B504046114B9847B14606FB0742019B03FBA4
S214401B6006639A4201D90420EDE7BA4677B1760279
S214401B700027DFF828B02A4621464046D84738B9DD
S214401B8001374C4435445745F5D1DCE70020DAE7C9
S214401B900120D8E7AD1040008D104000D510400021
S214401BA02DE9F04F83B080460D4614461F46154B30
S214401BB0984718B9012003B0BDE8F08F064601A942
S214401BC04046114B9847B14606FB0742019B03FB34
S214401BD006639A4201D90420EDE7BA4677B1760209
S214401BE00027DFF828B02A4621464046D84738B96D
S214401BF001374C4435445745F5D1DCE70020DAE759
S214401C000120D8E7AD1040008D104000F91040008C
S214401C1010B582B01446032927D8DFE801F01F0725
S214401C200F0201231360002002B010BD01A9114B22
S214401C309847019B013323600020F5E70E4B9847F9
S214401C40082814D84FF48B7323FA00F010F0010FD5
S214401C5001D10120E8E700202070E5E7074B9847D0
S214401C6000280CBF00200320DEE70420DCE701202C
S214401C70DAE700BF8D104000AD1040007510400000
S214401C8030B58BB0114C07AB08AA09A92046104DB9
S214401C90A84703AB009304AB05AA06A920460D4C03
S214401CA0A047049B1B04059843EA4053099843EA1F
S214401CB0C023089843EA4013079843EA500306981F
S214401CC0A0F2BC7043EA40600BB030BD60180E40D6
S214401CD085174000DF1740003AB101388A1811F8DE
S214401CE0013B00F8013F9142F9D1704702398369C0
S214401CF0023B99423DBF8378806A01FB0300002087
S214401D007047024600F10B010020C30143EA50032E
S214401D1012F8010B50FA83F3D8B28A42F5D17047D5
S214401D2098B108B502780AB9092008BDC2888A4227
S214401D3001D0092008BD4078054B984700F00100C7
S214401D40002814BF0320002008BD0920704700BFAC
S214401D50151B400038B5044601230A4600F1300101
S214401D6040781D4DA84708B1032038BD94F82F226F
S214401D7094F82E3243EA02231BB2184A934201D00B
S214401D80022038BD94F8692094F868301B0443EA72
S214401D90026394F86620134394F8672043EA0223CC
S214401DA023F07F430E4A934213D094F8853094F83C
S214401DB08400000440EA036094F88230184394F8A4
S214401DC0833040EA032020F07F40801A18BF01206D
S214401DD038BD002038BD00BF311B400055AAFFFF6C
S214401DE046415400F8B504682378303B092B02D8A6
S214401DF065783A2D18D0B04B1C680C60002C00F06B
S214401E00428115462378ABB16078AC4B984710F0CA
S214401E10010F0FD1002D00F0388100F0040000289B
S214401E200CBF00200A20F8BD02340460002BE2D02C
S214401E300B20F8BD002020706070A14B984710F032
S214401E40010F01D00320F8BD25B110F0040F01D0DA
S214401E500A20F8BD002120469A4B9847012806D014
S214401E600025032800F01381C8B10D20F8BD94F872
S214401E70F2310BB90D20F8BD94F8F93194F8F851C9
S214401E802D0445EA036594F8F6311D4394F8F7317E
S214401E9045EA0325294620468A4B9847E1E794F8C9
S214401EA03C2094F83B3043EA02231BB2B3F5007F54
S214401EB001D00D20F8BD94F8473094F8462052EAF9
S214401EC003220DD194F8573094F85620120442EA73
S214401ED0036294F854301A4394F8553042EA032289
S214401EE0E26194F840E084F803E00EF1FF33DBB2A1
S214401EF0012B01D90D20F8BD94F83D60A670002E48
S214401F0000F0C780731E334201D00D20F8BD94F810
S214401F10423094F8411041EA0321218111F00F0F1D
S214401F2040F0B98094F8440094F8433053EA0023D4
S214401F300DD194F8530094F852301B0443EA0063E2
S214401F4094F85000034394F8510043EA002394F871
S214401F503F0094F83E7057EA002700F09E8002FB50
S214401F600EFE07EB111070448342C0F098801B1A97
S214401F70B3FBF6F3002B00F0948040F6F576B342C0
S214401F808CBF022601264FF6F57C634500F2A480FE
S214401F900233A3612844A0623D442562002900F034
S214401FA0888075446562022E0FBF5B0003EB4301D9
S214401FB003F0010303EB510303F2FF13B2EB532F7D
S214401FC075D34FF0FF3323610023E3604AE094F873
S214401FD02F2294F82E3243EA02231BB23A4A934207
S214401FE04BD194F8332094F832301B0443EA026312
S214401FF094F83020134394F8312043EA0223334ABE
S21440200093423CD194F8172294F816321B0443EAC4
S214402010026394F81422134394F8152243EA0223E9
S2144020202B4A93422DD194F81F2294F81E321B045B
S21440203043EA026394F81C22134394F81D2243EAB1
S2144020400223E36094F81B2294F81A321B0443EAF6
S214402050026394F81822134394F8192243EA0223A1
S2144020602361032626701B4A138801339BB21380D4
S214402070E3800020E0622071F8BD0326F2E70326E5
S214402080F0E70326EEE70C20F8BD0020F8BD01205F
S214402090F8BD0D20F8BD0D20F8BD0D20F8BD0D2073
S2144020A0F8BD0D20F8BD0D20F8BD0D20F8BD0D2063
S2144020B0F8BD0D20F8BD00BF100A0020151B4000DB
S2144020C0D51A4000551D400055AAFFFF52526141A7
S2144020D072724161140A00200233A3612844A06250
S2144020E02F4427620029E0D194F85F0094F85E10F0
S2144020F0090441EA006194F85C00014394F85D00ED
S21440210041EA002161629B0003F2FF13B2EB532FBA
S214402110C9D34FF0FF3323610023E360637194F823
S214402120613094F8602042EA03222A446261012327
S21440213004F130016078034DA84700283FF447AFCC
S21440214003268FE7311B40002DE9F047C76A8F42D0
S21440215035D00E46044603791BB92EBB0020BDE899
S214402160F08700F1300801233A4641464078184D42
S214402170A84738BB00232371236AE26913449F4271
S214402180EBD2E578012DE8D94FF0010ADFF8409010
S214402190E3691F4453463A4641466078C847013D86
S2144021A0EDB2012DF4D1D8E70123324604F13001D7
S2144021B06078084DA84740B9E662BDE8F087002041
S2144021C0BDE8F0870120BDE8F0870120BDE8F08734
S2144021D0A11B4000311B400001296AD9F8B583692C
S2144021E0994268D20C4606460378022B2FD0032B22
S2144021F041D0012B02D04FF0FF30F8BD01EB510724
S214402200016A01EB57212D4B984710B14FF0FF3034
S214402210F8BDC7F30803334493F830500137316AAA
S21440222001EB57213046254B984710B14FF0FF3011
S214402230F8BDC7F30807F01990F8300045EA0020CB
S21440224014F0010F14BF0009C0F30B00F8BD016A7B
S21440225001EB1421194B984710B14FF0FF30F8BDF1
S214402260600000F4FF70304490F8313090F8300051
S21440227040EA0320F8BD016A01EBD4110F4B9847A2
S21440228010B14FF0FF30F8BDA00000F4FE7000F132
S21440229030023244D17893781B0443EA01633044D9
S2144022A090F830001843537840EA032020F07040FE
S2144022B0F8BD012070470120F8BD00BF492140000D
S2144022C0F8B505460C46C180816801293DD00368B3
S2144022D09A69914201D30220F8BD61B91A78032A5F
S2144022E006D00022EA601A89A24221D80220F8BD10
S2144022F0596A0029F5D09E783601B44210D3174F5C
S2144023002868B8470146B0F1FF3F20D0012820D9C1
S2144023102B689B6998421ED2A41BA4B2A642EFD952
S214402320E96028680E4B984700EB1410286103E0DC
S2144023305B6A03EB14132B612B68303304F00F04F5
S21440234003EB44146C610020F8BD0220F8BD012068
S214402350F8BD0220F8BD0220F8BD00BFD9214000DC
S214402360ED1C40002DE9F041012940F28F80836941
S214402370994201D302278AE015460C460646037862
S214402380022B4ED0032B5FD0012B03D00227012314
S21440239033717CE001EB5108016A01EB58213D4B5B
S2144023A0984707460028F2D1C8F3080314F0010FF7
S2144023B01CD0334493F8302002F00F0242EA051254
S2144023C083F8302008F1010801233371316A01EBAC
S2144023D0582130462F4B9847002853D1C8F3080859
S2144023E0C5F30712B04488F83020D0E7334483F86A
S2144023F0305008F1010801233371316A01EB58214E
S2144024003046244B984700283ED1C8F3080806EBD0
S214402410080393F8303023F00F03C5F303221A4322
S214402420E0E7016A01EB14211A4B9847074600285B
S214402430ADD1630003F4FF73334483F83050C5F3E3
S214402440072283F83120A2E7016A01EBD411114B31
S2144024509847074600289AD1A10001F4FE7101F181
S21440246030033344DA781206314402F070422A438D
S21440247081F83020C2F307215970110C9970120E62
S214402480DA7084E7074682E7074680E70227384641
S214402490BDE8F081492140002DE9F04105468846D7
S2144024A041B9C66886B183699E4228BF0126344634
S2144024B0274F17E0264B9847034601283ED9AA697E
S2144024C0904240D34646F2E70126F0E721462846AA
S2144024D0B847034670B1B0F1FF3F34D0012832D040
S2144024E0B4422FD00134AB699C42EFD3012E27D99A
S2144024F00224EBE76FF0704221462846154B98477A
S2144025000346A8B9B8F1000F0AD1EC602B69B3F1C5
S214402510FF3F1BD0013B2B6101236B71234612E02A
S2144025202246414628460B4B984703460028ECD0A7
S214402530012B0CBF4FF0FF33012304E0012302E0E0
S214402540002300E000231846BDE8F0812346FAE762
S214402550D92140006523400001292ED92DE9F843B2
S21440256004460E468369994203D302221046BDE8CC
S214402570F883164F4FF00009DFF8548003E02E46EC
S214402580A369AB42F2D931462046B8470546B8B1B2
S214402590012817D0B0F1FF3F16D04A4631462046B4
S2144025A0C04702460028E1D12369B3F1FF3FE6D099
S2144025B00133236101236371E1E70222104670472D
S2144025C00022D3E70222D1E70122CFE7D9214000FB
S2144025D06523400038B5044600212E4B98470346F5
S2144025E050B92378032B09D00022114660782A4B35
S2144025F09847031C18BF0123184638BD6379002B43
S214402600F2D00023E36204F1300104F50C700B466F
S214402610002203F8012B8342FBD1552384F82E3247
S214402620AA2384F82F32522384F8303084F831308D
S214402630612384F83230412284F83320722084F8B3
S214402640140284F8150284F8162284F81732236997
S21440265084F81832C3F3072284F819221A0C84F837
S2144026601A221B0E84F81B32E36884F81C32C3F32C
S214402670072284F81D221A0C84F81E221B0E84F8AA
S2144026801F32012362696078044DA84700236371B6
S214402690AAE700BF49214000111C4000A11B400092
S2144026A02DE9F84FC4880134A4B214B90420BDE81B
S2144026B0F88F036913B90420BDE8F88F0E46054627
S2144026C014F00F0710D101330361C16831B90368B4
S2144026D01B89A34208D80420BDE8F88F0068837899
S2144026E0013B13EA141308D0EC802B68303303EB1D
S2144026F047136B610020BDE8F88F334B9847804600
S21440270001284FD9B0F1FF3F4FD0286883699845DC
S21440271040D316B90420BDE8F88FE9682B4B98479C
S214402720804610B90720BDE8F88F012840D0B0F1A8
S214402730FF3F40D000212868254B984700283DD1D0
S2144027402B6803F50C713033002203F8012B8B42C3
S214402750FBD12E68414630461E4B9847F062002615
S2144027604FF0010BB246DFF868902B689978F2B2CA
S21440277091420BD983F804B051462868C8470136C1
S214402780F8B92A68D36A0133D362EEE71646DA6AA6
S214402790961BDE62C5F80C80414628680D4B98476C
S2144027A02861A1E70220BDE8F88F0120BDE8F88F38
S2144027B00220BDE8F88F0120BDE8F88F0120BDE873
S2144027C0F88F0120BDE8F88FD921400099244000B9
S2144027D049214000ED1C40002DE9F04F85B00546EC
S2144027E00021624B9847804608BB4FF0FF0BD94606
S2144027F05F4FDA4695E00F2A1DD0B9F1000F04D19D
S21440280020465C4B9847824511D04FF6FF732B8489
S214402810AB69DA7A12F0010F7AD104F10B0014F8A2
S214402820011B13F8012B91426CD1A042F7D14046D0
S21440283005B0BDE8F08FD5F81C80B8F1000F69D020
S21440284016F0400F0CD094F80DA006F0BF06EB88AB
S2144028502B8494F80DB0D34508D04FF0FF0959E0CB
S214402860B14518BF4FF0FF0954D1F2E794F800A0E5
S2144028702AF0400A0AF1FF3A0AEB4A030AEB8303BE
S214402880DFF8FC9009F10D0A01200396CDF804B05C
S2144028901E4602950FE01846374B98478346FE2E55
S2144028A05BD8751C38F81600334B9847834558D18B
S2144028B02E46D14513D019F8012BA3185978A35C9E
S2144028C043EA01230028E6D14FF6FF729342F0D048
S2144028D0DDF804B0029DDA464FF0FF091AE0DDF855
S2144028E004B03246039E029D237813F0400F04D076
S2144028F018B138F81230002BEDD1013E5FFA86F958
S214402900DA4607E04FF0FF0904E04FF0FF0901E028
S2144029104FF0FF0900212846184B9847804600286C
S21440292085D129692868B847804600287FF47FAF5C
S2144029306C69267876B1E37A03F03F02E52EE4D060
S21440294013F0080F3FF457AF0F2A3FF474AF4FF021
S214402950FF09DFE74FF0040869E7DDF804B0029DA1
S214402960B9E7DDF804B0029DB5E700BFC1224000DC
S21440297049214000031D4000B5344000A1264000D8
S214402980648240002DE9F04F83B0824688460B783B
S2144029902F2B0CD05C2B0AD00023CAF8083098F8AE
S2144029A000301F2B06D9DFF8F49244460CE008F1BD
S2144029B00108F1E700215046B34B984703460022F2
S2144029C0CAF8142030E11C462746234613F8010B6C
S2144029D02F28F8D05C2808BF1C46F5D0DAF81CB083
S2144029E080B21F2840F22F812F2800F031815C28CA
S2144029F000F03781ABF102060125A84612E073BB12
S214402A0026F8022F6B1C14F8010F1F2840F21D8178
S214402A102F2800F01F815C2800F01C81B3F5807FD2
S214402A201DD01D464146C8470246C0B17F28E7D85C
S214402A30222800F0F8802A23944998B29042DED0AB
S214402A4011F8013F002BF8D1DAE7013D00F0EB80AA
S214402A5032F8023D202BF8D02E2BF6D00DB90623A7
S214402A60E2E0680000232BF81530DAF8183003F15E
S214402A700B01202203F8012B8B42FBD1ABF1020164
S214402A80002300E0013331F8022F202AFAD02E2A04
S214402A90F8D00BB146F00306811E0BEB01023BF863
S214402AA001102E2905D0013D03D032F8021D2E29F3
S214402AB0F9D1082200924FF00008CDF8048005E0D6
S214402AC0AF4200F0D18046F003063B465F1C3BF821
S214402AD0130050B32028F6D02E28F1D0009B9845FE
S214402AE019D2AF4200F0C0807F286CD82B2879D00E
S214402AF02C23674A99B2814272D012F8013F002BCC
S214402B00F8D1A0F141039BB2192B76D8019B43F034
S214402B100203019369E0009B0B2B48D0AF4200F0C4
S214402B20A68046F0030640F2A280DAF818301A78FB
S214402B30E52A45D0009B082B6BD0019A02F00C0387
S214402B400C2B6DD002F00302032A69D016F0020F58
S214402B500BD1019A02F0030BBBF1010F08BF46F000
S214402B601006042B08BF46F00806DAF81830DE7266
S214402B705046484B9847DAF81830DA7A0346002829
S214402B8056D112F0040F4FD1DAF81420D37A13F04E
S214402B90100F56D0517D137D43EA0121D07E937E9F
S214402BA043EA002343EA0143CAF808300CE746F0FC
S214402BB00306DAF818301A78E52ABED10B220092BE
S214402BC005221A70B6E70021C8470346002858D0A9
S214402BD0314A134413F8800C46F0020610B185E7DC
S214402BE0002B8ED046F003065F20DAF8183003F844
S214402BF008003B4608F1010868E7A0F161039BB274
S214402C00192BF2D8019B43F001030193203880B280
S214402C10EBE7019B4FEA830B5FFA8BF301938CE75C
S214402C2046F0020692E70623184603B0BDE8F08F4A
S214402C300428F9D102F00402002A14BF03460523F3
S214402C40F2E70523F0E701230025FC18042603E0FD
S214402C5001230025FC180026002DE4D00BEB45028E
S214402C60F6E601230025F5E7009B0B2B9FD0019B42
S214402C709B00DBB201932B460B2200924FF00808D4
S214402C8024E746F00206ADE7C1224000F582400048
S214402C9001834000D92740007482400075344000CC
S214402CA02DE9F04F89B004468569D0F81CB00C2257
S214402CB0294605A8A94B98479DF81F3013F0010FE9
S214402CC079D00023EB72E3610B2205A92846A34B7B
S214402CD0984701273B464FF02008DFF89C92DFF8E4
S214402CE07CA232E03B4630E0134602E0002300E0A0
S214402CF013462B4405E0414603F8011B591B0729A0
S214402D0007D8072AF7D808A9114411F8141C01322D
S214402D10F2E72046C847064600283ED10137BFB2F4
S214402D20642F38D00B2205A92846D047052FD9D97D
S214402D303B465946DA0342EA530331F8022B12FA6D
S214402D4083F39BB20A88002AF4D10DF113060722BA
S214402D5003F00F0000F13001392988BF00F1370138
S214402D60013A06F80119C3F30F13002BF0D17E2168
S214402D7008AB134403F8141C002AB5D02B78202B3C
S214402D80B4D02946002301339A42B1D011F8010F3E
S214402D902028F8D1ADE7072604E0642F00F09F8096
S214402DA0042803D0304609B0BDE8F08F9DF81F30A8
S214402DB0EB72C4F81CB09DF81F3013F0020F14D00D
S214402DC0BBF800307BB1002301339BB23BF81320A5
S214402DD0002AF9D11933624F87FB0327DB17C3EB71
S214402DE0A707BFB202E00023F4E7012700212046F0
S214402DF05C4B984706460028D4D14FF0000A55460B
S214402E00DFF86C81D346DFF864910AE06B1C9BB216
S214402E109F4266D01D4601212046C84706460028E8
S214402E20C0D121692068C04706460028BAD16369E8
S214402E301B78E52B00D023B9002DE7D1B4F806A0C7
S214402E40E4E75D46E7E751462046464B9847064648
S214402E500028A7D1A069444B9847009000270197C7
S214402E6019E0714665E04FF6FF72934202D039F89A
S214402E7011300BB94BF0400B80F800B023680122AC
S214402E801A7139462046394B98470646002889D15C
S214402E90013DADB23DB321692068354B98470646A3
S214402EA000287FF47FAFD4F81C9060695FFA85FBFA
S214402EB09DF8003043730F23C37207738776C77637
S214402EC00BF1FF3101EB410301EB8301294A02F18B
S214402ED00D08019B4FF6FF764FF0FF0A2CE00726C1
S214402EE060E7012BAFD821692068214B98470646FA
S214402EF000287FF457AF656905F120012B46002274
S214402F0003F8012B9942FBD10B22A1692846134BAB
S214402F109847A369DB7A03F018032B7323680122D2
S214402F201A713FE792F800E000F80EA086448EF84B
S214402F3001A00132904596D0B342F3D001F1010E84
S214402F4039F811301178435401444FEA132C81F874
S214402F5001C0002B85D171463346EAE7D91C4000B4
S214402F604FECC44EC1224000031D4000A126400045
S214402F704921400064824000D927400008B10B2018
S214402F807047064B1B680BB100221A7009B100232C
S214402F900B70024B19600020704700BF100A0020DB
S214402FA02DE9F041ADF50E7D05460191164600230C
S214402FB0036002F01F0702F01E0285A901A8584BC5
S214402FC0984782AB8B9302AB8C9340B103468A9C66
S214402FD016F01C0F17D1002B40F092800DE001999F
S214402FE085A8504B98478A9C03460028F0D1002C71
S214402FF000F08B8016F01C0F16D1E37A13F0100FFA
S2144030004FD004237CE0042B05D047F008078A9C69
S214403010002B57D074E085A8434B984747F00807E5
S2144030208A9C034638B16BE0E37A13F0110F73D1F4
S21440303016F0040F72D117F0080F3FD03B4B98475D
S214403040A073C0F30723E373030C2374000E60746D
S2144030500023E37223776377A377E377627D267D49
S21440306046EA0226E17EA27E42EA0122A376E37683
S2144030702375637585980123037152EA06461BD073
S214403080D0F82C8031462A4B98470346002837D143
S2144030908598013EC6604146264B9847034658B140
S2144030A02EE016F0020F04D013F0010F01D00723D4
S2144030B026E016F0080F01D047F02007859BDB6A14
S2144030C0EB612C62AF71627D237D43EA0222E17E92
S2144030D0A37E43EA012343EA02432B61E27FA37FB8
S2144030E01B0443EA0263227F1343627F43EA0223C0
S2144030F0EB600023AB60AB61859A2A60D288AA80D9
S21440310018460DF50E7DBDE8F08116F01C0F01D176
S21440311006237DE7062378E70723F1E70823EFE752
S214403120E51D400085294000A12C4000811C400040
S21440313059254000492140002DE9F04F83B0044610
S2144031408946164698460023C8F8003081880068AD
S214403150754B98470190002840F0E280A37913F021
S214403160800F40F0DB8013F0020F02D1072301935B
S214403170D6E0E368F3420FD2002E7AD10CE000216D
S2144031806A4B98470346206103E06169674B98475E
S2144031900346002B40F08180A368E268934288BFD4
S2144031A0E360A37943F02003A371B9E0A37963F009
S2144031B07F03A37102230193B2E0A37963F07F03F8
S2144031C0A37101230193ABE020680123A26904F1B7
S2144031D024014078564DA84720B9A37923F04003F0
S2144031E0A37164E0A37963F07F03A3710123019385
S2144031F096E0A37963F07F03A371022301938FE0E7
S214403200A37963F07F03A3710123019388E04FF411
S214403210007209EB412104F12400464B9847A379FC
S21440322023F04003A37165E0A3699D4203D0A268E2
S214403230E3689A4261D3A561A068C0F30800C0F570
S2144032400075B54228BF354624302A4649462044B4
S214403250384B9847A37943F04003A371A944A36829
S2144032602B44A360D8F800302B44C8F80030761BB7
S21440327092D0A268C2F30803002BDDD12068837881
S214403280013B03EA522313F0FF070CD1002A7FF4D8
S2144032907CAF2369002B3FF472AF012B86D0B3F18D
S2144032A0FF3F8AD06361A37913F0400F8CD1D4F8E6
S2144032B000A061695046204B98470546002898D0A4
S2144032C03D445FEA562BAFD09AF8023007EB0B022C
S2144032D09A4288BFA3EB070B5FFA8BF32A46494610
S2144032E09AF80100124FB847002889D1A169491BB6
S2144032F08B458CD84FEA4B25B0E701232A4604F18C
S21440330024019AF801000D4FB847002893D0A379BE
S21440331063F07F03A3710123019301E0022301932D
S214403320019803B0BDE8F08F211D4000992440006D
S214403330A11B4000D91C4000ED1C4000311B400042
S21440334038B5044681880068284B98470346D0B96C
S214403350A27912F0200F16D012F0400F0DD0206840
S2144033600123A26904F124014078214DA847002892
S21440337039D1A37923F04003A371E16920681D4B3E
S2144033809847034608B1184638BD256AEB7A43F09D
S2144033902003EB72E3682B77A3891B0A6B77E389DC
S2144033A0AB77E37BEB772369AB76238A1B0AEB7616
S2144033B0638A2B75638A1B0A6B750F4B9847A875F3
S2144033C0C0F30723EB75030C2B76000E6876A379C3
S2144033D023F02003A371236801221A712068074B4B
S2144033E098470346CFE70123CDE700BF211D4000A5
S2144033F0A11B400049214000811C4000D5254000CB
S21440340010B50446034B9847034608B9002222608D
S214403410184610BD4133400010B582B00C468DF8BA
S214403420000001AB012269462046054CA047019B9F
S214403430012B0CBF01204FF0FF3002B010BD00BF83
S21440344039314000F8B503787BB10E460546441C3A
S214403450074F31461846B847B0F1FF3F06D0601BCD
S21440346014F8013B002BF4D1F8BD0020F8BD00BF96
S214403470193440007F2819D971B9C72813D00C4A8F
S214403480012332F8021F814203D001339BB2802BC6
S214403490F7D18033D8B27047FF2806D88038044B1F
S2144034A033F8100070470023F3E70020704700BF52
S2144034B008834000612810D00949012262239842BF
S2144034C005D0013231F8023F002BF8D103E018B1A5
S2144034D0044B33F81200704770470022F8E700BFED
S2144034E00A844000E885400008B5024B9847024CE5
S2144034F0A047FDE7B5014000D101400010B50E4899
S2144035000E4B98473E2100200D4B98470D4CA04748
S2144035100028FCD00C4B98470C4A0D4B9A620D4C39
S214403520A0470028FCD010200B4B98470B4B9847E1
S2144035300B48024B984710BD000E2707291A40003B
S214403540493740009D374000AD374000013F0F20CF
S21440355000040E40BD374000E53640001D194000CF
S21440356000D8B8052DE9F84381460F46124B9847D8
S21440357005464846114B9847054013D0104C04F179
S214403580600603E0B4420DD010345DB12068B84206
S214403590F8D161682942F5D0E3689847636825EA20
S2144035A00305EFE7074B1B6823B1074B1B680BB1BE
S2144035B048469847BDE8F883C3364000C7364000C3
S2144035C0180A0020C00A0020880A002008B50921F1
S2144035D00148024B984708BD000E0E406535400036
S2144035E008B50A210148024B984708BD00100E4016
S2144035F06535400008B50B210148024B984708BD89
S21440360000120E406535400008B50C210148024BBB
S214403610984708BD00140E406535400008B50D219A
S2144036200148024B984708BD00160E4065354000DD
S2144036304264B1F1C05F3AD013D8B1F1006F25D0E3
S214403640B1F1805F0AD1036F13430367436F416F45
S2144036500B4023EA02034367426070470029FBD1D0
S2144036607047B1F1205F21D009D8B1F1005FF3D1A6
S214403670036F13430367436F13434367ECE7B1F1AC
S214403680405F13D0B1F1605F10D0E5E710B4016F32
S214403690046FD34321401C4619400167436F416F76
S2144036A00B402340436742605DF8044B7047036F0E
S2144036B0016F0B4023EA02030367436F13434367DC
S2144036C0CAE7C06C7047806C7047430903F5001327
S2144036D003F207735B0200F01F00012202FA00F0BB
S2144036E018637047174A136B23F070031843106330
S2144036F0936E13F0080F0AD14FF4006311498A6E97
S21440370012F0080F03D1013BF9D1012070470D4A52
S214403710136B23F0030343F002031363936E13F01B
S214403720080F0AD14FF4006306498A6E12F0080F5C
S21440373005D1013BF9D10120704700207047002099
S214403740704700BF00040E40C8B9114A136A090208
S21440375089B223F45C1323F0030343F45C1343F071
S21440376001030B431362936E13F0010FFBD0084A1C
S214403770136A43F09B7343F48033136270470449E3
S2144037800B6A044A1A40044B13430B62704700BF4F
S21440379000040E40FCFFC8FE02003701024B986E44
S2144037A000F48030704700BF00040E404FF00052D7
S2144037B0014B9A62704700BF00040E40024B986E61
S2144037C000F00200704700BF00040E402F281ED8AD
S2144037D01F280CD8114B9A6901238340934318D075
S2144037E0012303FA00F00D4B186100207047203883
S2144037F00A4BD3F808210123834093430BD001237F
S21440380003FA00F0054BC3F8000100207047012082
S2144038107047002070470020704700BF00040E40ED
S21440382070B50F4E0F4D761BB61018BF002405D04E
S214403830013455F8043B9847A642F9D10A4E0B4D41
S214403840761B05F005F9B61018BF002406D00134E3
S21440385055F8043B9847A642F9D170BD70BD00BFED
S2144038605C8A40005C8A4000648A40005C8A400073
S21440387070B4860746D0541E002A41D0CAB20346CA
S21440388002E014F1FF343BD303F8012B9D07F8D137
S214403890032C2ED9CDB245EA05250F2C45EA054521
S2144038A019D903F110022646103E0F2E42F8105C3E
S2144038B042F80C5C42F8085C42F8045C02F11002E4
S2144038C0F2D8A4F1100222F00F0204F00F041032D6
S2144038D0032C13440DD91E462246043A032A46F8C2
S2144038E0045BFAD8221F22F003020432134404F089
S2144038F003042CB1C9B21C4403F8011B9C42FBD103
S21440390070BC704714460346C2E700BF0EB4F0B51D
S2144039109CB021AB0F4953F8042B019305466FF03A
S2144039200044086802954FF402774FF6FF7602A9E6
S2144039300695ADF8147004940794ADF8166000F040
S2144039400BF8029B00221A701CB0BDE8F04003B092
S214403950704700BF080000202DE9F04FC3B00C466A
S2144039600B9192460F930C9002F00EFA03681A934E
S214403970184603F0E5F8A3891990190603D523697C
S214403980002B01F0038000230DF1C8091393159313
S21440399014932793269318931B930993CDF89490EA
S2144039A0C846169317939AF800305446E3B1252B31
S2144039B002D119E0252B03D014F8013F002BF9D192
S2144039C0A4EB0A0585B1269B279AC8F800A00133C8
S2144039D02A44072BC8F80450279226937FDC08F128
S2144039E00808099B2B4409932378002B7FD000239B
S2144039F01A468DF8773019460D939B464FF0FF30A8
S214403A0063780A9004F1010A0AF1010AA3F1200042
S214403A10582800F2C183DFE810F03802BF03BF0326
S214403A204002BF03BF03BF03BF03BF03BF0345023C
S214403A300302BF035D006B02BF0386029D039D0326
S214403A409D039D039D039D039D039D039D03BF030F
S214403A50BF03BF03BF03BF03BF03BF03BF03BF0311
S214403A60BF0337035703BF035703BF03BF03BF0359
S214403A70BF039803BF03BF03AD03BF03BF03BF032A
S214403A80BF03BF035902BF03BF031E03BF03BF03E9
S214403A90BF03BF03BF03BF03BF03BF03BF03BF03D1
S214403AA0C602DB025703570357038B02DB02BF03F2
S214403AB0BF039002BF039D02CC01B4020802BF03BD
S214403AC0E101BF037E00BF03BF030D020D980F93B5
S214403AD040420D904BF0040B9AF8003094E725AA2C
S214403AE00B990C9803F09AF840B9C84679E7279B9B
S214403AF023B10C980B9925AA03F090F80B9B9B8951
S214403B0013F0400F099B18BF4FF0FF3309930998F5
S214403B1043B0BDE8F08F1BF0200F119340F0DD81DD
S214403B200F9A1BF0100F134640F06E851BF0400FA7
S214403B3000F06A8514880432002501230F9200277E
S214403B408DF877700A994A1C00F065822BF0800247
S214403B50079254EA050240F06482002940F03C8413
S214403B60002B40F0D7841BF001030E9300F0048630
S214403B7042AE302306F8413D0A9B0E9A9342B8BFA8
S214403B80134608930023129317B1089B01330893FA
S214403B90079B13F00203109302D0089B023308934E
S214403BA0079B13F0840540F00E830D9B089AA3EB09
S214403BB0020BBBF1000F40F30683BBF1100F279CAE
S214403BC0269A29DD43462146A84610270C9C0B9D85
S214403BD006E0ABF1100BBBF1100F03F1080318DD44
S214403BE00132B74826921031072A279183E8810090
S214403BF0EFDD25AA2946204603F010F800287FF47A
S214403C007DAFABF1100BBBF1100F2799269A4B46B0
S214403C10E6DC45460C4698460132A94B26925C4463
S214403C20072A279488E8080800F398849DF8777058
S214403C3008F1080877B1269B013301340DF177016E
S214403C400122072B2794269388E8060000F3DB839F
S214403C5008F10808109B6BB1269B013302341EA95D
S214403C600222072B2794269388E8060000F3D68383
S214403C7008F10808802D00F015830A9B0E9A9F1ABB
S214403C80002F36DD102F269B8E4D27DD42462146DF
S214403C90B0464FF0100B2E460C9C0B9D04E0103F98
S214403CA0102F02F1080215DD01331031072B279142
S214403CB0269382E84008F2DD25AA2946204602F0EF
S214403CC0ADFF00287FF41AAF103F102F2799269B90
S214403CD04A46E9DC35460C464646904601333C4467
S214403CE0072B2794269388E8A00000F3818308F1E9
S214403CF00808079BDF0500F16882269B0E99C8F8E6
S214403D00006001330C44072B2794C8F80410269310
S214403D1000F34D8308F10808079B5B073AD50D9BD7
S214403D20089A9D1A002D35DD102D269B20DD102685
S214403D300C9FDDF82CB004E0103D102D08F108086B
S214403D4016DD01335E4A26931034072B279488E805
S214403D504400F1DD25AA5946384602F05FFF0028A8
S214403D607FF4CCAE103D102D279C269BC846E8DC41
S214403D700133534A26932C44072B279488E8240083
S214403D8008DD25AA0B990C9802F048FF00287FF41E
S214403D90B5AE279C099B0D9A08998A42ACBF9B18E2
S214403DA05B180993002C40F00D8300232693C846E9
S214403DB0F9E511931BF0200340F0E3811BF010025D
S214403DC040F02E841BF0400300F02A840F991346DF
S214403DD00A4604320C880F920025B0E60F9A1193DB
S214403DE0166800248DF87740151D002E00F0A78633
S214403DF00A9A531C00F009862146304602F088FA9B
S214403E00002800F0E186831B0E930A940F95CDF8A8
S214403E101CB023EAE373089312949DF87770B3E6D8
S214403E209AF8003001222B21EEE54BF0200B9AF851
S214403E300030E9E51193002A40F09587224B18930D
S214403E401BF0200F40F011810F9A1BF0100F134605
S214403E5040F0E1831BF0400F00F0DD83043314880C
S214403E600F9300251BF0010F00F00C8154EA050368
S214403E7000F0088130239DF844208DF878308DF886
S214403E8079204BF0020B022359E69AF800300029BD
S214403E907FF4BAAD01222021B6E54BF0010B9AF82B
S214403EA00030B1E50F9C23680D9318460028234642
S214403EB003F10403FFF60AAE0F939AF80030A3E529
S214403EC01088400020884000F08740004BF0100BE0
S214403ED01BF0200F11933FF423AE0F9D073525F0BE
S214403EE0070303F10802D3E900450F92012326E6B3
S214403EF09AF800302A2B0AF1010400F02787A3F134
S214403F0030000928A24600F2AD8600231C461AF867
S214403F10013B04EB840400EB4404A3F13000092881
S214403F20F5D90A9472E54BF0800B9AF800306BE5B1
S214403F304BF0400B9AF8003066E59AF800306C2B50
S214403F4003BF9AF801304BF0200B0AF1010A4BF000
S214403F50100B59E5002A40F011871BF0200F40F067
S214403F60F9841BF0100F40F0AC841BF0400F00F0BB
S214403F70A8840F9A136804320F92BDF824201A8042
S214403F8011E50F99B34B0C6818933022782304310F
S214403F908DF8793011934BF0020B0F9100258DF878
S214403FA078200223CBE50F9911930A688DF8A0205C
S214403FB000230A461F468DF87730043201230893C3
S214403FC0CDF81CB00A9712970F920E9328AEDFE5F5
S214403FD01193002A40F0EA861BF0200F5DD11BF0BB
S214403FE0100F40F008831BF0400F00F004830F9939
S214403FF0B1F900400431E51722462B460F91002ABE
S21440400073F1000358DB0A999DF877704A1C4FF00D
S21440401001037FF49BAD54EA050200F0DF81CDF842
S2144040201CB0012B00F07B82022B40F006821898D1
S2144040304E46230904F00F0143EA05732A091C463D
S2144040401546435C06F8013D54EA0503F1D1A9EB59
S21440405006030E9390E51193002A40F0A3867E4B0C
S21440406018931BF0200F3FF4EFAE0F9D073525F059
S214404070070303F108021BF0010F0F92D3E9004536
S2144040807FF4F4AE02235AE51193002A40F0868668
S2144040904BF0100B1BF0200FA1D00F9D073525F0DD
S2144040A00705D5E90023002A05F108011D4673F1EE
S2144040B000030F911446A6DA2D27644265EB4505AA
S2144040C08DF8777001233DE51193002A40F0628613
S2144040D00F9D073525F0070303F108020F921A6873
S2144040E015925B681493149B159D23F00044284654
S2144040F021464FF0FF32594B03F056FE002840F061
S2144041004A83284621464FF0FF32544B03F02EFE9A
S214404110002840F0408315A80DC8149903F01CFEF3
S214404120002840F030859DF877704D4E4D4B2BF073
S2144041308000079011980322002108920A91472890
S214404140D8BF1E460E9212911EE54BF0080B9AF809
S214404150003059E4A3F1300000231C461AF8013B16
S21440416004EB840400EB4404A3F130000928F5D99D
S2144041700D944BE44BF0100B11931BF020033FF4CF
S2144041801DAE0F9D073525F0070303F10802D3E95E
S21440419000450F920023D2E41193002A40F0E785B1
S2144041A0119A002A3FF4A3AC002301211F46089130
S2144041B08DF8A020CDF81CB08DF877300A93129376
S2144041C00E9128AEE4E4279C34E5119B652B40F322
S2144041D0A78015A80DC8149903F0B4FD002800F078
S2144041E05081269B204AC8F8002001330134012222
S2144041F0072B27942693C8F8042000F36A8308F117
S21440420008081F9B139A279C934203DB079BDD07F6
S2144042107FF582AD269B19991A9AC8F8002001337B
S2144042200C44072BC8F804102794269300F39E836B
S21440423008F10808139B5E1E002E7FF76DAD102E0A
S214404240269B0A4D40F3F58122461027DDF830B014
S2144042500B9C13E0F0874000DC874000FFFFEF7FB9
S214404260D0874000CC8740000C8840002088400023
S21440427008F10808103E102E40F3DA810133103260
S214404280072B2792269388E8A000F1DD25AA214631
S214404290584602F0C3FC00287FF430AC279A269B91
S2144042A0C846E7E70D9B089A9F1A002F7FF7E5ACB4
S2144042B0102F269BB64D27DD42462146B0464FF08E
S2144042C0100B2E460C9C0B9D04E0103F102F02F165
S2144042D0080215DD01331031072B2791269382E81B
S2144042E04008F2DD25AA2946204602F097FC002821
S2144042F07FF404AC103F102F2799269B4A46E9DCF2
S21440430035460C464646904601333C44072B279498
S214404310269388E8A00000F3328208F10808ACE44F
S214404320139B269F012B40F3FE8101370134012366
S214404330072F27942697C8F80060C8F8043000F383
S214404340038208F10808199A1A9BC8F8003001370A
S2144043501444072F27942697C8F8042000F30082B9
S21440436008F1080815A80DC8149903F0EBFC139B38
S214404370002840F00181013B013701361C44072FDD
S21440438026972794C8F80060C8F8043000F32781C1
S21440439008F108081B9AC8F804200137144421ABDA
S2144043A0072F27942697C8F800307FF7B3AC25AA86
S2144043B00B990C9802F032FC00287FF49FAB279CA8
S2144043C0C846A9E425AA0B990C9802F027FC0028B9
S2144043D03FF4EBACFFF792BBDDF81CB0012B00F0CE
S2144043E03481022B25D1CDF81CB0002400251EE6D2
S2144043F025AA0B990C9802F011FC00287FF47EAB9E
S214404400279CC84675E425AA0B990C9802F006FC32
S21440441000287FF473AB279CC8461BE425AA0B995B
S2144044200C9802F0FBFB00287FF468AB279CC8463C
S21440443020E4CDF81CB000240025494600E0314673
S214404440E20842EA4572E80804F0070305461446C7
S214404450303354EA050201F8013C01F1FF36EED153
S214404460079AD2077FF5F3AD302B3FF4F0AD023913
S214404470302306F8013CA9EB01030E930E46FFF7E6
S2144044807BBB1F99002940F32E82129B139A9342BE
S214404490A8BF1346002B1F460DDD269BC8F80060BC
S2144044A001333C44072B2794C8F80470269300F346
S2144044B01F8308F10808129B002FA8BFDB1B002BA8
S2144044C01F4640F3D680102F269B314D40F3ED819A
S2144044D042462146B0464FF0100B2E460C9C0B9D94
S2144044E004E00832103F102F40F3DB8101331031D7
S2144044F0072B2791269382E84008F2DD25AA294615
S214404500204602F08BFB00287FF4F8AA2799269BCA
S2144045104A46E7E70A9B0E934E46FFF72DBB002D13
S21440452008BF0A2CC0F08F804E46204629460A22F5
S214404530002303F077FC303206F8012D204629464A
S21440454000230A2203F06EFC04460D4654EA050397
S214404550EBD1A9EB06030E93FFF70EBB25AA0B99EA
S2144045600C9802F05BFB00287FF4C8AA9DF8777091
S214404570279CC846FFF75EBB5E1E002E7FF70AAF3D
S214404580102E034D22DD22464FF0100B0C9C06E009
S21440459020884000103E102E08F1080815DD01372F
S2144045A01032072F2792269788E82008F2DD25AAA2
S2144045B00B99204602F032FB00287FF49FAA103E5B
S2144045C0102E279A269FC846E9DC14460137344405
S2144045D0072F2794269788E860007FF7D9AE25AA4C
S2144045E00B990C9802F01AFB00287FF487AA279CA8
S2144045F0269FC846CEE60F9A146813460433E5173E
S2144046000F9322462B46FAE404321C680F9201238D
S2144046100025FFF794BA1C6804330F93002521E465
S2144046200F990A4604320C680F920025FFF787BAA6
S214404630144601333444072B2794269388E86000B9
S2144046407FF768ABB3E6DDF81CB0CDF81CB042AEE1
S2144046503034012306F8414D0E93FFF78DBA25AA54
S2144046600B990C9802F0DAFA00287FF447AA279CA8
S214404670C8461F9A139B9A4244DB079BD90741D4EE
S214404680139B12989A1A1D1A9542A8BF1546002DDC
S2144046900EDD2699C8F80450013106442C440729FB
S2144046A0C8F800602794269100F33B8208F108087A
S2144046B0002DACBF561B1646002E7FF72DAB102E96
S2144046C0269BB04DB5DD22461027DDF830B00B9C5A
S2144046D004E008F10808103E102EA9DD0133103220
S2144046E0072B2792269388E8A000F2DD25AA2146CC
S2144046F0584602F093FA00287FF400AA279A269B91
S214404700C846E8E7269B19981A99C8F8001001335E
S2144047100444072B2794C8F80400269300F3F58139
S21440472008F10808ACE7079BDA073FF5FEAD01370E
S21440473001340123072F27942697C8F80060C8F84D
S21440474004307FF725AE4AE725AA0B990C9802F06D
S21440475065FA00287FF4D2A9279C269FC846F2E532
S21440476025AA0B990C9802F059FA00287FF4C6A99E
S214404770279C269FC846F5E54E46FFF7FDB925AA75
S2144047800B990C9802F04AFA00287FF4B7A9279CA8
S214404790C846FFF772BA159C22462046149C23460C
S2144047A0214603F001FB002840F086820A9B013335
S2144047B0119B23F020030E9300F0E281472B00F07C
S2144047C01E814BF480730793149B1F1E159B089302
S2144047D0BBBF3B4603F1004700232D231093119B9C
S2144047E0662B00F0BB81462B00F0DF800E9B089ABC
S2144047F0452B0CBF0A9B0A9D23A820A908BF5D1C19
S214404800049003911FA802213B4602900195009117
S2144048100C9800F075FB119B672B064640F0E08134
S2144048201BF0010F00F046827419169A0898179BE1
S214404830394603F087FA002840F06581239BA3425F
S21440484006D230215A1C23921970239B9C42F9D8D9
S2144048509B1B13930E9B472B00F0E980119B652B07
S21440486040F3CD81119B662B1F9B129300F09E81D7
S214404870139B129A1946914200F38A811BF0010F4E
S21440488040F0138222EAE273089367230E92119354
S214404890109B002B40F0C4800A939DF87770FFF77A
S2144048A073B935460C464646904601333C44072B82
S2144048B02794269388E8A0003FF7D1AE08F1080871
S2144048C0D7E60F9A136804320F92099A1A60FFF7D8
S2144048D06AB825AA0B990C9802F0A0F900287FF434
S2144048E00DA9C8468DE4269B274AC8F80020013308
S2144048F001340122072B27942693C8F8042072DC43
S21440490008F1080829B9139B1BB9079BD8077FF500
S21440491003AA269B19981A9AC8F800200133024623
S2144049202244072B2792C8F80400269300F38D8173
S21440493008F108080029C0F265811399C8F800609C
S21440494001338C18072B27942693C8F804107FF75A
S214404950E1A92CE50F9A09991368CD170846043249
S21440496029460F92C3E90001FFF71DB825AA0B9907
S2144049700C9802F053F900287FF4C0A8279CC8463C
S21440498058E400BF208840000C88400040210C9826
S21440499001F00CFA0B9A10601061002800F0F281CA
S2144049A00B9A40235361FEF7EEBF23A820A90A9C2A
S2144049B0049003911FA803210290089A01943B4655
S2144049C000910C9800F09CFA25460646119B462B13
S2144049D006EB05047FF429AF3378302B00F078815E
S2144049E01F9D2C4421E725AA0B990C9802F016F936
S2144049F000287FF483A81F99279CC84682E70A9B15
S214404A00002B08BF01230A93DBE630460A9402F0E7
S214404A1097F80F950E90CDF81CB00346FFF7F9B9FE
S214404A202D2700238DF877700A93FFF7AEB81F9BAB
S214404A3012931A46033304DB0A9B19469142BFF68B
S214404A4017AF119B023B11939DF844308DF884308C
S214404A50129B013B002B1F93BDBF129BC3F101036A
S214404A602D222B22092B8DF8852040F316810DF13F
S214404A7093042046AB4D00E0104685FB0312D91741
S214404A80C1EBA20101EB8102A3EB420230320929BD
S214404A9000F8012C0B4600F1FF32EDDC30330238D3
S214404AA0D9B2844202F8011C40F265810DF18600BD
S214404AB0134601E013F8011B00F8011BA342F9D18D
S214404AC001339B1A0DF18602134421AA9B1A139AAE
S214404AD01B93012A13440E9340F319810E9B199A97
S214404AE013440E9323EAE373089300231293CFE60E
S214404AF025AA0B990C9802F091F800287EF4FEAF98
S214404B00279CC846D7E42346A2E625AA0B990C98CC
S214404B1002F084F800287EF4F1AF1F9A279CC8461E
S214404B20AEE525AA0B990C9802F078F800287EF49A
S214404B30E5AF1F9A139B279C9A1AC846B8E50A9B6E
S214404B401296062B28BF06230A96374608930F95DB
S214404B50CDF81CB00E93744EFFF716B823A820A9C4
S214404B600A9D049003911FA803210290089A01957C
S214404B703B4600910C9800F0C3F9064644192BE7D3
S214404B8006230A931DE62D278DF87770FFF7CDBADA
S214404B90199A139B1344129A0E93002A40F3B0803E
S214404BA023EAE37308936723119371E6002B40F3DF
S214404BB0C3800A9A002A40F099801BF0010F40F00B
S214404BC0958008930E9363E60A9B08930E930A908B
S214404BD00F95CDF81CB012909DF87770FEF7D4BFB5
S214404BE0119B472B7FF420AE1BF0010F7FF4EEAEF7
S214404BF0239B9B1B13930E9B472B3FF418AF1F9B87
S214404C00129321E74F421031484D2FDA1024DDF839
S214404C1030B004E008F10808103F102F26DD0133BD
S214404C201032072B27922693C8F80050C8F8044045
S214404C30F0DD25AA0B99584601F0F0FF00287EF4D7
S214404C405DAF279A269BC846E6E725AA0B990C989F
S214404C5001F0E4FF00287EF451AF1F99279A269B67
S214404C60C84667E600200A90FEF7D0BE01333A44B5
S214404C70072B88E8A0002792269308F108087FF7BC
S214404C805CAE25AA0B990C9801F0C8FF00287EF46C
S214404C9035AF279A269BC8464FE6303330228DF8EC
S214404CA087308DF8862022AB0FE7129B199A134463
S214404CB00E9375E7239BCBE5149B1D4E002BB6BF8A
S214404CC02D279DF877708DF877701A4BFFF72FBA1F
S214404CD0169A0898179B394603F034F800287FF454
S214404CE07FAEC5F101051F952C449EE5129B199A8F
S214404CF013440A9A1A4422EAE2730E920893C7E5CE
S214404D00129B0E9AC3F101031A441346D0E71BF0D8
S214404D10010312937FF4E2AE0E9B23EAE3730893FB
S214404D20B6E500BF67666666048840002088400097
S214404D30D8874000D48740000A9B13B91BF0010F68
S214404D4002D0199B0133D4E701233AE70F9D9AF826
S214404D500130286840EAE0700A9028460430A246AF
S214404D600F90FEF751BE8DF87710FFF767B88DF8B5
S214404D707710FFF715BA0DF18603A6E68DF8771083
S214404D80FFF7EBB80C9A0C2313604FF0FF330993F0
S214404D90FEF7BDBE8DF87710FFF79AB98DF87710FD
S214404DA0FFF776B98DF87710FFF759B98DF8771079
S214404DB0FFF712B9024B13B1024800F005B870472E
S214404DC000000000555D4000002301461A46184684
S214404DD001F0A2BF02690B69934200F38D802DE972
S214404DE0F04F03F1FF3801F1140700F1140B57F8A8
S214404DF028205BF828304FEA880483B00132B3FBA2
S214404E00F2F90BEB0403009407EB040A0193B9F1A3
S214404E10000F39D000252E46BC46DE465CF8044BD3
S214404E20DEF80030A2B209FB0255220C2C0C09FB1E
S214404E300242ADB2751B96B2C6EB134615FA83F323
S214404E4006EB23469BB243EA0643E2454FEA124549
S214404E504EF8043B4FEA2646E0D2009B5BF8033010
S214404E6093B9019C231F9B450CD254F8043C4BB984
S214404E70A4F1080302E01A68043B1AB99B4508F1FE
S214404E80FF38F8D3C0F81080044601F035FD0028FE
S214404E902EDB09F101095D46002357F8041B2868FC
S214404EA08AB29A1A0B0C12FA80F2C3EB104303EB49
S214404EB0224392B242EA0342BA4545F8042B4FEAEF
S214404EC02343EAD25BF828200BEB880382B91A1FEB
S214404ED093450BD253F8042C42B9083B02E01A68BB
S214404EE0043B1AB99B4508F1FF38F8D3C4F8108044
S214404EF0484603B0BDE8F08F002070470000000031
S214404F002DE9F04F016C9BB00446279E92469B4687
S214404F1041B1426C4A60012393408B6001F014FB20
S214404F2000232364BBF1000F5D4635DB002333606E
S214404F309D4BAB4315D0504659460022002302F005
S214404F4001FF804600282DD0269A01231360289B17
S214404F50002B00F0BD809548186001381BB0BDE8B6
S214404F60F08F269A42F20F731360BAF1000F0DD1FC
S214404F70C5F3130555B9289B8D48002BEED000F19C
S214404F800803289A13601BB0BDE8F08F289B894819
S214404F90002BE3D0C31CF4E701232BF0004533601D
S214404FA0AB46C5E718AA19AB0192009352465B463A
S214404FB0204601F041FD2B0D814671D0CBF3130204
S214404FC042F07F51189FCDF850805046A3F2FF36EE
S214404FD041F440110022784B02F098FA6CA3D3E9D2
S214404FE0002302F047FC6CA3D3E9002302F090FABA
S214404FF0CDE90201304602F0D7FB69A3D3E900238E
S21440500002F038FC02460B46DDE9020102F080FA67
S214405010CDE9040102F0DEFE002202900023DDE925
S214405020040102F099FE002840F07381029D162D7F
S21440503000F25D81614B03EBC503D3E900015246A4
S2144050405B4602F0A7FE002800F0C5816B1E029367
S21440505000230E93BF1B7B1E069300F15481002352
S2144050600893029B002BC0F24581069A0D93114689
S2144050701944002306910C93249B092B2AD8052B10
S21440508040F35B86043B24930025249B023B032B82
S21440509000F24286DFE813F0D403C902DF0361045E
S2144050A0189F199E3E4406F23243202B40F38E81D1
S2144050B0C3F1400306F212409D402AFA00F028430E
S2144050C002F062FB0123013EA1F1F871149381E7DF
S2144050D03B4843E7002161642046259101F00EFAE3
S2144050E04FF0FF330A93259A0F93012304902064D0
S2144050F024920B93199B002BC0F2D980029A0E2A59
S21440510000F3D5802D4B03EBC203D3E90023CDE952
S2144051100823259B002BC0F2BA83DDE9085650468B
S2144051202A463346594602F0CFFC02F053FE8046EC
S21440513002F03AFB2A46334602F09CFB0B460246F8
S2144051405946504602F0E2F9049D08F130032B70B0
S2144051500A9B012B06460F4605F1010568D0002242
S214405160184B02F087FB0022002306460F4602F04B
S214405170E9FD002840F08880CDF82C904FF0000ADA
S214405180DFF840B00C94DDE9088928E0AFF30080F2
S21440519061436F63A787D23FB3C8608B288AC63FF8
S2144051A0FB799F501344D33F0000F07F0D884000AA
S2144051B0308840003C8840000000F83F6888400047
S2144051C00C8840000000244002F054FB00220023DC
S2144051D006460F4602F0B6FD002840F0C183424620
S2144051E04B463046394602F06FFC02F0F3FD04466B
S2144051F002F0DAFA42464B4602F03CFB02460B46C9
S2144052003046394602F082F904F1300E049E05F825
S21440521001EBA5EB060E0A9EB645CDE906015246C1
S2144052205B46D1D1A046DDF82C900C9C06460F4636
S21440523032463B463046394602F06AF906460F4645
S21440524002460B46DDE9080102F086FD48B93246C3
S2144052503B46DDE9080102F075FDA8B118F0010FE4
S21440526012D015F8018C049A6B1E04E09A4200F0A6
S214405270018413F8018DB8F1390F03F10105F5D01B
S21440528008F1010883F800804946204601F05CF9A1
S2144052900022029B2A70269A01331360289B002B1B
S2144052A000F09E8304981D601BB0BDE8F08F0B9AFB
S2144052B0002A3ED0249A012A40F311830A9B0C9A76
S2144052C05F1EBA42C0F28F83D71B0A9B002BC0F2E8
S2144052D08B84089D0A9B089A1A440892069A0121D4
S2144052E01A442046069201F0C9F9064624E00123F6
S2144052F00E93AFE6089A029BD21A5B420C930023A9
S21440530008920D93B8E6C7F101030893002306936D
S214405310A7E6029D284602F047FA02460B46DDE91C
S214405320040102F00FFD00287FF480AE6B1E02934E
S2144053307CE60C9F089D0B9E002D0CDD06990029EF
S2144053400B4608DDA942089AA8BF2B46D21AED1A8A
S214405350CB1A089206930C9BD3B10B9B002B00F004
S214405360B782002F10DD31463A46204601F022FA39
S2144053704A4601460646204601F08AF94946804696
S214405380204601F0E1F8C1460C9BDA1B40F0A182B2
S2144053900121204601F072F90D9B002B80461CDD52
S2144053A001461A46204601F005FA249B012B80460A
S2144053B040F3548200230C93D8F8103008EB830354
S2144053C0186901F00BF9C0F1200010E0C3F1200588
S2144053D00AFA05F074E60E903CE6249B012B40F357
S2144053E0878200230C930D9B0120002BE4D1069A64
S2144053F0104410F01F0000F0A180C0F12003042BE1
S21440540040F39E84089BC0F11C0003440893134657
S214405410034405440693089B002B05DD49461A467F
S214405420204601F017FA8146069B002B05DD4146D3
S2144054301A46204601F00EFA80460E9B002B40F09E
S21440544086800A9B002B40F366820B9B002B00F065
S2144054509880002D05DD31462A46204601F0FAF9AF
S21440546006460C9B002B40F0378306960A9B049A10
S214405470DDF818B0013BD3180B930AF001030C93E8
S2144054801746C24651464846FFF7A4FC31460546F5
S214405490484601F031FA5A460A905146204601F0F5
S2144054A047FAC268804605F13003002A40F02B8256
S2144054B001464846089301F01FFA414606902046AA
S2144054C001F042F8069A089B32B9249921B90C9A01
S2144054D0002A00F0EF83249A0A990029C0F29F829E
S2144054E005D1249919B90C99002900F09882002A10
S2144054F000F306830B9A3B7007F101089742454636
S21440550000F00C83494600230A22204601F026F884
S2144055105E45814631464FF000034FF00A02204672
S21440552000F0EB8101F01AF85946064600230A229D
S214405530204601F013F847468346A3E71C20089B05
S21440554003440893069B03440544069363E7414699
S214405550484601F0D1F90028BFF673AF029F49468E
S21440556000230A222046013F029700F0F7FF0B9BDC
S2144055708146002B40F0B6830F9B002B40F3BF8341
S2144055800A93DDF810B00A9F5D4602E000F0E6FFA1
S214405590814641464846FFF71DFC00F1300A05F8B3
S2144055A001ABA5EB0B03BB424FF00A024FF00003E2
S2144055B049462046EADB049B0A9A012AACBF9B1860
S2144055C001331D464FF0000B49460122204601F0AC
S2144055D041F94146814601F08FF9002840F33D826B
S2144055E015F8012C04996B1E04E08B4200F0AE8146
S2144055F013F8012D392A03F10105F6D001321A704D
S2144056004146204600F0A0FF002E3FF43DAEBBF1E1
S214405610000F05D0B34503D05946204600F094FF0E
S2144056203146204600F090FF2EE600230B93029B67
S214405630259A13440F930133012B1F461E460A93A7
S214405640B8BF01270021172F61640AD9012204231D
S2144056505B0003F114008742114602F10102F7D2C3
S2144056606164204600F04AFF0E2E049020643FF608
S21440567041AD002D3FF43EAD02990029CDE910AB77
S21440568040F30282B84B01F00F020D1103EBC20348
S214405690E906D3E9006740F1AE81B44B504659461F
S2144056A0D3E9082302F010FACDE9120105F00F0500
S2144056B04FF0030A8DB1DFF8B482EA0709D53046C9
S2144056C03946D8E9002302F0D5F80AF1010A064621
S2144056D00F466D1008F10808EFD13B463246DDE92B
S2144056E0120102F0F1F9074688460E9B43B10022AC
S2144056F09F4B3846414602F02FFB002840F08682FA
S214405700504602F051F83A46434602F0B3F8994BF9
S214405710002201F0FDFE0A9B0546A1F15076002BC3
S21440572000F03E81029B15930A9B12930B9B002B25
S21440573000F0FA81129A8C4B8F4903EBC20353E96F
S2144057400223002002F0C0F92A46334601F0DEFE6E
S21440575082468B463846414602F03CFB054602F000
S21440576023F802460B463846414601F0CFFE303518
S2144057705FFA85F8049D06460F4685F80080024687
S2144057800B4650465946013502F004FB002854D1DA
S21440579032463B460020764901F0B8FE02460B46AC
S2144057A05046594602F0F6FA002840F07082129AA7
S2144057B0012A00F01181129B049ACDF848901344B8
S2144057C099460DE000206A4901F0A0FE52465B462D
S2144057D002F0C2FA002840F058824D4500F0FA80A8
S2144057E0504659460022654B02F044F80022634B6F
S2144057F082468B463046394602F03CF80F4606460F
S21440580002F0E8FA804601F0CFFF02460B463046EB
S214405810394601F07BFE08F130085FFA88F85246B8
S2144058205B4605F8018B06460F4602F095FA32466F
S2144058303B460028C6D0DDF84890159B029323E5EA
S21440584000230B93259B002B40F3DC801F461E460F
S2144058500F930A93F6E601230B93F3E7BAF1000F92
S2144058607FF4A8ADCBF31303002B7FF4BAAD2BF037
S21440587000473F0D3F05002F00F00D82089B013387
S2144058800893069B0133069301230C93ABE50A9BD2
S214405890002B3FF742AC40F021820022384BDDE936
S2144058A0080101F0E7FF52465B4602F069FADDF870
S2144058B028804646002841D0259B049DDB43029322
S2144058C04146204600F040FE002E3FF4DDACA7E601
