S00B000061726D2E73726563D9
S214400000F03400203D0240003B0240003B024000EE
S2144000103B0240003B0240003B0240000000000024
S2144000200000000000000000000000003B0240000E
S2144000303B024000000000003B0240003B02400004
S2144000403B0240003B0240003B0240003B02400077
S2144000503B0240003B0240003B0240003B02400067
S2144000603B024000CD014000E1014000F501400068
S214400070090240001D0240003B0240003B02400097
S2144000803B0240003B0240003B0240003B02400037
S2144000903B0240003B0240003B0240003B02400027
S2144000A03B0240003B0240003B0240003B02400017
S2144000B03B0240003B0240003B0240003B02400007
S2144000C03B0240003B0240003B0240003B024000F7
S2144000D03B0240003B0240003B0240003B024000E7
S2144000E03B0240003B0240003B0240003B024000D7
S2144000F03B0240003B02400010B5054C237833B924
S214400100044B13B10448AFF300800123237010BDA5
S2144001103404002000000000AC0440000C4B43B107
S2144001200C480D4910B5AFF300800C48036823B95E
S21440013010BD0A48036833B97047094B002BF7D007
S214400140BDE810401847064B002BF5D0184700BFB7
S21440015000000000AC04400038040020AC0440001E
S214400160000000002DE9F84381460F46124B9847A1
S21440017005464846114B9847054013D0104C04F1AD
S214400180600603E0B4420DD010345DB12068B8423A
S214400190F8D161682942F5D0E3689847636825EA54
S2144001A00305EFE7074B1B6823B1074B1B680BB1F2
S2144001B048469847BDE8F883310240003502400083
S2144001C050040020C4040020C004002008B50921C3
S2144001D00148024B984708BD000E0E40650140009E
S2144001E008B50A210148024B984708BD00100E404A
S2144001F06501400008B50B210148024B984708BDF1
S21440020000120E406501400008B50C210148024B23
S214400210984708BD00140E406501400008B50D2102
S2144002200148024B984708BD00160E406501400045
S214400230C06C7047806C70477047FEE700B583B06F
S214400240254B264A9A4210D0254B234A9A420CD236
S214400250013B9B1A23F00303043313441F4951F810
S214400260040B42F8040B9A42F9D11E4B1E4A9A429E
S2144002700AD2013B9B1A23F00303043313440021A4
S21440028042F8041B9342FBD1184A194B23F07F03D4
S2144002909360EFF31083B3FA83F35B09019372B66E
S2144002A0BFF35F8F0022134B1A700199124A1368EE
S2144002B043F470031360BFF34F8FBFF36F8F29B1C2
S2144002C001220C4B1A70BFF35F8F62B60B4B9847F8
S2144002D00B4B9847FEE700BF00000020AC044000F0
S2144002E034040020EC0400203404002000ED00E03C
S2144002F0000040000000002088ED00E015034000AC
S2144003000503400008B5024B9847002008BD00BFD3
S2144003103902400070B50F4E0F4D761BB61018BF11
S214400320002405D0013455F8043B9847A642F9D13D
S2144003300A4E0B4D761B00F0A7F8B61018BF0024E7
S21440034006D0013455F8043B9847A642F9D170BD13
S21440035070BD00BF94044000940440009C044000DC
S21440036094044000024B13B1024800F005B87047B1
S2144003700000000085034000002301461A46184648
S21440038000F01EB838B50A4C0A4D641BA4100AD0BB
S21440039004F18043013B05EB8305013C55F80439E5
S2144003A09847002CF9D1BDE8384000F077B800BF38
S2144003B0AC044000A8044000704700BF704700BF30
S2144003C02DE9F8432C4D0646286898460F46914638
S2144003D0FFF7F2FF294B1C68D4F84831002B3ED07B
S2144003E05A681F2A1CDC02F1010E76B103EB82012B
S2144003F00124C1F88890D3F8880194402043022E07
S214400400C3F88801C1F8088123D00232C3F804E05B
S214400410286843F82270FFF7D1FF0020BDE8F88334
S214400420174B0BB34FF4C870AFF300800346D8B1F8
S214400430D4F848210260002141600A46C4F84801C9
S2144004404FF0010EC0F88811C0F88C11002EDCD099
S214400450CCE7D3F88C110C43C3F88C41D5E704F5B0
S214400460A673C4F84831BBE72868FFF7A7FF4FF0EC
S214400470FF30BDE8F88300BF30040020840440000D
S2144004800000000008000020F8B500BFF8BC08BC1B
S2144004909E467047650340001D014000F8B500BF0A
S2104004A0F8BC08BC9E467047F9004000BF
S2144004AC010000000000000000000000F4020020E4
S2144004BC5C030020C4030020000000000000000085
S2144004CC00000000000000000000000000000000DB
S2144004DC00000000000000000000000000000000CB
S2144004EC00000000000000000000000000000000BB
S2144004FC00000000000000000000000000000000AB
S21440050C000000000000000000000000000000009A
S21440051C000000000000000000000000000000008A
S21440052C000000000000000000000000000000007A
S21440053C000000000000000000000000000000006A
S21440054C000000000000000000000000000000005A
S21440055C01000000000000000E33CDAB34126DE6F7
S21440056CECDE05000B000000000000000000000060
S21440057C000000000000000000000000000000002A
S21440058C000000000000000000000000000000001A
S21440059C000000000000000000000000000000000A
S2144005AC00000000000000000000000000000000FA
S2084008DCC8040020E7
S80440023D7C
