S00B000061726D2E73726563D9
S214400000E0D70020DD1A40004F1A40004F1A40004B
S2144000104F1A40004F1A40004F1A400000000000A0
S2144000200000000000000000000000004103400007
S2144000304F1A400000000000E10340003504400035
S2144000404F1A40004F1A40004F1A40004F1A4000C7
S2144000504F1A40004F1A40004F1A4000F90E400019
S2144000604F1A4000A5214000BD214000D521400048
S214400070ED214000052240004F1A40004F1A400034
S2144000804F1A40004F1A40004F1A40004F1A400087
S2144000904F1A40004F1A40004F1A40004F1A400077
S2144000A04F1A40004F1A40004F1A40004F1A400067
S2144000B04F1A40004F1A40004F1A40004F1A400057
S2144000C04F1A40004F1A40004F1A40004F1A400047
S2144000D04F1A40004F1A40004F1A40004F1A400037
S2144000E04F1A40004F1A40004F1A40004F1A400027
S2144000F04F1A40004F1A400010B5054C237833B9CC
S214400100044B13B10448AFF300800123237010BDA5
S2144001105004002000000000A83940000C4B43B1BA
S2144001200C480D4910B5AFF300800C48036823B95E
S21440013010BD0A48036833B97047094B002BF7D007
S214400140BDE810401847064B002BF5D0184700BFB7
S21440015000000000A839400054040020A8394000A0
S2144001600000000080B485B000AF7860396000239E
S214400170FB607B68AC221A603B681A683B685B6829
S214400180B2FBF3F31B09FB60FB68002B03D0FB6854
S214400190B3F5803F01D301230FE07B68FA681A620B
S2144001A03B689A687B685A607B6840F20222C3F8D4
S2144001B020217B6850221A60002318461437BD461B
S2144001C05DF8047B704780B483B000AF78603960D8
S2144001D07B683A689A6000BF0C37BD465DF8047B82
S2144001E0704780B483B000AF78607B685B69184620
S2144001F00C37BD465DF8047B704780B483B000AFD3
S21440020078600B46FB707B685B6903F00203002B4B
S21440021001D1012303E0FA787B68DA6100231846AF
S2144002200C37BD465DF8047B704780B483B000AFA2
S214400230786039607B685B6903F00103002B01D16D
S214400240012305E07B689B69DAB23B681A7000239D
S21440025018460C37BD465DF8047B704780B483B0C3
S21440026000AF78607B6803F108027B685A607B6861
S2144002704FF0FF329A607B6803F108027B68DA60D1
S2144002807B6803F108027B681A617B6800221A606B
S21440029000BF0C37BD465DF8047B704780B485B020
S2144002A000AF786039607B685B68FB60FB685A68C3
S2144002B03B685A607B685A683B689A60FB685B6834
S2144002C03A689A60FB683A685A607B683A685A604F
S2144002D03B687A681A617B681B685A1C7B681A60A0
S2144002E000BF1437BD465DF8047B704780B485B0C8
S2144002F000AF78607B685B687A6892689A607B68D3
S2144003009B687A6852685A607B681B69FB60FB682A
S2144003105A687B689A4203D17B689A68FB685A6041
S2144003207B6800221A61FB681B685A1EFB681A60CD
S214400330FB681B6818461437BD465DF8047B70475B
S214400340054B19680868B0E8F04F80F309884FF00D
S214400350000080F3118870477CA4002000BF00BFD7
S21440036080B400AF044B4FF080521A6000BFBD46C9
S2144003705DF8047B704700BF04ED00E080B500AF39
S214400380044B9847044B1B680133034A136000BF75
S21440039080BD00BFC50340000C00002080B500AF04
S2144003A0064B1B68013B054A1360044B1B68002B39
S2144003B002D10020024B984700BF80BD0C000020B1
S2144003C0D7034000EFF311804FF0A00181F311886E
S2144003D070470023184680F31188704700BF00001E
S2144003E0EFF30980114B1A681EF0100F08BF20ED7E
S2144003F0108A20E9F04F10602DE908404FF0A00029
S21440040080F3118800F06CFB4FF0000080F31188F9
S214400410BDE8084019680868B0E8F04F1EF0100FB5
S21440042008BFB0EC108A80F3098870477CA400208F
S21440043000BF00BF80B500AF064B4FF080521A6039
S214400440054B9847054B98470020054B984700BFFB
S21440045080BD00BF04ED00E0C503400095094000A4
S214400460D703400080B586B000AF78600023FB60BD
S214400470344B9847344B1B68002B01D1334B98477D
S2144004807B68002B0ED010231A467B6813447B6093
S2144004907B6803F00703002B04D07B6823F0070338
S2144004A008337B607B68002B45D04FF420427B6846
S2144004B0934240D2264B3B61254B1B687B6104E050
S2144004C07B693B617B691B687B617B695A687B689B
S2144004D09A4203D27B691B68002BF1D11A4B1B68EA
S2144004E07A699A4227D03B691B6810221344FB6006
S2144004F07B691A683B691A607B695A687B68D31ABD
S2144005001022520093420FD97A697B681344BB602D
S2144005107B695A687B68D21ABB685A607B697A687E
S2144005205A60B8680B4B98470B4B1A687B695B68F8
S214400530D31A094A1360094B9847FB681846183780
S214400540BD4680BD5908400078A40020B50540004F
S21440055070A40020450640001000002075084000AA
S21440056080B584B000AF78607B68FB607B68002B0A
S21440057014D010235B42FA681344FB60FB68BB60F0
S214400580084B9847BB685A68074B1B681344064A93
S2144005901360B868054B9847054B984700BF10371F
S2144005A0BD4680BD5908400010000020450640006A
S2144005B07508400080B582B000AF1D4B1D4A1A60DA
S2144005C01B4B00225A604FF420421A4B13447B6068
S2144005D010235B427A6813447B60174A7B6813603B
S2144005E0154B1B6803F00703002B03D0134B9847AB
S2144005F000BFFDE7104B1B6800225A600E4B1B687D
S21440060000221A600B4B3B604FF4204310229A1A8C
S2144006103B685A60084B1A683B681A60084B1B6870
S21440062010229B1A064A136000BF0837BD4680BD9D
S21440063070A400207004002078A40020C503400069
S2144006401000002080B485B000AF7860284BFB6077
S21440065002E0FB681B68FB60FB681A687B689A428E
S214400660F7D3FB68BB60FB685B68BA681A447B6874
S2144006709A4208D1FB685A687B685B681A44FB68F4
S2144006805A60FB687B607B68BB607B685B68BA6867
S2144006901A44FB681B689A4218D1FB681A68154BC7
S2144006A01B689A420DD07B685A68FB681B685B687B
S2144006B01A447B685A60FB681B681A687B681A6035
S2144006C008E00C4B1A687B681A6003E0FB681A68FF
S2144006D07B681A60FA687B689A4202D0FB687A6840
S2144006E01A6000BF1437BD465DF8047B704700BFF4
S2144006F070A4002078A4002080B582B000AF786057
S21440070039607B68002B03D1274B984700BFFDE735
S214400710264B98477B681A687B68DB6B7968096C60
S21440072001FB03F31A447B685A607B6800229A6395
S2144007307B681A687B689A607B681A687B68DB6BA4
S214400740013B7968096C01FB03F31A447B68DA6065
S2144007507B684FF0FF325A647B684FF0FF329A64F2
S2144007603B68002B0ED17B681B69002B14D07B683E
S214400770103318460E4B98470346012B0CD10D4BB1
S214400780984709E07B68103318460B4B98477B68C0
S21440079024331846084B9847084B98470123184679
S2144007A00837BD4680BD00BFC50340007D034000FE
S2144007B0850B4000610340005D0240009D03400001
S2144007C080B588B000AFF860B9601346FB7100236F
S2144007D0FB61FB68002B2AD050201B4B9847B86122
S2144007E0BB69002B23D0FB68BA6802FB03F30133D6
S2144007F07B617869144B98470246BB691A60BB69AF
S2144008001B68002B10D0BB69FA68DA63BB69BA680C
S2144008101A640121B8690D4B9847BB69FA7983F889
S2144008204D20BB69FB6102E0B869094B9847FB69FC
S214400830002B03D1074B984700BFFDE7FB691846DE
S2144008402037BD4680BD00BF65044000F906400025
S21440085061054000C503400080B400AF044B1B68F0
S2144008600133034A136000BFBD465DF8047B704702
S2144008700CA5002090B583B000AF00237B60364BBC
S2144008801B68002B03D1354B984700BFFDE7344B20
S2144008909847314B1B68013B2F4A13602E4B1B6811
S2144008A0002B52D12F4B1B68002B4ED000233B60B1
S2144008B027E02D4BDB68DC6804F1180318462B4B09
S2144008C09847231D1846294B9847E26A284B1B68D1
S2144008D09A4202D9E36A264A1360E26A13469B00AC
S2144008E013449B00234A1344221D11461846224BAC
S2144008F09847E26A214B1B68DB6A9A4201D3012380
S2144009003B60194B1B68002BD3D11D4B1B68002B3B
S2144009100DD006E01B4B9847194B1B68013B184A05
S2144009201360174B1B68002BF4D101233B603B68D8
S214400930012B03D0144B1B68012B06D101237B608F
S214400940114B00221A60114B9847114B98477B6811
S21440095018460C37BD4690BD0CA50020C503400088
S2144009607D03400000A50020ECA40020ED024000DE
S21440097008A5002080A400209D0240007CA4002002
S21440098010A500209509400014A5002061034000F2
S2144009909D03400080B584B000AF454B1B68002BDC
S2144009A07BD1444B1B680133424A1360414B1B6862
S2144009B0002B2AD1404B1B681B68002B03D03F4BB3
S2144009C0984700BFFDE73C4B1B68FB603C4B1B68F1
S2144009D0394A13603A4AFB6813603A4B1B68013346
S2144009E0384A1360344B1B681B68002B04D1364BC7
S2144009F04FF0FF321A6008E02F4B1B68DB68DB685D
S214400A00BB60BB685B68304A13602A4B1A682E4B43
S214400A101B689A4247D3284B1B681B68002B04D19F
S214400A20294B4FF0FF321A603DE0234B1B68DB68D2
S214400A30DB68BB60BB685B687B601E4B1A687B6884
S214400A409A4203D2204A7B6813602CE0BB6804338A
S214400A5018461E4B9847BB689B6A002B04D0BB6861
S214400A6018331846194B9847BB68DA6A184B1B6808
S214400A709A4203D9BB68DB6A154A1360BB68DA6AD8
S214400A8013469B0013449B00124A1A44BB68043327
S214400A9019461046104B9847BDE7104B1B6801336C
S214400AA00E4A1360FFE700BF1037BD4680BD00BF4B
S214400AB00CA5002004A50020E4A40020C5034000A7
S214400AC0E8A4002018A5002014000020ED024000F5
S214400AD008A5002080A400209D02400010A500200C
S214400AE080B582B000AF214B1B68002B10D0204B46
S214400AF001221A6035E01F4B1B68002B03D11E4BAA
S214400B00984700BFFDE71B4B1B68013B194A136023
S214400B10184B1A68194913469B0013449B000B4414
S214400B201B68002BE7D0134B1A6813469B001344F0
S214400B309B00124A13447B607B685B685A687B68FC
S214400B405A607B685A687B6808339A4204D17B684F
S214400B505B685A687B685A607B685B68DB68084AF3
S214400B60136000BF0837BD4680BD00BF0CA50020FF
S214400B7014A5002008A50020C503400080A400203E
S214400B807CA4002080B584B000AF78607B68DB68CA
S214400B90DB68BB60BB68002B03D1214B984700BF86
S214400BA0FDE7BB68183318461E4B98471E4B1B681C
S214400BB0002B1DD1BB68043318461A4B9847BB68B8
S214400BC0DA6A1A4B1B689A4203D9BB68DB6A174A33
S214400BD01360BB68DA6A13469B0013449B00144AB2
S214400BE01A44BB68043319461046124B984705E032
S214400BF0BB681833194610480E4B9847BB68DA6AEC
S214400C000E4B1B68DB6A9A4202D30123FB6001E06D
S214400C100023FB60FB6818461037BD4680BD00BF0A
S214400C20C5034000ED0240000CA5002008A50020AA
S214400C3080A400209D024000ECA400207CA400205C
S214400C4080B483B000AF0346FB7197F90730002BA2
S214400C500BDB094997F907305B09FA7902F01F0266
S214400C60012000FA02F241F8232000BF0C37BD46AF
S214400C705DF8047B704700BF00E100E080B483B0BD
S214400C8000AF78607B68072B25D801A252F823F086
S214400C90B10C4000B70C4000BD0C4000C30C4000F7
S214400CA0C70C4000CB0C4000CF0C4000D30C40009B
S214400CB04FF4FA4310E04FF400430DE04FF4004386
S214400CC00AE0084B08E0084B06E0084B04E0074BF8
S214400CD002E0064B00E0002318460C37BD465DF8A0
S214400CE0047B704700093D0000127A00001BB700E5
S214400CF080B500AF0620034B984703461B011846B5
S214400D0080BD00BF7D0C400080B500AF024B9847C9
S214400D1003465B08184680BDF10C400080B500AF26
S214400D20024B984703465B08184680BDF10C4000CE
S214400D3080B582B000AF78607868034B984700BFB4
S214400D400837BD4680BD00BF2129400080B582B02F
S214400D5000AF78603960104B984702463B681A608F
S214400D603B6800225A727B680C4A934203D111209A
S214400D700B4B984706E07B680A4A934202D1122002
S214400D80074B984739687868074B98470346184694
S214400D900837BD4680BD00BF1D0D400000800A409C
S214400DA0310D400000C00A40CD29400080B500AF5C
S214400DB0044B9847044B9847044B9847044B984736
S214400DC000BF80BD510F4000850F4000F11340002A
S214400DD03113400080B58AB000AFBA607B600346EE
S214400DE0FB730B46BB73FB7B87F82430BB7B3B75A2
S214400DF00123BB61BB68FB617B683B6207F1140360
S214400E0019460448044B9847034618462837BD46BB
S214400E1080BD00BF00800A40812B400080B582B074
S214400E2000AF0346FB71FB7919460448044B9847CC
S214400E30034618460837BD4680BD00BF00060E4034
S214400E40FB01400000000000F0B583B000AF7860C2
S214400E507B68002B26D07B681D464FF00006224B51
S214400E60984703464FF0000403FB06F105FB04F2E7
S214400E700A44A5FB03342244144643F2AF614FF0C4
S214400E8000025D1844EB020628463146174C43F2F2
S214400E90B0624FF00003A04703460C461846144B7A
S214400EA0984716E0104B984703464FF000040CA2B4
S214400EB0D2E900125D1844EB0206284631460B4C38
S214400EC00C4A4FF00003A04703460C461846084B12
S214400ED0984700BF0C37BD46F0BD00BFAFF300805B
S214400EE07F9FD50000000000090D40007D2C40008B
S214400EF001000020809FD50080B582B000AF0F482B
S214400F000F4B984778607B6803F00103002B10D0A6
S214400F10FB1C194609480B4B98470B4B1B881A4637
S214400F20F9780A4B9954084B1B8801339AB2064B02
S214400F301A8000BF0837BD4680BD00BF00060E4081
S214400F40E30140002B02400010A700201CA5002013
S214400F5080B584B000AF3B1D00221A605A609A608C
S214400F60054BBB603B1D19460448054B984700BFE0
S214400F701037BD4680BD00BFA086010000800A40F5
S214400F804D0D400080B584B000AF124B98470346E5
S214400F907B604FF41653BB604FF40063FB60072042
S214400FA00D4B98474FF4C0624FF000610B480C4B16
S214400FB098473B1D19460B480B4B9847012109485B
S214400FC00A4B984707200A4B984700BF1037BD4644
S214400FD080BD00BF090D4000310D4000000E0E40A0
S214400FE0B525400000060E4065014000C7014000A0
S214400FF0410C400080B483B000AF78607B68072B1C
S21440100025D801A252F823F0291040002F104000A6
S214401010351040003B1040003F1040004310400059
S214401020471040004B1040004FF4FA4310E04FF496
S21440103000430DE04FF400430AE0084B08E0084B3D
S21440104006E0084B04E0074B02E0064B00E00023B6
S21440105018460C37BD465DF8047B704700093D00D6
S21440106000127A00001BB70080B500AF0620034B85
S214401070984703461B01184680BD00BFF50F400049
S21440108080B500AF024B984703465B08184680BDC4
S2144010906910400080B582B000AF144B9847786026
S2144010A02620134B9847FA2279681248124B9847E5
S2144010B01048124B9847124B00221A60104B0F22D2
S2144010C0DA710F4B00225A710D4B08229A710C4B65
S2144010D003221A710A4B0022DA6009490548094B77
S2144010E0984700BF0837BD4680BD00BF811040000E
S2144010F021294000004001406D23400071254000FA
S21440110014A700204D24400080B48DB000AF786016
S21440111039607B68FB623B68BB62FB6A7B627B6ACA
S2144011205A09FB6A3B623B6A03F01F03012101FA3E
S21440113003F3FA61BB61BB6A7B61FB693B613B6958
S21440114003F5001303F207735B02FB607B6903F051
S2144011500803002B03D0FB68BA695A6602E0FB68B6
S214401160BA691A667B6903F01003002B04D0FB684B
S214401170BA69C3F8942003E0FB68BA69C3F89020C4
S2144011807B6903F02003002B03D0FB68BA691A651D
S21440119002E0FB68BA695A657B6903F0C003002B1E
S2144011A003D0FB68BA691A6202E0FB68BA695A6201
S2144011B07B6903F08003002B04D0FB68BA69C3F850
S2144011C0842003E0FB68BA69C3F880207B6903F09B
S2144011D00103002B06D0FB681A6FBB691A43FB68F5
S2144011E01A6706E0FB681A6FBB69DB431A40FB6868
S2144011F01A677B6903F00203002B06D0FB685A6F20
S214401200BB691A43FB685A6706E0FB685A6FBB69BE
S214401210DB431A40FB685A6700BF3437BD465DF86B
S214401220047B704780B48DB000AF78600B46FB708F
S2144012307B68FB62FB7887F82B30FB6A7B627B6AB5
S2144012403B623B6A5B09FB61FB6903F5001303F2F3
S21440125007735B02BB6197F82B30012B09D1FB6A01
S2144012607B617B6903F01F0301229A40BB691A61C8
S2144012700CE097F82B30002B08D1FB6A3B613B69AA
S21440128003F01F0301229A40BB695A61FB6AFB6068
S214401290FB6803F01F0301229A40BB69C3F8A020F5
S2144012A000BF3437BD465DF8047B704780B48BB0D2
S2144012B000AF78600B46FB707B687B62FB7887F8F4
S2144012C023307B6AFB61FB69BB61BB695B097B6161
S2144012D07B6903F5001303F207735B023B6197F8E3
S2144012E02330002B09D07B6AFB60FB6803F01F03AA
S2144012F001229A403B691A6308E07B6ABB60BB6880
S21440130003F01F0301229A403B695A6300BF2C3703
S214401310BD465DF8047B704780B483B000AF78600C
S2144013207B68DB6818460C37BD465DF8047B704723
S21440133080B582B000AF0123FB712FE0FA791346E7
S2144013409B0013449B00194A13441846184B984771
S214401350034600211846174B9847FA7913469B00D8
S21440136013449B00114A13441846114B98470346B2
S21440137000211846104B9847FA7913469B001344B1
S2144013809B000A4A13441846094B984703461021C7
S21440139018460A4B9847FB790133FB71FB79632B60
S2144013A0CCD900BF0837BD4680BD00BFFC304000EA
S2144013B01913400025124000AD12400009114000AC
S2144013C080B500AF064B3C221A70054B054A5A6062
S2144013D0034B054A9A600248044B984700BF80BDBD
S2144013E0ACA70020D50D4000490E40002514400013
S2144013F080B500AF0020074B984700BF064B984784
S2144014000346002BFAD000210448054B984700BFFE
S21440141080BD00BF79274000B127400060180E40CD
S214401420191A400080B582B000AF78607B68002B08
S21440143003D07B685B68002B01D1012303E078680A
S214401440034B9847002318460837BD4680BD00BF6B
S214401450B514400090B583B000AF78600B46FB7083
S2144014607B685C687B681878FA1C01238021A0475B
S2144014700346002B01D0022300E0002318460C3719
S214401480BD4690BD90B583B000AF78600B46FB700C
S2144014907B685C687B681878FA1C01234021A0476B
S2144014A00346002B01D0022300E0002318460C37E9
S2144014B0BD4690BD80B584B000AF78600023FB6029
S2144014C00023BB60204AFB6812F81330042B2ED84A
S2144014D001A252F823F000BF2F1540002915400006
S2144014E0ED1440000115400015154000164AFB68F3
S2144014F05B0013445B7819467868144B984717E0AE
S214401500114AFB685B0013445B7819467868104BB9
S21440151098470DE07B689A680B49FB685B000B4474
S2144015205B781846904703E00123BB6000E000BFAD
S214401530FB680133FB60BB68002BC3D00023184612
S2144015401037BD4680BD00BFCC3840005514400023
S2144015508514400080B500AF002201210A200B4BC5
S214401560984702460A4B1A600A4B98470A4B9847D8
S2144015700A4B98470A4B98470A4B98474FF47A705D
S214401580094B98473120094B9847F7E7C107400079
S214401590A8A700206120400025194000AD0D40005E
S2144015A095104000C1134000490E40001D0E4000FB
S2144015B080B582B000AF78607868034B984700BF2C
S2144015C00837BD4680BD00BF2129400080B500AF2A
S2144015D00920084B98470A20064B98470B20054B96
S2144015E098470C20034B98470D20024B984700BF66
S2144015F080BD00BFB115400080B489B000AF7860B0
S2144016007B68FB61FB69BB61BB695A09FB697B610F
S2144016107B6903F01F03012101FA03F33A61FB6083
S2144016203B69BB60BB6803F5001303F207735B02BC
S2144016301A46FB68536000BF2437BD465DF8047BFE
S214401640704780B48DB000AF786039607B68FB62CD
S2144016503B68BB62FB6A7B627B6A5A09FB6A3B62F9
S2144016603B6A03F01F03012101FA03F3FA61BB61F1
S214401670BB6A7B61FB693B613B6903F5001303F280
S21440168007735B02FB607B6903F00803002B03D003
S214401690FB68BA695A6602E0FB68BA691A667B69F3
S2144016A003F01003002B04D0FB68BA69C3F89420FB
S2144016B003E0FB68BA69C3F890207B6903F0200317
S2144016C0002B03D0FB68BA691A6502E0FB68BA696A
S2144016D05A657B6903F0C003002B03D0FB68BA69E8
S2144016E01A6202E0FB68BA695A627B6903F08003BB
S2144016F0002B04D0FB68BA69C3F8842003E0FB687B
S214401700BA69C3F880207B6903F00103002B06D03A
S214401710FB681A6FBB691A43FB681A6706E0FB68EA
S2144017201A6FBB69DB431A40FB681A677B6903F094
S2144017300203002B06D0FB685A6FBB691A43FB684E
S2144017405A6706E0FB685A6FBB69DB431A40FB6882
S2144017505A6700BF3437BD465DF8047B704780B497
S2144017608DB000AF78600B46FB707B68FB62FB7801
S21440177087F82B30FB6A7B627B6A3B623B6A5B097D
S214401780FB61FB6903F5001303F207735B02BB6161
S21440179097F82B30012B09D1FB6A7B617B6903F0FC
S2144017A01F0301229A40BB691A610CE097F82B3060
S2144017B0002B08D1FB6A3B613B6903F01F03012203
S2144017C09A40BB695A61FB6AFB60FB6803F01F03E3
S2144017D001229A40BB69C3F8A02000BF3437BD46FB
S2144017E05DF8047B704780B48BB000AF78600B46E2
S2144017F0FB707B687B62FB7887F823307B6AFB61F3
S214401800FB69BB61BB695B097B617B6903F50013C0
S21440181003F207735B023B6197F82330002B09D035
S2144018207B6AFB60FB6803F01F0301229A403B691A
S2144018301A6308E07B6ABB60BB6803F01F030122A3
S2144018409A403B695A6300BF2C37BD465DF8047B1F
S2144018507047000080B48DB000AF78600B46FB70D8
S2144018607B68FB62FB7887F82B30FB6A7B627B6A7F
S2144018705A09FB6A3B623B6A03F01F03012101FAE7
S21440188003F3FA61BB6197F82B30FB75FB693B614C
S2144018903B6903F5001303F207735B02FB60FB7DB5
S2144018A0013B032B2ED801A252F823F0E11840004A
S2144018B0F3184000BD184000CF184000FB68BA69D6
S2144018C0C3F8C420FB68BA69C3F8D0201FE0FB68A1
S2144018D0BA69C3F8C420FB68BA69C3F8D42016E0D6
S2144018E0FB68BA69C3F8C020FB68BA69C3F8D02061
S2144018F00DE0FB68BA69C3F8C020FB68BA69C3F854
S214401900D42004E0FB68BA69C3F8B42003E0FB685F
S214401910BA69C3F8B02000BF3437BD465DF8047BD3
S214401920704700BF80B500AF344B4FF400425A605A
S214401930334B984701217620324B98470121762039
S214401940314B9847002102202E4B98478821022091
S2144019502E4B9847022102202D4B984702214C20BF
S2144019602A4B98474C202B4B984702214F20274B19
S21440197098474F20274B984701218220214B984774
S214401980012183201F4B984702211C201F4B98475C
S2144019901C20204B984702211D201C4B98471D2099
S2144019A01C4B984702211E20184B98471E20194B67
S2144019B0984702211F20154B98471F20154B9847E4
S2144019C002211A20114B98471A20124B98470221A1
S2144019D01B200E4B98471B200E4B98470021032098
S2144019E00A4B984703200B4B984700210420074B8F
S2144019F098470420074B984700BF80BD50180E40BC
S214401A00CD1540005F174000E717400043164000E2
S214401A1055184000F915400080B483B000AF786098
S214401A2039603B68002B06D07B685B6843F0010258
S214401A307B685A6005E07B685B6823F001027B6840
S214401A405A6000BF0C37BD465DF8047B704780B4D3
S214401A5000AFFEE780B483B000AFEFF310837B6047
S214401A607B68002B0CBF01230023DBB23B6072B6C1
S214401A70BFF35F8F044B00221A703B6818460C3742
S214401A80BD465DF8047B70471800002080B483B0E4
S214401A9000AF78607B68002B14BF01230023DBB2C5
S214401AA018460C37BD465DF8047B704780B582B05B
S214401AB000AF78607868074B98470346002B05D000
S214401AC0054B01221A70BFF35F8F62B600BF08371E
S214401AD0BD4680BD8D1A40001800002080B584B0F9
S214401AE000AF1E4BFB601E4BBB60FA68BB689A4259
S214401AF00CD007E0BB681A1DBA60FA68111DF96081
S214401B0012681A60BB68174A9342F3D3164BBB6001
S214401B1004E0BB681A1DBA6000221A60BB68134A0C
S214401B209342F6D3124BFB60124AFB6823F07F03C6
S214401B309360114B98477860104A104B1B6843F4EB
S214401B4070031360BFF34F8FBFF36F8F78680C4BF3
S214401B5098470C4B98470C4B9847FEE7A8394000EF
S214401B60000000204C04002050040020E0A7002085
S214401B700000400000ED00E0551A400088ED00E00F
S214401B80AD1A40008D2F40008D1D400080B400AF40
S214401B90524B1B6B03F00303012B14D0012B02D3D3
S214401BA0022B38D07AE04E4B5B6903F08003002B63
S214401BB004D04C4B4FF400421A606FE0494B4FF450
S214401BC0FA421A606AE0454B1B6A03F08073002BAA
S214401BD003D0444B444A1A6060E0424B434A1A6082
S214401BE03E4B1B6A03F07003102B04D0202B08D00A
S214401BF0002B0ED00EE03B4B1B685B00394A13604F
S214401C0008E0384B1A6813465B001344354A1360A5
S214401C1000E000BF42E0314B1B6A03F08073002BAC
S214401C2003D0304B304A1A601CE02E4B2F4A1A60C5
S214401C302A4B1B6A03F07003102B04D0202B08D0CD
S214401C40002B0ED00EE0274B1B685B00254A136026
S214401C5008E0244B1A6813465B001344214A13607D
S214401C6000E000BF1D4B1B6B03F00303022B14D197
S214401C701A4B9B6A1B0CC3F30A030133194A1268BA
S214401C8002FB03F3174A1360144B9B6ADBB2154AF8
S214401C901268B2FBF3F3134A136000BF0F4B1B6B83
S214401CA003F07003702B08D10E4B1B68104AA2FB42
S214401CB003235B080B4A13600AE0084B1B6B1B09A7
S214401CC003F00703074A126822FA03F3054A136033
S214401CD000BFBD465DF8047B704700BF00040E4061
S214401CE010180E401C000020001BB70000093D00E5
S214401CF0ABAAAAAA80B483B000AF78607B68194AC2
S214401D00934204D8184B4FF080621A6023E07B68F9
S214401D10164A934203D8144B154A1A601BE07B6858
S214401D20144A934203D8104B134A1A6013E07B6858
S214401D30124A934203D80C4B114A1A600BE07B6858
S214401D40104A934204D8084B4FF004221A6002E02F
S214401D50054B0D4A1A6000BF0C37BD465DF8047B44
S214401D60704700BFFF2C3101000A0E40FF59620247
S214401D7000010004FF86930300020004FFB3C4047E
S214401D8000030004FFE0F5050005000480B500AF41
S214401D90024B98470023184680BD00BF55154000AB
S214401DA080B582B000AF78607B68072B31D801A23F
S214401DB052F823F0111E4000D51D4000DD1D4000A6
S214401DC0E51D4000ED1D4000F51D4000FD1D400096
S214401DD0071E40000020114B98471AE001200F4B89
S214401DE0984716E000200E4B984712E010200C4B08
S214401DF098470EE020200A4B98470AE03E210020F4
S214401E00084B984705E03E210120064B984700E0E6
S214401E1000BF00BF0837BD4680BD00BF79274000E1
S214401E20E52740005528400080B582B000AF786076
S214401E307B68072B26D801A252F823F05D1E40008F
S214401E40611E4000611E4000731E4000731E40002D
S214401E50731E4000731E4000731E4000012312E0B4
S214401E600B4B98470346002B14BF01230023DBB2DD
S214401E7009E0084B98470346002B14BF0123002374
S214401E80DBB200E0002318460837BD4680BD00BFE1
S214401E90B1274000CD28400080B483B000AF7860C2
S214401EA07B68072B25D801A252F823F0CD1E4000B0
S214401EB0D31E4000D91E4000DF1E4000E31E4000F7
S214401EC0E71E4000EB1E4000EF1E40004FF4FA4372
S214401ED010E04FF400430DE04FF400430AE0084B97
S214401EE008E0084B06E0084B04E0074B02E0064BD0
S214401EF000E0002318460C37BD465DF8047B70476B
S214401F0000093D0000127A00001BB70080B582B081
S214401F1000AF0346FB7100BFFB791846054B984758
S214401F20034683F00103DBB2002BF5D100BF083730
S214401F30BD4680BD291E400080B586B000AFF86023
S214401F407A603B600B46FB72FB7A18460D4B98470F
S214401F5002467B68B2FBF3F37B617B693A6802FB1F
S214401F6003F37B613B68013B1A04074B13407A68D6
S214401F70D2B2134343F47C52FB681A6000BF183752
S214401F80BD4680BD991E40000000FF0780B582B068
S214401F9000AF786039603B68002B07D1054B984707
S214401FA0054A7B681B6843F00053936200BF0837BE
S214401FB0BD4680BDE928400000040E4080B582B092
S214401FC000AF7860034B9847034618460837BD462F
S214401FD080BD00BF0529400080B582B000AF0346F3
S214401FE0FB71FB79033B042B08D8FB791846064B5C
S214401FF09847FB791846054B984700E000BF00BF5E
S2144020000837BD4680BD00BFA11D40000D1F4000E3
S21440201080B582B000AF786000BF7868044B9847C0
S2144020200346002BF9D0002318460837BD4680BD2E
S214402030BD1F400080B500AF0620034B98470346BF
S2144020401B01184680BD00BF991E400080B500AFFA
S214402050024B984703465B08184680BD3520400033
S21440206090B583B000AF1148114B98470620114BEE
S2144020709847381D1023012206210F4CA0473B1DD0
S214402080002118460D4B984700200D4B98471020CE
S2144020900C4B98470C4B98470C4B984703461846B2
S2144020A0034B984700BF0C37BD4690BD000E270730
S2144020B0F51C4000D91F4000391F40008D1F4000CE
S2144020C011204000F52640008D1B40004D2040006A
S2144020D080B584B000AF7860396078682C4B9847FC
S2144020E0F86078682B4B98470246FB681340FB60C5
S2144020F0FB68002B3CD00023BB6034E0264ABB681C
S2144021001B0113441A683B689A4226D1224ABB6890
S2144021101B01134404331A68FB681340002B1CD081
S2144021201D4ABB681B0113440C331B681A49BA6826
S21440213012010A4410681849BA6812010A44043267
S214402140126811469847144ABB681B01134404336F
S2144021501B68DB43FA681340FB60BB680133BB6017
S214402160BB68062B03D8FB68002BC7D100E000BF36
S2144021700A4B1B68002B07D0094B1B68002B03D06B
S214402180074B1B687868984700BF1037BD4680BD30
S214402190C5264000DD26400034A70020B8A7002012
S2144021A0A4A7002080B500AF09210248024B9847FB
S2144021B000BF80BD000E0E40D120400080B500AF6D
S2144021C00A210248024B984700BF80BD00100E40CF
S2144021D0D120400080B500AF0B210248024B984703
S2144021E000BF80BD00120E40D120400080B500AF39
S2144021F00C210248024B984700BF80BD00140E4099
S214402200D120400080B500AF0D210248024B9847D0
S21440221000BF80BD00160E40D120400080B58AB079
S21440222000AFF860B9607A607B6846F2A81202FB9D
S21440223003F2BB6813445A1E7B6846F2A81101FBA2
S21440224003F3B2FBF3F3802B01D9002386E0BB688F
S2144022505A087B684FF4FA5101FB03F39A4201D2C5
S21440226000237BE0082387F827304FF0FF333B629C
S2144022700823FB772AE0FB7F7A6802FB03F34FF4E0
S2144022807A7202FB03F3BA68B2FBF3F3802B1AD8D8
S214402290FB7F7A6802FB03F34FF47A7202FB03F289
S2144022A0BB68B3FBF2F102FB01F29B1ABB61BA6951
S2144022B03B6A9A4207D2BB693B62FB7F87F827306E
S2144022C03B6A002B06D0FB7F0133FB77FB7F192B45
S2144022D0D1D900E000BF97F827307A6802FB03F3B5
S2144022E04FF47A7202FB03F3BA68B2FBF3F3FB7562
S2144022F0FB7D012B01D8002330E097F82730A3F16F
S214402300080213465B0013445B00164A13443B61C5
S214402310F868154B98473B69DB78013B03F00702AA
S2144023203B699B78013B1B0103F070031A433B69F2
S2144023305B78013B1B0203F4E0631A433B691B795D
S214402340013B1B0303F440531A43FB7D013B1B0434
S21440235003F4FE031A43FB685A61012318462837E4
S214402360BD4680BD0C3940001524400080B586B07F
S21440237000AFF860B9607A607A68B968F868174B59
S214402380984778617B69002B01D1002321E0F868EB
S214402390134B9847F868134B984700237B610023FC
S2144023A03B6106E0F868104B984778613B6901331B
S2144023B03B617B6903F40013002B03D13B690B4A56
S2144023C09342EFD93B690A4A934201D1002300E089
S2144023D0012318461837BD4680BD00BF1D22400069
S2144023E071254000F5234000352440009F860100BB
S2144023F0A086010080B483B000AF78607B681B681D
S21440240043F001027B681A6000BF0C37BD465DF89A
S214402410047B704780B483B000AF78607B681B68ED
S21440242023F001027B681A6000BF0C37BD465DF89A
S214402430047B704780B483B000AF78607B681B69CC
S21440244018460C37BD465DF8047B704780B485B0AF
S21440245000AF786039603B681B68FB733B681B794C
S214402460002B2FD1FB7B7A6810335B01134400228C
S2144024701A60FB7B7A6810335B01134404330022F6
S2144024801A60FB7B7A685B01134403F502730022F3
S2144024901A60FB7B7A685B01134403F505730022E0
S2144024A01A60FB7B7A685B01134403F506730022CF
S2144024B01A60FB7B7A685B01134403F507730022BE
S2144024C01A6050E0FB7BFA7B7968103252010A446E
S2144024D0126822F470223968C97909040A43796877
S2144024E010335B010B441A603B685B79002B16D0B7
S2144024F0FB7B3A68D26842F00052796810335B0141
S2144025000B4404331A60FB7B3A68126942F000526F
S21440251079685B010B4403F502731A6011E0FB7B9C
S2144025203A68D268796810335B010B4404331A600A
S214402530FB7B3A68126979685B010B4403F50273CA
S2144025401A60FB7BFA7B7968103252010A441268A3
S21440255022F0E0623968097909060A43796810333F
S2144025605B010B441A601437BD465DF8047B704728
S21440257080B58CB000AF786000233B74002387F8AA
S2144025802F300DE097F82F30FB6007F10C0319460B
S2144025907868074B984797F82F30013387F82F30E5
S2144025A097F82F30072BEDD900BF3037BD4680BD9A
S2144025B04D24400080B487B000AFF860B9607A60C0
S2144025C0FB687A685A64BB68B3F1C05F4AD0B3F11F
S2144025D0C05F08D8B3F1006F16D0B3F1805F2CD03F
S2144025E0002B69D064E0B3F1205F65D0B3F1205F83
S2144025F003D8B3F1005F4AD05AE0B3F1405F5BD0F6
S214402600B3F1605F58D053E0FB681B6F7B61FB689B
S2144026101A6F7B68D9437B690B401A40FB681A6780
S214402620FB685B6F7B61FB685A6F7B68D9437B694D
S2144026300B401A40FB685A673AE0FB681B6F7B61A9
S2144026407A687B691A43FB681A67FB685B6F7B6135
S214402650FB685A6F7B68D9437B690B401A40FB681E
S2144026605A6725E0FB681B6F7B61FB681A6F7B68C7
S214402670D9437B690B401A40FB681A67FB685B6F5F
S2144026807B617A687B691A43FB685A6710E0FB688F
S2144026901B6F7B617A687B691A43FB681A67FB6825
S2144026A05B6F7B617A687B691A43FB685A6700BF39
S2144026B0FB687A685A6000E000BF1C37BD465DF88C
S2144026C0047B704780B483B000AF78607B68DB6C77
S2144026D018460C37BD465DF8047B704780B483B01F
S2144026E000AF78607B689B6C18460C37BD465DF83B
S2144026F0047B704780B485B000AF78601D491D4BA1
S2144027001B6B23F070027B6813430B634FF400632C
S214402710FB6007E0FB68002B01D1012323E0FB6848
S214402720013BFB60134B9B6E03F00803002BF1D07C
S214402730104A104B1B6B23F0030343F00203136352
S2144027404FF40063FB6007E0FB68002B01D10123D8
S21440275009E0FB68013BFB60064B9B6E03F00803F9
S214402760002BF1D0002318461437BD465DF8047B95
S214402770704700BF00040E4080B483B000AF78605E
S2144027807B68012B07D1084A074B9B6843F02543DB
S21440279043F480139360044B044A1A6000BF0C371E
S2144027A0BD465DF8047B704710180E40080000A533
S2144027B080B400AF094B5B6903F08003002B07D061
S2144027C0074B9B6E03F08003002B01D0012300E0F3
S2144027D000231846BD465DF8047B704710180E402F
S2144027E000040E4080B483B000AF7860184A184B9F
S2144027F01B6A43F45C1343F00803136200BF144B98
S2144028009B6E03F40033002BF9D01149104B1B6A22
S21440281023F45C1323F070037A68134343F45C1389
S2144028200B6200BF0A4B9B6E03F40033002BF9D0BB
S214402830074A074B1B6A23F09B7323F4803343F409
S2144028405C13136200BF0C37BD465DF8047B7047CF
S21440285000040E4080B483B000AF786039607B6877
S214402860002B08D01649164B1B6A164A1A40164BC0
S21440287013430B621EE01249114B1B6A23F45C1390
S21440288023F003033A68120292B2134343F45C13F4
S21440289043F001030B6200BF094B9B6E03F001033C
S2144028A0002BF9D0064A064B1B6A43F09B7343F451
S2144028B08033136200BF0C37BD465DF8047B70471B
S2144028C000040E40FCFFC8FE0200370180B400AF93
S2144028D0044B9B6E03F480331846BD465DF8047B7C
S2144028E0704700BF00040E4080B400AF044B4FF06A
S2144028F000529A6200BFBD465DF8047B704700BF39
S21440290000040E4080B400AF044B9B6E03F00203FD
S2144029101846BD465DF8047B704700BF00040E4075
S21440292080B483B000AF78607B682F2B01D9012339
S2144029302FE07B681F2B13D8194B9A6901217B68BF
S21440294001FA03F31A4001217B6801FA03F39A4225
S2144029501ED0134A01217B6801FA03F3136117E086
S2144029607B68203B7B600E4BD3F8082101217B68B7
S21440297001FA03F31A4001217B6801FA03F39A42F5
S21440298006D0074A01217B6801FA03F3C2F80031FA
S214402990002318460C37BD465DF8047B704700BFE1
S2144029A000040E4080B483B000AF78607B68082295
S2144029B01A607B6820221A607B6804221A6000BF77
S2144029C00C37BD465DF8047B7047000080B584B088
S2144029D000AF786039600023FB607B684FF0FF32C1
S2144029E09A627B681B6A78680E4B984778680E4BED
S2144029F098473B6859683B681B681A4678680B4B93
S214402A0098470346012B01D10123FB603B685B7A64
S214402A10012B02D17B6840221A60FB6818461037AB
S214402A20BD4680BD5D2C4000A5294000312A4000AF
S214402A3080B489B000AFF860B9607A600023FB616B
S214402A40BB68344A934201D901235DE0BB68324AF1
S214402A50934237D97B68314AA2FB03239B0B043B46
S214402A607B61BA682E4B13449B007A68B2FBF3F343
S214402A70043B3B6105E0FB690133FB617B695B0816
S214402A807B617B69FF2B09D9FB69062BF3D905E0EF
S214402A90FB690133FB613B695B083B613B69FF2B8C
S214402AA002D9FB69062BF3D97B69DAB23B691B0274
S214402AB09BB21A43FB691B0403F4E0231A43FB68EA
S214402AC01A6120E0BB685B007A68B2FBF3F3043B14
S214402AD0BB6105E0FB690133FB61BB695B08BB6119
S214402AE0BB69FF2B02D9FB69062BF3D9BB69DAB267
S214402AF0BB691B029BB21A43FB691B0403F4E02329
S214402B001A43FB681A61002318462437BD465DF811
S214402B10047B7047801A060000DC0500F119760534
S214402B200012FD3F80B485B000AF786039603B68E6
S214402B30002B01D100231DE07B681B78FB603B68BF
S214402B40012B09DDFB681B02FB607B6801331B78A9
S214402B501A46FB681343FB603B68022B09DDFB68A3
S214402B601B02FB607B6802331B781A46FB681343E4
S214402B70FB60FB6818461437BD465DF8047B70471B
S214402B8080B586B000AF786039603B68DB687B61B3
S214402B903B689B683B617B69002B01D1012356E073
S214402BA07B6800225A603B681B7C1B0403F4FE02D1
S214402BB03B685B681B0203F440731A437B685A60A9
S214402BC07B680022DA603A683B685B6819461046C4
S214402BD0214B984702467B68DA6019E07B681B6A9F
S214402BE0FB60FB6803F48073002B01D005232EE0C6
S214402BF0FB6803F00403002B00D109E03B695A1C34
S214402C003A611B781A467B685A637B69013B7B6155
S214402C107B69002BE2D17B681B6AFB60FB6803F490
S214402C208073002B01D0052311E0FB6803F00403FA
S214402C30002B00D1EFE700BF7B6802221A6000BF7E
S214402C407B681B6A03F00103002BF9D0002318466B
S214402C501837BD4680BD00BF252B400080B483B0EA
S214402C6000AF78607B6880221A607B681B6B00BF71
S214402C700C37BD465DF8047B7047000053B94AB92F
S214402C80002908BF00281CBF4FF0FF314FF0FF302F
S214402C9000F07AB9ADF1080C6DE904CE00F006F804
S214402CA0DDF804E0DDE9022304B070472DE9F04783
S214402CB08C460D460446089E002B51D18A42174644
S214402CC06DD9B2FA82FEBEF1000F0BD0CEF1200CC9
S214402CD001FA0EF520FA0CFC02FA0EF74CEA050C47
S214402CE000FA0EF44FEA174A250CBCFBFAF81FFA16
S214402CF087F90AFB18CC45EA0C4508FB09F3AB42BA
S214402D000AD9ED1908F1FF3280F02381AB4240F238
S214402D102081A8F102083D44ED1AA4B2B5FBFAF0B2
S214402D200AFB105544EA054400FB09F9A14509D9B8
S214402D30E41900F1FF3380F00A81A14540F2078193
S214402D4002383C44A4EB090440EA08400021002E27
S214402D5061D024FA0EF4002334607360BDE8F08737
S214402D608B4207D9002E54D0002186E82100084621
S214402D70BDE8F087B3FA83F1002940F08E80AB427D
S214402D8002D3824200F2FA80841A65EB03050120E2
S214402D90AC46002E3FD086E81010BDE8F08712B94A
S214402DA00127B7FBF2F7B7FA87FEBEF1000F34D122
S214402DB0EB1B3A0C1FFA87FC0121B3FBF2F8250CFB
S214402DC002FB183345EA03450CFB08F3AB4207D930
S214402DD0ED1908F1FF3002D2AB4200F2D1808046B6
S214402DE0ED1AA3B2B5FBF2F002FB105543EA0544D8
S214402DF00CFB00FCA44507D9E41900F1FF3302D2CE
S214402E00A44500F2B8801846A4EB0C0440EA0840FB
S214402E109DE731463046BDE8F087CEF1200405FAFE
S214402E200EF307FA0EF720FA04F83A0C25FA04F4E3
S214402E3048EA0308B4FBF2F14FEA184502FB114496
S214402E401FFA87FC45EA044501FB0CF3AB4200FA47
S214402E500EF409D9ED1901F1FF3080F08A80AB42BB
S214402E6040F2878002393D44EB1A1FFA88F5B3FBDF
S214402E70F2F002FB103345EA034500FB0CF3AB428D
S214402E8007D9ED1900F1FF386FD2AB426DD9023841
S214402E903D44EB1A40EA01418FE7C1F1200722FA90
S214402EA007F88B4005FA01F448EA030320FA07FEC8
S214402EB04FEA134CFD404EEA040EB5FBFCF94FEAD0
S214402EC01E440CFB19551FFA83F844EA054509FBD6
S214402ED008F4AC4202FA01F200FA01FA08D9ED18F9
S214402EE009F1FF3043D2AC4241D9A9F102091D4451
S214402EF02D1B1FFA8EFEB5FBFCF00CFB10554EEA60
S214402F00054400FB08F8A04507D9E41800F1FF3552
S214402F1029D2A04527D902381C4440EA0940A4EBF0
S214402F200804A0FB02894C45C6464D4615D312D030
S214402F3056B1BAEB0E0364EB050404FA07F7CB4030
S214402F401F43CC40376074600021BDE8F0871846C8
S214402F50F8E69046E0E6C245EAD2B8EB020E69EBE8
S214402F6003050138E4E72846D7E7404691E781461F
S214402F70BEE7014678E702383C4445E7084608E79E
S214402F80A8F102083D442BE7704700BF70B50F4ECE
S214402F900F4D761BB61018BF002405D0013455F8E7
S214402FA0043B9847A642F9D10A4E0B4D761B00F0DB
S214402FB0E5FCB61018BF002406D0013455F8043B93
S214402FC09847A642F9D170BD70BD00BF8839400011
S214402FD0883940009039400088394000024B13B190
S214402FE0024800F005B8704700000000FD2F400082
S214402FF0002301461A46184600F01EB838B50A4C5B
S2144030000A4D641BA4100AD004F18043013B05EB33
S2144030108305013C55F804399847002CF9D1BDE8A2
S214403020384000F0B5BC00BFA03940009C39400095
S214403030704700BF704700BF2DE9F8432C4D064649
S214403040286898460F469146FFF7F2FF294B1C68C2
S214403050D4F84831002B3ED05A681F2A1CDC02F1B7
S214403060010E76B103EB82010124C1F88890D3F8B3
S214403070880194402043022EC3F88801C1F8088195
S21440308023D00232C3F804E0286843F82270FFF7E2
S214403090D1FF0020BDE8F883174B0BB34FF4C87040
S2144030A0AFF300800346D8B1D4F84821026000212F
S2144030B041600A46C4F848014FF0010EC0F8881136
S2144030C0C0F88C11002EDCD0CCE7D3F88C110C4322
S2144030D0C3F88C41D5E704F5A673C4F84831BBE77E
S2144030E02868FFF7A7FF4FF0FF30BDE8F88300BF22
S2144030F0480400207839400000000000000000002E
S2144031000000000000000000000000000100000079
S21440311000100E400A000000004000002E00000094
S2144031200100000000100E400A00000000200000D1
S2144031302D0000000100000000140E400C000000AE
S21440314001000000600000000100000000140E4076
S2144031500C000000000000807F000000010000001E
S21440316000160E400D00000008000000830000001E
S2144031700100000000160E400D0000000100000097
S214403180800000000100000000160E400D00000008
S21440319002000000810000000100000000160E4002
S2144031A00D00000004000000820000000100000046
S2144031B000120E400B000000000000085B000000FC
S2144031C00100000000120E400B000000010000004D
S2144031D0400000000100000000120E400B000000FE
S2144031E0000000045A0000000100000000120E40DB
S2144031F00B000000000000805F000000010000009F
S21440320000120E400B000000000000405E00000070
S2144032100100000000120E400B00000000000020DD
S2144032205D0000000100000000120E400B00000090
S214403230002000004D0000000100000000100E407D
S2144032400A0000000100000020000000010000000D
S21440325000100E400A00000002000000210000009E
S21440326001000000000E0E400900000000001000A3
S2144032701400000001000000000E0E40090000008F
S21440328000000200110000000100000000160E4081
S2144032900D00000010000000840000000100000047
S2144032A0000E0E4009000000000008001300000059
S2144032B00100000000160E400D0000002000000037
S2144032C0850000000100000000100E400A000000CB
S2144032D0040000002200000001000000000E0E4026
S2144032E00900000000000400120000000100000079
S2144032F0000E0E40090000000000200015000000EF
S2144033000100000000100E400A0000000800000007
S214403310230000000100000000140E400C000000D6
S214403320000000047A0000000100000000140E4077
S2144033300C000000000000407E000000010000007D
S214403340000E0E400900000000008000170000003C
S21440335001000000000E0E40090000000040000082
S2144033600E0000000100000000140E400C0000009B
S21440337000002000750000000100000000140E4010
S2144033800C00000000000002790000000100000070
S214403390000E0E4009000000000001001000000072
S2144033A00100000000140E400C0000000000100059
S2144033B07400000001000000000E0E4009000000EE
S2144033C0008000000F0000000100000000120E40C8
S2144033D00B000000800000004700000001000000D5
S2144033E000140E400C000000000000087B000000A7
S2144033F001000000000E0E400900000000004000E2
S214403400160000000100000000120E400B000000F5
S21440341002000000410000000100000000120E40C3
S2144034200B00000004000000420000000100000005
S21440343000120E400B000000080000004300000091
S2144034400100000000120E400B00000010000000BB
S2144034504400000001000000000E0E40090000007D
S214403460002000000D0000000100000000120E4089
S2144034700B00000020000000450000000100000096
S21440348000120E400B000000400000004600000006
S2144034900100000000140E400C0000000000000177
S2144034A07800000001000000000E0E4009000000F9
S2144034B000000001180000000100000000140E404B
S2144034C00C000000000080007700000001000000B3
S2144034D0000E0E4009000000000000021900000027
S2144034E00100000000140E400C00000000004000E8
S2144034F0760000000100000000140E400C000000A2
S214403500000008007300000001000000000E0E409E
S21440351009000000001000000C0000000100000040
S21440352000140E400C000000000004007200000072
S21440353001000000000E0E400900000000080000D8
S2144035400B0000000100000000140E400C000000BC
S214403550002000006D0000000100000000120E4038
S2144035600B000000000200004900000001000000BF
S21440357000140E400C000000004000006E000000EA
S2144035800100000000140E400C0000000000001077
S2144035907C0000000100000000120E400B000000FE
S2144035A0000000105C0000000100000000100E400B
S2144035B00A00000040000000260000000100000055
S2144035C0000E0E400900000020000000050000002C
S2144035D00100000000140E400C0000000000020035
S2144035E0710000000100000000140E400C000000B6
S2144035F000000100700000000100000000120E40B4
S2144036000B00000000010000480000000100000020
S21440361000140E400C000000001000006C0000007B
S2144036200100000000120E400B00000000080000E1
S2144036304B00000001000000000E0E400900000094
S21440364004000000020000000100000000100E40D0
S2144036500A000000001000002C00000001000000DE
S21440366000120E400B000000004000004E0000001C
S2144036700100000000140E400C0000008000000016
S214403680670000000100000000100E400A00000025
S21440369080000000270000000100000000120E40DD
S2144036A00B000000000400004A000000010000007B
S2144036B000140E400C000000000800006B000000E4
S2144036C001000000000E0E4009000000020000004D
S2144036D0010000000100000000120E400B00000038
S2144036E000000100500000000100000000140E40E1
S2144036F00C000000000400006A000000010000000A
S214403700000E0E400900000001000000000000000E
S2144037100100000000120E400B00000000000200F6
S214403720510000000100000000120E400B00000097
S21440373000000800530000000100000000100E408A
S2144037400A000000100000002400000001000000F5
S21440375000140E400C000000008000006F000000C7
S2144037600100000000140E400C0000000000002085
S2144037707D0000000100000000100E400A0000001E
S21440378020000000250000000100000000140E404C
S2144037900C0000000002000069000000010000006C
S2144037A000120E400B000000000004005200000013
S2144037B00100000000140E400C0000000001000054
S2144037C06800000001000000000E0E4009000000E6
S2144037D040000000060000000100000000120E40FD
S2144037E00B00000000001000540000000100000024
S2144037F000120E400B000000000040005600000083
S2144038000100000000140E400C00000040000000C4
S214403810660000000100000000120E400B00000091
S21440382000002000550000000100000000120E407D
S2144038300B000000000000015800000001000000DE
S21440384000140E400C000000200000006500000040
S2144038500100000000140E400C00000010000000A4
S214403860640000000100000000120E400B00000043
S21440387000008000570000000100000000140E40C9
S2144038800C00000004000000620000000100000080
S21440389000140E400C00000008000000630000000A
S2144038A00100000000140E400C0000000200000062
S2144038B0610000000100000000120E400B000000F6
S2144038C0000000025900000000000000000002084E
S2144038D0022A027103000272030002790281027F0B
S2144038E002D5026002D9027802DA021002DB0240F8
S2144038F002DC02030478027802090206022802016A
S21440390002020206020C040501010000080302023E
S214403910034B0902030302430A03030303460B0453
S214403920030304480C03040404430D040404044D38
S2144039300E04040504400F04050504431005050560
S21440394004451106050504471205060604431306FA
S21440395006060444140706060446150806060447E9
S21440396016070707044417080807044618070808F8
S214403970044319080808044420000020F8B500BF96
S214403980F8BC08BC9E467047DD2F40001D01400035
S214403990F8B500BFF8BC08BC9E467047F90040002A
S20C4039A00CF3FF7F010000005C
S2144039A8BFF35F8F0138FBD170470000AAAAAAAAC6
S2144039B800A00000FFFFFFFF0100000000093D00D7
S2144039C8000000000C03002074030020DC030020E5
S2144039D8000000000000000000000000000000009A
S2144039E8000000000000000000000000000000008A
S2144039F8000000000000000000000000000000007A
S214403A080000000000000000000000000000000069
S214403A180000000000000000000000000000000059
S214403A280000000000000000000000000000000049
S214403A380000000000000000000000000000000039
S214403A480000000000000000000000000000000029
S214403A580000000000000000000000000000000019
S214403A680000000000000000010000000000000008
S214403A780E33CDAB34126DE6ECDE05000B000000CD
S214403A8800000000000000000000000000000000E9
S214403A9800000000000000000000000000000000D9
S214403AA800000000000000000000000000000000C9
S214403AB800000000000000000000000000000000B9
S210403DE80000000000000000BCA7002007
S804401ADDC4
