S00B000061726D2E73726563D9
S214400000403500207D1240007912400079124000B1
S214400010791240007912400079124000000000003A
S21440002000000000000000000000000079124000C0
S214400030791240000000000079124000791240001A
S214400040791240007912400079124000791240003F
S214400050791240007912400079124000791240002F
S21440006079124000A9154000BD154000D11540004A
S214400070E5154000F915400079124000791240001D
S21440008079124000791240007912400079124000FF
S21440009079124000791240007912400079124000EF
S2144000A079124000791240007912400079124000DF
S2144000B079124000791240007912400079124000CF
S2144000C079124000791240007912400079124000BF
S2144000D079124000791240007912400079124000AF
S2144000E0791240007912400079124000791240009F
S2144000F0791240007912400010B5054C237833B988
S214400100044B13B10448AFF300800123237010BDA5
S2144001103404002000000000381D40000C4B43B162
S2144001200C480D4910B5AFF300800C48036823B95E
S21440013010BD0A48036833B97047094B002BF7D007
S214400140BDE810401847064B002BF5D0184700BFB7
S21440015000000000381D400038040020381D4000D4
S2144001600000000070B509200C4B98474FF07C42C9
S2144001704FF0C0510A480B4B98470B4B984700240A
S2144001800A4E0B4D03E02046A8470228FBD12046E6
S214400190B0470128F7D00028F9D170BDA919400012
S2144001A0000E0E40251840007D034000410C4000E4
S2144001B09D03400038B52620134B9847134D4FF407
S2144001C07A7213492846134B98472846124B98474D
S2144001D0124C00232360032222710F22E2716371C6
S2144001E0E360214628460E4B98474FF4E0132361C0
S2144001F00C4BA3610C4BE3610823A37121462846B0
S2144002000A4B984738BD00BFA9194000004001403E
S21440021000D8B8052917400005174000F80400200C
S2144002201916400078563412214365879B164000C5
S21440023008B501210148024B984708BD00400140DF
S2144002400D16400008B5044B9847044B9847044B9E
S2144002509847044B984708BDD9144000910C40007D
S21440026065014000B501400008B5014B984708BD00
S2144002703102400010B5064B19688B7F003318BF1B
S21440028001234A7B096803480078034CA04710BD09
S2144002905004002074040020290F400008B10420B8
S2144002A0704710B50E4B9B7A033BDBB2012B0DD942
S2144002B000220C4B1A700A4C0B4B1C600B4B984799
S2144002C0A07A022814BF0020012010BD044B022251
S2144002D09A72074A1A6001225A7300229A77E7E711
S2144002E0540400207404002050040020750240008E
S2144002F0801A060038B5049C520242EAC36242EABB
S214400300017242EAC0722178114341F23430054B03
S2144003109847054608B9284638BD034B984720708D
S214400320F9E700BF091040003510400010B5094BF2
S2144003301B681989090441F60930074B984704465B
S21440034008B9204610BD034B18680E30034B98473B
S214400350F7E700BF5004002009104000411040005D
S21440036008B5044B1B7803B108BD0020024B9847E4
S214400370FAE700BF74040020E10F400008B50422ED
S214400380034B9A72FF22034B1A70034B984708BDE3
S2144003905404002074040020F10E40002DE9F04380
S2144003A095B0A74B98470446012805D0A54B9847DB
S2144003B0204615B0BDE8F08314AE082306F8453D48
S2144003C0A14B1B680127DF7200251D731D819F4BC3
S2144003D0984700962B460622294638469C4EB047FC
S2144003E029464FF480409B4B984730B9964B1B6844
S2144003F003249C72934B9847DAE74FF4D57145F245
S2144004000850944B9847002840F093804FF00009DE
S214400410002144F205508F4B9847002840F09780C3
S214400420894B1B68DB7A13F0010F40F0B580002142
S21440043045F20310874B98470028D7D0824D2E6848
S214400440854B9847000C30812B68DB7A13F0010F00
S21440045034D0824B98470028C8D02B685A7CC2F3C9
S214400460C30002F007027E4951F822104FF47A7218
S21440047002FB01F27B4951F8201002FB01F21A60A0
S2144004809A7B920940F00B82997D587D1A7D9202A4
S21440049042EA800242EAA112187ED97D490041EA2A
S2144004A0E011C2F30B02013201F0070102318A402B
S2144004B0D97C01F00F018A40920A5A60624B1B6851
S2144004C01989090443F20710624B984700288DD0DB
S2144004D05D4B1B68DA7A12F0010F40F0ED815A4B03
S2144004E01B68DB7A13F0040F00F09C820925002776
S2144004F0574EA5F1090303AA134400933B462A46E8
S21440050039463846B04701350D2DF2D19DF80D30AD
S2144005109DF80C9009EB03299DF80E3009EB034932
S2144005209DF80F3009EB03694E464FF00008484FE0
S21440053039E2494B9847B0F1FF3F00F04783C0F39C
S2144005400B00B0F5D57F7FF451AFB94660E7424B1C
S214400550984710F0E04F3FF463AF41F2893544F2DC
S21440056005583C4E3C4F00F4FC114046B04700282E
S2144005703FF43CAFB847002802DB013DF3D135E7F6
S21440058010F0006F04D1304B1B680422DA724EE73D
S2144005902D4B1B680522DA72B9F1000F324F14BF9B
S2144005A0B9464FF4FC1940F635054FF00008294E81
S2144005B0294F414641F23710B04748B1494644F2C8
S2144005C02950B04720B1B847002820DB013DF0D184
S2144005D01D4B1B680222DA7200214FF480401D4BEF
S2144005E0984700283FF402AF41F26905DFF878806B
S2144005F0184E194F414644F20150B04700283FF488
S214400600F5AEB847002831DB013DF3D1EEE610F0F9
S214400610804F05D00C4B1A68D37A43F00803D37248
S214400620094B1B68DB7A13F0010F3FF400AF002143
S21440063045F60230074B984700287FF4F8AED5E6DB
S2144006409D0240006103400050040020E50F40003A
S214400650F502400009104000351040002D034000D0
S214400660481C4000641C400000801F4000F0C04012
S214400670B0F1804F27D0002145F60230A74B98476F
S21440068000283FF4B3AEA64B1B6801221A814FF4F4
S214400690803141F20310A14B984700283FF4A6AEA4
S2144006A0A04B984700283FF4A1AE9D4B1A68937B19
S2144006B0C3F38303013B032B0CD8DFE813F0CC00D5
S2144006C0CF00D200D500964B1A68D37A43F0080381
S2144006D0D372D0E712231373537CC3F3C30003F0E3
S2144006E00703914951F823104FF47A7303FB01F343
S2144006F08E4951F8201003FB01F31360917D507D25
S214400700137D9B0243EA800343EAA113C3F30B0322
S21440071040F6FF718B420FD0107ED17D490041EAF2
S214400720E011013301F0070102318B40D17C01F02A
S2144007300F018B409B0A53601189090443F207104E
S214400740764B984700283FF451AE754B1B681B7B91
S2144007503F2B40F296800021009101234FF4007217
S2144007607348744DA84700283FF440AE0025724EAB
S21440077003A8B04700283FF439AE0135ADB2322D5C
S214400780F6D1039E06F00206654B1B689A7D597D9E
S2144007901B7D9B0243EA810343EAA213C3F30B0388
S2144007A040F6FF7293420ED1634F04A8B847002824
S2144007B03FF41CAE0135ADB2352DF6D9584B1A680C
S2144007C0049B5B0853605C4F7F2D50D95B4B187879
S2144007D05B4B984703281DD9584B1878584B984779
S2144007E0054604284BD0574B5749082818BF19468A
S2144007F043F20610494B984700283FF4F7AD534B59
S214400800984710F0800F7FF4F1AD454B1B685D7341
S2144008104F4B98474F4B9847B0B1AEB14E4943F215
S21440082006103E4B984700283FF4E0AD474B9847AC
S21440083010F0800F7FF4DAAD394B1B6801229A77AF
S214400840464A1A60424B98470A254FF4007841F2D0
S2144008501017324E1DE0142313733DE72223137303
S2144008603AE73023137337E74023137334E704A87B
S214400870B84700283FF4BAAD0135ADB2A4E73849D1
S214400880B6E7334B9847DFE7013D15F0FF053FF4E9
S214400890ADAD41463846B0470028F5D00EE1D97D8B
S2144008A0987D5A7D120442EA00220A43C2F315029A
S2144008B0013252025A6001E61989090441F23710A2
S2144008C0164B984700283FF491AD01230093082229
S2144008D000212448174DA84700283FF487AD012142
S2144008E004A8214B984700283FF480AD1F4B9847FB
S2144008F000283FF47BAD9DF8103003F00F03012B2A
S21440090036D033B1022B38D0054B1B6810221A73F1
S214400910E5E5034B1B6810221A73E0E5091040001A
S214400920500400202D034000481C4000081C400096
S2144009300811080071104000351140007404002072
S214400940190F40000000B7010002B7013510400003
S21440095075024000230F40000001B90300751903DB
S2144009600001B70133110800A511400009124000EC
S214400970984B1B681A221A73B1E59DF81230DB09B2
S214400980944B1B6814BF302220221A73A7E59DF8AB
S2144009901130002B3FF42AAD02331E4409F5807314
S2144009A09E423FF623AD002504AB2B4400934346BE
S2144009B0721941464046B8470135032DF4D19DF89B
S2144009C01030FF2B3FF412AD222BE0D19DF81230B1
S2144009D0002BDCD104AD06F106094FF000087E4F2F
S2144009E000954346324641464046B84701360135B3
S2144009F04E45F5D19DF81530322B28BF3223754A27
S214400A001268C3F3C30003F00703744951F8231078
S214400A104FF47A7303FB01F3714951F8201003FB3E
S214400A2001F313606F4B18786F4B9847032822D911
S214400A30684B1B68DB7A13F0040F46D1654B1B6886
S214400A40DA7A12F0010F14D01989090441F23710EE
S214400A50664B984700283FF4C9AC022141F2061085
S214400A60624B984700283FF4C1AC5A4B1B6804229F
S214400A705A735F4B98475F4B984780B1554B1B68FE
S214400A80DB7A13F0040F41D1524B1B68DA7A12F02E
S214400A90010F02D01B7B102B5DD8554B98474D4B12
S214400AA01B68DB7A13F0010F08D04FF4007141F257
S214400AB010104E4B984700283FF498AC454B1B68A7
S214400AC000229A724C4B984772E404AB0093002382
S214400AD0082219461846404DA84700283FF486ACE1
S214400AE09DF91030002BA9DA14AB022203F8402DF2
S214400AF000930123072200211846A84700283FF408
S214400B0075AC344B1B6804225A7397E704AB0093CA
S214400B1000231322194618462F4DA84700283FF4B5
S214400B2065AC9DF8103013F0010FADD014AB022227
S214400B3003F8402D00930123132200211846A847AE
S214400B4000283FF453AC234B1B6801229A771A685F
S214400B5052001A6098E740252A46002104A8274BF1
S214400B609847012300932A4625492648264DA847FC
S214400B7000283FF43BAC012104A8244B98470028AA
S214400B803FF434AC224B984700283FF42FAC214B1F
S214400B90984710F0800F7FF429AC9DF8203003F082
S214400BA00F030F2B3FF479AF9DF82D309DF82C2086
S214400BB053EA02237FF41AAC174B9847054B1B6841
S214400BC001229A771A6852001A6066E74FF00009C9
S214400BD01EE400BF50040020F5024000481C4000C0
S214400BE0641C400074040020190F400009104000A7
S214400BF075024000230F4000610340004D1A40003C
S214400C0001FFFF800611080071104000A51140004A
S214400C100912400035104000E50F400008B5054B6E
S214400C20984708B1002008BD034B9847034B1B6804
S214400C30D87A08BD9D024000610340005004002061
S214400C4010B504460F4B9847012818D018B1022813
S214400C5010D0012010BD0C4B1B5D0BB1022010BD07
S214400C6020460A4B984700F00300002814BF002097
S214400C70022010BD0022044B1A55022010BD03204E
S214400C8010BD00BF9D034000780400201D0C4000AE
S214400C9038B54FF40044604B5C6009205F4DA84770
S214400CA00A20A8470B20A8470C20A8470D20A84795
S214400CB05B4B4FF480021A61C3F8A0201A63A3F579
S214400CC0C06304215961C3F8A0105966C3F8901058
S214400CD059651962C3F884101A6F22F004021A6725
S214400CE05A6F22F004025A67C3F8C010C3F8D410F3
S214400CF0C3F8B0104B4A4FF480501066C2F89000CC
S214400D0050655062C2F88000156F25F4805515670F
S214400D10556F0543556750601466C2F89040546559
S214400D205462C2F88040106F20F400401067506F45
S214400D3020435067546002F580621161C2F8A010EB
S214400D4008211161C2F8A0104FF080521A66C3F80D
S214400D5090205A655A62C3F88020196F21F080515E
S214400D601967596F114359675A604FF000521A6617
S214400D70C3F890205A655A62C3F88020196F21F054
S214400D8000511967596F114359675A604FF08042B6
S214400D901A66C3F890205A655A62C3F88020196FC5
S214400DA021F080411967596F114359675A604FF0D7
S214400DB000421A66C3F890205A655A62C3F88020EB
S214400DC0196F21F000411967596F114359675A60EE
S214400DD04FF080621A66C3F890205A655A62C3F88C
S214400DE08020196F21F080611967596F1143596748
S214400DF05A604FF000621A66C3F890205A655A62ED
S214400E00C3F88020196F21F000611967596F1143AC
S214400E1059675A6038BD00BF50180E40A9194000A7
S214400E2000140E4000120E4070B4084B5D689C687B
S214400E30D868D9695A6D80261E605D609C60D8600F
S214400E40D9615A6505221A6070BC70470000084098
S214400E5008B501F03F03184311F4807F04D011F425
S214400E60006F0DD040F4845011F4804F18BF40F40A
S214400E7000601D4B1A615861184601F480520DE01F
S214400E8011F4005F14BF40F4865040F48250EBE704
S214400E9013F41B0F0CD113F0010F0DD1036C002A75
S214400EA0F6D013F41F0FF6D0104B9847002008BD1D
S214400EB00E4B9847002008BD11F4005F03D1012077
S214400EC008BD012008BD084B1B6C4FF0FF32064999
S214400ED003F03003202BF4D00B6C013AF8D1034BCF
S214400EE09847002008BD00BF00000840290E40007B
S214400EF008B51020064B9847064B72229A60DA6176
S214400F0011225A654FF4E0625A6005221A6008BD05
S214400F10A91940000000084000280CBF042000200B
S214400F20704701207047000063B32A48436D43F47E
S214400F3080734365284BB3EB410F33D310B4274837
S214400F40B0FBF1F301FB130111BB023B214948689A
S214400F5020F0FF0048604C68C3F3470020434860D9
S214400F6013F0010F16D04B6843F480334B60042ACD
S214400F7016D0082A0CBFC0220022164BDA605DF855
S214400F80044B70471348436D23F480734365D1E7A1
S214400F90013BDBE70F494B6823F480334B60E6E7C1
S214400FA08022EAE70B4B596821F0FF0159605968E7
S214400FB0596008494B6823F480334B60042A06D0B6
S214400FC0082A0CBFC0220022024BDA6070478022FB
S214400FD0FAE700BF00000840FFD7B80500D8B805BC
S214400FE070470000074B5A6822F460525A6000224D
S214400FF01A614FF410625A611A46136C13F0010FCF
S214401000FBD070470000084010B5084B5A6822F4E1
S21440101060525A605A6822F400425A6000249C612A
S2144010200A4601462046024B984710BD000008403D
S214401030510E4000014B186A704700BF0000084040
S21440104010B4031D1430094C226A110E03F8041C18
S214401050110C03F8031C110A03F8021C03F8012CB8
S21440106004338342F0D15DF8044B704700000840DB
S21440107070B59DF8104074B3294D6C6844F4004434
S2144010806C60274D6C6844F4C0546C6012F0030FDB
S21440109027D06C6844F400546C6000F40044002C84
S2144010A014BF4FF480344FF4A02410F4803F1ED178
S2144010B043EA02451A4EB56110F4003F2AD110F4B7
S2144010C0802F2AD110F4002F17D110F4801F18BF9C
S2144010D044F4002411E0124D6C6824F400446C6023
S2144010E0CFE70F4D6C6824F400546C60D5E744F4A9
S2144010F00014C2F308050A4EB5610026094D2E605D
S214401100094D2A80094A13800A4601462046084B64
S214401110984770BD44F42014EFE744F48014ECE79D
S21440112000000840800400207A0400207C04002050
S214401130510E400008B51549154A0B6C13421BD199
S21440114013F0020FF9D0114B1B6B0360114A136862
S21440115004331360104A1188104A128802FB01F2C9
S214401160934211D309490A4A0B6C134208D113F033
S214401170006FF9D0012008BD094B9847002008BDF4
S214401180074B9847002008BD012008BD00000840D6
S214401190000060C0800400207A0400207C04002008
S2144011A0290E4000154B1B8803FB01F110F0030F7E
S2144011B002D113F0030F1BD0114A536843F4005377
S2144011C053600F4BC3F800015B6813F4005F0CBF1D
S2144011D08B080B460A4AC2F804310023C2F8143181
S2144011E00120C2F82001074A13680B441360704779
S2144011F0034A536823F400535360E2E77A0400201E
S214401200000008408004002008B51549154A0B6CBC
S214401210134216D113F4804FF9D0134B1A88134B50
S2144012201B8803FB02F3124A1268934216D80C49F5
S2144012300C4A0B6C13420DD113F0006FF9D001200D
S21440124008BD40F20222064BC3F82021094B9847BE
S214401250002008BD074B9847002008BD012008BD68
S21440126000000840000060C07A0400207C04002093
S21440127080040020290E4000FEE7000000B583B041
S214401280254B264A9A4210D0254B234A9A420CD2E6
S214401290013B9B1A23F00303043313441F4951F8C0
S2144012A0040B42F8040B9A42F9D11E4B1E4A9A424E
S2144012B00AD2013B9B1A23F0030304331344002154
S2144012C042F8041B9342FBD1184A194B23F07F0384
S2144012D09360EFF31083B3FA83F35B09019372B61E
S2144012E0BFF35F8F0022134B1A700199124A13689E
S2144012F043F470031360BFF34F8FBFF36F8F29B172
S21440130001220C4B1A70BFF35F8F62B60B4B9847A7
S2144013100B4B9847FEE700BF00000020381D4000FA
S21440132034040020400500203404002000ED00E096
S214401330000040000000002088ED00E0FD1940005D
S214401340C51440003B4B1B6B03F00303012B1DD021
S21440135083B1022B36D0374B1B6B03F07003702BD8
S2144013605FD0344B1A6B3449C2F302120B68D34039
S2144013700B607047314B5B6913F0800F14BF4FF41E
S21440138000424FF4FA422C4B1A60E4E7294B1B6AA2
S21440139013F0807F03D02A4A274B1A60DBE7294A9E
S2144013A0254B1A60234B1B6A03F07003102B05D0A5
S2144013B0202BD0D1224A204B1A60CCE7224A1E4B23
S2144013C01A60C8E71B4B1B6A13F0807F16D01C4A76
S2144013D0194B1A60174B1B6B03F00303022BBAD151
S2144013E0144A916A926A1448C1F30A41036801FBA1
S2144013F00333D2B2B3FBF2F30360ACE7114A0E4BB1
S2144014001A600C4B1B6A03F07003102B05D0202B80
S214401410E0D10B4A084B1A60DCE70B4A064B1A60D1
S214401420D8E7054A13680949A1FB03135B08136014
S214401430704700BF00040E400400002010180E4005
S214401440001BB70000093D0000127A00ABAAAAAA0A
S214401450124B984211D9124B984213D9114B9842CD
S21440146014D9114B984215D9104B984294BF4FF05F
S21440147004220F4A0F4B1A6070474FF080620D4BA4
S2144014801A6070470C4A0B4B1A6070470B4A094B60
S2144014901A6070470A4A074B1A607047FF2C3101A2
S2144014A0FF596202FF869303FFB3C404FFE0F505CD
S2144014B000050004000A0E4000010004000200047B
S2144014C00003000408B5024B9847024CA047FDE7CE
S2144014D0450240006902400010B50E480E4B984742
S2144014E03E2100200D4B98470D4CA0470028FCD0CD
S2144014F00C4B98470C4A0D4B9A620D4CA04700285F
S214401500FCD010200B4B98470B4B98470B48024B90
S214401510984710BD000E270751144000251940007B
S2144015207919400089194000013F0F2000040E4001
S21440153099194000C11840004513400000D8B8052E
S2144015402DE9F84381460F46124B984705464846D4
S214401550114B9847054013D0104C04F1600603E049
S214401560B4420DD010345DB12068B842F8D16168FD
S2144015702942F5D0E3689847636825EA0305EFE714
S214401580074B1B6823B1074B1B680BB1484698476F
S214401590BDE8F883B7184000BB184000840400201C
S2144015A018050020F404002008B509210148024B24
S2144015B0984708BD000E0E404115400008B50A2168
S2144015C00148024B984708BD00100E4041154000A8
S2144015D008B50B210148024B984708BD00120E4043
S2144015E04115400008B50C210148024B984708BDFC
S2144015F000140E404115400008B50D210148024B2D
S214401600984708BD00160E4041154000436A23F037
S214401610FF031943416270470B680A791AB330B426
S214401620DBB200EB4312D2F80042CD7924F47024AA
S21440163044EA0544C2F800424C792CB3CC6844F0E6
S2144016400054C2F804420C6944F00054C2F8084200
S214401650D2F80032097923F0E06343EA0163C2F826
S214401660003230BC7047DBB200EB43100023C0F8BA
S2144016700032C0F80432C0F80832C0F81432C0F85D
S2144016801832C0F81C327047CC68C2F804420C6965
S21440169000EB4313C3F80842DAE70B7800EB43123B
S2144016A0D2F810228A6012F4000F28D010B44A797B
S2144016B0FAB10A6942F0005200EB4314C4F808221B
S2144016C08C6900EB4312C2F814428A79042A04D982
S2144016D0CC6900EB4312C2F818428A79120402F42D
S2144016E0702200EB4310C0F81C2200205DF8044B2B
S2144016F070470C6900EB4312C2F80842E0E701204D
S2144017007047000070B588B0064600248DF8044047
S214401710044D009469463046A8470134082CF8D159
S21440172008B070BD19164000F8B546F2A81303FB82
S21440173002F40B19013BB3FBF4F3802B66D84FF44D
S214401740FA5404FB02F4B4EB510F61D84FF47A73A9
S21440175003FB02F208274FF0FF363B4604E0013316
S214401760DBB214441A2B0CD0B1FBF4F5802DF6D81E
S21440177004FB1515B542F2D215B12E461F46EEE7CC
S2144017801F4602FB07F2B1FBF2F1CBB2012B41D967
S2144017900446A7F10802036823F0010303601E4DC8
S2144017A05600B71805EB4707BB78013B1B0103F013
S2144017B0700378780138000200F4E0600343F8785C
S2144017C0013800F0070003433A79013A120302F465
S2144017D040521343CAB2013A120402F4FE021343C3
S2144017E0636120460D4B9847236843F0010323600E
S2144017F000230B492269013312F4001F01D18B42AA
S214401800F8D10748181A18BF0120F8BD0020F8BDC7
S2144018100020F8BD0020F8BDA41C4000051740007D
S214401820A08601004264B1F1C05F3AD013D8B1F14E
S214401830006F25D0B1F1805F0AD1036F1343036771
S214401840436F416F0B4023EA020343674260704791
S2144018500029FBD17047B1F1205F21D009D8B1F102
S214401860005FF3D1036F13430367436F134343672C
S214401870ECE7B1F1405F13D0B1F1605F10D0E5E71F
S21440188010B4016F046FD34321401C4619400167D2
S214401890436F416F0B402340436742605DF8044B03
S2144018A07047036F016F0B4023EA02030367436FE1
S2144018B013434367CAE7C06C7047806C70470000AC
S2144018C0174A136B23F0700318431063936E13F09C
S2144018D0080F0AD14FF4006311498A6E12F0080FC0
S2144018E003D1013BF9D1012070470D4A136B23F019
S2144018F0030343F002031363936E13F0080F0AD1F9
S2144019004FF4006306498A6E12F0080F05D1013B7A
S214401910F9D101207047002070470020704700BF73
S21440192000040E40C8B9114A136A090289B223F46A
S2144019305C1323F0030343F45C1343F001030B43AF
S2144019401362936E13F0010FFBD0084A136A43F0FC
S2144019509B7343F480331362704704490B6A044A0E
S2144019601A40044B13430B62704700BF00040E40FE
S214401970FCFFC8FE02003701024B986E00F4803030
S214401980704700BF00040E404FF00052014B9A6271
S214401990704700BF00040E40024B986E00F00200F5
S2144019A0704700BF00040E402F281ED81F280CD8B2
S2144019B0114B9A6901238340934318D0012303FABD
S2144019C000F00D4B18610020704720380A4BD3F8C2
S2144019D008210123834093430BD0012303FA00F0F0
S2144019E0054BC3F8000100207047012070470020D7
S2144019F070470020704700BF00040E4070B50F4E81
S214401A000F4D761BB61018BF002405D0013455F88C
S214401A10043B9847A642F9D10A4E0B4D761B00F080
S214401A2079F9B61018BF002406D0013455F8043BA7
S214401A309847A642F9D170BD70BD00BF201D40003A
S214401A40201D4000281D4000201D400070B4860721
S214401A5046D0541E002A41D0CAB2034602E014F1D2
S214401A60FF343BD303F8012B9D07F8D1032C2ED926
S214401A70CDB245EA05250F2C45EA054519D903F1AF
S214401A8010022646103E0F2E42F8105C42F80C5CC0
S214401A9042F8085C42F8045C02F11002F2D8A4F165
S214401AA0100222F00F0204F00F041032032C1344ED
S214401AB00DD91E462246043A032A46F8045BFAD855
S214401AC0221F22F003020432134404F003042CB114
S214401AD0C9B21C4403F8011B9C42FBD170BC704742
S214401AE014460346C2E700BF024B13B1024800F05B
S214401AF005B8704700000000091B4000002301465F
S214401B001A46184600F01EB838B50A4C0A4D641BF3
S214401B10A4100AD004F18043013B05EB8305013C49
S214401B2055F804399847002CF9D1BDE8384000F004
S214401B30FBB800BF381D4000341D4000704700BF52
S214401B40704700BF2DE9F8432C4D06462868984656
S214401B500F469146FFF7F2FF294B1C68D4F84831F0
S214401B60002B3ED05A681F2A1CDC02F1010E76B1CB
S214401B7003EB82010124C1F88890D3F88801944091
S214401B802043022EC3F88801C1F8088123D00232D0
S214401B90C3F804E0286843F82270FFF7D1FF00201E
S214401BA0BDE8F883174B0BB34FF4C870AFF3008013
S214401BB00346D8B1D4F848210260002141600A4665
S214401BC0C4F848014FF0010EC0F88811C0F88C11D7
S214401BD0002EDCD0CCE7D3F88C110C43C3F88C41F4
S214401BE0D5E704F5A673C4F84831BBE72868FFF785
S214401BF0A7FF4FF0FF30BDE8F88300BF3004002059
S214401C00101D400000000000000000000A00000018
S214401C100C0000000D0000000F0000001400000043
S214401C201A0000001E0000002300000028000000EC
S214401C302D00000034000000370000003C0000008B
S214401C4046000000500000000A000000640000004B
S214401C50E80300001027000000000000000000001D
S214401C6000000000000000000A0000000C00000019
S214401C700D0000000F0000001400000019000000D6
S214401C801E00000023000000280000002D00000079
S214401C9032000000370000003C0000004600000014
S214401CA05000000008030202034B090203030243EC
S214401CB00A03030303460B04030304480C0304040B
S214401CC004430D040404044D0E04040504400F04AC
S214401CD0050504431005050504451106050504479A
S214401CE012050606044313060606044414070606B1
S214401CF0044615080606044716070707044417084F
S214401D000807044618070808044319080808044446
S214401D1008000020F8B500BFF8BC08BC9E467047D7
S214401D20E91A40001D014000F8B500BFF8BC08BCE9
S20C401D309E467047F900400092
S214401D380100000000093D0000000000F4020020F9
S214401D485C030020C40300200000000000000000E0
S214401D580000000000000000000000000000000036
S214401D680000000000000000000000000000000026
S214401D780000000000000000000000000000000016
S214401D880000000000000000000000000000000006
S214401D9800000000000000000000000000000000F6
S214401DA800000000000000000000000000000000E6
S214401DB800000000000000000000000000000000D6
S214401DC800000000000000000000000000000000C6
S214401DD800000000000000000000000000000000B6
S214401DE801000000000000000E33CDAB34126DE653
S214401DF8ECDE05000B0000000000000000000000BC
S214401E080000000000000000000000000000000085
S214401E180000000000000000000000000000000075
S214401E280000000000000000000000000000000065
S214401E380000000000000000000000000000000055
S2084021681C050020ED
S80440127D2C
