S00B000061726D2E73726563D9
S21440000028DF00201D6040008F5F40008F5F40006B
S2144000108F5F40008F5F40008F5F40000000000011
S2144000200000000000000000000000004505400001
S2144000308F5F40000000000055064000A9064000C3
S2144000408F5F40008F5F40008F5F40008F5F4000B3
S2144000508F5F40008F5F40008F5F400089264000E2
S2144000608F5F40009D944000B5944000CD94400082
S214400070E5944000FD9440008F5F40008F5F400055
S2144000808F5F40008F5F40008F5F40008F5F400073
S2144000908F5F40008F5F40008F5F40008F5F400063
S2144000A08F5F40008F5F40008F5F40008F5F400053
S2144000B08F5F40008F5F40008F5F40008F5F400043
S2144000C08F5F40008F5F40008F5F40008F5F400033
S2144000D08F5F40008F5F40008F5F40008F5F400023
S2144000E08F5F40008F5F40008F5F40008F5F400013
S2144000F08F5F40008F5F400010B5054C237833B9C2
S214400100044B13B10448AFF300800123237010BDA5
S214400110D009002000000000B4FE40000C4B43B164
S2144001200C480D4910B5AFF300800C48036823B95E
S21440013010BD0A48036833B97047094B002BF7D007
S214400140BDE810401847064B002BF5D0184700BFB7
S21440015000000000B4FE4000D4090020B4FE400079
S2144001600000000080B485B000AF7860396000239E
S214400170FB607B68AC221A603B681A683B685B6829
S214400180B2FBF3F31B09FB60FB68002B03D0FB6854
S214400190B3F5803F01D301230FE07B68FA681A620B
S2144001A03B689A687B685A607B6840F20222C3F8D4
S2144001B020217B6850221A60002318461437BD461B
S2144001C05DF8047B704780B483B000AF78603960D8
S2144001D07B683A689A6000BF0C37BD465DF8047B82
S2144001E0704780B483B000AF78607B685B69184620
S2144001F00C37BD465DF8047B704780B483B000AFD3
S214400200786039607B685B6903F00103002B01D19D
S214400210012305E07B689B69DAB23B681A700023CD
S21440022018460C37BD465DF8047B704780B5ADF583
S2144002300C7D00AF3B4619460020064B98470346C8
S214400240002B01D0002300E00123184607F50C7769
S214400250BD4680BD6D83400080B5ADF50C7D00AFDA
S2144002603B1D18603B4619603B1D07F10C001222EF
S2144002701968144B98470346002B1CD107F10C0312
S214400280DA6807F10C03114618460F4B984707F1FA
S2144002900C023B46114618680C4B98470346B3F190
S2144002A0FF3F01D1002307E007F10C031846084B37
S2144002B09847012300E00023184607F50C77BD4613
S2144002C080BD00BFC1834000618C4000658F400008
S2144002D0358C400080B483B000AF78607B6803F113
S2144002E008027B685A607B684FF0FF329A607B68F2
S2144002F003F108027B68DA607B6803F108027B68DA
S2144003001A617B6800221A6000BF0C37BD465DF854
S214400310047B704780B483B000AF78607B6800226F
S2144003201A6100BF0C37BD465DF8047B704780B449
S21440033085B000AF786039607B685B68FB60FB68BF
S2144003405A683B685A607B685A683B689A60FB68A4
S2144003505B683A689A60FB683A685A607B683A68B5
S2144003605A603B687A681A617B681B685A1C7B68CF
S2144003701A6000BF1437BD465DF8047B704780B4F2
S21440038085B000AF786039603B681B68BB60BB686F
S214400390B3F1FF3F03D17B681B69FB600CE07B68D1
S2144003A00833FB6002E0FB685B68FB60FB685B68E9
S2144003B01A68BB689A42F6D9FB685A683B685A6026
S2144003C03B685B683A689A603B68FA689A60FB6884
S2144003D03A685A603B687A681A617B681B685A1CA0
S2144003E07B681A6000BF1437BD465DF8047B7047D3
S2144003F080B485B000AF78607B685B687A68926846
S2144004009A607B689B687A6852685A607B681B690A
S214400410FB60FB685A687B689A4203D17B689A689F
S214400420FB685A607B6800221A61FB681B685A1E8C
S214400430FB681A60FB681B6818461437BD465DF8B3
S214400440047B704780B483B000AF78607B68072B2E
S21440045025D801A252F823F0790440007F044000DA
S214400460850440008B0440008F0440009304400005
S214400470970440009B0440004FF4FA4310E04FF4CA
S21440048000430DE04FF400430AE0084B08E0084BF9
S21440049006E0084B04E0074B02E0064B00E0002372
S2144004A018460C37BD465DF8047B704700093D0092
S2144004B000127A00001BB70080B500AF0620034B41
S2144004C0984703461B01184680BD00BF45044000C0
S2144004D080B500AF024B984703465B08184680BD80
S2144004E0B904400080B485B000AFF860B9607A6067
S2144004F0FB68043BFB60FB684FF080721A60FB6849
S214400500043BFB60BA68FB681A60FB68043BFB6010
S214400510FB6800221A60FB68143BFB607A68FB6845
S2144005201A60FB68043BFB60FB686FF002021A60CF
S214400530FB68203BFB60FB6818461437BD465DF8F9
S214400540047B7047054B19680868B0E8F04F80F3A5
S21440055009884FF0000080F311887047FCA90020FE
S21440056000BF00BF04480068006880F3088862B691
S21440057000DF00BF00BF000008ED00E080B500AF20
S2144005800E4A0E4B1B6843F4700313600B4A0B4B2A
S2144005901B6843F070431360094B9847094B002291
S2144005A01A60094B9847094A084B1B6843F040437A
S2144005B01360074B98470023184680BD20ED00E0A7
S2144005C0D90640000C0000200D07400034EF00E044
S2144005D06505400080B400AF044B4FF080521A606F
S2144005E000BFBD465DF8047B704700BF04ED00E0E9
S2144005F080B500AF044B9847044B1B680133034A51
S214400600136000BF80BD00BF390640000C000020CC
S21440061080B500AF064B1B68013B054A1360044B90
S2144006201B68002B02D10020024B984700BF80BDBC
S2144006300C0000204B064000EFF311804FF0A00165
S21440064081F3118870470023184680F3118870475D
S21440065000BF0000EFF30980114B1A681EF0100F20
S21440066008BF20ED108A20E9F04F10602DE90840C1
S2144006704FF0A00080F3118801F02EF84FF00000F4
S21440068080F31188BDE8084019680868B0E8F04F64
S2144006901EF0100F08BFB0EC108A80F30988704730
S2144006A0FCA9002000BF00BF80B500AF064B4FF04E
S2144006B080521A60054B9847054B98470020054BDB
S2144006C0984700BF80BD00BF04ED00E039064000FB
S2144006D08D1540004B06400098B500AF074C084BC0
S2144006E098470246074BA3FB02239B09013B236026
S2144006F0054B07221A6000BF98BD00BF14E000E01B
S214400700D1044000D34D621010E000E0DFF80C004A
S214400710016841F470010160704700BF88ED00E059
S21440072080B586B000AF78600023FB60344B9847B6
S214400730344B1B68002B01D1334B98477B68002B0A
S2144007400ED010231A467B6813447B607B6803F008
S2144007500703002B04D07B6823F0070308337B6035
S2144007607B68002B45D04FF420427B68934240D2B2
S214400770264B3B61254B1B687B6104E07B693B61F4
S2144007807B691B687B617B695A687B689A4203D2A7
S2144007907B691B68002BF1D11A4B1B687A699A4219
S2144007A027D03B691B6810221344FB607B691A689C
S2144007B03B691A607B695A687B68D31A10225200DC
S2144007C093420FD97A697B681344BB607B695A6849
S2144007D07B68D21ABB685A607B697A685A60B86888
S2144007E00B4B98470B4B1A687B695B68D31A094AD0
S2144007F01360094B9847FB6818461837BD4680BDBE
S21440080025144000F8A9002071084000F0A90020F7
S21440081001094000100000204114400080B584B01B
S21440082000AF78607B68FB607B68002B14D0102399
S2144008305B42FA681344FB60FB68BB60084B984712
S214400840BB685A68074B1B681344064A1360B8686F
S214400850054B9847054B984700BF1037BD4680BDAF
S21440086025144000100000200109400041144000BB
S21440087080B582B000AF1D4B1D4A1A601B4B00224C
S2144008805A604FF420421A4B13447B6010235B425D
S2144008907A6813447B60174A7B681360154B1B6865
S2144008A003F00703002B03D0134B984700BFFDE728
S2144008B0104B1B6800225A600E4B1B6800221A60C1
S2144008C00B4B3B604FF4204310229A1A3B685A6009
S2144008D0084B1A683B681A60084B1B6810229B1A24
S2144008E0064A136000BF0837BD4680BDF0A9002009
S2144008F0F0090020F8A9002039064000100000202A
S21440090080B485B000AF7860284BFB6002E0FB689F
S2144009101B68FB60FB681A687B689A42F7D3FB68E3
S214400920BB60FB685B68BA681A447B689A4208D129
S214400930FB685A687B685B681A44FB685A60FB68C9
S2144009407B607B68BB607B685B68BA681A44FB6800
S2144009501B689A4218D1FB681A68154B1B689A4266
S2144009600DD07B685A68FB681B685B681A447B68D6
S2144009705A60FB681B681A687B681A6008E00C4B74
S2144009801A687B681A6003E0FB681A687B681A601E
S214400990FA687B689A4202D0FB687A681A6000BFA1
S2144009A01437BD465DF8047B704700BFF0A90020B1
S2144009B0F8A9002080B582B000AF786039607B68C7
S2144009C0002B03D1274B984700BFFDE7264B98479F
S2144009D07B681A687B68DB6B7968096C01FB03F3FC
S2144009E01A447B685A607B6800229A637B681A6860
S2144009F07B689A607B681A687B68DB6B013B79682A
S214400A00096C01FB03F31A447B68DA607B684FF09D
S214400A10FF325A647B684FF0FF329A643B68002B83
S214400A200ED17B681B69002B14D07B6810331846A8
S214400A300E4B98470346012B0CD10D4B984709E0C7
S214400A407B68103318460B4B98477B682433184610
S214400A50084B9847084B9847012318460837BD4629
S214400A6080BD00BF39064000F105400065184000D3
S214400A70D5054000D50240001106400080B588B03C
S214400A8000AFF860B9601346FB710023FB61FB685A
S214400A90002B2AD050201B4B9847B861BB69002BCF
S214400AA023D0FB68BA6802FB03F301337B617869A5
S214400AB0144B98470246BB691A60BB691B68002BFB
S214400AC010D0BB69FA68DA63BB69BA681A64012158
S214400AD0B8690D4B9847BB69FA7983F84D20BB69D6
S214400AE0FB6102E0B869094B9847FB69002B03D1CC
S214400AF0074B984700BFFDE7FB6918462037BD46C1
S214400B0080BD00BF21074000B50940001D084000D9
S214400B103906400080B588B000AFF860B9607A60AA
S214400B203B600023FB61FB68002B03D1464B984794
S214400B3000BFFDE7BB68002B03D1FB681B6C002B96
S214400B4001D1012300E00023002B03D13E4B984700
S214400B5000BFFDE73D4B9847FB689A6BFB68DB6B35
S214400B609A4216D23A68B968F868394B9847FB6893
S214400B705B6A002B09D0FB6824331846354B9847F0
S214400B800346012B01D1344B9847344B98470123F9
S214400B9056E07B68002B03D1304B984700234FE04C
S214400BA0FB69002B06D107F1140318462C4B9847D7
S214400BB00123FB61294B98472A4B9847234B98477C
S214400BC0FB685B6CB3F1FF3F02D1FB6800225A64BE
S214400BD0FB689B6CB3F1FF3F02D1FB6800229A642E
S214400BE01E4B98473A1D07F11403114618461E4BF4
S214400BF098470346002B1DD1F8681C4B9847034680
S214400C00002B11D0FB6810337A6811461846184BF3
S214400C109847F868174B9847174B98470346002B5A
S214400C2098D10D4B984795E7F868124B9847124B6A
S214400C3098478FE7F8680F4B98470F4B9847002325
S214400C4018462037BD4680BD39064000F1054000B5
S214400C500D0F400065184000D505400011064000C5
S214400C6021194000251440005D194000F91040004D
S214400C707D1740001D1040004114400080B586B0EE
S214400C8000AFF860B9607A603B60FB68002B03D128
S214400C90254B984700BFFDE7BB68002B03D1FB6898
S214400CA01B6C002B01D1012300E00023002B03D155
S214400CB01D4B984700BFFDE71B4B98473861FB68C4
S214400CC09A6BFB68DB6B9A4224D23A68B968F8683C
S214400CD0164B9847FB689B6CB3F1FF3F12D1FB68FD
S214400CE05B6A002B13D0FB6824331846104B98479A
S214400CF00346002B0BD07B68002B08D07B68012274
S214400D001A6004E0FB689B6C5A1CFB689A640123DB
S214400D107B6101E000237B613869064B98477B691D
S214400D2018461837BD4680BD390640000D0F4000B6
S214400D30651840004B06400080B588B000AFF860AC
S214400D40B9607A603B600023FB61FB68002B03D1EF
S214400D505F4B984700BFFDE7BB68002B03D1FB689D
S214400D601B6C002B01D1012300E00023002B03D194
S214400D70574B984700BFFDE7564B9847FB689B6B21
S214400D80002B3BD0FB68DB68BB61B968F868524B08
S214400D9098473B68002B1CD1FB689B6B5A1EFB6830
S214400DA09A63FB681B68002B04D14C4B984702465D
S214400DB0FB685A60FB681B69002B1BD0FB6810332E
S214400DC01846474B98470346012B13D1454B984747
S214400DD010E0FB68BA69DA60FB685B6A002B09D0F2
S214400DE0FB68243318463E4B98470346002B01D0F9
S214400DF03C4B98473C4B9847012364E07B68002B6C
S214400E0003D1394B984700235DE0FB69002B06D1A0
S214400E1007F110031846354B98470123FB61324BC8
S214400E209847334B98472B4B9847FB685B6CB3F11E
S214400E30FF3F02D1FB6800225A64FB689B6CB3F10B
S214400E40FF3F02D1FB6800229A64274B98473A1D21
S214400E5007F1100311461846264B98470346002BC9
S214400E602BD1F868244B98470346002B1FD0FB68CD
S214400E701B68002B08D1174B9847FB685B681846E1
S214400E801E4B9847184B9847FB6824337A681146A0
S214400E9018461B4B9847F8681A4B98471A4B984782
S214400EA00346002B7FF468AF0E4B984764E7F8681C
S214400EB0144B9847144B98475EE7F868114B984791
S214400EC0114B9847002318462037BD4680BD00BFCB
S214400ED039064000F1054000CD0F4000DD1C4000C3
S214400EE065184000D5054000110640002119400015
S214400EF0251440005D194000C5104000391D4000D3
S214400F007D1740001D1040004114400080B584B05D
S214400F1000AFF860B9607A60FB681B6C002B0CD1A0
S214400F20FB681B68002B43D1FB685B681846254B63
S214400F309847FB6800225A603AE07B68002B19D13C
S214400F40FB689868FB681B6C1A46B9681E4B984746
S214400F50FB689A68FB681B6C1A44FB689A60FB68DF
S214400F609A68FB685B689A4222D3FB681A68FB68FB
S214400F709A601DE0FB68D868FB681B6C1A46B96827
S214400F80114B9847FB68DA68FB681B6C5B421A4457
S214400F90FB68DA60FB68DA68FB681B689A4207D22F
S214400FA0FB685A68FB681B6C5B421A44FB68DA6055
S214400FB0FB689B6B5A1CFB689A6300BF1037BD46A4
S214400FC080BD00BFED1D4000F1A5400080B582B059
S214400FD000AF786039607B681B68002B18D07B6850
S214400FE0DA687B681B6C1A447B68DA607B68DA6870
S214400FF07B685B689A4203D37B681A687B68DA60D2
S2144010007B68D9687B681B6C1A463868024B9847E1
S21440101000BF0837BD4680BDF1A5400080B582B010
S21440102000AF7860234B984712E07B685B6A002BE2
S21440103013D07B68243318461F4B98470346002B33
S21440104001D01E4B98477B689B6C5A1E7B689A64FF
S2144010507B689B6C002BE8DC00E000BF7B684FF0B1
S214401060FF329A64164B9847124B984712E07B68BB
S2144010701B69002B13D07B68103318460E4B9847DD
S2144010800346002B01D00D4B98477B685B6C5A1E7D
S2144010907B685A647B685B6C002BE8DC00E000BF32
S2144010A07B684FF0FF325A64054B984700BF0837BD
S2144010B0BD4680BDF105400065184000111A40004D
S2144010C01106400080B584B000AF7860084B984762
S2144010D07B689B6B002B0CBF01230023DBB2FB60BD
S2144010E0044B9847FB6818461037BD4680BD00BF86
S2144010F0F10540001106400080B584B000AF78602E
S214401100094B98477B689A6B7B68DB6B9A420CBFAF
S21440111001230023DBB2FB60044B9847FB6818466C
S2144011201037BD4680BD00BFF105400011064000A7
S21440113080B582B000AF78603960124B98477B68C4
S2144011405B6CB3F1FF3F02D17B6800225A647B6838
S2144011509B6CB3F1FF3F02D17B6800229A640A4B36
S21440116098477B689B6B002B05D17B682433396896
S2144011701846064B98477868054B984700BF08378F
S214401180BD4680BDF10540001106400001184000F4
S2144011901D10400090B58BB002AFF860B9603B6060
S2144011A01346FB80FB68002B03D1544B984700BF87
S2144011B0FDE73B6B042B03D9504B984700BFFDE738
S2144011C0FB88B96B18464E4B9847B861BB69002BF5
S2144011D07DD0BB691A6BFB8803F18043013B9B00C3
S2144011E013447B617B6923F007037B617B6903F0D3
S2144011F00703002B03D0414B984700BFFDE7FB8811
S2144012000093FB6B3A6BB968B8693E4CA0473A68A6
S214401210F96878693C4B98470246BB691A607B6B15
S214401220002B02D07B6BBA691A60384B9847384B14
S2144012301B680133364A1360364B1B68002B09D1B6
S214401240344ABB691360324B1B68012B0FD1324BBB
S21440125098470CE0314B1B68002B08D12D4B1B6880
S214401260DA6A3B6B9A4202D82A4ABB691360BB696A
S214401270DA6A2B4B1B689A4203D9BB69DB6A284A59
S2144012801360284B1A68BB691A64264B1B680133E7
S214401290244A1360BB69DA6A234B1B689A4203D917
S2144012A0BB69DB6A204A1360BB69DA6A13469B0057
S2144012B013449B001D4A1A44BB6904331946104622
S2144012C01B4B98470123FB611A4B984702E04FF0AF
S2144012D0FF33FB61FB69012B0BD1104B1B68002BC6
S2144012E007D00C4B1B68DA6A3B6B9A4201D2124B12
S2144012F09847FB6918462437BD4690BD39064000DE
S214401300491C4000511A4000E5044000F1054000E9
S214401310D4AA0020FCA90020C51A4000E4AA002058
S214401320DCAA0020F8AA0020E0AA002000AA00209C
S2144013302F03400011064000D505400080B584B01C
S21440134000AF78600023FB607B68002B12D00E4B0A
S21440135098470E4B1A687B681344BB600C4B1B685F
S214401360043318460B4B9847B8680B4B98470B4BC3
S2144013709847F860FB68002B01D1094B984700BF9F
S2144013801037BD4680BD00BF25144000D8AA0020B7
S214401390FCA90020F1034000D91B40004114400046
S2144013A0D505400090B587B004AF002303930023D3
S2144013B002930023019300230093002382221149C5
S2144013C01148124CA04778607B68012B02D1104B25
S2144013D0984778607B68012B09D10E4B98470E4B97
S2144013E001221A600D4B00221A600D4B98477B680D
S2144013F0002B03D1074B984700BFFDE700BF0C37D3
S214401400BD4690BD58EC4000291A4000951140005A
S214401410711E400039064000E4AA0020D8AA0020E9
S2144014207D05400080B400AF044B1B680133034A7F
S214401430136000BFBD465DF8047B7047E8AA0020F5
S21440144090B583B000AF00237B60364B1B68002B03
S21440145003D1354B984700BFFDE7344B9847314B97
S2144014601B68013B2F4A13602E4B1B68002B52D142
S2144014702F4B1B68002B4ED000233B6027E02D4BA4
S214401480DB68DC6804F1180318462B4B9847231D8D
S2144014901846294B9847E26A284B1B689A4202D95D
S2144014A0E36A264A1360E26A13469B0013449B0095
S2144014B0234A1344221D11461846224B9847E26A97
S2144014C0214B1B68DB6A9A4201D301233B60194BD0
S2144014D01B68002BD3D11D4B1B68002B0DD006E09C
S2144014E01B4B9847194B1B68013B184A1360174B18
S2144014F01B68002BF4D101233B603B68012B03D0D3
S214401500144B1B68012B06D101237B60114B002234
S2144015101A60114B9847114B98477B6818460C3712
S214401520BD4690BDE8AA002039064000F1054000BF
S214401530D4AA002094AA0020F1034000E0AA00208C
S21440154000AA00202F034000FCA90020ECAA00209F
S2144015508D154000F0AA0020D50540001106400039
S21440156080B582B000AF064B9847064B1B687B6041
S214401570054B98477B6818460837BD4680BD00BF78
S214401580F1054000D8AA00201106400080B584B07E
S21440159000AF454B1B68002B7BD1444B1B68013387
S2144015A0424A1360414B1B68002B2AD1404B1B68B4
S2144015B01B68002B03D03F4B984700BFFDE73C4BD2
S2144015C01B68FB603C4B1B68394A13603A4AFB6811
S2144015D013603A4B1B680133384A1360344B1B6820
S2144015E01B68002B04D1364B4FF0FF321A6008E0E0
S2144015F02F4B1B68DB68DB68BB60BB685B68304AA8
S21440160013602A4B1A682E4B1B689A4247D3284BC6
S2144016101B681B68002B04D1294B4FF0FF321A6021
S2144016203DE0234B1B68DB68DB68BB60BB685B68E0
S2144016307B601E4B1A687B689A4203D2204A7B68BE
S21440164013602CE0BB68043318461E4B9847BB68B3
S2144016509B6A002B04D0BB6818331846194B984732
S214401660BB68DA6A184B1B689A4203D9BB68DB6AC8
S214401670154A1360BB68DA6A13469B0013449B0006
S214401680124A1A44BB68043319461046104B984712
S214401690BDE7104B1B6801330E4A1360FFE700BFDF
S2144016A01037BD4680BD00BFE8AA0020D8AA00205B
S2144016B08CAA00203906400090AA0020F4AA0020F8
S2144016C014000020F1034000E0AA002000AA0020F9
S2144016D02F034000ECAA002080B582B000AF214B1B
S2144016E01B68002B10D0204B01221A6035E01F4BA0
S2144016F01B68002B03D11E4B984700BFFDE71B4BD2
S2144017001B68013B194A1360184B1A68194913465F
S2144017109B0013449B000B441B68002BE7D0134BE5
S2144017201A6813469B0013449B00124A13447B607E
S2144017307B685B685A687B685A607B685A687B68D7
S21440174008339A4204D17B685B685A687B685A6063
S2144017507B685B68DB68084A136000BF0837BD4695
S21440176080BD00BFE8AA0020F0AA0020E0AA002022
S2144017703906400000AA0020FCA9002080B584B0AD
S21440178000AF786039607B68002B03D1144B9847D4
S21440179000BFFDE7134B1B68183319467868124B99
S2144017A09847104B1B6804331846104B98473B68C5
S2144017B0B3F1FF3F07D10B4B1B68043319460C4867
S2144017C00C4B984707E00C4B1A683B681344FB6089
S2144017D0F8680A4B984700BF1037BD4680BD00BF2B
S2144017E039064000FCA900207F034000F10340007A
S2144017F0C0AA00202F034000D8AA0020D91B4000D2
S21440180080B584B000AF786039607B68002B03D128
S2144018100E4B984700BFFDE70D4B1B681833194623
S21440182078680C4B98470A4B1B68043318460A4B9B
S21440183098470A4B1A683B681344FB60F868084BA5
S214401840984700BF1037BD4680BD00BF39064000F0
S214401850FCA900202F034000F1034000D8AA002036
S214401860D91B400080B584B000AF78607B68DB68E9
S214401870DB68BB60BB68002B03D1214B984700BF99
S214401880FDE7BB68183318461E4B98471E4B1B682F
S214401890002B1DD1BB68043318461A4B9847BB68CB
S2144018A0DA6A1A4B1B689A4203D9BB68DB6A174A46
S2144018B01360BB68DA6A13469B0013449B00144AC5
S2144018C01A44BB68043319461046124B984705E045
S2144018D0BB681833194610480E4B9847BB68DA6AFF
S2144018E00E4B1B68DB6A9A4202D30123FB6001E081
S2144018F00023FB60FB6818461037BD4680BD00BF1E
S21440190039064000F1034000E8AA0020E0AA002083
S21440191000AA00202F03400094AA0020FCA9002023
S21440192080B582B000AF78607B68002B03D1084B4F
S214401930984700BFFDE7074B1A687B681A60064B5E
S2144019401A687B685A6000BF0837BD4680BD00BF36
S21440195039064000F4AA0020D8AA002080B584B0FA
S21440196000AF786039607B68002B03D1224B9847E4
S21440197000BFFDE73B68002B03D11F4B984700BFD5
S214401980FDE71E4B98473B681B68B3F1FF3F02D10B
S2144019900023FB6029E07B681A68194B1B689A4253
S2144019A008D07B685A68174B1B689A4202D80123B6
S2144019B0FB601AE0134B1A687B685B68D21A3B6878
S2144019C01B689A420FD20F4B1A687B685B68D31A23
S2144019D03A681268D21A3B681A6078680A4B984789
S2144019E00023FB6001E00123FB60084B9847FB683F
S2144019F018461037BD4680BD39064000F105400008
S214401A00F4AA0020D8AA0020211940001106400060
S214401A1080B400AF034B01221A6000BFBD465DF89C
S214401A20047B7047F0AA002080B582B000AF786093
S214401A30044B9847044B1B68012BF9D9034B984736
S214401A40F6E700BF491B400000AA0020D50540002D
S214401A5080B584B000AFF860B9607A603B60FB68E0
S214401A6034330A22B9681846144B9847FB6800225C
S214401A7083F83D207B68042B01D904237B60FB68F8
S214401A807A68DA62FB687A689A64FB6804331846B8
S214401A900B4B9847FB6818331846094B9847FB682A
S214401AA0FA681A617B68C3F10502FB689A61FB68B5
S214401AB0FA685A6200BF1037BD4680BD1DA9400077
S214401AC01503400080B582B000AF00237B600CE079
S214401AD07A6813469B0013449B00124A13441846E8
S214401AE0114B98477B6801337B607B68042BEFD9AA
S214401AF00E480D4B98470E480B4B98470D480A4BDF
S214401B0098470D48084B98470C48074B98470C4B4E
S214401B10064A1A600B4B064A1A6000BF0837BD4695
S214401B2080BD00BF00AA0020D502400064AA002065
S214401B3078AA002094AA0020A8AA0020C0AA0020C4
S214401B408CAA002090AA002080B582B000AF28E082
S214401B50184B9847184B1B68002B0CBF01230023DB
S214401B60DBB27B60154B98477B68002B19D1144B32
S214401B709847114BDB68DB683B603B68043318468C
S214401B80104B9847104B1B68013B0F4A13600F4B96
S214401B901B68013B0D4A13600D4B984738680D4B48
S214401BA098470A4B1B68002BD2D100BF0837BD466A
S214401BB080BD00BF25144000A8AA00204114400064
S214401BC0F1054000F1034000D4AA0020BCAA002042
S214401BD011064000B91C400080B582B000AF786066
S214401BE0134B1B687A685A60124B1B687A689A4295
S214401BF009D2114B1A680E4B1B680433194610461F
S214401C000E4B984710E00E4B1A68094B1B6804337E
S214401C1019461046094B98470A4B1B687A689A4201
S214401C2002D2084A7B68136000BF0837BD4680BDB5
S214401C30FCA90020D8AA002090AA00207F034000DC
S214401C408CAA00201400002080B584B000AF034664
S214401C503960FB804C20154B9847F860FB68002B9A
S214401C601ED03B68002B06D1FB889B0018460F4BC6
S214401C709847034600E03B68FA681363FB681B6BB3
S214401C80002B05D1F8680A4B98470023FB6007E015
S214401C90FB68186BFB889B001A46A521054B9847A6
S214401CA0FB6818461037BD4680BD00BF2107400080
S214401CB01D08400025A7400080B582B000AF786080
S214401CC07B681B6B1846044B98477868024B9847CE
S214401CD000BF0837BD4680BD1D08400080B483B0B5
S214401CE000AF054B1B687B607B6818460C37BD46CB
S214401CF05DF8047B704700BFFCA9002080B483B029
S214401D0000AF0B4B1B68002B02D100237B6008E022
S214401D10084B1B68002B02D101237B6001E00223A5
S214401D207B607B6818460C37BD465DF8047B704781
S214401D30E4AA0020E8AA002080B584B000AF78600E
S214401D407B68FB607B68002B41D0FB68DA6A224BDD
S214401D501B68DB6A9A423AD21F4B1B68DB6AC3F1A8
S214401D600502FB689A61FB685969FB68DA6A1346A4
S214401D709B0013449B00194A1344994222D1FB68A6
S214401D8004331846164B9847134B1B68DA6AFB68B1
S214401D90DA62FB68DA6A134B1B689A4203D9FB681F
S214401DA0DB6A104A1360FB68DA6A13469B001344EA
S214401DB09B000A4A1A44FB680433194610460A4BED
S214401DC0984704E0044B1B68DA6AFB68DA6200BF97
S214401DD01037BD4680BD00BFFCA9002000AA0020E9
S214401DE0F1034000E0AA00202F03400080B584B0F5
S214401DF000AF78607B68FB607B68002B2CD0FB686C
S214401E00DA6AFB689B6C9A4226D0FB680433184615
S214401E10134B9847FB689A6CFB68DA62FB68DB6A90
S214401E20C3F10502FB689A61FB68DA6A0D4B1B68D2
S214401E309A4203D9FB68DB6A0A4A1360FB68DA6A8F
S214401E4013469B0013449B00074A1A44FB6804331E
S214401E5019461046054B984700BF1037BD4680BD13
S214401E60F1034000E0AA002000AA00202F03400013
S214401E7090B587B004AF00237B60114B9847114B59
S214401E801B68002B0FD000230393002302930023EC
S214401E9001930423009300234FF482720A490B48AF
S214401EA00B4CA04778607B68002B03D1094B9847C2
S214401EB000BFFDE77B6818460C37BD4690BD00BFA7
S214401EC08D2340002CAB002078EC4000E91F4000FA
S214401ED0951140003906400090B589B000AFF860D3
S214401EE0B9607A603B600023FB611A4B1B68002B8D
S214401EF02AD0BB683B617B687B61FB68BB613B6803
S214401F00002B18D1144B98470346012B09D1114B8F
S214401F10186807F1100100233A6B104CA047F8618F
S214401F2012E00C4B186807F11001002300220B4CFE
S214401F30A047F86108E0074B186807F11001002336
S214401F403A68074CA047F861FB6918462437BD46F7
S214401F5090BD00BF2CAB0020FD1C4000150B400080
S214401F607D0C400090B587B002AF78603960194B61
S214401F701B68DB68DB68FB60FB6804331846164B5F
S214401F809847FB68DB69012B1BD1FB689A697B6825
S214401F90D1187B683A68F868104CA0470346012B76
S214401FA00FD10023009300237A680021F8680C4C78
S214401FB0A047B860BB68002B03D10A4B984700BFC8
S214401FC0FDE7FB685B6AF868984700BF1437BD4674
S214401FD090BD00BF24AB0020F103400031214000FB
S214401FE0D91E40003906400080B584B000AF786006
S214401FF007F108031846054B9847F860BB68194632
S214402000F868034B9847034B9847F1E79D204000FC
S21440201019204000B921400080B584B000AF7860F8
S2144020203960174B984707F108031846154B9847F1
S214402030F860BB68002B1DD13B68002B0AD17A683C
S214402040FB689A4206D8104B9847F96878680F4B59
S214402050984711E00E4B18687A68FB68D31A194601
S2144020600C4B9847084B98470346002B04D10A4B25
S214402070984701E0044B984700BF1037BD4680BDE7
S21440208025144000E520400041144000651F4000F4
S2144020902CAB002031114000D505400080B485B0FF
S2144020A000AF78600E4B1B681B68002B0CBF0123EB
S2144020B00023DBB21A467B681A607B681B68002BDD
S2144020C005D1074B1B68DB681B68FB6001E00023FB
S2144020D0FB60FB6818461437BD465DF8047B7047C6
S2144020E024AB002080B584B000AF78600D4B984795
S2144020F0F8600D4B1B68FA689A4208D20A4B1B6878
S21440210018460A4B98477B6801221A6002E07B68B3
S21440211000221A60044AFB681360FB6818461037B2
S214402120BD4680BD6115400030AB0020C522400052
S21440213080B586B000AFF860B9607A603B60002337
S2144021407B61FB68BA685A60FB68FA681A61BA68CD
S2144021507B689A4212D87A683B68D21AFB689B69B9
S2144021609A4202D301237B611BE0104B1A68FB683E
S2144021700433194610460E4B984712E07A683B687F
S2144021809A4206D2BA683B689A4202D301237B61E0
S21440219007E0084B1A68FB68043319461046044BA0
S2144021A098477B6918461837BD4680BD28AB002047
S2144021B07F03400024AB002090B58BB002AF3B1DA0
S2144021C01846384B9847F8615DE03B69BB61BB6990
S2144021D0002B08D0BB695B69002B04D0BB69043375
S2144021E01846314B9847BB68032B4BD801A252F890
S2144021F023F000BF052240008722400053224000C3
S2144022007D224000FA68BB699B69D118FB68FA6971
S214402210B869264CA0470346012B34D1BB695B6A9C
S214402220B8699847BB69DB69012B2CD1FA68BB6952
S2144022309B691A440023009300230021B8691C4C74
S214402240A04778617B69002B1DD11A4B984700BF89
S214402250FDE7FA68BB699A61BB699B69002B03D1AD
S214402260144B984700BFFDE7BB699A69FB69D118D4
S214402270FB69FA69B8690D4CA04704E0B8690E4B93
S214402280984700E000BF0D4B186807F1080100238F
S21440229000220B4CA0470346002B96D100BF2437A4
S2144022A0BD4690BDE5204000F1034000312140008E
S2144022B0D91E4000390640001D0840002CAB0020C7
S2144022C0390D400090B58BB002AF78603EE0294BA8
S2144022D01B68DB681B68FB61264B1B68DB68DB689A
S2144022E0BB61BB6904331846234B9847BB695B6A9E
S2144022F0B8699847BB69DB69012B27D1BB699A69E6
S214402300FB6913447B617A69FB699A420ED9BB69C3
S2144023107A695A60BB69BA691A61164B1A68BB6912
S214402320043319461046154B98470FE00023009398
S2144023300023FA690021B869114CA04738613B690F
S214402340002B03D10F4B984700BFFDE7094B1B6896
S2144023501B68002BBBD1074B1B68FB600A4B1B68F6
S214402360044A1360084AFB68136000BF2437BD4622
S21440237090BD00BF24AB0020F10340007F03400027
S214402380D91E40003906400028AB002080B500AF7B
S2144023900E4B98470E4B1B68002B13D10D480E4B27
S2144023A098470E480C4B98470D4B0A4A1A600D4BFF
S2144023B00A4A1A6000220C2105200B4B9847024619
S2144023C0034B1A60094B984700BF80BDF10540009B
S2144023D02CAB0020FCAA0020D502400010AB002009
S2144023E024AB002028AB00207D0A400011064000A8
S2144023F080B483B000AF0346FB7197F90730002BDB
S2144024000BDB094997F907305B09FA7902F01F029E
S214402410012000FA02F241F8232000BF0C37BD46E7
S2144024205DF8047B704700BF00E100E080B483B0F5
S21440243000AF78607B68072B25D801A252F823F0BE
S21440244061244000672440006D244000732440000F
S214402450772440007B2440007F24400083244000B3
S2144024604FF4FA4310E04FF400430DE04FF40043BE
S2144024700AE0084B08E0084B06E0084B04E0074B30
S21440248002E0064B00E0002318460C37BD465DF8D8
S214402490047B704700093D0000127A00001BB7001D
S2144024A080B500AF0620034B984703461B011846ED
S2144024B080BD00BF2D24400080B500AF024B98473A
S2144024C003465B08184680BDA124400080B500AF97
S2144024D0024B984703465B08184680BDA12440003F
S2144024E080B582B000AF78607868034B984700BFED
S2144024F00837BD4680BD00BF359F400080B582B0DE
S21440250000AF78603960104B984702463B681A60C7
S2144025103B6800225A727B680C4A934203D11120D2
S2144025200B4B984706E07B680A4A934202D112203A
S214402530074B984739687868074B984703461846CC
S2144025400837BD4680BD00BFCD24400000800A400D
S214402550E124400000C00A40E19F400080B500AF43
S214402560054B9847054B9847054B9847054B98476A
S214402570054B984700BF80BDE12640001527400028
S2144025801D2E400085274000692C400080B58AB04B
S21440259000AFBA607B600346FB730B46BB73FB7BA6
S2144025A087F82430BB7B3B750123BB61BB68FB616E
S2144025B07B683B6207F1140319460448044B98476E
S2144025C0034618462837BD4680BD00BF00800A40F7
S2144025D095A1400000000000F0B583B000AF7860E1
S2144025E07B68002B26D07B681D464FF00006224BAA
S2144025F0984703464FF0000403FB06F105FB04F240
S2144026000A44A5FB03342244144643F2AF614FF01C
S21440261000025D1844EB020628463146174C43F24A
S214402620B0624FF00003A04703460C461846144BD2
S214402630984716E0104B984703464FF000040CA20C
S214402640D2E900125D1844EB0206284631460B4C90
S2144026500C4A4FF00003A04703460C461846084B6A
S214402660984700BF0C37BD46F0BD00BFAFF30080B3
S2144026707F9FD50000000000B924400091A2400092
S21440268001000020809FD50080B582B000AF0F4883
S2144026900F4B984778607B6803F00103002B10D0FF
S2144026A0FB1C194609480B4B98470B4B1B881A4690
S2144026B0F9780A4B9954084B1B8801339AB2064B5B
S2144026C01A8000BF0837BD4680BD00BF00060E40DA
S2144026D0E3014000FB01400028AD002034AB002061
S2144026E080B584B000AF3B1D00221A605A609A60E5
S2144026F0054BBB603B1D19460448054B984700BF39
S2144027001037BD4680BD00BFA086010000800A404D
S214402710FD24400090B585B000AF124B9847034665
S2144027207B604FF41653BB604FF40063FB6000239E
S2144027304FF400724FF000610B480C4CA047072046
S2144027400B4B98473B1D19460A480B4B98470121AF
S21440275008480A4B98470720094B984700BF14374C
S214402760BD4690BDB9244000000E0E40F19B40008F
S214402770359F400000060E4065014000C7014000FE
S214402780F123400080B582B000AF0920104B984737
S2144027904FF07C424FF0C0510E480F4B98470F4BBE
S2144027A0984700200E4B98470346FB71FB79012B58
S2144027B006D100BF00200B4B98470346022BF9D1A9
S2144027C0FB79002BEDD100BF0837BD4680BD00BF6A
S2144027D0E1244000000E0E40FD994000AD4640000A
S2144027E0654B4000F146400080B483B000AF78604F
S2144027F07B68072B25D801A252F823F01D284000FD
S21440280023284000292840002F2840003328400035
S214402810372840003B2840003F2840004FF4FA430A
S21440282010E04FF400430DE04FF400430AE0084B3D
S21440283008E0084B06E0084B04E0074B02E0064B76
S21440284000E0002318460C37BD465DF8047B704711
S21440285000093D0000127A00001BB70080B500AFAB
S2144028600620034B984703461B01184680BD00BF11
S214402870E927400080B500AF024B984703465B0807
S214402880184680BD5D28400080B582B000AF164B2C
S214402890984778602620154B9847FA22796814485E
S2144028A0144B98471248144B9847144B00221A6012
S2144028B0124B0F22DA71114B00225A710F4B08222D
S2144028C09A710E4B01221A710C4B6FF06042DA601F
S2144028D00A4B4FF4E0121A6108490548084B9847DE
S2144028E000BF0837BD4680BD75284000359F400074
S2144028F000400140659640008D9940002CAD002078
S214402900A397400080B500AF00BF00210548064BA6
S2144029109847034603F40003002BF6D001231846DD
S21440292080BD00BF004001404597400080B584B060
S21440293000AF7860396007F10F0316491846164B0A
S21440294098471448154B9847154B1B781A467B6892
S2144029505A61134B5B781A467B681A61104B9B781A
S2144029601A467B68DA600E4BDB781A467B689A60BC
S2144029700B4B1B791A467B685A60094B5B791A46A3
S2144029807B681A60064B9A793B681A7000BF10370E
S214402990BD4680BD54AD0020A5294000E929400031
S2144029A04CAD002080B582B000AF786039600B49EE
S2144029B00B480C4B9847094B1B69DAB27B681A7078
S2144029C0064B9A693B681A603B680433034AD269EF
S2144029D01A6000BF0837BD4680BD00BF2CAD002042
S2144029E000400140C998400080B483B000AF786092
S2144029F07B681A78114B1A707B685A780F4B5A705E
S214402A007B689A780D4B9A707B68DA780B4BDA7055
S214402A107B681A79094B1A717B685A79074B5A7149
S214402A207B689A79054B9A717B68DA79034BDA7141
S214402A3000BF0C37BD465DF8047B70474CAD0020A8
S214402A4080B48DB000AF786039607B68FB623B68CD
S214402A50BB62FB6A7B627B6A5A09FB6A3B623B6AE3
S214402A6003F01F03012101FA03F3FA61BB61BB6A5D
S214402A707B61FB693B613B6903F5001303F2077317
S214402A805B02FB607B6903F00803002B03D0FB6806
S214402A90BA695A6602E0FB68BA691A667B6903F04F
S214402AA01003002B04D0FB68BA69C3F8942003E0F7
S214402AB0FB68BA69C3F890207B6903F02003002BBB
S214402AC003D0FB68BA691A6502E0FB68BA695A65C2
S214402AD07B6903F0C003002B03D0FB68BA691A6217
S214402AE002E0FB68BA695A627B6903F08003002BF8
S214402AF004D0FB68BA69C3F8842003E0FB68BA696F
S214402B00C3F880207B6903F00103002B06D0FB68E6
S214402B101A6FBB691A43FB681A6706E0FB681A6FB0
S214402B20BB69DB431A40FB681A677B6903F0020304
S214402B30002B06D0FB685A6FBB691A43FB685A677E
S214402B4006E0FB685A6FBB69DB431A40FB685A676E
S214402B5000BF3437BD465DF8047B704780B48DB007
S214402B6000AF78600B46FB707B68FB62FB7887F8AB
S214402B702B30FB6A7B627B6A3B623B6A5B09FB618C
S214402B80FB6903F5001303F207735B02BB6197F81A
S214402B902B30012B09D1FB6A7B617B6903F01F0355
S214402BA001229A40BB691A610CE097F82B30002B43
S214402BB008D1FB6A3B613B6903F01F0301229A4040
S214402BC0BB695A61FB6AFB60FB6803F01F03012286
S214402BD09A40BB69C3F8A02000BF3437BD465DF8B5
S214402BE0047B704780B48BB000AF78600B46FB70B8
S214402BF07B687B62FB7887F823307B6AFB61FB69E6
S214402C00BB61BB695B097B617B6903F5001303F21B
S214402C1007735B023B6197F82330002B09D07B6A31
S214402C20FB60FB6803F01F0301229A403B691A636E
S214402C3008E07B6ABB60BB6803F01F0301229A4032
S214402C403B695A6300BF2C37BD465DF8047B70472E
S214402C5080B483B000AF78607B68DB6818460C377A
S214402C60BD465DF8047B704780B582B000AF012357
S214402C70FB712FE0FA7913469B0013449B00194AD8
S214402C8013441846184B9847034600211846174BDE
S214402C909847FA7913469B0013449B00114A134405
S214402CA01846114B9847034600211846104B984744
S214402CB0FA7913469B0013449B000A4A134418466D
S214402CC0094B98470346102118460A4B9847FB790C
S214402CD00133FB71FB79632BCCD900BF0837BD4667
S214402CE080BD00BF80EC4000512C40005D2B400072
S214402CF0E52B4000412A400080B500AF064B3C2201
S214402D001A70054B054A5A60034B054A9A600248BA
S214402D10044B984700BF80BDECAE00208D25400098
S214402D20D9254000092F40000CB480B5C4B000AF90
S214402D300246FB1D1A70BB1D0A461A7007F10C03AB
S214402D4000221A600433FC22002118461F4B984785
S214402D50002387F80F3107F58E7207F108031A60D3
S214402D6007F10C0318461A4B9847024607F10C0326
S214402D70981807F108031A68D7F81811154B9847A2
S214402D80BB1D1A78FB1D1B7811461846124B9847F8
S214402D900DE097F80F3107F10C02D35C19460F4847
S214402DA00F4B984797F80F31013387F80F3197F854
S214402DB00F3107F10C02D35C002BEAD100BF07F5B8
S214402DC08877BD46BDE8804002B0704725A74000E2
S214402DD041A8400011BE4000E52D4000ECAE00206A
S214402DE0692F400080B582B000AF03460A46FB71AB
S214402DF01346BB71BB790433DBB25B01DAB2FB79B5
S214402E001344DBB219460348034B984700BF0837C4
S214402E10BD4680BDECAE0020392F400080B500AFE7
S214402E200020074B984700BF064B98470346002BA9
S214402E30FAD000210448054B984700BF80BD00BF2C
S214402E408D9D4000C59D400060180E40AD5D400021
S214402E5090B585B002AF78607B6803F108017B6867
S214402E601A1D7B681248134CA0477B6803F1140177
S214402E707B6803F110027B6803F10C00002300938B
S214402E8003460B480C4CA0477B685A690B4B83FBA8
S214402E9002139911D317CB1A4FF47A7101FB03F33F
S214402EA0D31A7A68536100BF0C37BD4690BD00BF49
S214402EB060180E40E35D4000A75E4000D34D6210B0
S214402EC0B0B586B004AF786039603B685C693B68F3
S214402ED01D693B68DB683A689268396849683868B3
S214402EE0006803900291019200932B4622460449C3
S214402EF07868044CA04700BF0837BD46B0BD00BF49
S214402F0050F44000C1A7400080B582B000AF786062
S214402F107B68002B03D07B685B68002B01D10123C4
S214402F2003E07868034B9847002318460837BD46A9
S214402F3080BD00BF992F400090B583B000AF786049
S214402F400B46FB707B685C687B681878FA1C01232C
S214402F508021A0470346002B01D0022300E0002337
S214402F6018460C37BD4690BD90B583B000AF78602C
S214402F700B46FB707B685C687B681878FA1C0123FC
S214402F804021A0470346002B01D0022300E0002347
S214402F9018460C37BD4690BD80B584B000AF78600B
S214402FA00023FB600023BB60204AFB6812F8133006
S214402FB0042B2ED801A252F823F000BF1330400055
S214402FC00D304000D12F4000E52F4000F92F400043
S214402FD0164AFB685B0013445B7819467868144BC6
S214402FE0984717E0114AFB685B0013445B78194624
S214402FF07868104B98470DE07B689A680B49FB68E9
S2144030005B000B445B781846904703E00123BB60A7
S21440301000E000BFFB680133FB60BB68002BC3D0F9
S214403020002318461037BD4680BD00BF6CF44000F4
S214403030392F4000692F400080B489B000AF7860D7
S2144030407B68FB61FB69BB61BB697B617B695B0934
S2144030503B613B6903F5001303F207735B02DA6BCF
S214403060FB69FB60FB6803F01F03012101FA03F3D1
S2144030701340002B14BF01230023DBB2184624372D
S214403080BD465DF8047B704780B483B000AF78607F
S2144030907B68DB6818460C37BD465DF8047B704796
S2144030A080B483B000AF78607B681B7C18460C37D2
S2144030B0BD465DF8047B704790B585B004AF0022EE
S2144030C001210A20234B98470246234B1A60234B84
S2144030D09847234B9847234B9847234B9847234B77
S2144030E09847234B9847234B1B68002203920022A5
S2144030F0029201930323009300234FF400621E497B
S2144031001E481F4CA0471F4B1B68002203920022FC
S214403110029201930323009300234FF400621A495E
S2144031201A48174CA0471A4B1B68002203920022ED
S214403130029201930323009300234FF40062154943
S21440314015480F4CA047154B984700BF0437BD465F
S21440315090BD00BF7D0A4000E8AE00205993400075
S2144031608D5340005D25400089284000F92C4000E2
S2144031702D024000C8AD0020ACF44000A131400014
S21440318095114000C0AD0020B8F440005D324000CC
S214403190C4AD0020CCF44000F9314000A5134000F7
S2144031A080B58AB000AF0F4B98470346002B14D02B
S2144031B0FA1C3B1D114618460B4B9847FB78002BD4
S2144031C00BD0F9783B1D00221846084B9847F978F3
S2144031D03B1D00221846064B98476420054B9847EF
S2144031E0E1E700BF052940002D2940006933400033
S2144031F0F53340003D13400090B583B000AF786093
S2144032000F4B186800234FF0FF320E490E4CA04774
S2144032100346012BF4D10D480D4B9847094B1B68CC
S214403220DBB20122194609480A4B9847054B1B68F2
S214403230DBB2012219460548074B9847E0E700BF36
S214403240E8AE0020CCAD0020390D4000D0AD0020C7
S214403250512E400069334000F533400090B583B0AE
S21440326000AF7860364B01221A6019E0344B1C6878
S214403270334B1A6813469B0013449B00314A134451
S2144032801846314B984703461846304B98470346F6
S2144032901A462F4B1A552A4B1B680133284A13608F
S2144032A0274B1B68632BE1D9254B01221A603EE071
S2144032B0234B1A6813469B0013449B00214A134431
S2144032C01846214B984703461846204B98470346D6
S2144032D01A46204B1A701A4B1B681D4AD35CDAB24A
S2144032E01C4B1B789A421DD01A4B1B781C46144B1D
S2144032F01A6813469B0013449B00124A1344184610
S214403300154B984703469C4206D1144B1868002339
S21440331064220B49124CA047094B1B680D4A117892
S2144033200B4AD154064B1B680133054A1360044BC5
S2144033301B68632BBCD964200A4B9847B4E700BF90
S214403340F4AD002080EC4000893040003930400029
S2144033505CAD0020F8AD0020A1304000E8AE002073
S214403360150B40003D13400090B589B002AF786021
S2144033700B46FB701346BB7007F108037968184686
S214403380174B9847BB78002B0FD1164B19784B1C20
S214403390DAB2144B1A70FB7807F108020093134612
S2144033A0114A0020114CA0470EE00E4B19784B1CDA
S2144033B0DAB20C4B1A70FB7807F1080200931346FA
S2144033C00B4A0020094CA047064B1B78042B02D121
S2144033D0044B00221A7000BF1C37BD4690BD00BF8C
S2144033E0C12E4000F9AD0020E0F44000292D4000F9
S2144033F0ECF4400090B5B9B000AF78600B46FB7077
S2144034001346BB7007F10803796818460F4B984778
S214403410BB78002B08D1FB7807F1080207F11800AB
S2144034200B490C4CA04707E0FB7807F1080207F170
S21440343018000949074CA04707F1180319460748E2
S214403440074B984700BFE437BD4690BDC12E4000AD
S214403450F8F44000C1A7400004F5400010F54000D5
S2144034605902400080B487B000AFF8600846114665
S2144034701A4603467B810B463B811346FB717A898D
S2144034803B89D31A0733002B00DA0733DB10013BA6
S214403490FA6813441B781A463B8903F0070342FA3E
S2144034A003F37B613B8903F00702FB791344082B47
S2144034B016DD7A893B89D31A0733002B00DA0733A7
S2144034C0DB10023BFA6813441B781A463B8903F02C
S2144034D00703C3F1080302FA03F37A6913437B61D7
S2144034E03B8903F00702FB791344102B16DD7A89DB
S2144034F03B89D31A0733002B00DA0733DB10033B34
S214403500FA6813441B781A463B8903F00703C3F155
S214403510100302FA03F37A6913437B613B8903F095
S2144035200702FB791344102B16DD7A893B89D31AA0
S2144035300733002B00DA0733DB10033BFA681344EB
S2144035401B781A463B8903F00703C3F1100302FABF
S21440355003F37A6913437B61FB79012202FA03F392
S214403560013B7A6913407B617B6918461C37BD4630
S2144035705DF8047B7047000080B582B000AF41F232
S21440358068037B60174944F20150174B984703463F
S21440359083F00103DBB2002B01D000231EE0134B67
S2144035A0984738603B68002B0FDA3B6803F0C0430F
S2144035B0B3F1804F10D10E4B1B680D4A1268D27A79
S2144035C042F00802D2B2DA7206E07B685A1E7A608F
S2144035D0002BD7D1002301E000BF0123184608374F
S2144035E0BD4680BD00801F40B9584000FD58400091
S2144035F020AE002080B586B000AF0346FB7140F693
S21440360034033B61002141F23710214B9847034673
S21440361083F00103DBB2002B01D0002334E04FF4EB
S214403620FC137B61FB79002B03D07B6943F080431E
S2144036307B61796944F22950154B9847034683F0DD
S2144036400103DBB2002B01D000231DE0114B98474D
S214403650F860FB68002B0EDAFB6803F08043002B13
S21440366010D00D4B1B680C4A1268D27A42F0080202
S214403670D2B2DA7206E03B695A1E3A61002BC1D1DB
S214403680002301E000BF012318461837BD4680BD21
S214403690B9584000FD58400020AE002080B582B0AA
S2144036A000AF002144F20550234B9847034683F071
S2144036B00103DBB2002B01D0012339E01F4B9847B2
S2144036C078607B6803F0E043002B01D101232FE0B4
S2144036D041F288333B607B6803F4FC13194644F29E
S2144036E00550154B9847034683F00103DBB2002B89
S2144036F001D000231CE0114B984778607B68002B74
S21440370006DB3B685A1E3A60002BE4D100230FE0EC
S21440371000BF7B6803F00063002B04D0084B1B6897
S2144037200522DA7203E0064B1B680422DA72012394
S21440373018460837BD4680BDB9584000FD58400081
S21440374020AE002090B58BB002AF0923BB610023AA
S214403750BB750FE0BB7D3A46134400930023BA691D
S21440376000210020464CA047BB690133BB61BB7DAE
S2144037700133BB75BB7D032BECD93B781A467B786F
S2144037801B021A44BB781B041A44FB781B061344DE
S214403790BB61BB69FB610023BB750FE0BB7D3A1D77
S2144037A0134400930023FA6900210020344CA047BC
S2144037B0FB690133FB61BB7D0133BB75BB7D022BCF
S2144037C0ECD93B79FF2B01D1002355E03B79222BE6
S2144037D002D1BB79002B12D07B79002B01D100237C
S2144037E04AE07B791A46FB691344013BFB61BB699F
S2144037F003F58072FB699A42CDD200233CE000BFBD
S214403800FB69033BFB610023BB750FE0BB7D3A1DA4
S214403810134400930023FA6900210020184CA04767
S214403820FB690133FB61BB7D0133BB75BB7D052B5B
S214403830ECD97B7AFB75FB7D322B01D93223FB75A5
S214403840FB7D03F007030F4A52F823303B61FB7DB4
S214403850DB08DBB203F00F030B4A52F82330FB6061
S2144038600A4B1B683A69F96801FB02F24FF47A7119
S21440387001FB02F21A60012318462437BD4690BD6C
S214403880793F400024F5400040F5400020AE00203F
S21440389090B585B002AFFB1D00930023082200219F
S2144038A00020154CA047034683F00103DBB2002BF3
S2144038B001D000231CE0FB795BB2002B01DB012327
S2144038C016E00223FB71FB1D009301230722002113
S2144038D00120094CA047034683F00103DBB2002BCE
S2144038E001D0002304E0054B1B6804225A730123D1
S2144038F018460C37BD4690BD793F400020AE0020AC
S21440390090B585B002AFFB1D009300231322002123
S2144039100020194CA047034683F00103DBB2002B7E
S21440392001D0002324E0FB7903F00103002B01D1F2
S21440393001231DE00223FB71FB1D0093012313228C
S214403940002101200C4CA047034683F00103DBB264
S214403950002B01D000230BE0084B1B6801229A770E
S214403960064B1B68054A1268126852001A6001230B
S21440397018460C37BD4690BD793F400020AE00202B
S21440398090B593B002AF3B464022002118462F4BDD
S214403990984701230093012340222D492D482E4C61
S2144039A0A047034683F00103DBB2002B01D000237F
S2144039B047E03B4601211846284B9847034683F08C
S2144039C00103DBB2002B01D000233AE0244B98479A
S2144039D0034683F00103DBB2002B01D0002330E026
S2144039E0204B9847034603F08003002B01D000236A
S2144039F027E0384604234FF4BC724FF400711A4C4B
S214403A00A04703460F2B01D101231AE03846102366
S214403A104FF488724FF40071134CA0470346002BB6
S214403A2001D000230DE0114B9847114B1B68012233
S214403A309A770F4B1B680E4A1268126852001A603B
S214403A40012318464437BD4690BD00BF25A7400019
S214403A5001FFFF800611080085594000495B400081
S214403A60E95B4000FD584000653440007D5840000A
S214403A7020AE002080B584B000AF0346FB71FB79D2
S214403A80042B04D0082B05D1134BFB6005E0134BE9
S214403A90FB6002E0124BFB6000BFF96843F2061081
S214403AA0104B9847034683F00103DBB2002B01D04E
S214403AB000230DE00C4B9847034603F08003002B91
S214403AC001D0002304E0094B1B68FA795A7301239E
S214403AD018461037BD4680BD0002B7010001B70149
S214403AE00000B701B9584000FD58400020AE002005
S214403AF080B500AF104943F20610104B9847034676
S214403B0083F00103DBB2002B01D0002311E00C4B05
S214403B109847034603F08003002B01D0002308E0BB
S214403B20084B1B6801229A77064B1B68064A1A60A8
S214403B300123184680BD00BF0001B903B9584000B4
S214403B40FD58400020AE00200075190380B584B0B3
S214403B5000AF78607B6800221A704FF4D57145F24A
S214403B600850114B9847034683F00103DBB2002B05
S214403B7001D0012314E00D4B9847F860FB68B3F181
S214403B80FF3F01D101230BE0FB68C3F30B03B3F502
S214403B90D57F01D0002303E07B6801221A70012301
S214403BA018461037BD4680BDB9584000FD58400005
S214403BB090B589B002AF78600023009301234FF49C
S214403BC0007200213348344CA047034683F001037B
S214403BD0DBB2002B01D0002358E00023FB820FE02D
S214403BE007F1100318462D4B9847034683F0010310
S214403BF0DBB2002B01D0002348E0FB8A0133FB8276
S214403C00FB8A312BECD93B69DBB203F00203DAB214
S214403C107B681A70224B1B6803F10E000C233E2271
S214403C208021204CA047024640F6FF739A4229D195
S214403C300FE007F10C031846184B9847034683F0ED
S214403C400103DBB2002B01D000231FE0FB8A0133C7
S214403C50FB82FB8A352BECD9114B1B68FA6852085D
S214403C605A600FE007F10C0318460C4B9847034682
S214403C7083F00103DBB2002B01D0002306E0FB8A71
S214403C800133FB82FB8A7F2BECD9012318461C3775
S214403C90BD4690BD0811080085594000AD5A400009
S214403CA020AE00206534400080B500AF0C4B1B684A
S214403CB01B891B04194641F609300A4B98470346B0
S214403CC083F00103DBB2002B01D0002306E0044B57
S214403CD01B680E331846044B98470123184680BD90
S214403CE020AE0020B958400015594000B0B584B009
S214403CF000AF484B1B6803F10E0004237A22802154
S214403D00454CA0470346013B032B0BD801A252F873
S214403D1023F000BF2F3D4000393D4000433D40006A
S214403D204D3D40003B4B1B6812221A7313E0394B43
S214403D301B6814221A730EE0364B1B6822221A7335
S214403D4009E0344B1B6830221A7304E0314B1B6881
S214403D5040221A7300BF2F4B1B6803F10E00082346
S214403D60602280212C4CA047F860FB6803F00703D4
S214403D702A4A52F82330BB60FB68DB0803F00F0387
S214403D80274A52F823307B60224B1B68BA68796812
S214403D9001FB02F24FF47A7101FB02F21A601D4BEE
S214403DA01B6803F10E000C233E2280211A4CA047CC
S214403DB0024640F6FF739A4228D0164B1B6803F122
S214403DC00E000C233E228021134CA04703465C1C69
S214403DD0104B1B6803F10E0003232F2280210E4D4B
S214403DE0A8470346023304FA03F33B60094B1C68BA
S214403DF0084B1B6803F10E00042350228021064D19
S214403E00A84702463B6893409B0A636000BF103752
S214403E10BD46B0BD20AE00206534400024F54000CD
S214403E2080F54000B0B584B000AF364B1B6803F158
S214403E300E00082360228021334CA047F860FB68C0
S214403E4003F00703314A52F82330BB60FB68DB08B7
S214403E5003F00F032E4A52F823307B60294B1B6831
S214403E60BA68796801FB02F24FF47A7101FB02F2FC
S214403E701A60244B1B6803F10E0002237E22802129
S214403E80214CA0470346002B0FD01E4B1C681D4BF1
S214403E901B6803F10E001623302280211A4DA847D6
S214403EA0034601335B02636028E0164B1B6803F150
S214403EB00E000C233E228021134CA04703465C1C78
S214403EC0104B1B6803F10E0003232F2280210E4D5A
S214403ED0A8470346023304FA03F33B60094B1C68C9
S214403EE0084B1B6803F10E00042350228021064D28
S214403EF0A84702463B6893409B0A636000BF103762
S214403F00BD46B0BD20AE00206534400024F54000DC
S214403F1040F5400080B582B000AF134B7B60134B3A
S214403F201B681B891B04194641F20D10104B98471D
S214403F30034683F00103DBB2002B01D000230FE0E1
S214403F400C4B9847034603F48073002B06D17B68DE
S214403F505A1E7A60002BE2D1002301E000BF012305
S214403F6018460837BD4680BD400D030020AE0020F1
S214403F70B9584000FD58400080B582B000AF3A6066
S214403F801A460346FB710B46BB7113467B713B6971
S214403F901B781A46FB79DB071A43BB791B071A4383
S214403FA07B79DB061A433B685B021343194641F2B2
S214403FB034300A4B9847034683F00103DBB2002BAC
S214403FC001D0002306E0064B98470346DAB23B6929
S214403FD01A70012318460837BD4680BDB9584000C0
S214403FE0FD58400080B500AF124B1B681B891B0470
S214403FF0194641F23710104B9847034683F00103A9
S214404000DBB2002B01D0002311E0022141F2061062
S214404010094B9847034683F00103DBB2002B01D0DF
S214404020002304E0034B1B6804225A7301231846FE
S21440403080BD00BF20AE0020B958400090B585B086
S21440404002AF364B1B681B891B04194641F23710DA
S214404050334B9847034683F00103DBB2002B01D075
S214404060002357E0012300930123082200212D4816
S2144040702D4CA047034683F00103DBB2002B01D052
S214404080002347E03B4601211846284B9847034605
S21440409083F00103DBB2002B01D000233AE0244B2F
S2144040A09847034683F00103DBB2002B01D0002380
S2144040B030E038460423382240211E4CA0470346B1
S2144040C0012B09D0012B02D3022B0AD01CE0134B44
S2144040D01B6810221A731CE0104B1B681A221A73B6
S2144040E017E0384601232F224021124CA0470346B2
S2144040F0012B04D1094B1B6830221A7309E0074B89
S2144041001B6820221A7304E0044B1B6810221A73A3
S21440411000BF012318460C37BD4690BD20AE002098
S214404120B95840003311080085594000495B4000AB
S214404130E95B40006534400080B582B000AF03467E
S214404140FB71FB79002B01D0042340E0FB79224A27
S2144041505B0113440A331B78042B07D0FB791E4AB5
S2144041605B0113440A331B78032B1AD1FB791A4A96
S2144041705B0113440A3302221A70FB79164A5B012C
S2144041801344164A1A60FB79134A5B0113440D33F5
S21440419001221A70FB79104A5B0113441E33002239
S2144041A01A700F4AFB791370FB795B010A4A134475
S2144041B00C4A13600C4B9847FB79074A5B01134443
S2144041C00A331B78022B0CBF01230023DBB21846B0
S2144041D00837BD4680BD00BFFCAD0020801A0600F3
S2144041E01CAE002020AE0020ED41400098B500AF48
S2144041F0094B1878094B1B681968084B1B685A7B93
S214404200064B1B689B7F002B14BF01230023DBB2A9
S214404210034CA04700BF98BD1CAE002020AE002037
S214404220CD57400080B500AF054B1B78002B04D11E
S214404230034B1B781846034B984700BF80BD00BF12
S2144042401CAE00206558400090B585B002AF0023F4
S214404250FB710823BB719A4B1B680122DA72984B9C
S2144042601B6800221A73964B1B6800221A81954BD6
S2144042709847BB1D00930023062200210120924C44
S214404280A04700214FF48040904B9847034683F068
S2144042900103DBB2002B01D000230DE1FB1D1846C5
S2144042A08B4B9847034683F00103DBB2002B01D0CB
S2144042B0002301E1874B9847034683F00103DBB2B6
S2144042C0002B01D00023F7E07D4B1B68DB7A03F020
S2144042D00103002B11D0FB7918467F4B98470346C5
S2144042E083F00103DBB2002B07D0754B1B6802221C
S2144042F0DA727A4B98470346DEE0714B1B68DB7AEE
S21440430003F00103002B0CD0002145F602306F4B22
S2144043109847034683F00103DBB2002B01D000230D
S214404320CAE0002145F20310684B9847034683F0E5
S2144043300103DBB2002B01D00023BDE0604B1C68BC
S214404340674B984703461B0C9BB223815C4B1B680C
S214404350DB7A03F00103002B0BD0624B98470346F1
S21440436083F00103DBB2002B01D00023A4E05E4BB8
S2144043709847534B1B681B891B04194643F207108A
S214404380524B9847034683F00103DBB2002B01D023
S214404390002391E04A4B1B68DB7A03F00103002BB5
S2144043A009D0524B9847034683F00103DBB2002BFB
S2144043B001D0002380E0424B1B68DB7A03F0040305
S2144043C0002B09D04A4B9847034683F00103DBB2E3
S2144043D0002B01D000236FE0464B1B781846464B17
S2144043E098470346032B23D9354B1B68DB7A03F0EB
S2144043F00403002B09D0414B9847034683F0010342
S214404400DBB2002B01D0002356E02D4B1B68DB7A35
S21440441003F00103002B09D0394B9847034683F03D
S2144044200103DBB2002B01D0002345E0354B984713
S214404430354B98470346002B28D0214B1B68DB7A28
S21440444003F00403002B09D0304B9847034683F013
S2144044500103DBB2002B01D000232DE0184B1B6874
S214404460DB7A03F00103002B0ED0154B1B681B7B39
S214404470102B09D9264B9847034683F00103DBB23D
S214404480002B01D0002317E01E4B98470C4B1B68AF
S214404490DB7A03F00103002B0DD04FF4007141F29C
S2144044A010100A4B9847034683F00103DBB2002BFB
S2144044B001D0002300E0012318460C37BD4690BDCE
S2144044C020AE00207D584000793F4000B95840005B
S2144044D04D3B40009D364000F535400015454000B8
S2144044E0FD584000A93C4000253E40003D4040006D
S2144044F0453740001CAE0020995740009138400098
S214404500E53F4000ED414000BB57400001394000C8
S2144045108139400080B582B000AF00214FF4804022
S214404520564B9847034683F00103DBB2002B01D07D
S21440453000239FE0524B9847034683F00103DBB2CB
S214404540002B01D0002395E0002145F602304B4B6E
S2144045509847034683F00103DBB2002B01D00023CB
S21440456088E0484B1B6801221A81464B1B681B8912
S2144045701B04194641F20310404B9847034683F00C
S2144045800103DBB2002B01D0002373E03E4B98477B
S214404590034683F00103DBB2002B01D0002369E021
S2144045A03A4B9847374B1B681B891B04194643F206
S2144045B00710324B9847034683F00103DBB2002BCB
S2144045C001D0002356E02F4B1B681B7B3F2B3BD96B
S2144045D0BB1D18462E4B9847034683F00103DBB2BB
S2144045E0002B01D0002345E02A4B1B7818462A4B67
S2144045F098470346032B12D9264B1B781846264B62
S214404600984703461846254B9847034683F00103D0
S214404610DBB2002B01D000232CE0214B9847214BE6
S21440462098470346002B11D0BB79002B0ED01E4B6B
S2144046309847034683F00103DBB2002B01D00023EA
S21440464018E0174B984701E0154B98470A23FB7133
S2144046500AE04FF4007141F21010084B98470346A9
S214404660002B01D0012305E0FB795A1EFA71002B7E
S214404670EFD1002318460837BD4680BDB9584000E4
S2144046807935400020AE0020A93C4000ED3C40007B
S214404690B13B40001CAE002099574000753A4000A0
S2144046A0ED414000BB574000F13A400080B582B033
S2144046B000AF0023FB7109E0FB790A4A5B01134413
S2144046C00A3304221A70FB790133FB71FB79002B05
S2144046D0F2D0054BFF221A70044B984700BF0837AC
S2144046E0BD4680BDFCAD00201CAE0020615740009A
S2144046F080B584B000AF0346FB71FB791846114B7A
S21440470098470346FB73FB7B012B03D00E4B984721
S214404710FB7B13E00D4B98470346002B07D00C4B12
S2144047201B6800229A72084B9847012306E0084B04
S2144047301B6803229A72044B984703231846103787
S214404740BD4680BD394140002542400049424000B8
S21440475020AE002080B582B000AF0346FB71FB79E7
S2144047601846084B98470346002B01D0002304E028
S214404770054B9847054B1B68DB7A18460837BD46FD
S21440478080BD00BF394140002542400020AE002099
S21440479080B582B000AF0346FB71FB791846084BE4
S2144047A098470346002B01D0002304E0054B98476A
S2144047B0054B1B685B6818460837BD4680BD00BF82
S2144047C0394140002542400020AE002080B483B0EE
S2144047D000AF0346FB71002318460C37BD465DF814
S2144047E0047B704790B589B002AF03463960FB71D1
S2144047F01346BB80FB7918462A4B98470346FB7303
S214404800FB7B002B01D0FB7B47E0274B98470346BA
S21440481083F00103DBB2002B03D0244B98470523DB
S2144048203BE0BB88012B02D9214B7B6101E0214B49
S2144048307B61214B1B68DB7A03F00803002B02D018
S2144048403B683B6102E03B685B023B61BA88012300
S214404850009313464FF4007239697869174CA047A5
S214404860034683F00103DBB2002B03D00F4B98477F
S214404870052312E0124B9847B860BA68114B1340B4
S214404880002B03D0094B9847052306E00E4ABB8809
S21440489013800E4ABB881380002318461C37BD463B
S2144048A090BD00BF39414000153F400025424000C2
S2144048B0121110001111080020AE0020855940004A
S2144048C0FD584000000058E426AE002024AE0020EC
S2144048D080B582B000AF78600B467B807B881946F7
S2144048E078680C4B9847034683F00103DBB2002BF5
S2144048F004D0094B00221A80052307E0064B1A888D
S2144049007B88D31A9AB2044B1A800023184608377D
S214404910BD4680BD495B400026AE002080B582B0D3
S21440492000AF0346FB711B4B9847034683F00103D9
S214404930DBB2002B01D0052327E0FB79002B03D008
S214404940154B00221A8005E0134B1B88002B01D024
S21440495000231AE0114B1B88012B03D1104B9847BC
S214404960002312E0002143F20C100E4B98470346FA
S21440497083F00103DBB2002B04D0002143F20C107D
S214404980084B9847064B9847002318460837BD46BD
S21440499080BD00BFE95B400026AE002024AE00206C
S2144049A025424000B958400090B589B002AF034652
S2144049B03960FB711346BB80FB791846294B9847F4
S2144049C00346FB73FB7B002B01D0FB7B46E0FB7969
S2144049D01846254B98470346002B03D0234B984751
S2144049E007233BE0BB88012B02D9214B7B6101E0CA
S2144049F0204B7B61204B1B68DB7A03F00803002BBF
S214404A0002D03B683B6102E03B685B023B61BA8890
S214404A100123009313464FF4007239697869174CA6
S214404A20A047034683F00103DBB2002B03D00F4BB5
S214404A309847052312E0124B9847B860BA68114B66
S214404A401340002B03D0094B9847052306E00E4A37
S214404A50BB8813800D4ABB881380002318461C373A
S214404A60BD4690BD39414000CD47400025424000FC
S214404A70199110001891080020AE0020855940007A
S214404A80FD584000000058E426AE002024AE00202A
S214404A9080B582B000AF78600B467B807B88194635
S214404AA078680C4B9847034683F00103DBB2002B33
S214404AB004D0094B00221A80052307E0064B1A88CB
S214404AC07B88D31A9AB2044B1A80002318460837BC
S214404AD0BD4680BD795C400026AE002080B582B0E1
S214404AE000AF0346FB711A4B9847034683F0010319
S214404AF0DBB2002B01D0052326E0FB79002B03D048
S214404B00144B00221A8005E0124B1B88002B01D064
S214404B10002319E0104B1B88012B03D10F4B9847FD
S214404B20002311E0002143F20C100D4B984703463A
S214404B3083F00103DBB2002B03D0084B98470523D4
S214404B4002E0064B9847002318460837BD4680BD0E
S214404B501D5D400026AE002024AE002025424000C9
S214404B60B958400080B582B000AF0346FB71FB7970
S214404B701846154B98470346012B17D0022B17D0E3
S214404B80002B1BD1FB79114AD35C002B01D00223AA
S214404B9015E0FB7918460E4B9847034603F003038F
S214404BA0002B01D000230AE0022308E0032306E09E
S214404BB0FB79064A0021D154022300E0012318461F
S214404BC00837BD4680BD00BFF146400028AE0020F5
S214404BD05547400080B500AF0020024B984703463B
S214404BE0184680BD654B400080B500AF0120024BA3
S214404BF098470346184680BD654B400080B582B056
S214404C0000AF03463960FB71FB791846074B98475F
S214404C1003465B005A1E3B681A60FB791846044BF5
S214404C209847034618460837BD4680BD9147400022
S214404C30654B400080B582B000AF78607968002050
S214404C40034B9847034618460837BD4680BD00BF0D
S214404C50FD4B400080B582B000AF78607968012097
S214404C60034B9847034618460837BD4680BD00BFED
S214404C70FD4B400080B483B000AF03460A46FB714C
S214404C801346BB71FB790549BA79CA5401231846C5
S214404C900C37BD465DF8047B704700BF28AE002049
S214404CA080B582B000AF0346FB71FB791946002001
S214404CB0034B9847034618460837BD4680BD00BF9D
S214404CC0754C400080B582B000AF0346FB71FB795F
S214404CD019460120034B9847034618460837BD46F9
S214404CE080BD00BF754C400080B582B000AF034623
S214404CF0FB71FB791846034B98470346184608371E
S214404D00BD4680BDCD47400080B500AF0020024B79
S214404D1098470346184680BDE94C400080B500AF32
S214404D200120024B98470346184680BDE94C400098
S214404D3080B483B000AF0346FB71012318460C379E
S214404D40BD465DF8047B704780B500AF0020024B3F
S214404D5098470346184680BD314D400080B500AFA9
S214404D600120024B98470346184680BD314D40000F
S214404D7080B584B000AF0346B9607A60FB73FB7BB6
S214404D800122B9681846114B98470346002B05D0B8
S214404D90022B01D1022314E0012312E000BF0121BF
S214404DA078680B4B98470346002B01D0012308E058
S214404DB00020084B98470346002B01D0012300E013
S214404DC0002318461037BD4680BD00BFE54740006B
S214404DD0D14840001D49400080B582B000AF7860A1
S214404DE039603A6879680020034B9847034618466E
S214404DF00837BD4680BD00BF714D400080B582B0CB
S214404E0000AF786039603A6879680120034B98476C
S214404E10034618460837BD4680BD00BF714D40006A
S214404E2080B584B000AF0346B9607A60FB73FB7B05
S214404E300122B9681846114B98470346002B05D007
S214404E40022B01D1022314E0012312E000BF01210E
S214404E5078680B4B98470346002B01D0012308E0A7
S214404E600020084B98470346002B01D0012300E062
S214404E70002318461037BD4680BD00BFA9494000F4
S214404E80914A4000DD4A400080B582B000AF78606D
S214404E9039603A6879680020034B984703461846BD
S214404EA00837BD4680BD00BF214E400080B582B069
S214404EB000AF786039603A6879680120034B9847BC
S214404EC0034618460837BD4680BD00BF214E400009
S214404ED080B584B000AF0346FB71FB79012B07D841
S214404EE0FB79074A5B0113441B689847034600E07A
S214404EF00123FB73FB7B18461037BD4680BD00BFC1
S214404F00F0F5400080B584B000AF03463960FB71D1
S214404F10FB79012B09D8FB79074A5B01134404331C
S214404F201B6838689847034600E00123FB73FB7B09
S214404F3018461037BD4680BDF0F5400080B485B0B9
S214404F4000AF0346FB71FB79012B94BF012300237E
S214404F50DBB2FB73FB7B18461437BD465DF8047B1B
S214404F607047000080B584B000AF0346FB71FB7904
S214404F70012B09D8FB79094A5B0113440C331B68A3
S214404F8098470346002B01D0012300E00023FB7323
S214404F90FB7B18461037BD4680BD00BFF0F540008D
S214404FA080B586B000AF0346B9607A60FB73FB7B82
S214404FB0012B0AD8FB7B084A5B01134414331B6859
S214404FC07968B8689847034600E00123FB75FB7D87
S214404FD018461837BD4680BDF0F5400080B586B00F
S214404FE000AF0346B9607A60FB73FB7B012B0AD89F
S214404FF0FB7B084A5B01134418331B687968B86822
S2144050009847034600E00123FB75FB7D184618379A
S214405010BD4680BDF0F5400080B582B000AF7860F8
S2144050207868034B984700BF0837BD4680BD00BF31
S214405030359F400080B500AF0920084B98470A20AE
S214405040064B98470B20054B98470C20034B984738
S2144050500D20024B984700BF80BD00BF195040004E
S21440506080B489B000AF78607B68FB61FB69BB6148
S214405070BB695A09FB697B617B6903F01F03012109
S21440508001FA03F33A61FB603B69BB60BB6803F51A
S214405090001303F207735B021A46FB68536000BFB7
S2144050A02437BD465DF8047B704780B48DB000AFB2
S2144050B0786039607B68FB623B68BB62FB6A7B62F8
S2144050C07B6A5A09FB6A3B623B6A03F01F03012175
S2144050D001FA03F3FA61BB61BB6A7B61FB693B6122
S2144050E03B6903F5001303F207735B02FB607B69C1
S2144050F003F00803002B03D0FB68BA695A6602E047
S214405100FB68BA691A667B6903F01003002B04D06B
S214405110FB68BA69C3F8942003E0FB68BA69C3F831
S21440512090207B6903F02003002B03D0FB68BA690C
S2144051301A6502E0FB68BA695A657B6903F0C003EA
S214405140002B03D0FB68BA691A6202E0FB68BA69B2
S2144051505A627B6903F08003002B04D0FB68BA696F
S214405160C3F8842003E0FB68BA69C3F880207B69F3
S21440517003F00103002B06D0FB681A6FBB691A4385
S214405180FB681A6706E0FB681A6FBB69DB431A4088
S214405190FB681A677B6903F00203002B06D0FB68A6
S2144051A05A6FBB691A43FB685A6706E0FB685A6F3A
S2144051B0BB69DB431A40FB685A6700BF3437BD46BD
S2144051C05DF8047B704780B48DB000AF78600B46C6
S2144051D0FB707B68FB62FB7887F82B30FB6A7B6250
S2144051E07B6A3B623B6A5B09FB61FB6903F5001324
S2144051F003F207735B02BB6197F82B30012B09D192
S214405200FB6A7B617B6903F01F0301229A40BB69FE
S2144052101A610CE097F82B30002B08D1FB6A3B61F3
S2144052203B6903F01F0301229A40BB695A61FB6A3F
S214405230FB60FB6803F01F0301229A40BB69C3F87A
S214405240A02000BF3437BD465DF8047B704780B46D
S2144052508BB000AF78600B46FB707B687B62FB7858
S21440526087F823307B6AFB61FB69BB61BB695B09DE
S2144052707B617B6903F5001303F207735B023B61B6
S21440528097F82330002B09D07B6AFB60FB6803F05D
S2144052901F0301229A403B691A6308E07B6ABB60A1
S2144052A0BB6803F01F0301229A403B695A6300BF64
S2144052B02C37BD465DF8047B7047000080B48DB047
S2144052C000AF78600B46FB707B68FB62FB7887F824
S2144052D02B30FB6A7B627B6A5A09FB6A3B623B6AFD
S2144052E003F01F03012101FA03F3FA61BB6197F84B
S2144052F02B30FB75FB693B613B6903F5001303F2FA
S21440530007735B02FB60FB7D013B032B2ED801A29B
S21440531052F823F0495340005B5340002553400069
S21440532037534000FB68BA69C3F8C420FB68BA69C3
S214405330C3F8D0201FE0FB68BA69C3F8C420FB68F6
S214405340BA69C3F8D42016E0FB68BA69C3F8C0202F
S214405350FB68BA69C3F8D0200DE0FB68BA69C3F8A9
S214405360C020FB68BA69C3F8D42004E0FB68BA6979
S214405370C3F8B42003E0FB68BA69C3F8B02000BFA6
S2144053803437BD465DF8047B704700BF80B500AF3C
S214405390344B4FF400425A60334B984701217620F5
S2144053A0324B984701217620314B98470021022006
S2144053B02E4B9847882102202E4B984702210220E8
S2144053C02D4B984702214C202A4B98474C202B4B7C
S2144053D0984702214F20274B98474F20274B984706
S2144053E001218220214B9847012183201F4B98475B
S2144053F002211C201F4B98471C20204B9847022117
S2144054001D201C4B98471D201C4B984702211E20F0
S214405410184B98471E20194B984702211F20154BC2
S21440542098471F20154B984702211A20114B984742
S2144054301A20124B984702211B200E4B98471B20E0
S2144054400E4B9847002103200A4B984703200B4BEE
S214405450984700210420074B98470420074B98475D
S21440546000BF80BD50180E4035504000C751400028
S2144054704F524000AB504000BD524000615040008B
S21440548080B483B000AF78607B68072B25D801A234
S21440549052F823F0B5544000BB544000C15440007D
S2144054A0C7544000CB544000CF544000D354400033
S2144054B0D75440004FF4FA4310E04FF400430DE059
S2144054C04FF400430AE0084B08E0084B06E0084B60
S2144054D004E0074B02E0064B00E0002318460C377A
S2144054E0BD465DF8047B704700093D0000127A0017
S2144054F0001BB70080B500AF0620034B9847034615
S2144055001B01184680BD00BF8154400080B500AFE7
S214405510024B984703465B08184680BDF55440004A
S21440552080B487B000AF154B5B687B61134B9B68BC
S2144055303B61124BDB68FB60104BDB69BB600F4B7B
S2144055405B6D7B600D4B80221A600C4A7B69536012
S2144055500A4A3B699360094AFB68D360074ABB68BE
S214405560D361064A7B685365044B05221A6000BF28
S2144055701C37BD465DF8047B704700BF00000840FE
S21440558080B487B000AF7860396000237B61002329
S2144055903B610023FB607B685A003B689A421AD204
S2144055A03A687B68B2FBF3F3023BFB603B687A6881
S2144055B0B3FBF2F2796801FB02F29B1A002B02D091
S2144055C0FB680133FB60FB685B087B61FB6803F0AC
S2144055D001033B6103E000237B6100233B61114AEA
S2144055E0104B5B6823F0FF0353600E490D4B5A681F
S2144055F07B69DBB213434B603B69002B06D0094AFC
S214405600084B5B6843F48033536005E0054A054B1E
S2144056105B6823F48033536000BF1C37BD465DF89B
S214405620047B70470000084080B582B000AF4FF062
S214405630FF337B600D4B1B6C3B607B685A1E7A6069
S214405640002B03D10A4B984700230AE03B6803F03F
S2144056502003002BEED03B6803F01003002BE9D16B
S214405660012318460837BD4680BD00BF00000840ED
S2144056702155400080B586B000AFF860B9607A60CA
S214405680BB6803F03F03FA681343FB60BB6803F450
S2144056908073002B1BD0FB6843F48053FB60BB68D1
S2144056A003F40063002B04D0FB6843F08003FB60E8
S2144056B00DE0BB6803F40053002B04D0FB6843F0B6
S2144056C0C003FB6003E0FB6843F04003FB60BB683D
S2144056D003F48043002B03D0FB6843F40063FB6075
S2144056E01C4A7B6813611B4AFB685361194B1B6C51
S2144056F07B61BB6803F48053002B08D07B6903F4BE
S2144057001F03002B0CD0144B984700231DE07B69E9
S21440571003F41B03002B03D00F4B9847002314E0E1
S2144057207B6903F00103002BE0D0BB6803F4005311
S214405730002B09D0094B9847034683F00103DBB2A0
S214405740002B01D0002300E0012318461837BD4641
S21440575080BD00BF0000084021554000295640004B
S21440576080B500AF10200A4B98470A4B72229A60C9
S214405770084B7222DA61074B11225A65054B4FF4EB
S214405780E0625A60034B05221A6000BF80BD00BF2E
S214405790359F40000000084080B483B000AF034609
S2144057A0FB71FB79002B01D1042300E0002318464F
S2144057B00C37BD465DF8047B704780B400AF0123CC
S2144057C01846BD465DF8047B7047000080B584B03F
S2144057D000AF396011461A460346FB710B46BB7153
S2144057E013467B710023FB600023BB607B79002B54
S2144057F006D0194A184B5B6D43F48073536505E039
S214405800154A154B5B6D23F480735365134B9847CD
S214405810034619463868124B9847FB79002B02D14D
S2144058200023FB6000BFBB79042B06D0082B07D0B3
S214405830012B08D10023BB6005E08023BB6002E05B
S214405840C023BB6000BF0449FA68BB681343CB6003
S21440585000BF1037BD4680BD000008400D554000D3
S2144058608155400080B483B000AF0346FB7100BF53
S2144058700C37BD465DF8047B7047000080B400AF2F
S2144058800C4A0C4B5B6823F460535360094B002270
S2144058901A61084B4FF410625A6100BF054B1B6CEF
S2144058A003F00103002BF9D000BFBD465DF8047B32
S2144058B0704700BF0000084080B582B000AF7860F7
S2144058C039600C4A0B4B5B6823F460535360094ABB
