S00B000061726D2E73726563D9
S21440000058350020151340001113400011134000CE
S214400010111340001113400011134000000000006F
S2144000200000000000000000000000001113400027
S214400030111340000000000011134000111340004F
S21440004011134000111340001113400011134000DB
S21440005011134000111340001113400011134000CB
S21440006011134000411640005516400069164000E6
S2144000707D164000911640001113400011134000B9
S214400080111340001113400011134000111340009B
S214400090111340001113400011134000111340008B
S2144000A0111340001113400011134000111340007B
S2144000B0111340001113400011134000111340006B
S2144000C0111340001113400011134000111340005B
S2144000D0111340001113400011134000111340004B
S2144000E0111340001113400011134000111340003B
S2144000F0111340001113400010B5054C237833B956
S214400100044B13B10448AFF300800123237010BDA5
S2144001103404002000000000681F40000C4B43B130
S2144001200C480D4910B5AFF300800C48036823B95E
S21440013010BD0A48036833B97047094B002BF7D007
S214400140BDE810401847064B002BF5D0184700BFB7
S21440015000000000681F400038040020681F400070
S2144001600000000070B584B000230393124B029346
S214400170124B01931120124CA04701A91148124B73
S21440018098470920A0474FF07C424FF0C0510F4897
S2144001900F4B98470F4B984700240F4E0F4D03E0E8
S2144001A02046A8470228FBD12046B0470128F7D072
S2144001B00028F9D104B070BD801A060000D8B805F2
S2144001C0351A400000800A40411B4000000E0E4099
S2144001D0B1184000D1034000950C4000F1034000A8
S2144001E010B5064C2074217001216160A260E36066
S2144001F021460348034B984710BD00BF50040020DB
S21440020000800A40A51B400038B52620134B98476F
S214400210134D4FF47A7213492846134B9847284695
S214400220124B9847124C00232360032222710F2260
S214400230E2716371E360214628460E4B98474FF4BF
S214400240E01323610C4BA3610C4BE3610823A371BD
S214400250214628460A4B984738BD00BF351A40000D
S2144002600040014000D8B805B5174000911740003F
S2144002700C050020A51640007856341221436587A9
S2144002802717400008B5044B9847044B9847044B43
S2144002909847044B984708BD71154000E50C400050
S2144002A0650140000902400010B582B002AA9923B9
S2144002B002F8013D012311217720024CA04702B0ED
S2144002C010BD00BFE101400010B5064B19688B7F9A
S2144002D0003318BF01234A7B096803480078034C63
S2144002E0A04710BD6404002088040020C10F4000D1
S2144002F008B10420704710B50E4B9B7A033BDBB227
S214400300012B0DD900220C4B1A700A4C0B4B1C606B
S2144003100B4B9847A07A022814BF0020012010BD3E
S214400320044B02229A72074A1A6001225A7300222C
S2144003309A77E7E7680400208804002064040020D9
S214400340C9024000801A060038B5049C520242EAB0
S214400350C36242EA017242EAC0722178114341F216
S2144003603430054B9847054608B9284638BD034BF8
S21440037098472070F9E700BFA1104000CD1040001C
S21440038010B5094B1B681989090441F60930074B1B
S2144003909847044608B9204610BD034B18680E30EF
S2144003A0034B9847F7E700BF64040020A1104000C5
S2144003B0D910400008B5044B1B7803B108BD002097
S2144003C0024B9847FAE700BF8804002079104000A7
S2144003D008B50422034B9A72FF22034B1A70034B54
S2144003E0984708BD6804002088040020890F400014
S2144003F02DE9F04395B0A74B98470446012805D011
S214400400A54B9847204615B0BDE8F08314AE0823A8
S21440041006F8453DA14B1B680127DF7200251D737A
S2144004201D819F4B984700962B4606222946384604
S2144004309C4EB04729464FF480409B4B984730B976
S214400440964B1B6803249C72934B9847DAE74FF40D
S214400450D57145F20850944B9847002840F0938059
S2144004604FF00009002144F205508F4B9847002872
S21440047040F09780894B1B68DB7A13F0010F40F001
S214400480B580002145F20310874B98470028D7D007
S214400490824D2E68854B9847000C30812B68DB7A5E
S2144004A013F0010F34D0824B98470028C8D02B68F1
S2144004B05A7CC2F3C30002F007027E4951F822106C
S2144004C04FF47A7202FB01F27B4951F8201002FB8E
S2144004D001F21A609A7B920940F00B82997D587D12
S2144004E01A7D920242EA800242EAA112187ED97D23
S2144004F0490041EAE011C2F30B02013201F0070164
S21440050002318A40D97C01F00F018A40920A5A6033
S214400510624B1B681989090443F20710624B9847DF
S21440052000288DD05D4B1B68DA7A12F0010F40F040
S214400530ED815A4B1B68DB7A13F0040F00F09C8267
S21440054009250027574EA5F1090303AA1344009333
S2144005503B462A4639463846B04701350D2DF2D13E
S2144005609DF80D309DF80C9009EB03299DF80E3050
S21440057009EB03499DF80F3009EB03694E464FF0EF
S2144005800008484F39E2494B9847B0F1FF3F00F02A
S2144005904783C0F30B00B0F5D57F7FF451AFB94623
S2144005A060E7424B984710F0E04F3FF463AF41F2AC
S2144005B0893544F205583C4E3C4F00F4FC11404609
S2144005C0B04700283FF43CAFB847002802DB013D67
S2144005D0F3D135E710F0006F04D1304B1B6804228E
S2144005E0DA724EE72D4B1B680522DA72B9F1000F1E
S2144005F0324F14BFB9464FF4FC1940F635054FF05C
S2144006000008294E294F414641F23710B04748B1BD
S214400610494644F22950B04720B1B847002820DB6D
S214400620013DF0D11D4B1B680222DA7200214FF4C7
S21440063080401D4B984700283FF402AF41F26905C1
S214400640DFF87880184E194F414644F20150B047C3
S21440065000283FF4F5AEB847002831DB013DF3D122
S214400660EEE610F0804F05D00C4B1A68D37A43F074
S2144006700803D372094B1B68DB7A13F0010F3FF473
S21440068000AF002145F60230074B984700287FF41C
S214400690F8AED5E6F1024000B50340006404002001
S2144006A07D10400049034000A1104000CD1040009E
S2144006B081034000781E4000941E400000801F408A
S2144006C000F0C040B0F1804F27D0002145F6023000
S2144006D0A74B984700283FF4B3AEA64B1B680122B1
S2144006E01A814FF4803141F20310A14B98470028FD
S2144006F03FF4A6AEA04B984700283FF4A1AE9D4BD2
S2144007001A68937BC3F38303013B032B0CD8DFE8C3
S21440071013F0CC00CF00D200D500964B1A68D37A9F
S21440072043F00803D372D0E712231373537CC3F30A
S214400730C30003F00703914951F823104FF47A732E
S21440074003FB01F38E4951F8201003FB01F31360BD
S214400750917D507D137D9B0243EA800343EAA113BB
S214400760C3F30B0340F6FF718B420FD0107ED17D52
S214400770490041EAE011013301F0070102318B40A4
S214400780D17C01F00F018B409B0A5360118909040C
S21440079043F20710764B984700283FF451AE754B0E
S2144007A01B681B7B3F2B40F2968000210091012363
S2144007B04FF400727348744DA84700283FF440AE8B
S2144007C00025724E03A8B04700283FF439AE0135E5
S2144007D0ADB2322DF6D1039E06F00206654B1B687D
S2144007E09A7D597D1B7D9B0243EA810343EAA2130F
S2144007F0C3F30B0340F6FF7293420ED1634F04A837
S214400800B84700283FF41CAE0135ADB2352DF6D9B9
S214400810584B1A68049B5B0853605C4F7F2D50D939
S2144008205B4B18785B4B984703281DD9584B187874
S214400830584B9847054604284BD0574B57490828ED
S21440084018BF194643F20610494B984700283FF414
S214400850F7AD534B984710F0800F7FF4F1AD454B02
S2144008601B685D734F4B98474F4B9847B0B1AEB13E
S2144008704E4943F206103E4B984700283FF4E0AD01
S214400880474B984710F0800F7FF4DAAD394B1B6822
S21440089001229A77464A1A60424B98470A254FF4F7
S2144008A0007841F21017324E1DE0142313733DE7D3
S2144008B0222313733AE73023137337E74023137327
S2144008C034E704A8B84700283FF4BAAD0135ADB2C6
S2144008D0A4E73849B6E7334B9847DFE7013D15F0C4
S2144008E0FF053FF4ADAD41463846B0470028F5D049
S2144008F00EE1D97D987D5A7D120442EA00220A43D1
S214400900C2F31502013252025A6001E619890904FF
S21440091041F23710164B984700283FF491AD01231B
S2144009200093082200212448174DA84700283FF48A
S21440093087AD012104A8214B984700283FF480AD9D
S2144009401F4B984700283FF47BAD9DF8103003F0CE
S2144009500F03012B36D033B1022B38D0054B1B6822
S21440096010221A73E5E5034B1B6810221A73E0E564
S214400970A11040006404002081034000781E40001F
S214400980381E40000811080009114000CD114000F3
S21440099088040020B10F40000000B7010002B701F4
S2144009A0CD104000C9024000BB0F40000001B90313
S2144009B0007519030001B701331108003D124000CD
S2144009C0A1124000984B1B681A221A73B1E59DF895
S2144009D01230DB09944B1B6814BF302220221A7356
S2144009E0A7E59DF81130002B3FF42AAD02331E4494
S2144009F009F580739E423FF623AD002504AB2B4499
S214400A0000934346721941464046B8470135032D88
S214400A10F4D19DF81030FF2B3FF412AD222BE0D1DD
S214400A209DF81230002BDCD104AD06F106094FF0DC
S214400A3000087E4F00954346324641464046B847FA
S214400A40013601354E45F5D19DF81530322B28BF7D
S214400A503223754A1268C3F3C30003F00703744990
S214400A6051F823104FF47A7303FB01F3714951F8A0
S214400A70201003FB01F313606F4B18786F4B9847B9
S214400A80032822D9684B1B68DB7A13F0040F46D143
S214400A90654B1B68DA7A12F0010F14D019890904E5
S214400AA041F23710664B984700283FF4C9AC022104
S214400AB041F20610624B984700283FF4C1AC5A4BAF
S214400AC01B6804225A735F4B98475F4B984780B128
S214400AD0554B1B68DB7A13F0040F41D1524B1B6811
S214400AE0DA7A12F0010F02D01B7B102B5DD8554BE3
S214400AF098474D4B1B68DB7A13F0010F08D04FF434
S214400B00007141F210104E4B984700283FF498ACC5
S214400B10454B1B6800229A724C4B984772E404ABD4
S214400B2000930023082219461846404DA84700283F
S214400B303FF486AC9DF91030002BA9DA14AB0222A4
S214400B4003F8402D00930123072200211846A847AA
S214400B5000283FF475AC344B1B6804225A7397E761
S214400B6004AB009300231322194618462F4DA8477E
S214400B7000283FF465AC9DF8103013F0010FADD05F
S214400B8014AB022203F8402D0093012313220021C8
S214400B901846A84700283FF453AC234B1B68012255
S214400BA09A771A6852001A6098E740252A4600212C
S214400BB004A8274B9847012300932A4625492648F0
S214400BC0264DA84700283FF43BAC012104A8244BFF
S214400BD0984700283FF434AC224B984700283FF40F
S214400BE02FAC214B984710F0800F7FF429AC9DF82E
S214400BF0203003F00F030F2B3FF479AF9DF82D30D4
S214400C009DF82C2053EA02237FF41AAC174B9847E2
S214400C10054B1B6801229A771A6852001A6066E7ED
S214400C204FF000091EE400BF640400204903400062
S214400C30781E4000941E400088040020B10F4000FB
S214400C40A1104000C9024000BB0F4000B503400061
S214400C507D1C400001FFFF8006110800091140007E
S214400C603D124000A1124000CD1040007D104000D3
S214400C7008B5054B984708B1002008BD034B984778
S214400C80034B1B68D87A08BDF1024000B50340000C
S214400C906404002010B504460F4B9847012818D02E
S214400CA018B1022810D0012010BD0C4B1B5D0BB1B3
S214400CB0022010BD20460A4B984700F0030000284B
S214400CC014BF0020022010BD0022044B1A550220FB
S214400CD010BD032010BD00BFF10340008C0400206F
S214400CE0710C400038B54FF40044704B5C600920EE
S214400CF06F4DA8470A20A8470B20A8470C20A847B6
S214400D000D20A8476B4B4FF480021A61C3F8A02011
S214400D101A63A3F5C06304215961C3F8A01059664D
S214400D20C3F8901059651962C3F884101A6F22F000
S214400D3004021A675A6F22F004025A67C3F8C010BA
S214400D40C3F8D410C3F8B0105B4A4FF48050106616
S214400D50C2F8900050655062C2F88000156F25F4C6
S214400D6080551567556F0543556750601466C2F841
S214400D70904054655462C2F88040106F20F40040A2
S214400D801067506F2043506754604C480161C0F86C
S214400D90A01008220261C0F8A0204FF080511966CA
S214400DA0C3F8901059655962C3F88010186F20F048
S214400DB080501867586F0843586759604FF0005185
S214400DC01966C3F8901059655962C3F88010186FB9
S214400DD020F000501867586F0843586759604FF026
S214400DE080411966C3F8901059655962C3F880105F
S214400DF0186F20F080401867586F0843586759604E
S214400E004FF000411966C3F8901059655962C3F80F
S214400E108010186F20F000401867586F08435867D6
S214400E2059604FF080611966C3F890105965596251
S214400E30C3F88010186F20F080601867586F08431A
S214400E40586759604FF000611966C3F890105965AD
S214400E505962C3F88010186F20F000601867586F0A
S214400E600843586759601A66C3F890205A655A6214
S214400E70C3F88020196F21F008011967596F21F0D7
S214400E80080159675A6010221A66C3F890205A65BE
S214400E905A62C3F88020196F21F010011967596F04
S214400EA021F0100159675A6038BD00BF50180E40F7
S214400EB0351A400000140E4000120E4000160E4038
S214400EC070B4084B5D689C68D868D9695A6D8026AE
S214400ED01E605D609C60D860D9615A6505221A60C4
S214400EE070BC70470000084008B501F03F03184347
S214400EF011F4807F04D011F4006F0DD040F484507C
S214400F0011F4804F18BF40F400601D4B1A615861C1
S214400F10184601F480520DE011F4005F14BF40F40F
S214400F20865040F48250EBE713F41B0F0CD113F0BD
S214400F30010F0DD1036C002AF6D013F41F0FF6D024
S214400F40104B9847002008BD0E4B9847002008BD20
S214400F5011F4005F03D1012008BD012008BD084BF5
S214400F601B6C4FF0FF32064903F03003202BF4D0C1
S214400F700B6C013AF8D1034B9847002008BD00BFE0
S214400F8000000840C10E400008B51020064B9847A8
S214400F90064B72229A60DA6111225A654FF4E0627B
S214400FA05A6005221A6008BD351A40000000084005
S214400FB000280CBF04200020704701207047000026
S214400FC063B32A48436D43F480734365284BB3EBC1
S214400FD0410F33D310B42748B0FBF1F301FB1301A4
S214400FE011BB023B2149486820F0FF0048604C682E
S214400FF0C3F347002043486013F0010F16D04B68F8
S21440100043F480334B60042A16D0082A0CBFC02213
S2144010100022164BDA605DF8044B70471348436D68
S21440102023F480734365D1E7013BDBE70F494B6808
S21440103023F480334B60E6E78022EAE70B4B59689F
S21440104021F0FF0159605968596008494B6823F4FC
S21440105080334B60042A06D0082A0CBFC0220022E8
S214401060024BDA6070478022FAE700BF0000084073
S214401070FFD7B80500D8B80570470000074B5A6838
S21440108022F460525A6000221A614FF410625A618C
S2144010901A46136C13F0010FFBD07047000008404F
S2144010A010B5084B5A6822F460525A605A6822F4C7
S2144010B000425A6000249C610A4601462046024B84
S2144010C0984710BD00000840E90E4000014B186AE2
S2144010D0704700BF0000084010B4031D1430094C90
S2144010E0226A110E03F8041C110C03F8031C110AA3
S2144010F003F8021C03F8012C04338342F0D15DF858
S214401100044B70470000084070B59DF8104074B31B
S214401110294D6C6844F400446C60274D6C6844F478
S214401120C0546C6012F0030F27D06C6844F400542F
S2144011306C6000F40044002C14BF4FF480344FF42D
S214401140A02410F4803F1ED143EA02451A4EB561F2
S21440115010F4003F2AD110F4802F2AD110F4002F2B
S21440116017D110F4801F18BF44F4002411E0124D2C
S2144011706C6824F400446C60CFE70F4D6C6824F430
S21440118000546C60D5E744F40014C2F308050A4ED8
S214401190B5610026094D2E60094D2A80094A138004
S2144011A00A4601462046084B984770BD44F4201432
S2144011B0EFE744F48014ECE7000008409404002075
S2144011C08E04002090040020E90E400008B5154922
S2144011D0154A0B6C13421BD113F0020FF9D0114B7A
S2144011E01B6B0360114A136804331360104A11885E
S2144011F0104A128802FB01F2934211D309490A4A67
S2144012000B6C134208D113F0006FF9D0012008BDD3
S214401210094B9847002008BD074B9847002008BD5B
S214401220012008BD00000840000060C09404002073
S2144012308E04002090040020C10E4000154B1B88F1
S21440124003FB01F110F0030F02D113F0030F1BD084
S214401250114A536843F4005353600F4BC3F80001E0
S2144012605B6813F4005F0CBF8B080B460A4AC2F853
S21440127004310023C2F814310120C2F82001074A85
S21440128013680B4413607047034A536823F40053B3
S2144012905360E2E78E0400200000084094040020DB
S2144012A008B51549154A0B6C134216D113F4804FF6
S2144012B0F9D0134B1A88134B1B8803FB02F3124AD0
S2144012C01268934216D80C490C4A0B6C13420DD147
S2144012D013F0006FF9D0012008BD40F20222064B01
S2144012E0C3F82021094B9847002008BD074B984774
S2144012F0002008BD012008BD00000840000060C076
S2144013008E0400209004002094040020C10E40006B
S214401310FEE7000000B583B0254B264A9A4210D01F
S214401320254B234A9A420CD2013B9B1A23F00303D7
S214401330043313441F4951F8040B42F8040B9A42F5
S214401340F9D11E4B1E4A9A420AD2013B9B1A23F001
S214401350030304331344002142F8041B9342FBD199
S214401360184A194B23F07F039360EFF31083B3FAC8
S21440137083F35B09019372B6BFF35F8F0022134B72
S2144013801A700199124A136843F470031360BFF34E
S2144013904F8FBFF36F8F29B101220C4B1A70BFF3EA
S2144013A05F8F62B60B4B98470B4B9847FEE700BFE4
S2144013B000000020681F4000340400205405002030
S2144013C03404002000ED00E0000040000000002053
S2144013D088ED00E02D1C40005D1540003B4B1B6B2C
S2144013E003F00303012B1DD083B1022B36D0374BBD
S2144013F01B6B03F07003702B5FD0344B1A6B344971
S214401400C2F302120B68D3400B607047314B5B69E6
S21440141013F0800F14BF4FF400424FF4FA422C4BA7
S2144014201A60E4E7294B1B6A13F0807F03D02A4AF0
S214401430274B1A60DBE7294A254B1A60234B1B6A69
S21440144003F07003102B05D0202BD0D1224A204B1E
S2144014501A60CCE7224A1E4B1A60C8E71B4B1B6A31
S21440146013F0807F16D01C4A194B1A60174B1B6B23
S21440147003F00303022BBAD1144A916A926A1448C5
S214401480C1F30A41036801FB0333D2B2B3FBF2F364
S2144014900360ACE7114A0E4B1A600C4B1B6A03F014
S2144014A07003102B05D0202BE0D10B4A084B1A6056
S2144014B0DCE70B4A064B1A60D8E7054A1368094929
S2144014C0A1FB03135B081360704700BF00040E4087
S2144014D00400002010180E40001BB70000093D0015
S2144014E000127A00ABAAAAAA124B984211D9124B04
S2144014F0984213D9114B984214D9114B984215D99A
S214401500104B984294BF4FF004220F4A0F4B1A607C
S21440151070474FF080620D4B1A6070470C4A0B4B79
S2144015201A6070470B4A094B1A6070470A4A074BC5
S2144015301A607047FF2C3101FF596202FF86930301
S214401540FFB3C404FFE0F50500050004000A0E40A2
S21440155000010004000200040003000408B5024B2A
S2144015609847024CA047FDE785024000A90240008C
S21440157010B50E480E4B98473E2100200D4B98471D
S2144015800D4CA0470028FCD00C4B98470C4A0D4BFE
S2144015909A620D4CA0470028FCD010200B4B984771
S2144015A00B4B98470B48024B984710BD000E270739
S2144015B0E9144000B1194000051A4000151A4000D1
S2144015C0013F0F2000040E40251A40004D194000F0
S2144015D0DD13400000D8B8052DE9F84381460F4694
S2144015E0124B984705464846114B9847054013D03E
S2144015F0104C04F1600603E0B4420DD010345DB1E7
S2144016002068B842F8D161682942F5D0E368984727
S214401610636825EA0305EFE7074B1B6823B1074BD2
S2144016201B680BB148469847BDE8F883431940000D
S21440163047194000980400202C050020080500208B
S21440164008B509210148024B984708BD000E0E40D8
S214401650D915400008B50A210148024B984708BDF5
S21440166000100E40D915400008B50B210148024B2A
S214401670984708BD00120E40D915400008B50C2109
S2144016800148024B984708BD00140E40D91540004B
S21440169008B50D210148024B984708BD00160E407C
S2144016A0D91540000B680A791AB330B4DBB200EBA8
S2144016B04312D2F80042CD7924F4702444EA05441B
S2144016C0C2F800424C792CB3CC6844F00054C2F8BF
S2144016D004420C6944F00054C2F80842D2F8003282
S2144016E0097923F0E06343EA0163C2F8003230BC74
S2144016F07047DBB200EB43100023C0F80032C0F85E
S2144017000432C0F80832C0F81432C0F81832C0F8B4
S2144017101C327047CC68C2F804420C6900EB431395
S214401720C3F80842DAE70B7800EB4312D2F81022EF
S2144017308A6012F4000F28D010B44A79FAB10A69C8
S21440174042F0005200EB4314C4F808228C6900EBC8
S2144017504312C2F814428A79042A04D9CC6900EBB1
S2144017604312C2F818428A79120402F4702200EB3F
S2144017704310C0F81C2200205DF8044B70470C69EB
S21440178000EB4312C2F80842E0E701207047000031
S21440179070B588B0064600248DF80440044D009489
S2144017A069463046A8470134082CF8D108B070BDC9
S2144017B0A5164000F8B546F2A81303FB02F40B1931
S2144017C0013BB3FBF4F3802B66D84FF4FA5404FB8A
S2144017D002F4B4EB510F61D84FF47A7303FB02F274
S2144017E008274FF0FF363B4604E00133DBB2144493
S2144017F01A2B0CD0B1FBF4F5802DF6D804FB15154A
S214401800B542F2D215B12E461F46EEE71F4602FB02
S21440181007F2B1FBF2F1CBB2012B41D90446A7F156
S2144018200802036823F0010303601E4D5600B718F4
S21440183005EB4707BB78013B1B0103F07003787844
S2144018400138000200F4E0600343F878013800F005
S214401850070003433A79013A120302F44052134315
S214401860CAB2013A120402F4FE02134363612046F0
S2144018700D4B9847236843F00103236000230B4930
S2144018802269013312F4001F01D18B42F8D1074878
S214401890181A18BF0120F8BD0020F8BD0020F8BD7A
S2144018A00020F8BDD41E400091174000A0860100DD
S2144018B04264B1F1C05F3AD013D8B1F1006F25D081
S2144018C0B1F1805F0AD1036F13430367436F416FE3
S2144018D00B4023EA02034367426070470029FBD16E
S2144018E07047B1F1205F21D009D8B1F1005FF3D144
S2144018F0036F13430367436F13434367ECE7B1F14A
S214401900405F13D0B1F1605F10D0E5E710B4016FCF
S214401910046FD34321401C4619400167436F416F13
S2144019200B402340436742605DF8044B7047036FAB
S214401930016F0B4023EA02030367436F1343436779
S214401940CAE7C06C7047806C70470000174A136B3C
S21440195023F0700318431063936E13F0080F0AD1F8
S2144019604FF4006311498A6E12F0080F03D1013B11
S214401970F9D1012070470D4A136B23F0030343F05F
S21440198002031363936E13F0080F0AD14FF40063FB
S21440199006498A6E12F0080F05D1013BF9D10120A5
S2144019A07047002070470020704700BF00040E407C
S2144019B0C8B9114A136A090289B223F45C1323F0AA
S2144019C0030343F45C1343F001030B431362936E2B
S2144019D013F0010FFBD0084A136A43F09B7343F49D
S2144019E080331362704704490B6A044A1A40044B1A
S2144019F013430B62704700BF00040E40FCFFC8FE56
S214401A0002003701024B986E00F48030704700BFEA
S214401A1000040E404FF00052014B9A62704700BFE0
S214401A2000040E40024B986E00F00200704700BF64
S214401A3000040E402F281ED81F280CD8114B9A6938
S214401A4001238340934318D0012303FA00F00D4B43
S214401A5018610020704720380A4BD3F8082101232C
S214401A60834093430BD0012303FA00F0054BC3F8A1
S214401A70000100207047012070470020704700207A
S214401A80704700BF00040E402A4B99424AD8A3F53F
S214401A907A5399422CD910B4274CA4FB0234A40B99
S214401AA0043C264B0B449B00B2FBF3F2043AFF2C5B
S214401AB03AD9002101316408FF2C0ED90729F9D103
S214401AC013029BB2090401F4E0210B43E4B2234322
S214401AD0036100205DF8044B7047FF2AF0D90629C1
S214401AE0EED801315208FF2AEAD90629F9D9E7E7A4
S214401AF04900B2FBF1F2043AFF2A11D90023013320
S214401B005208FF2A01D9072BF9D1110289B21B04CA
S214401B1003F4E0230B43D2B21A430261002070471D
S214401B200023F2E701207047FF2A88BF0021D8D85B
S214401B300021C5E7801A0600F11976050012FD3F20
S214401B4038B504460D464FF0FF338362036A802360
S214401B500360036B082303602023036004230360B1
S214401B600A684968054B9847012814BF00200120A1
S214401B706B7A012B04BF4023236038BD891A40008E
S214401B800A4659B103780129C4BF417841EA032384
S214401B90022A04DD827842EA032300E00023184646
S214401BA07047000070B5CD68002D35D00B46044612
S214401BB08E68002060600A7C120402F4FE024968C7
S214401BC0090201F440710A436260E06059681846B1
S214401BD0154B9847E060236A13F4807F06D00525AE
S214401BE01BE05DB1236A13F4807F18D113F0040F15
S214401BF0F7D033786363013D0136F2E7236A13F486
S214401C00807F0ED113F0040FF8D002232360236A9E
S214401C1013F0010FFBD000E00125284670BD0525D6
S214401C20FBE70525F9E700BF811B400070B50F4E66
S214401C300F4D761BB61018BF002405D0013455F85A
S214401C40043B9847A642F9D10A4E0B4D761B00F04E
S214401C5079F9B61018BF002406D0013455F8043B75
S214401C609847A642F9D170BD70BD00BF501F4000D6
S214401C70501F4000581F4000501F400070B4860759
S214401C8046D0541E002A41D0CAB2034602E014F1A0
S214401C90FF343BD303F8012B9D07F8D1032C2ED9F4
S214401CA0CDB245EA05250F2C45EA054519D903F17D
S214401CB010022646103E0F2E42F8105C42F80C5C8E
S214401CC042F8085C42F8045C02F11002F2D8A4F133
S214401CD0100222F00F0204F00F041032032C1344BB
S214401CE00DD91E462246043A032A46F8045BFAD823
S214401CF0221F22F003020432134404F003042CB1E2
S214401D00C9B21C4403F8011B9C42FBD170BC70470F
S214401D1014460346C2E700BF024B13B1024800F028
S214401D2005B8704700000000391D400000230146FA
S214401D301A46184600F01EB838B50A4C0A4D641BC1
S214401D40A4100AD004F18043013B05EB8305013C17
S214401D5055F804399847002CF9D1BDE8384000F0D2
S214401D60FBB800BF681F4000641F4000704700BFBC
S214401D70704700BF2DE9F8432C4D06462868984624
S214401D800F469146FFF7F2FF294B1C68D4F84831BE
S214401D90002B3ED05A681F2A1CDC02F1010E76B199
S214401DA003EB82010124C1F88890D3F8880194405F
S214401DB02043022EC3F88801C1F8088123D002329E
S214401DC0C3F804E0286843F82270FFF7D1FF0020EC
S214401DD0BDE8F883174B0BB34FF4C870AFF30080E1
S214401DE00346D8B1D4F848210260002141600A4633
S214401DF0C4F848014FF0010EC0F88811C0F88C11A5
S214401E00002EDCD0CCE7D3F88C110C43C3F88C41C1
S214401E10D5E704F5A673C4F84831BBE72868FFF752
S214401E20A7FF4FF0FF30BDE8F88300BF3004002026
S214401E30401F400000000000000000000A000000B4
S214401E400C0000000D0000000F0000001400000011
S214401E501A0000001E0000002300000028000000BA
S214401E602D00000034000000370000003C00000059
S214401E7046000000500000000A0000006400000019
S214401E80E8030000102700000000000000000000EB
S214401E9000000000000000000A0000000C000000E7
S214401EA00D0000000F0000001400000019000000A4
S214401EB01E00000023000000280000002D00000047
S214401EC032000000370000003C00000046000000E2
S214401ED05000000008030202034B090203030243BA
S214401EE00A03030303460B04030304480C030404D9
S214401EF004430D040404044D0E04040504400F047A
S214401F000505044310050505044511060505044767
S214401F10120506060443130606060444140706067E
S214401F20044615080606044716070707044417081C
S214401F300807044618070808044319080808044414
S214401F4008000020F8B500BFF8BC08BC9E467047A5
S214401F50191D40001D014000F8B500BFF8BC08BC84
S20C401F609E467047F900400060
S214401F680100000000093D0000000000F4020020C7
S214401F785C030020C40300200000000000000000AE
S214401F880000000000000000000000000000000004
S214401F9800000000000000000000000000000000F4
S214401FA800000000000000000000000000000000E4
S214401FB800000000000000000000000000000000D4
S214401FC800000000000000000000000000000000C4
S214401FD800000000000000000000000000000000B4
S214401FE800000000000000000000000000000000A4
S214401FF80000000000000000000000000000000094
S2144020080000000000000000000000000000000083
S21440201801000000000000000E33CDAB34126DE620
S214402028ECDE05000B000000000000000000000089
S2144020380000000000000000000000000000000053
S2144020480000000000000000000000000000000043
S2144020580000000000000000000000000000000033
S2144020680000000000000000000000000000000023
S20840239830050020A7
S80440131593
