S00B000061726D2E73726563D9
S2144000005835002081274000F1264000F126400068
S214400010F1264000F1264000F12640000000000096
S214400020000000000000000000000000F126400034
S214400030F126400000000000F1264000F126400076
S214400040F1264000F1264000F1264000F12640000F
S214400050F1264000F1264000F1264000F1264000FF
S214400060F12640004D2E4000652E40007D2E40007B
S214400070952E4000AD2E4000F1264000F12640006F
S214400080F1264000F1264000F1264000F1264000CF
S214400090F1264000F1264000F1264000F1264000BF
S2144000A0F1264000F1264000F1264000F1264000AF
S2144000B0F1264000F1264000F1264000F12640009F
S2144000C0F1264000F1264000F1264000F12640008F
S2144000D0F1264000F1264000F1264000F12640007F
S2144000E0F1264000F1264000F1264000F12640006F
S2144000F0F1264000F126400010B5054C237833B970
S214400100044B13B10448AFF300800123237010BDA5
S2144001103C04002000000000C44040000C4B43B1AB
S2144001200C480D4910B5AFF300800C48036823B95E
S21440013010BD0A48036833B97047094B002BF7D007
S214400140BDE810401847064B002BF5D0184700BFB7
S21440015000000000C440400040040020C44040006E
S2144001600000000080B483B000AF78607B68072B47
S21440017025D801A252F823F0990140009F01400083
S214400180A5014000AB014000AF014000B301400074
S214400190B7014000BB0140004FF4FA4310E04FF473
S2144001A000430DE04FF400430AE0084B08E0084BDC
S2144001B006E0084B04E0074B02E0064B00E0002355
S2144001C018460C37BD465DF8047B704700093D0075
S2144001D000127A00001BB70080B500AF0620034B24
S2144001E0984703461B01184680BD00BF6501400086
S2144001F080B500AF024B984703465B08184680BD63
S214400200D901400080B500AF024B984703465B08D3
S214400210184680BDD901400080B582B000AF7860F6
S2144002207868034B984700BF0837BD4680BD00BF7F
S214400230D536400080B582B000AF78603960104B4C
S214400240984702463B681A603B6800225A727B68B1
S2144002500C4A934203D111200B4B984706E07B682B
S2144002600A4A934202D11220074B98473968786869
S214400270074B9847034618460837BD4680BD00BF23
S2144002800502400000800A401902400000C00A40B3
S2144002908137400080B500AF034B9847034B9847E3
S2144002A0034B984700BF80BDB1034000E5034000C4
S2144002B0F503400080B58AB000AFBA607B60034665
S2144002C0FB730B46BB73FB7B87F82430BB7B3B75CD
S2144002D00123BB61BB68FB617B683B6207F114038B
S2144002E019460448044B9847034618462837BD46E7
S2144002F080BD00BF00800A40353940000000000045
S214400300F0B583B000AF78607B68002B26D07B6862
S2144003101D464FF00006224B984703464FF0000418
S21440032003FB06F105FB04F20A44A5FB0334224412
S214400330144643F2AF614FF000025D1844EB0206EC
S21440034028463146174C43F2B0624FF00003A047B0
S21440035003460C461846144B984716E0104B9847F1
S21440036003464FF000040CA2D2E900125D1844EB9D
S2144003700206284631460B4C0C4A4FF00003A04775
S21440038003460C461846084B984700BF0C37BD46F8
S214400390F0BD00BFAFF300807F9FD5000000000097
S2144003A0F1014000313A400001000020809FD50016
S2144003B080B584B000AF3B1D00221A605A609A6038
S2144003C0054BBB603B1D19460448054B984700BF8C
S2144003D01037BD4680BD00BF801A060000800A4028
S2144003E03502400080B400AF00BFBD465DF8047BD8
S2144003F07047000080B582B000AF0920104B984788
S2144004004FF07C424FF0C0510E480F4B98470F4B71
S214400410984700200E4B98470346FB71FB79012B0B
S21440042006D100BF00200B4B98470346022BF9D15C
S214400430FB79002BEDD100BF0837BD4680BD00BF1D
S21440044019024000000E0E40693340003D1940003E
S214400450211A40008119400080B483B000AF786014
S2144004607B68072B25D801A252F823F08D04400064
S21440047093044000990440009F044000A3044000B9
S214400480A7044000AB044000AF0440004FF4FA43DA
S21440049010E04FF400430DE04FF400430AE0084BF1
S2144004A008E0084B06E0084B04E0074B02E0064B2A
S2144004B000E0002318460C37BD465DF8047B7047C5
S2144004C000093D0000127A00001BB70080B500AF5F
S2144004D00620034B984703461B01184680BD00BFC5
S2144004E05904400080B500AF024B984703465B086E
S2144004F0184680BDCD04400080B582B000AF1B4B8F
S2144005009847786026201A4B98474FF47A72796855
S2144005101848194B98471748184B9847184B0022CD
S2144005201A60174B03221A71154B0F22DA71144BBF
S21440053000225A71124B0022DA6011490D48114BC5
S21440054098470F4B4FF4E0121A610D4B0E4A9A61D2
S2144005500B4B0E4ADA610A4B08229A710849054845
S2144005600B4B984700BF0837BD4680BDE5044000AA
S214400570D53640000040014015304000253340004D
S21440058000050020473140007856341221436587E5
S2144005906D32400080B500AF01210248024B9847BB
S2144005A000BF80BD00400140F530400080B500AF40
S2144005B0064B3C221A70054B054A5A60034B054AC7
S2144005C09A600248044B984700BF80BD2005002033
S2144005D0B502400001034000DD05400080B582B012
S2144005E000AF78607B68002B03D07B685B68002B8D
S2144005F001D1012303E07868034B9847002318464F
S2144006000837BD4680BD00BF6D06400090B583B03C
S21440061000AF78600B46FB707B685C687B68187838
S214400620FA1C01238021A0470346002B01D0022359
S21440063000E0002318460C37BD4690BD90B583B009
S21440064000AF78600B46FB707B685C687B68187808
S214400650FA1C01234021A0470346002B01D0022369
S21440066000E0002318460C37BD4690BD80B584B0E8
S21440067000AF78600023FB600023BB60204AFB6825
S21440068012F81330042B2ED801A252F823F000BFE4
S214400690E7064000E1064000A5064000B9064000D7
S2144006A0CD064000164AFB685B0013445B7819464B
S2144006B07868144B984717E0114AFB685B00134470
S2144006C05B7819467868104B98470DE07B689A68C7
S2144006D00B49FB685B000B445B781846904703E089
S2144006E00123BB6000E000BFFB680133FB60BB68D2
S2144006F0002BC3D0002318461037BD4680BD00BF30
S2144007004C3F40000D0640003D06400080B500AF1F
S214400710054B9847054B9847054B9847054B9847D8
S214400720054B984700BF80BD092D4000051E400080
S21440073095024000F9044000AD05400080B582B007
S21440074000AF9923FB71034B984700BF0837BD465F
S21440075080BD00BF9505400080B487B000AFF8600C
S214400760084611461A4603467B810B463B81134694
S214400770FB717A893B89D31A0733002B00DA07339B
S214400780DB10013BFA6813441B781A463B8903F09A
S214400790070342FA03F37B613B8903F00702FB79C8
S2144007A01344082B16DD7A893B89D31A0733002B6E
S2144007B000DA0733DB10023BFA6813441B781A460C
S2144007C03B8903F00703C3F1080302FA03F37A698F
S2144007D013437B613B8903F00702FB791344102BDC
S2144007E016DD7A893B89D31A0733002B00DA0733A4
S2144007F0DB10033BFA6813441B781A463B8903F028
S2144008000703C3F1100302FA03F37A6913437B61CB
S2144008103B8903F00702FB791344102B16DD7A89D7
S2144008203B89D31A0733002B00DA0733DB10033B30
S214400830FA6813441B781A463B8903F00703C3F152
S214400840100302FA03F37A6913437B61FB790122B2
S21440085002FA03F3013B7A6913407B617B691846D1
S2144008601C37BD465DF8047B7047000080B582B0FB
S21440087000AF41F268037B60174944F20150174BC2
S2144008809847034683F00103DBB2002B01D00023D8
S2144008901EE0134B984738603B68002B0FDA3B68E6
S2144008A003F0C043B3F1804F10D10E4B1B680D4A86
S2144008B01268D27A42F00802D2B2DA7206E07B6858
S2144008C05A1E7A60002BD7D1002301E000BF0123D7
S2144008D018460837BD4680BD00801F403123400083
S2144008E0752340007C04002080B586B000AF0346E8
S2144008F0FB7140F634033B61002141F23710214B37
S2144009009847034683F00103DBB2002B01D0002357
S21440091034E04FF4FC137B61FB79002B03D07B69FA
S21440092043F080437B61796944F22950154B9847E0
S214400930034683F00103DBB2002B01D000231DE009
S214400940114B9847F860FB68002B0EDAFB6803F003
S2144009508043002B10D00D4B1B680C4A1268D27A8D
S21440096042F00802D2B2DA7206E03B695A1E3A6199
S214400970002BC1D1002301E000BF012318461837E1
S214400980BD4680BD31234000752340007C040020D6
S21440099080B582B000AF002144F20550234B984703
S2144009A0034683F00103DBB2002B01D0012339E07C
S2144009B01F4B984778607B6803F0E043002B01D1DB
S2144009C001232FE041F288333B607B6803F4FC133D
S2144009D0194644F20550154B9847034683F00103E9
S2144009E0DBB2002B01D000231CE0114B9847786007
S2144009F07B68002B06DB3B685A1E3A60002BE4D12E
S214400A0000230FE000BF7B6803F00063002B04D098
S214400A10084B1B680522DA7203E0064B1B6804226B
S214400A20DA72012318460837BD4680BD31234000A0
S214400A30752340007C04002090B58BB002AF09239C
S214400A40BB610023BB750FE0BB7D3A461344009361
S214400A500023BA6900210020464CA047BB690133F9
S214400A60BB61BB7D0133BB75BB7D032BECD93B78AB
S214400A701A467B781B021A44BB781B041A44FB7840
S214400A801B061344BB61BB69FB610023BB750FE0CB
S214400A90BB7D3A1D134400930023FA6900210020D1
S214400AA0344CA047FB690133FB61BB7D0133BB750A
S214400AB0BB7D022BECD93B79FF2B01D1002355E0BF
S214400AC03B79222B02D1BB79002B12D07B79002BAD
S214400AD001D100234AE07B791A46FB691344013B67
S214400AE0FB61BB6903F58072FB699A42CDD2002355
S214400AF03CE000BFFB69033BFB610023BB750FE096
S214400B00BB7D3A1D134400930023FA690021002060
S214400B10184CA047FB690133FB61BB7D0133BB75B5
S214400B20BB7D052BECD97B7AFB75FB7D322B01D93F
S214400B303223FB75FB7D03F007030F4A52F8233040
S214400B403B61FB7DDB08DBB203F00F030B4A52F838
S214400B502330FB600A4B1B683A69F96801FB02F2D6
S214400B604FF47A7101FB02F21A60012318462437CB
S214400B70BD4690BD091240008C3F4000A83F400053
S214400B807C04002090B585B002AFFB1D0093002387
S214400B90082200210020154CA047034683F001039D
S214400BA0DBB2002B01D000231CE0FB795BB2002BAC
S214400BB001DB012316E00223FB71FB1D009301239A
S214400BC0072200210120094CA047034683F0010379
S214400BD0DBB2002B01D0002304E0054B1B68042247
S214400BE05A73012318460C37BD4690BD0912400083
S214400BF07C04002090B585B002AFFB1D0093002317
S214400C00132200210020194CA047034683F001031D
S214400C10DBB2002B01D0002324E0FB7903F0010374
S214400C20002B01D101231DE00223FB71FB1D009325
S214400C3001231322002101200C4CA047034683F0D9
S214400C400103DBB2002B01D000230BE0084B1B68EE
S214400C5001229A77064B1B68054A126812685200B2
S214400C601A60012318460C37BD4690BD0912400055
S214400C707C04002090B593B002AF3B464022002152
S214400C8018462F4B984701230093012340222D49B5
S214400C902D482E4CA047034683F00103DBB2002BC1
S214400CA001D0002347E03B4601211846284B984791
S214400CB0034683F00103DBB2002B01D000233AE069
S214400CC0244B9847034683F00103DBB2002B01D048
S214400CD0002330E0204B9847034603F08003002B68
S214400CE001D0002327E0384604234FF4BC724FF46B
S214400CF000711A4CA04703460F2B01D101231AE07E
S214400D00384610234FF488724FF40071134CA047B6
S214400D100346002B01D000230DE0114B9847114BA2
S214400D201B6801229A770F4B1B680E4A126812689E
S214400D3052001A60012318464437BD4690BD00BF96
S214400D40913D400001FFFF8006110800FD23400052
S214400D50C1254000612640007523400059074000E9
S214400D60F52240007C04002080B584B000AF0346E6
S214400D70FB71FB79042B04D0082B05D1134BFB6089
S214400D8005E0134BFB6002E0124BFB6000BFF968C6
S214400D9043F20610104B9847034683F00103DBB23C
S214400DA0002B01D000230DE00C4B9847034603F080
S214400DB08003002B01D0002304E0094B1B68FA791E
S214400DC05A73012318461037BD4680BD0002B7014E
S214400DD00001B7010000B7013123400075234000F1
S214400DE07C04002080B500AF104943F20610104B3B
S214400DF09847034683F00103DBB2002B01D0002363
S214400E0011E00C4B9847034603F08003002B01D0BB
S214400E10002308E0084B1B6801229A77064B1B68A4
S214400E20064A1A600123184680BD00BF0001B90378
S214400E3031234000752340007C04002000751903D0
S214400E4080B584B000AF78607B6800221A704FF49B
S214400E50D57145F20850114B9847034683F001037D
S214400E60DBB2002B01D0012314E00D4B9847F8600D
S214400E70FB68B3F1FF3F01D101230BE0FB68C3F3EE
S214400E800B03B3F5D57F01D0002303E07B68012236
S214400E901A70012318461037BD4680BD31234000E6
S214400EA07523400090B589B002AF78600023009368
S214400EB001234FF4007200213348344CA0470346C8
S214400EC083F00103DBB2002B01D0002358E000235F
S214400ED0FB820FE007F1100318462D4B9847034658
S214400EE083F00103DBB2002B01D0002348E0FB8AED
S214400EF00133FB82FB8A312BECD93B69DBB203F032
S214400F000203DAB27B681A70224B1B6803F10E00AC
S214400F100C233E228021204CA047024640F6FF7319
S214400F209A4229D10FE007F10C031846184B984710
S214400F30034683F00103DBB2002B01D000231FE001
S214400F40FB8A0133FB82FB8A352BECD9114B1B689D
S214400F50FA6852085A600FE007F10C0318460C4B2B
S214400F609847034683F00103DBB2002B01D00023F1
S214400F7006E0FB8A0133FB82FB8A7F2BECD90123F8
S214400F8018461C37BD4690BD08110800FD2340009A
S214400F90252540007C0400205907400080B500AF5E
S214400FA00C4B1B681B891B04194641F609300A4B3B
S214400FB09847034683F00103DBB2002B01D00023A1
S214400FC006E0044B1B680E331846044B9847012333
S214400FD0184680BD7C040020312340008D2340000D
S214400FE0B0B584B000AF484B1B6803F10E00042335
S214400FF07A228021454CA0470346013B032B0BD861
S21440100001A252F823F000BF231040002D104000EC
S21440101037104000411040003B4B1B6812221A73A9
S21440102013E0394B1B6814221A730EE0364B1B68CC
S21440103022221A7309E0344B1B6830221A7304E0EC
S214401040314B1B6840221A7300BF2F4B1B6803F1BD
S2144010500E000823602280212C4CA047F860FB68D5
S21440106003F007032A4A52F82330BB60FB68DB08CC
S21440107003F00F03274A52F823307B60224B1B684D
S214401080BA68796801FB02F24FF47A7101FB02F20A
S2144010901A601D4B1B6803F10E000C233E22802174
S2144010A01A4CA047024640F6FF739A4228D0164B89
S2144010B01B6803F10E000C233E228021134CA047F0
S2144010C003465C1C104B1B6803F10E0003232F22C3
S2144010D080210E4DA8470346023304FA03F33B60D3
S2144010E0094B1C68084B1B6803F10E000423502272
S2144010F08021064DA84702463B6893409B0A6360A2
S21440110000BF1037BD46B0BD7C04002059074000E4
S2144011108C3F4000E83F4000B0B584B000AF364B4F
S2144011201B6803F10E00082360228021334CA04741
S214401130F860FB6803F00703314A52F82330BB607F
S214401140FB68DB0803F00F032E4A52F823307B601F
S214401150294B1B68BA68796801FB02F24FF47A7132
S21440116001FB02F21A60244B1B6803F10E000223B7
S2144011707E228021214CA0470346002B0FD01E4BD9
S2144011801C681D4B1B6803F10E001623302280217D
S2144011901A4DA847034601335B02636028E0164BAE
S2144011A01B6803F10E000C233E228021134CA047FF
S2144011B003465C1C104B1B6803F10E0003232F22D2
S2144011C080210E4DA8470346023304FA03F33B60E2
S2144011D0094B1C68084B1B6803F10E000423502281
S2144011E08021064DA84702463B6893409B0A6360B1
S2144011F000BF1037BD46B0BD7C04002059074000F4
S2144012008C3F4000A83F400080B582B000AF3A60B7
S2144012101A460346FB710B46BB7113467B713B690E
S2144012201B781A46FB79DB071A43BB791B071A4320
S2144012307B79DB061A433B685B021343194641F24F
S21440124034300A4B9847034683F00103DBB2002B49
S21440125001D0002306E0064B98470346DAB23B69C6
S2144012601A70012318460837BD4680BD312340001A
S2144012707523400080B500AF124B1B681B891B04CA
S214401280194641F23710104B9847034683F0010346
S214401290DBB2002B01D0002311E0022141F2061000
S2144012A0094B9847034683F00103DBB2002B01D07D
S2144012B0002304E0034B1B6804225A73012318469C
S2144012C080BD00BF7C0400203123400090B585B02F
S2144012D002AF364B1B681B891B04194641F2371078
S2144012E0334B9847034683F00103DBB2002B01D013
S2144012F0002357E0012300930123082200212D48B4
S2144013002D4CA047034683F00103DBB2002B01D0EF
S214401310002347E03B4601211846284B98470346A2
S21440132083F00103DBB2002B01D000233AE0244BCC
S2144013309847034683F00103DBB2002B01D000231D
S21440134030E038460423382240211E4CA04703464E
S214401350012B09D0012B02D3022B0AD01CE0134BE1
S2144013601B6810221A731CE0104B1B681A221A7353
S21440137017E0384601232F224021124CA04703464F
S214401380012B04D1094B1B6830221A7309E0074B26
S2144013901B6820221A7304E0044B1B6810221A7341
S2144013A000BF012318460C37BD4690BD7C04002084
S2144013B03123400033110800FD234000C125400082
S2144013C0612640005907400080B582B000AF034612
S2144013D0FB71FB79002B01D0042340E0FB79224AC5
S2144013E05B0113440A331B78042B07D0FB791E4A53
S2144013F05B0113440A331B78032B1AD1FB791A4A34
S2144014005B0113440A3302221A70FB79164A5B01C9
S2144014101344164A1A60FB79134A5B0113440D3392
S21440142001221A70FB79104A5B0113441E330022D6
S2144014301A700F4AFB791370FB795B010A4A134412
S2144014400C4A13600C4B9847FB79074A5B011344E0
S2144014500A331B78022B0CBF01230023DBB218464D
S2144014600837BD4680BD00BF58040020801A0600DD
S214401470780400207C0400207D14400098B500AF1E
S214401480094B1878094B1B681968084B1B685A7B30
S214401490064B1B689B7F002B14BF01230023DBB247
S2144014A0034CA04700BF98BD780400207C04002071
S2144014B04522400080B500AF054B1B78002B04D179
S2144014C0034B1B781846034B984700BF80BD00BFB0
S2144014D078040020DD22400090B585B002AF00239E
S2144014E0FB710823BB719A4B1B680122DA72984B3A
S2144014F01B6800221A73964B1B6800221A81954B74
S2144015009847BB1D00930023062200210120924CE1
S214401510A04700214FF48040904B9847034683F005
S2144015200103DBB2002B01D000230DE1FB1D184662
S2144015308B4B9847034683F00103DBB2002B01D068
S214401540002301E1874B9847034683F00103DBB253
S214401550002B01D00023F7E07D4B1B68DB7A03F0BD
S2144015600103002B11D0FB7918467F4B9847034662
S21440157083F00103DBB2002B07D0754B1B680222B9
S214401580DA727A4B98470346DEE0714B1B68DB7A8B
S21440159003F00103002B0CD0002145F602306F4BC0
S2144015A09847034683F00103DBB2002B01D00023AB
S2144015B0CAE0002145F20310684B9847034683F083
S2144015C00103DBB2002B01D00023BDE0604B1C685A
S2144015D0674B984703461B0C9BB223815C4B1B68AA
S2144015E0DB7A03F00103002B0BD0624B984703468F
S2144015F083F00103DBB2002B01D00023A4E05E4B56
S2144016009847534B1B681B891B04194643F2071027
S214401610524B9847034683F00103DBB2002B01D0C0
S214401620002391E04A4B1B68DB7A03F00103002B52
S21440163009D0524B9847034683F00103DBB2002B98
S21440164001D0002380E0424B1B68DB7A03F00403A2
S214401650002B09D04A4B9847034683F00103DBB280
S214401660002B01D000236FE0464B1B781846464BB4
S21440167098470346032B23D9354B1B68DB7A03F088
S2144016800403002B09D0414B9847034683F00103DF
S214401690DBB2002B01D0002356E02D4B1B68DB7AD3
S2144016A003F00103002B09D0394B9847034683F0DB
S2144016B00103DBB2002B01D0002345E0354B9847B1
S2144016C0354B98470346002B28D0214B1B68DB7AC6
S2144016D003F00403002B09D0304B9847034683F0B1
S2144016E00103DBB2002B01D000232DE0184B1B6812
S2144016F0DB7A03F00103002B0ED0154B1B681B7BD7
S214401700102B09D9264B9847034683F00103DBB2DA
S214401710002B01D0002317E01E4B98470C4B1B684C
S214401720DB7A03F00103002B0DD04FF4007141F239
S21440173010100A4B9847034683F00103DBB2002B98
S21440174001D0002300E0012318460C37BD4690BD6B
S2144017507C040020F522400009124000312340005E
S214401760410E400091094000E9084000A51740009E
S214401770752340009D0F400019114000CD124000D7
S214401780390A40007804002011224000850B4000B2
S214401790751240007D14400033224000F50B400097
S2144017A0750C400080B582B000AF00214FF48040F9
S2144017B0564B9847034683F00103DBB2002B01D01B
S2144017C000239FE0524B9847034683F00103DBB269
S2144017D0002B01D0002395E0002145F602304B4B0C
S2144017E09847034683F00103DBB2002B01D0002369
S2144017F088E0484B1B6801221A81464B1B681B89B0
S2144018001B04194641F20310404B9847034683F0A9
S2144018100103DBB2002B01D0002373E03E4B984718
S214401820034683F00103DBB2002B01D0002369E0BE
S2144018303A4B9847374B1B681B891B04194643F2A3
S2144018400710324B9847034683F00103DBB2002B68
S21440185001D0002356E02F4B1B681B7B3F2B3BD908
S214401860BB1D18462E4B9847034683F00103DBB258
S214401870002B01D0002345E02A4B1B7818462A4B04
S21440188098470346032B12D9264B1B781846264BFF
S214401890984703461846254B9847034683F001036E
S2144018A0DBB2002B01D000232CE0214B9847214B84
S2144018B098470346002B11D0BB79002B0ED01E4B09
S2144018C09847034683F00103DBB2002B01D0002388
S2144018D018E0174B984701E0154B98470A23FB71D1
S2144018E00AE04FF4007141F21010084B9847034647
S2144018F0002B01D0012305E0FB795A1EFA71002B1C
S214401900EFD1002318460837BD4680BD312340003E
S2144019106D0840007C0400209D0F4000E10F400011
S214401920A50E40007804002011224000690D4000BA
S2144019307D14400033224000E50D400080B582B063
S21440194000AF0023FB7109E0FB790A4A5B011344B0
S2144019500A3304221A70FB790133FB71FB79002BA2
S214401960F2D0054BFF221A70044B984700BF083749
S214401970BD4680BD5804002078040020D921400090
S21440198080B584B000AF0346FB71FB791846114B17
S21440199098470346FB73FB7B012B03D00E4B9847BF
S2144019A0FB7B13E00D4B98470346002B07D00C4BB0
S2144019B01B6800229A72084B9847012306E0084BA2
S2144019C01B6803229A72044B984703231846103725
S2144019D0BD4680BDC9134000B5144000D914400030
S2144019E07C04002080B582B000AF0346FB71FB79D3
S2144019F01846084B98470346002B01D0002304E0C6
S214401A00054B9847054B1B68DB7A18460837BD469A
S214401A1080BD00BFC9134000B51440007C040020C0
S214401A2080B582B000AF0346FB71FB791846154B74
S214401A3098470346012B17D0022B17D0002B1BD1FB
S214401A40FB79114AD35C002B01D0022315E0FB79C9
S214401A5018460E4B9847034603F00303002B01D06D
S214401A6000230AE0022308E0032306E0FB79064A47
S214401A700021D154022300E0012318460837BD4612
S214401A8080BD00BF8119400080040020E519400059
S214401A9080B582B000AF78607868034B984700BF47
S214401AA00837BD4680BD00BFD536400080B500AF84
S214401AB00920084B98470A20064B98470B20054BB1
S214401AC098470C20034B98470D20024B984700BF81
S214401AD080BD00BF911A400080B489B000AF7860E6
S214401AE07B68FB61FB69BB61BB695A09FB697B612B
S214401AF07B6903F01F03012101FA03F33A61FB609F
S214401B003B69BB60BB6803F5001303F207735B02D7
S214401B101A46FB68536000BF2437BD465DF8047B19
S214401B20704780B48DB000AF786039607B68FB62E8
S214401B303B68BB62FB6A7B627B6A5A09FB6A3B6214
S214401B403B6A03F01F03012101FA03F3FA61BB610C
S214401B50BB6A7B61FB693B613B6903F5001303F29B
S214401B6007735B02FB607B6903F00803002B03D01E
S214401B70FB68BA695A6602E0FB68BA691A667B690E
S214401B8003F01003002B04D0FB68BA69C3F8942016
S214401B9003E0FB68BA69C3F890207B6903F0200332
S214401BA0002B03D0FB68BA691A6502E0FB68BA6985
S214401BB05A657B6903F0C003002B03D0FB68BA6903
S214401BC01A6202E0FB68BA695A627B6903F08003D6
S214401BD0002B04D0FB68BA69C3F8842003E0FB6896
S214401BE0BA69C3F880207B6903F00103002B06D056
S214401BF0FB681A6FBB691A43FB681A6706E0FB6806
S214401C001A6FBB69DB431A40FB681A677B6903F0AF
S214401C100203002B06D0FB685A6FBB691A43FB6869
S214401C205A6706E0FB685A6FBB69DB431A40FB689D
S214401C305A6700BF3437BD465DF8047B704780B4B2
S214401C408DB000AF78600B46FB707B68FB62FB781C
S214401C5087F82B30FB6A7B627B6A3B623B6A5B0998
S214401C60FB61FB6903F5001303F207735B02BB617C
S214401C7097F82B30012B09D1FB6A7B617B6903F017
S214401C801F0301229A40BB691A610CE097F82B307B
S214401C90002B08D1FB6A3B613B6903F01F0301221E
S214401CA09A40BB695A61FB6AFB60FB6803F01F03FE
S214401CB001229A40BB69C3F8A02000BF3437BD4616
S214401CC05DF8047B704780B48BB000AF78600B46FD
S214401CD0FB707B687B62FB7887F823307B6AFB610E
S214401CE0FB69BB61BB695B097B617B6903F50013DC
S214401CF003F207735B023B6197F82330002B09D051
S214401D007B6AFB60FB6803F01F0301229A403B6935
S214401D101A6308E07B6ABB60BB6803F01F030122BE
S214401D209A403B695A6300BF2C37BD465DF8047B3A
S214401D307047000080B48DB000AF78600B46FB70F3
S214401D407B68FB62FB7887F82B30FB6A7B627B6A9A
S214401D505A09FB6A3B623B6A03F01F03012101FA02
S214401D6003F3FA61BB6197F82B30FB75FB693B6167
S214401D703B6903F5001303F207735B02FB60FB7DD0
S214401D80013B032B2ED801A252F823F0C11D400080
S214401D90D31D40009D1D4000AF1D4000FB68BA6942
S214401DA0C3F8C420FB68BA69C3F8D0201FE0FB68BC
S214401DB0BA69C3F8C420FB68BA69C3F8D42016E0F1
S214401DC0FB68BA69C3F8C020FB68BA69C3F8D0207C
S214401DD00DE0FB68BA69C3F8C020FB68BA69C3F86F
S214401DE0D42004E0FB68BA69C3F8B42003E0FB687B
S214401DF0BA69C3F8B02000BF3437BD465DF8047BEF
S214401E00704700BF80B500AF344B4FF400425A6075
S214401E10334B984701217620324B98470121762054
S214401E20314B9847002102202E4B984788210220AC
S214401E302E4B9847022102202D4B984702214C20DA
S214401E402A4B98474C202B4B984702214F20274B34
S214401E5098474F20274B984701218220214B98478F
S214401E60012183201F4B984702211C201F4B984777
S214401E701C20204B984702211D201C4B98471D20B4
S214401E801C4B984702211E20184B98471E20194B82
S214401E90984702211F20154B98471F20154B9847FF
S214401EA002211A20114B98471A20124B98470221BC
S214401EB01B200E4B98471B200E4B984700210320B3
S214401EC00A4B984703200B4B984700210420074BAA
S214401ED098470420074B984700BF80BD50180E40D7
S214401EE0AD1A40003F1C4000C71C4000231B40006A
S214401EF0351D4000D91A400080B483B000AF7860EA
S214401F007B68072B25D801A252F823F02D1F4000EE
S214401F10331F4000391F40003F1F4000431F400012
S214401F20471F40004B1F40004F1F40004FF4FA43EE
S214401F3010E04FF400430DE04FF400430AE0084B36
S214401F4008E0084B06E0084B04E0074B02E0064B6F
S214401F5000E0002318460C37BD465DF8047B70470A
S214401F6000093D0000127A00001BB70080B500AFA4
S214401F700620034B984703461B01184680BD00BF0A
S214401F80F91E400080B500AF024B984703465B08F9
S214401F90184680BD6D1F400080B487B000AF154B1B
S214401FA05B687B61134B9B683B61124BDB68FB6055
S214401FB0104BDB69BB600F4B5B6D7B600D4B80222B
S214401FC01A600C4A7B6953600A4A3B699360094A27
S214401FD0FB68D360074ABB68D361064A7B68536593
S214401FE0044B05221A6000BF1C37BD465DF8047BD3
S214401FF0704700BF0000084080B487B000AF7860EC
S214402000396000237B6100233B610023FB607B68D3
S2144020105A003B689A421AD23A687B68B2FBF3F39E
S214402020023BFB603B687A68B3FBF2F2796801FBDF
S21440203002F29B1A002B02D0FB680133FB60FB6860
S2144020405B087B61FB6803F001033B6103E0002310
S2144020507B6100233B61114A104B5B6823F0FF0312
S21440206053600E490D4B5A687B69DBB213434B6095
S2144020703B69002B06D0094A084B5B6843F4803323
S214402080536005E0054A054B5B6823F48033536094
S21440209000BF1C37BD465DF8047B70470000084013
S2144020A080B582B000AF4FF0FF337B600D4B1B6CAA
S2144020B03B607B685A1E7A60002B03D10A4B9847D8
S2144020C000230AE03B6803F02003002BEED03B6879
S2144020D003F01003002BE9D1012318460837BD460C
S2144020E080BD00BF00000840991F400080B586B004
S2144020F000AFF860B9607A60BB6803F03F03FA68E7
S2144021001343FB60BB6803F48073002B1BD0FB6853
S21440211043F48053FB60BB6803F40063002B04D099
S214402120FB6843F08003FB600DE0BB6803F400539C
S214402130002B04D0FB6843F0C003FB6003E0FB6861
S21440214043F04003FB60BB6803F48043002B03D09E
S214402150FB6843F40063FB601C4A7B6813611B4AC0
S214402160FB685361194B1B6C7B61BB6803F480535F
S214402170002B08D07B6903F41F03002B0CD0144BB4
S214402180984700231DE07B6903F41B03002B03D014
S2144021900F4B9847002314E07B6903F00103002BA4
S2144021A0E0D0BB6803F40053002B09D0094B984796
S2144021B0034683F00103DBB2002B01D0002300E08E
S2144021C0012318461837BD4680BD00BF00000840B2
S2144021D0991F4000A120400080B500AF10200A4B58
S2144021E098470A4B72229A60084B7222DA61074B74
S2144021F011225A65054B4FF4E0625A60034B0522A4
S2144022001A6000BF80BD00BFD536400000000840C1
S21440221080B483B000AF0346FB71FB79002B01D13D
S214402220042300E0002318460C37BD465DF8047BC7
S214402230704780B400AF01231846BD465DF8047B66
S2144022407047000080B584B000AF396011461A462A
S2144022500346FB710B46BB7113467B710023FB6044
S2144022600023BB607B79002B06D0194A184B5B6D68
S21440227043F48073536505E0154A154B5B6D23F4B4
S21440228080735365134B9847034619463868124B7C
S2144022909847FB79002B02D10023FB6000BFBB7937
S2144022A0042B06D0082B07D0012B08D10023BB6097
S2144022B005E08023BB6002E0C023BB6000BF04494A
S2144022C0FA68BB681343CB6000BF1037BD4680BD7D
S2144022D000000840851F4000F91F400080B483B0CE
S2144022E000AF0346FB7100BF0C37BD465DF8047B6C
S2144022F07047000080B400AF0C4A0C4B5B6823F478
S21440230060535360094B00221A61084B4FF4106229
S2144023105A6100BF054B1B6C03F00103002BF9D03C
S21440232000BFBD465DF8047B704700BF0000084014
S21440233080B582B000AF786039600C4A0B4B5B6862
S21440234023F460535360094A084B5B6823F4004308
S2144023505360064B00229A613A6879680020044B25
S2144023609847034618460837BD4680BD00000840DB
S214402370ED20400080B400AF034B1B6A1846BD46B4
S2144023805DF8047B704700BF0000084080B485B00D
S21440239000AF78600023FB7324E0174B1B6ABB60DA
S2144023A0BB681B0EDAB27B681A707B6801337B60B1
S2144023B0BB681B0CDAB27B681A707B6801337B60A3
S2144023C0BB681B0ADAB27B681A707B6801337B6095
S2144023D0BB68DAB27B681A707B6801337B60FB7B34
S2144023E00133FB73FB7B032BD7D900BF1437BD46A5
S2144023F05DF8047B704700BF0000084080B586B09B
S21440240000AFF860B96011461A460B46FB8013468B
S214402410BB8097F82030002B06D03D4A3C4B5B688B
S21440242043F40043536005E0394A394B5B6823F474
S21440243000435360364A364B5B6843F4C0535360A0
S214402440FB8803F00303002B06D0314A304B5B6811
S21440245043F40053536005E02D4A2D4B5B6823F44C
S21440246000535360FB6803F40043002B03D04FF443
S21440247080337B6102E04FF4A0237B61FB6803F46A
S2144024808033002B09D07B6943F400137B61204ADC
S214402490FB88C3F30803936127E01D49FB881A04B1
S2144024A0BB8813438B61FB6803F40033002B04D0D6
S2144024B07B6943F420137B6117E0FB6803F48023B9
S2144024C0002B04D07B6943F480137B610DE0FB68EE
S2144024D003F40023002B08D1FB6803F48013002B81
S2144024E003D07B6943F400237B610A4B00221A60C9
S2144024F0094AFB881380094ABB881380BA68F96882
S2144025007869074B9847034618461837BD4680BD3E
S2144025100000084084040020880400208A0400202C
S214402520ED20400080B584B000AF78601E4B1B6C39
S214402530FB60FA681D4B1340002B03D01C4B98479A
S21440254000232CE0FB6803F00203002BEED0164B72
S2144025501A6B7B681A60174B1B680433154A136066
S214402560154B1B881A46154B1B8803FB02F2114B72
S2144025701B689A4201D9012311E00B4B1B6CFB6090
S214402580FA680A4B1340002B03D0094B98470023A8
S21440259005E0FB6803F00063002BEED001231846ED
S2144025A01037BD4680BD00BF00000840000060C038
S2144025B0991F400084040020880400208A040020DC
S2144025C080B485B000AF78600B467B807B88214A1C
S2144025D0128802FB03F3FB607B6803F00303002BC7
S2144025E005D11C4B1B8803F00303002B06D01A4A68
S2144025F0194B5B6843F40053536005E0164A164B8C
S2144026005B6823F400535360134A7B68C2F800317A
S214402610114A114B5B6803F40053002B02D1FB6850
S2144026209B0800E0FB68C2F804310B4B0022C3F85D
S2144026301421094B0122C3F82021084B1A68FB6875
S2144026401344064A1360012318461437BD465DF806
S214402650047B704788040020000008408404002063
S21440266080B582B000AF1C4B1B6C7B607A681B4BFE
S2144026701340002B08D0184B40F20222C3F820210A
S214402680174B9847002323E07B6803F48043002BD6
S214402690E9D0144B1B881A46134B1B8803FB02F2E7
S2144026A0124B1B689A4201D9012311E00A4B1B6C5E
S2144026B07B607A68094B1340002B03D0084B984741
S2144026C0002305E07B6803F00063002BEED0012377
S2144026D018460837BD4680BD00000840000060C070
S2144026E0991F4000880400208A04002084040020AB
S2144026F080B400AFFEE7000080B483B000AFEFF3D5
S21440270010837B607B68002B0CBF01230023DBB269
S2144027103B6072B6BFF35F8F044B00221A703B6873
S21440272018460C37BD465DF8047B70470A0000200B
S21440273080B483B000AF78607B68002B14BF012361
S2144027400023DBB218460C37BD465DF8047B704765
S21440275080B582B000AF78607868074B98470346EC
S214402760002B05D0054B01221A70BFF35F8F62B66F
S21440277000BF0837BD4680BD312740000A00002014
S21440278080B584B000AF1E4BFB601E4BBB60FA6842
S214402790BB689A420CD007E0BB681A1DBA60FA685C
S2144027A0111DF96012681A60BB68174A9342F3D34A
S2144027B0164BBB6004E0BB681A1DBA6000221A6064
S2144027C0BB68134A9342F6D3124BFB60124AFB682F
S2144027D023F07F039360114B98477860104A104B64
S2144027E01B6843F470031360BFF34F8FBFF36F8FC4
S2144027F078680C4B98470C4B98470C4B9847FEE72D
S214402800C4404000000000203C0400203C0400205F
S214402810580500200000400000ED00E0F92640008A
S21440282088ED00E051274000413D4000312A4000FD
S21440283080B400AF524B1B6B03F00303012B14D044
S214402840012B02D3022B38D07AE04E4B5B6903F063
S2144028508003002B04D04C4B4FF400421A606FE0CC
S214402860494B4FF4FA421A606AE0454B1B6A03F044
S2144028708073002B03D0444B444A1A6060E0424BBE
S214402880434A1A603E4B1B6A03F07003102B04D079
S214402890202B08D0002B0ED00EE03B4B1B685B0075
S2144028A0394A136008E0384B1A6813465B001344F5
S2144028B0354A136000E000BF42E0314B1B6A03F02C
S2144028C08073002B03D0304B304A1A601CE02E4BEE
S2144028D02F4A1A602A4B1B6A03F07003102B04D051
S2144028E0202B08D0002B0ED00EE0274B1B685B0039
S2144028F0254A136008E0244B1A6813465B001344CD
S214402900214A136000E000BF1D4B1B6B03F003031E
S214402910022B14D11A4B9B6A1B0CC3F30A030133D8
S214402920194A126802FB03F3174A1360144B9B6A5A
S214402930DBB2154A1268B2FBF3F3134A136000BFCA
S2144029400F4B1B6B03F07003702B08D10E4B1B68AC
S214402950104AA2FB03235B080B4A13600AE0084BAD
S2144029601B6B1B0903F00703074A126822FA03F39E
S214402970054A136000BFBD465DF8047B704700BF44
S21440298000040E4010180E400C000020001BB7003C
S21440299000093D00ABAAAAAA80B483B000AF786015
S2144029A07B68194A934204D8184B4FF080621A60ED
S2144029B023E07B68164A934203D8144B154A1A60A4
S2144029C01BE07B68144A934203D8104B134A1A60A4
S2144029D013E07B68124A934203D80C4B114A1A60A4
S2144029E00BE07B68104A934204D8084B4FF0042211
S2144029F01A6002E0054B0D4A1A6000BF0C37BD4610
S214402A005DF8047B704700BFFF2C3101000A0E4082
S214402A10FF59620200010004FF869303000200048F
S214402A20FFB3C40400030004FFE0F50500050004FE
S214402A3080B500AF024B9847024B9847FCE700BF73
S214402A400D0740003D07400080B582B000AF78607B
S214402A507B68072B31D801A252F823F0B92A4000F0
S214402A607D2A4000852A40008D2A4000952A400055
S214402A709D2A4000A52A4000AF2A40000020114B66
S214402A8098471AE001200F4B984716E000200E4B5F
S214402A90984712E010200C4B98470EE020200A4B37
S214402AA098470AE03E210020084B984705E03E2123
S214402AB00120064B984700E000BF00BF0837BD46E0
S214402AC080BD00BF2D354000993540000936400096
S214402AD080B582B000AF78607B68072B26D801A20D
S214402AE052F823F0052B4000092B4000092B4000EC
S214402AF01B2B40001B2B40001B2B40001B2B400079
S214402B001B2B4000012312E00B4B98470346002B3B
S214402B1014BF01230023DBB209E0084B9847034665
S214402B20002B14BF01230023DBB200E0002318462D
S214402B300837BD4680BD00BF653540008136400041
S214402B4080B483B000AF78607B68072B25D801A29D
S214402B5052F823F0752B40007B2B4000812B400021
S214402B60872B40008B2B40008F2B4000932B400040
S214402B70972B40004FF4FA4310E04FF400430DE02B
S214402B804FF400430AE0084B08E0084B06E0084BC9
S214402B9004E0074B02E0064B00E0002318460C37E3
S214402BA0BD465DF8047B704700093D0000127A0080
S214402BB0001BB70080B582B000AF0346FB7100BF74
S214402BC0FB791846054B9847034683F00103DBB272
S214402BD0002BF5D100BF0837BD4680BDD12A400046
S214402BE080B586B000AFF8607A603B600B46FB72FB
S214402BF0FB7A18460D4B984702467B68B2FBF3F3C8
S214402C007B617B693A6802FB03F37B613B68013B6F
S214402C101A04074B13407A68D2B2134343F47C52EB
S214402C20FB681A6000BF1837BD4680BD412B400088
S214402C300000FF0780B582B000AF786039603B681F
S214402C40002B07D1054B9847054A7B681B6843F025
S214402C500053936200BF0837BD4680BD9D36400096
S214402C6000040E4080B582B000AF7860034B9847B2
S214402C70034618460837BD4680BD00BFB9364000FB
S214402C8080B582B000AF0346FB71FB79033B042B53
S214402C9008D8FB791846064B9847FB791846054BEB
S214402CA0984700E000BF00BF0837BD4680BD00BF64
S214402CB0492A4000B52B400080B582B000AF78600E
S214402CC000BF7868044B98470346002BF9D0002392
S214402CD018460837BD4680BD652C400080B500AF1D
S214402CE00620034B984703461B01184680BD00BF8D
S214402CF0412B400080B500AF024B984703465B0827
S214402D00184680BDDD2C400090B583B000AF11481A
S214402D10114B98470620114B9847381D1023012227
S214402D2006210F4CA0473B1D002118460D4B9847E7
S214402D3000200D4B984710200C4B98470C4B98475B
S214402D400C4B984703461846034B984700BF0C3732
S214402D50BD4690BD000E270799294000812C4000B3
S214402D60E12B4000352C4000B92C4000A9344000EF
S214402D7031284000F52C400080B584B000AF786024
S214402D80396078682C4B9847F86078682B4B9847A2
S214402D900246FB681340FB60FB68002B3CD00023D8
S214402DA0BB6034E0264ABB681B0113441A683B6884
S214402DB09A4226D1224ABB681B01134404331A6840
S214402DC0FB681340002B1CD01D4ABB681B011344F4
S214402DD00C331B681A49BA6812010A44106818492D
S214402DE0BA6812010A440432126811469847144AD7
S214402DF0BB681B01134404331B68DB43FA6813406B
S214402E00FB60BB680133BB60BB68062B03D8FB681E
S214402E10002BC7D100E000BF0A4B1B68002B07D031
S214402E20094B1B68002B03D0074B1B6878689847F4
S214402E3000BF1037BD4680BD793440009134400015
S214402E408C04002030050020FC04002080B500AF34
S214402E5009210248024B984700BF80BD000E0E4035
S214402E60792D400080B500AF0A210248024B9847B2
S214402E7000BF80BD00100E40792D400080B500AFE9
S214402E800B210248024B984700BF80BD00120E40FF
S214402E90792D400080B500AF0C210248024B984780
S214402EA000BF80BD00140E40792D400080B500AFB5
S214402EB00D210248024B984700BF80BD00160E40C9
S214402EC0792D400080B58AB000AFF860B9607A606E
S214402ED07B6846F2A81202FB03F2BB6813445A1EF4
S214402EE07B6846F2A81101FB03F3B2FBF3F3802B99
S214402EF001D9002386E0BB685A087B684FF4FA5134
S214402F0001FB03F39A4201D200237BE0082387F8B3
S214402F1027304FF0FF333B620823FB772AE0FB7FE6
S214402F207A6802FB03F34FF47A7202FB03F3BA6843
S214402F30B2FBF3F3802B1AD8FB7F7A6802FB03F3CD
S214402F404FF47A7202FB03F2BB68B3FBF2F102FB6A
S214402F5001F29B1ABB61BA693B6A9A4207D2BB69C7
S214402F603B62FB7F87F827303B6A002B06D0FB7F0F
S214402F700133FB77FB7F192BD1D900E000BF97F8D0
S214402F8027307A6802FB03F34FF47A7202FB03F3AE
S214402F90BA68B2FBF3F3FB75FB7D012B01D8002327
S214402FA030E097F82730A3F1080213465B0013443D
S214402FB05B00164A13443B61F868154B98473B69DB
S214402FC0DB78013B03F007023B699B78013B1B0122
S214402FD003F070031A433B695B78013B1B0203F422
S214402FE0E0631A433B691B79013B1B0303F44053E0
S214402FF01A43FB7D013B1B0403F4FE031A43FB68A4
S2144030005A61012318462837BD4680BD28404000F7
S214403010BD30400080B586B000AFF860B9607A60D9
S2144030207A68B968F868174B984778617B69002BCF
S21440303001D1002321E0F868134B9847F868134BFA
S214403040984700237B6100233B6106E0F868104BFD
S214403050984778613B6901333B617B6903F4001311
S214403060002B03D13B690B4A9342EFD93B690A4A8E
S214403070934201D1002300E0012318461837BD468D
S21440308080BD00BFC52E4000253340009D30400027
S214403090DD3040009F860100A086010080B483B0EA
S2144030A000AF78607B681B6843F001027B681A605B
S2144030B000BF0C37BD465DF8047B704780B483B0D4
S2144030C000AF78607B681B6823F001027B681A605B
S2144030D000BF0C37BD465DF8047B704780B483B0B4
S2144030E000AF78607B681B6918460C37BD465DF8B4
S2144030F0047B704780B485B000AF78600B46FB70A9
S2144031007B685B6A23F0FF03FB60FA78FB681A4330
S2144031107B685A6200BF1437BD465DF8047B704733
S21440312080B483B000AF78600B46FB70FB787A685B
S2144031305B01134403F504731B6818460C37BD4601
S2144031405DF8047B704780B485B000AF7860396026
S2144031503B681B68FB733B681B79002B2FD1FB7BBE
S2144031607A6810335B01134400221A60FB7B7A684E
S21440317010335B011344043300221A60FB7B7A68E9
S2144031805B01134403F5027300221A60FB7B7A68E6
S2144031905B01134403F5057300221A60FB7B7A68D3
S2144031A05B01134403F5067300221A60FB7B7A68C2
S2144031B05B01134403F5077300221A6050E0FB7B63
S2144031C0FA7B7968103252010A44126822F470225F
S2144031D03968C97909040A43796810335B010B449E
S2144031E01A603B685B79002B16D0FB7B3A68D26846
S2144031F042F00052796810335B010B4404331A6086
S214403200FB7B3A68126942F0005279685B010B44D6
S21440321003F502731A6011E0FB7B3A68D26879685E
S21440322010335B010B4404331A60FB7B3A68126927
S21440323079685B010B4403F502731A60FB7BFA7BEB
S2144032407968103252010A44126822F0E062396806
S214403250097909060A43796810335B010B441A6002
S2144032601437BD465DF8047B7047000080B584B0D7
S21440327000AF786039603B681B68FB73FB7B194680
S2144032807868274B984702463B689A603B689B683D
S214403290BB60BB6803F40003002B01D101233BE075
S2144032A03B685B79002B0BD0FB7B3A68126942F097
S2144032B0005279685B010B4403F502731A6008E01C
S2144032C0FB7B3A68126979685B010B4403F502732D
S2144032D01A60FB7B3A68926979685B010B4403F598
S2144032E005731A603B689B79042B08D9FB7B3A68C8
S2144032F0D26979685B010B4403F506731A60FB7B61
S2144033003A689279120402F4702279685B010B44A1
S21440331003F507731A60002318461037BD4680BD74
S2144033202131400080B58CB000AF786000233B74FC
S214403330002387F82F300DE097F82F30FB6007F119
S2144033400C0319467868074B984797F82F30013397
S21440335087F82F3097F82F30072BEDD900BF30373E
S214403360BD4680BD4731400080B487B000AFF860AE
S214403370B9607A60FB687A685A64BB68B3F1C05F2C
S2144033804AD0B3F1C05F08D8B3F1006F16D0B3F19E
S214403390805F2CD0002B69D064E0B3F1205F65D00D
S2144033A0B3F1205F03D8B3F1005F4AD05AE0B3F1DF
S2144033B0405F5BD0B3F1605F58D053E0FB681B6F53
S2144033C07B61FB681A6F7B68D9437B690B401A4068
S2144033D0FB681A67FB685B6F7B61FB685A6F7B68AC
S2144033E0D9437B690B401A40FB685A673AE0FB6852
S2144033F01B6F7B617A687B691A43FB681A67FB68B8
S2144034005B6F7B61FB685A6F7B68D9437B690B4077
S2144034101A40FB685A6725E0FB681B6F7B61FB68B8
S2144034201A6F7B68D9437B690B401A40FB681A6762
S214403430FB685B6F7B617A687B691A43FB685A67F7
S21440344010E0FB681B6F7B617A687B691A43FB68F8
S2144034501A67FB685B6F7B617A687B691A43FB6817
S2144034605A6700BFFB687A685A6000E000BF1C37A6
S214403470BD465DF8047B704780B483B000AF78608B
S2144034807B68DB6C18460C37BD465DF8047B70479E
S21440349080B483B000AF78607B689B6C18460C376E
S2144034A0BD465DF8047B704780B485B000AF786059
S2144034B01D491D4B1B6B23F070027B6813430B6347
S2144034C04FF40063FB6007E0FB68002B01D101234B
S2144034D023E0FB68013BFB60134B9B6E03F0080345
S2144034E0002BF1D0104A104B1B6B23F0030343F024
S2144034F0020313634FF40063FB6007E0FB68002B96
S21440350001D1012309E0FB68013BFB60064B9B6E43
S21440351003F00803002BF1D0002318461437BD46AD
S2144035205DF8047B704700BF00040E4080B483B053
S21440353000AF78607B68012B07D1084A074B9B6831
S21440354043F0254343F480139360044B044A1A60C7
S21440355000BF0C37BD465DF8047B704710180E4020
S214403560080000A580B400AF094B5B6903F08003F8
S214403570002B07D0074B9B6E03F08003002B01D037
S214403580012300E000231846BD465DF8047B7047E3
S21440359010180E4000040E4080B483B000AF786030
S2144035A0184A184B1B6A43F45C1343F00803136233
S2144035B000BF144B9B6E03F40033002BF9D0114927
S2144035C0104B1B6A23F45C1323F070037A68134392
S2144035D043F45C130B6200BF0A4B9B6E03F400334C
S2144035E0002BF9D0074A074B1B6A23F09B7323F442
S2144035F0803343F45C13136200BF0C37BD465DF85E
S214403600047B704700040E4080B483B000AF7860FF
S21440361039607B68002B08D01649164B1B6A164A41
S2144036201A40164B13430B621EE01249114B1B6A9D
S21440363023F45C1323F003033A68120292B2134356
S21440364043F45C1343F001030B6200BF094B9B6ECF
S21440365003F00103002BF9D0064A064B1B6A43F0E1
S2144036609B7343F48033136200BF0C37BD465DF84E
S214403670047B704700040E40FCFFC8FE0200370182
S21440368080B400AF044B9B6E03F480331846BD46AF
S2144036905DF8047B704700BF00040E4080B400AF66
S2144036A0044B4FF000529A6200BFBD465DF8047B63
S2144036B0704700BF00040E4080B400AF044B9B6EC2
S2144036C003F002031846BD465DF8047B704700BF12
S2144036D000040E4080B483B000AF78607B682F2B28
S2144036E001D901232FE07B681F2B13D8194B9A6909
S2144036F001217B6801FA03F31A4001217B6801FA35
S21440370003F39A421ED0134A01217B6801FA03F361
S214403710136117E07B68203B7B600E4BD3F8082193
S21440372001217B6801FA03F31A4001217B6801FA04
S21440373003F39A4206D0074A01217B6801FA03F355
S214403740C2F80031002318460C37BD465DF8047BAE
S214403750704700BF00040E4080B483B000AF78606E
S2144037607B6808221A607B6820221A607B680422E5
S2144037701A6000BF0C37BD465DF8047B70470000FA
S21440378080B584B000AF786039600023FB607B680A
S2144037904FF0FF329A627B681B6A78680E4B9847F8
S2144037A078680E4B98473B6859683B681B681A46D2
S2144037B078680B4B98470346012B01D10123FB60E9
S2144037C03B685B7A012B02D17B6840221A60FB681B
S2144037D018461037BD4680BD113A40005937400064
S2144037E0E537400080B489B000AFF860B9607A60D1
S2144037F00023FB61BB68344A934201D901235DE054
S214403800BB68324A934237D97B68314AA2FB0323CE
S2144038109B0B043B7B61BA682E4B13449B007A6833
S214403820B2FBF3F3043B3B6105E0FB690133FB610C
S2144038307B695B087B617B69FF2B09D9FB69062B9B
S214403840F3D905E0FB690133FB613B695B083B61EB
S2144038503B69FF2B02D9FB69062BF3D97B69DAB2A9
S2144038603B691B029BB21A43FB691B0403F4E0232B
S2144038701A43FB681A6120E0BB685B007A68B2FBBB
S214403880F3F3043BBB6105E0FB690133FB61BB69B5
S2144038905B08BB61BB69FF2B02D9FB69062BF3D9DA
S2144038A0BB69DAB2BB691B029BB21A43FB691B04B5
S2144038B003F4E0231A43FB681A61002318462437B2
S2144038C0BD465DF8047B7047801A060000DC0500A4
S2144038D0F11976050012FD3F80B485B000AF7860E0
S2144038E039603B68002B01D100231DE07B681B78C4
S2144038F0FB603B68012B09DDFB681B02FB607B68B5
S21440390001331B781A46FB681343FB603B68022B67
S21440391009DDFB681B02FB607B6802331B781A4696
S214403920FB681343FB60FB6818461437BD465DF8DA
S214403930047B704780B586B000AF786039603B68DE
S214403940DB687B613B689B683B617B69002B01D1F0
S214403950012356E07B6800225A603B681B7C1B04B0
S21440396003F4FE023B685B681B0203F440731A4391
S2144039707B685A607B680022DA603A683B685B681E
S21440398019461046214B984702467B68DA6019E094
S2144039907B681B6AFB60FB6803F48073002B01D0D6
S2144039A005232EE0FB6803F00403002B00D109E05A
S2144039B03B695A1C3A611B781A467B685A637B6996
S2144039C0013B7B617B69002BE2D17B681B6AFB6015
S2144039D0FB6803F48073002B01D0052311E0FB68DD
S2144039E003F00403002B00D1EFE700BF7B68022200
S2144039F01A6000BF7B681B6A03F00103002BF9D0F6
S214403A00002318461837BD4680BD00BFD938400051
S214403A1080B483B000AF78607B6880221A607B6891
S214403A201B6B00BF0C37BD465DF8047B704700003B
S214403A3053B94AB9002908BF00281CBF4FF0FF31D0
S214403A404FF0FF3000F07AB9ADF1080C6DE904CEC6
S214403A5000F006F8DDF804E0DDE9022304B0704724
S214403A602DE9F0478C460D460446089E002B51D162
S214403A708A4217466DD9B2FA82FEBEF1000F0BD0CD
S214403A80CEF1200C01FA0EF520FA0CFC02FA0EF7E5
S214403A904CEA050C00FA0EF44FEA174A250CBCFB1C
S214403AA0FAF81FFA87F90AFB18CC45EA0C4508FBDA
S214403AB009F3AB420AD9ED1908F1FF3280F02381B1
S214403AC0AB4240F22081A8F102083D44ED1AA4B270
S214403AD0B5FBFAF00AFB105544EA054400FB09F929
S214403AE0A14509D9E41900F1FF3380F00A81A145C8
S214403AF040F2078102383C44A4EB090440EA0840FF
S214403B000021002E61D024FA0EF400233460736046
S214403B10BDE8F0878B4207D9002E54D0002186E8B6
S214403B2021000846BDE8F087B3FA83F1002940F04B
S214403B308E80AB4202D3824200F2FA80841A65EB52
S214403B4003050120AC46002E3FD086E81010BDE8A5
S214403B50F08712B90127B7FBF2F7B7FA87FEBEF136
S214403B60000F34D1EB1B3A0C1FFA87FC0121B3FB44
S214403B70F2F8250C02FB183345EA03450CFB08F324
S214403B80AB4207D9ED1908F1FF3002D2AB4200F242
S214403B90D1808046ED1AA3B2B5FBF2F002FB105579
S214403BA043EA05440CFB00FCA44507D9E41900F1A0
S214403BB0FF3302D2A44500F2B8801846A4EB0C04AA
S214403BC040EA08409DE731463046BDE8F087CEF1F2
S214403BD0200405FA0EF307FA0EF720FA04F83A0C1A
S214403BE025FA04F448EA0308B4FBF2F14FEA184514
S214403BF002FB11441FFA87FC45EA044501FB0CF31F
S214403C00AB4200FA0EF409D9ED1901F1FF3080F00D
S214403C108A80AB4240F2878002393D44EB1A1FFA55
S214403C2088F5B3FBF2F002FB103345EA034500FB90
S214403C300CF3AB4207D9ED1900F1FF386FD2AB4217
S214403C406DD902383D44EB1A40EA01418FE7C1F195
S214403C50200722FA07F88B4005FA01F448EA0303E6
S214403C6020FA07FE4FEA134CFD404EEA040EB5FB21
S214403C70FCF94FEA1E440CFB19551FFA83F844EA38
S214403C80054509FB08F4AC4202FA01F200FA01FAD3
S214403C9008D9ED1809F1FF3043D2AC4241D9A9F119
S214403CA002091D442D1B1FFA8EFEB5FBFCF00CFBD3
S214403CB010554EEA054400FB08F8A04507D9E4181D
S214403CC000F1FF3529D2A04527D902381C4440EAE6
S214403CD00940A4EB0804A0FB02894C45C6464D4665
S214403CE015D312D056B1BAEB0E0364EB050404FAB2
S214403CF007F7CB401F43CC40376074600021BDE8D7
S214403D00F0871846F8E69046E0E6C245EAD2B8EBB9
S214403D10020E69EB03050138E4E72846D7E740463C
S214403D2091E78146BEE7014678E702383C4445E7DE
S214403D30084608E7A8F102083D442BE7704700BF55
S214403D4070B50F4E0F4D761BB61018BF002405D029
S214403D50013455F8043B9847A642F9D10A4E0B4D1C
S214403D60761B00F099F9B61018BF002406D001342F
S214403D7055F8043B9847A642F9D170BD70BD00BFC8
S214403D80A4404000A4404000AC404000A440400056
S214403D9070B4860746D0541E002A41D0CAB20346A5
S214403DA002E014F1FF343BD303F8012B9D07F8D112
S214403DB0032C2ED9CDB245EA05250F2C45EA0545FC
S214403DC019D903F110022646103E0F2E42F8105C19
S214403DD042F80C5C42F8085C42F8045C02F11002BF
S214403DE0F2D8A4F1100222F00F0204F00F041032B1
S214403DF0032C13440DD91E462246043A032A46F89D
S214403E00045BFAD8221F22F003020432134404F063
S214403E1003042CB1C9B21C4403F8011B9C42FBD1DD
S214403E2070BC704714460346C2E700BF024B13B14E
S214403E30024800F005B87047000000004D3E4000C4
S214403E40002301461A46184600F01EB838B50A4CFC
S214403E500A4D641BA4100AD004F18043013B05EBD5
S214403E608305013C55F804399847002CF9D1BDE844
S214403E70384000F01BB900BFBC404000B84040008E
S214403E80704700BF704700BF2DE9F8432C4D0646EB
S214403E90286898460F469146FFF7F2FF294B1C6864
S214403EA0D4F84831002B3ED05A681F2A1CDC02F159
S214403EB0010E76B103EB82010124C1F88890D3F855
S214403EC0880194402043022EC3F88801C1F8088137
S214403ED023D00232C3F804E0286843F82270FFF784
S214403EE0D1FF0020BDE8F883174B0BB34FF4C870E2
S214403EF0AFF300800346D8B1D4F8482102600021D1
S214403F0041600A46C4F848014FF0010EC0F88811D7
S214403F10C0F88C11002EDCD0CCE7D3F88C110C43C3
S214403F20C3F88C41D5E704F5A673C4F84831BBE71F
S214403F302868FFF7A7FF4FF0FF30BDE8F88300BFC3
S214403F4038040020944040000000000000000208B2
S214403F50022A027103000272030002790281027F84
S214403F6002D5026002D9027802DA021002DB024071
S214403F7002DC0203047802780209020602280201E3
S214403F8002020206020C0405010100000A000000BD
S214403F9064000000E8030000102700000000000056
S214403FA00000000000000000000000000A000000C2
S214403FB00C0000000D0000000F0000001400000080
S214403FC0190000001E00000023000000280000002A
S214403FD02D00000032000000370000003C000000CA
S214403FE04600000050000000000000000A000000EC
S214403FF00C0000000D0000000F0000001400000040
S2144040001A0000001E0000002300000028000000E8
S2144040102D00000034000000370000003C00000087
S214404020460000005000000008030202034B09024D
S214404030030302430A03030303460B040303044833
S2144040400C03040404430D040404044D0E04040548
S21440405004400F04050504431005050504451106F4
S21440406005050447120506060443130606060444DF
S21440407014070606044615080606044716070707EB
S2144040800444170808070446180708080443190894
S2144040900808044410000020F8B500BFF8BC08BC6F
S2144040A09E4670472D3E40001D014000F8B500BFBB
S2104040B0F8BC08BC9E467047F900400073
S20C4040BCA4F9FF7F010000009B
S2144040C4BFF35F8F0138FBD17047010000093D0004
S2144040D400000000FC02002064030020CC03002003
S2144040E40000000000000000000000000000000087
S2144040F40000000000000000000000000000000077
S2144041040000000000000000000000000000000066
S2144041140000000000000000000000000000000056
S2144041240000000000000000000000000000000046
S2144041340000000000000000000000000000000036
S2144041440000000000000000000000000000000026
S2144041540000000000000000000000000000000016
S2144041640000000000000000000000000000000006
S21440417400000000000000000100000000000000F5
S2144041840E33CDAB34126DE6ECDE05000B000000BA
S21440419400000000000000000000000000000000D6
S2144041A400000000000000000000000000000000C6
S2144041B400000000000000000000000000000000B6
S2144041C400000000000000000000000000000000A6
S2104044F40000000000000000340500201E
S80440278113
